{"contracts/RiskEngine.sol":{"RiskEngine":{"abi":[{"inputs":[],"stateMutability":"nonpayable","type":"constructor"},{"anonymous":false,"inputs":[{"indexed":false,"internalType":"uint256","name":"newBaseBps","type":"uint256"}],"name":"BaseInterestUpdated","type":"event"},{"anonymous":false,"inputs":[{"indexed":true,"internalType":"address","name":"user","type":"address"},{"indexed":false,"internalType":"uint8","name":"score","type":"uint8"},{"indexed":false,"internalType":"uint256","name":"dailyLimit","type":"uint256"}],"name":"RiskInitialized","type":"event"},{"anonymous":false,"inputs":[{"indexed":false,"internalType":"uint256","name":"newSlopeBps","type":"uint256"}],"name":"RiskSlopeUpdated","type":"event"},{"anonymous":false,"inputs":[{"indexed":true,"internalType":"address","name":"user","type":"address"},{"indexed":false,"internalType":"uint8","name":"score","type":"uint8"},{"indexed":false,"internalType":"uint256","name":"dailyLimit","type":"uint256"}],"name":"RiskUpdated","type":"event"},{"anonymous":false,"inputs":[{"indexed":true,"internalType":"bytes32","name":"role","type":"bytes32"},{"indexed":true,"internalType":"bytes32","name":"previousAdminRole","type":"bytes32"},{"indexed":true,"internalType":"bytes32","name":"newAdminRole","type":"bytes32"}],"name":"RoleAdminChanged","type":"event"},{"anonymous":false,"inputs":[{"indexed":true,"internalType":"bytes32","name":"role","type":"bytes32"},{"indexed":true,"internalType":"address","name":"account","type":"address"},{"indexed":true,"internalType":"address","name":"sender","type":"address"}],"name":"RoleGranted","type":"event"},{"anonymous":false,"inputs":[{"indexed":true,"internalType":"bytes32","name":"role","type":"bytes32"},{"indexed":true,"internalType":"address","name":"account","type":"address"},{"indexed":true,"internalType":"address","name":"sender","type":"address"}],"name":"RoleRevoked","type":"event"},{"inputs":[],"name":"DEFAULT_ADMIN_ROLE","outputs":[{"internalType":"bytes32","name":"","type":"bytes32"}],"stateMutability":"view","type":"function"},{"inputs":[],"name":"RISK_OFFICER_ROLE","outputs":[{"internalType":"bytes32","name":"","type":"bytes32"}],"stateMutability":"view","type":"function"},{"inputs":[],"name":"baseInterestBps","outputs":[{"internalType":"uint256","name":"","type":"uint256"}],"stateMutability":"view","type":"function"},{"inputs":[{"internalType":"uint256","name":"totalBorrowed","type":"uint256"},{"internalType":"uint256","name":"totalLiquidity","type":"uint256"}],"name":"calculateUtilizationRateBps","outputs":[{"internalType":"uint256","name":"","type":"uint256"}],"stateMutability":"view","type":"function"},{"inputs":[{"internalType":"address","name":"user","type":"address"}],"name":"getDailyLimit","outputs":[{"internalType":"uint256","name":"","type":"uint256"}],"stateMutability":"view","type":"function"},{"inputs":[{"internalType":"uint256","name":"totalBorrowed","type":"uint256"},{"internalType":"uint256","name":"totalDeposits","type":"uint256"}],"name":"getDepositRateBps","outputs":[{"internalType":"uint256","name":"","type":"uint256"}],"stateMutability":"view","type":"function"},{"inputs":[{"internalType":"address","name":"user","type":"address"},{"internalType":"uint256","name":"totalBorrowed","type":"uint256"},{"internalType":"uint256","name":"totalLiquidity","type":"uint256"}],"name":"getInterestRateBps","outputs":[{"internalType":"uint256","name":"","type":"uint256"}],"stateMutability":"view","type":"function"},{"inputs":[{"internalType":"address","name":"user","type":"address"}],"name":"getRiskScore","outputs":[{"internalType":"uint8","name":"","type":"uint8"}],"stateMutability":"view","type":"function"},{"inputs":[{"internalType":"bytes32","name":"role","type":"bytes32"}],"name":"getRoleAdmin","outputs":[{"internalType":"bytes32","name":"","type":"bytes32"}],"stateMutability":"view","type":"function"},{"inputs":[{"internalType":"bytes32","name":"role","type":"bytes32"},{"internalType":"address","name":"account","type":"address"}],"name":"grantRole","outputs":[],"stateMutability":"nonpayable","type":"function"},{"inputs":[{"internalType":"bytes32","name":"role","type":"bytes32"},{"internalType":"address","name":"account","type":"address"}],"name":"hasRole","outputs":[{"internalType":"bool","name":"","type":"bool"}],"stateMutability":"view","type":"function"},{"inputs":[{"internalType":"address","name":"user","type":"address"},{"internalType":"uint8","name":"score","type":"uint8"},{"internalType":"uint256","name":"dailyLimit","type":"uint256"}],"name":"initRisk","outputs":[],"stateMutability":"nonpayable","type":"function"},{"inputs":[],"name":"optimalUtilization","outputs":[{"internalType":"uint256","name":"","type":"uint256"}],"stateMutability":"view","type":"function"},{"inputs":[{"internalType":"bytes32","name":"role","type":"bytes32"},{"internalType":"address","name":"account","type":"address"}],"name":"renounceRole","outputs":[],"stateMutability":"nonpayable","type":"function"},{"inputs":[],"name":"reserveFactorBps","outputs":[{"internalType":"uint256","name":"","type":"uint256"}],"stateMutability":"view","type":"function"},{"inputs":[{"internalType":"bytes32","name":"role","type":"bytes32"},{"internalType":"address","name":"account","type":"address"}],"name":"revokeRole","outputs":[],"stateMutability":"nonpayable","type":"function"},{"inputs":[{"internalType":"address","name":"","type":"address"}],"name":"riskProfiles","outputs":[{"internalType":"uint8","name":"riskScore","type":"uint8"},{"internalType":"uint256","name":"dailyTransferLimit","type":"uint256"},{"internalType":"uint256","name":"lastUpdatedAt","type":"uint256"}],"stateMutability":"view","type":"function"},{"inputs":[],"name":"riskSlopeBps","outputs":[{"internalType":"uint256","name":"","type":"uint256"}],"stateMutability":"view","type":"function"},{"inputs":[{"internalType":"uint256","name":"newBaseBps","type":"uint256"}],"name":"setBaseInterestBps","outputs":[],"stateMutability":"nonpayable","type":"function"},{"inputs":[{"internalType":"uint256","name":"newSlopeBps","type":"uint256"}],"name":"setRiskSlopeBps","outputs":[],"stateMutability":"nonpayable","type":"function"},{"inputs":[],"name":"slope1Bps","outputs":[{"internalType":"uint256","name":"","type":"uint256"}],"stateMutability":"view","type":"function"},{"inputs":[],"name":"slope2Bps","outputs":[{"internalType":"uint256","name":"","type":"uint256"}],"stateMutability":"view","type":"function"},{"inputs":[{"internalType":"bytes4","name":"interfaceId","type":"bytes4"}],"name":"supportsInterface","outputs":[{"internalType":"bool","name":"","type":"bool"}],"stateMutability":"view","type":"function"},{"inputs":[{"internalType":"address","name":"user","type":"address"},{"internalType":"uint8","name":"newScore","type":"uint8"},{"internalType":"uint256","name":"newDailyLimit","type":"uint256"}],"name":"updateRisk","outputs":[],"stateMutability":"nonpayable","type":"function"}],"evm":{"bytecode":{"linkReferences":{},"object":"608060405261012c6002556014600355670b1a2bc2ec500000600455610190600555610bb86006556107d060075534801561003957600080fd5b5061004560003361004a565b6100e9565b6000828152602081815260408083206001600160a01b038516845290915290205460ff166100e5576000828152602081815260408083206001600160a01b03851684529091529020805460ff191660011790556100a43390565b6001600160a01b0316816001600160a01b0316837f2f8788117e7eff1d82e926ec794901d17c78024a50270940304540a733656f0d60405160405180910390a45b5050565b6110c9806100f86000396000f3fe608060405234801561001057600080fd5b50600436106101585760003560e01c80639948b18d116100c3578063c899e39f1161007c578063c899e39f14610305578063d203e72814610318578063d547741f1461032b578063dc08706d1461033e578063de0e63cd1461037c578063fc1936451461038557600080fd5b80639948b18d14610272578063a14195a8146102c5578063a217fddf146102ce578063a9bb7c1f146102d6578063ac8555ef146102e9578063c87bed70146102fc57600080fd5b806338a173701161011557806338a17370146101fa57806358f2ef171461020d5780636290cd1c1461023a5780638ecc987e1461024357806391d148541461024c57806397b4a29e1461025f57600080fd5b806301ffc9a71461015d578063024cc72614610185578063248a9ca31461019a5780632f2ff15d146101cb5780633355a6a1146101de57806336568abe146101e7575b600080fd5b61017061016b366004610dcf565b6103ac565b60405190151581526020015b60405180910390f35b610198610193366004610e15565b6103e3565b005b6101bd6101a8366004610e5a565b60009081526020819052604090206001015490565b60405190815260200161017c565b6101986101d9366004610e73565b61052d565b6101bd60035481565b6101986101f5366004610e73565b610557565b610198610208366004610e5a565b6105d5565b6101bd61021b366004610e9f565b6001600160a01b03166000908152600160208190526040909120015490565b6101bd60045481565b6101bd60025481565b61017061025a366004610e73565b61061d565b6101bd61026d366004610eba565b610646565b6102a6610280366004610e9f565b600160208190526000918252604090912080549181015460029091015460ff9092169183565b6040805160ff909416845260208401929092529082015260600161017c565b6101bd60065481565b6101bd600081565b6101986102e4366004610e15565b610781565b6101986102f7366004610e5a565b6108f7565b6101bd60075481565b6101bd610313366004610eba565b610937565b6101bd610326366004610edc565b6109f2565b610198610339366004610e73565b610aad565b61036a61034c366004610e9f565b6001600160a01b031660009081526001602052604090205460ff1690565b60405160ff909116815260200161017c565b6101bd60055481565b6101bd7ffc5e340a927dfb90e4ea870f83d58633458b79a78fd1a48271b299ac1d6db44781565b60006001600160e01b03198216637965db0b60e01b14806103dd57506301ffc9a760e01b6001600160e01b03198316145b92915050565b7ffc5e340a927dfb90e4ea870f83d58633458b79a78fd1a48271b299ac1d6db44761040d81610ad2565b60008360ff16118015610424575060648360ff1611155b6104655760405162461bcd60e51b815260206004820152600d60248201526c696e76616c69642073636f726560981b60448201526064015b60405180910390fd5b6001600160a01b03841660009081526001602052604081208054909160ff90911690036104c65760405162461bcd60e51b815260206004820152600f60248201526e1b9bdd081a5b9a5d1a585b1a5e9959608a1b604482015260640161045c565b805460ff191660ff851690811782556001820184905542600283015560408051918252602082018590526001600160a01b038716917f18d4204980ab91f36d15cb52a910a72e3e50fb5f6deb9cab275b43d5afb9aab9910160405180910390a25050505050565b60008281526020819052604090206001015461054881610ad2565b6105528383610adf565b505050565b6001600160a01b03811633146105c75760405162461bcd60e51b815260206004820152602f60248201527f416363657373436f6e74726f6c3a2063616e206f6e6c792072656e6f756e636560448201526e103937b632b9903337b91039b2b63360891b606482015260840161045c565b6105d18282610b63565b5050565b60006105e081610ad2565b60038290556040518281527ff2ffaa40bdf5bc0b2d26fefa4f8c6cea03eac0aa7e0bc0800424dbdbd3d21028906020015b60405180910390a15050565b6000918252602082815260408084206001600160a01b0393909316845291905290205460ff1690565b6000811580610653575082155b15610660575060006103dd565b60008261066f85612710610f25565b6106799190610f3c565b905061271081111561068a57506127105b600254600454600090670de0b6b3a7640000906106a990612710610f25565b6106b39190610f3c565b90508083116106e65780836005546106cb9190610f25565b6106d59190610f3c565b6106df9083610f5e565b915061073b565b6005546106f39083610f5e565b915060006107018285610f71565b9050600061071183612710610f71565b905080826006546107229190610f25565b61072c9190610f3c565b6107369085610f5e565b935050505b600060075461271061074d9190610f71565b905060006305f5e100826107618787610f25565b61076b9190610f25565b6107759190610f3c565b98975050505050505050565b7ffc5e340a927dfb90e4ea870f83d58633458b79a78fd1a48271b299ac1d6db4476107ab81610ad2565b60008360ff161180156107c2575060648360ff1611155b6107fe5760405162461bcd60e51b815260206004820152600d60248201526c696e76616c69642073636f726560981b604482015260640161045c565b6001600160a01b03841660009081526001602052604090205460ff161561085d5760405162461bcd60e51b8152602060048201526013602482015272185b1c9958591e481a5b9a5d1a585b1a5e9959606a1b604482015260640161045c565b6040805160608101825260ff8581168083526020808401878152428587019081526001600160a01b038b1660008181526001808652908990209751885460ff1916971696909617875591519486019490945592516002909401939093558351908152918201859052917fd42e04cb40b38a318fb690e23b3d4c17bc6ca8d0e866948391fbecae41746261910160405180910390a250505050565b600061090281610ad2565b60028290556040518281527f6d03c7415b161a70a92558f9a9bfa64827f4f79bd7550dfffa9f0a24e5a61ddc90602001610611565b600081600003610949575060006103dd565b60008261095e85670de0b6b3a7640000610f25565b6109689190610f3c565b9050600454811161099657600454816005546109849190610f25565b61098e9190610f3c565b9150506103dd565b6000600454826109a69190610f71565b90506000600454670de0b6b3a76400006109c09190610f71565b905080826006546109d19190610f25565b6109db9190610f3c565b6005546109e89190610f5e565b93505050506103dd565b6001600160a01b03831660009081526001602081815260408084208151606081018352815460ff16815293810154928401929092526002909101549082015281610a3c8585610937565b825190915060ff16600003610a625780600254610a599190610f5e565b92505050610aa6565b60006064836000015160ff16600354610a7b9190610f25565b610a859190610f3c565b90508082600254610a969190610f5e565b610aa09190610f5e565b93505050505b9392505050565b600082815260208190526040902060010154610ac881610ad2565b6105528383610b63565b610adc8133610bc8565b50565b610ae9828261061d565b6105d1576000828152602081815260408083206001600160a01b03851684529091529020805460ff19166001179055610b1f3390565b6001600160a01b0316816001600160a01b0316837f2f8788117e7eff1d82e926ec794901d17c78024a50270940304540a733656f0d60405160405180910390a45050565b610b6d828261061d565b156105d1576000828152602081815260408083206001600160a01b0385168085529252808320805460ff1916905551339285917ff6391f5c32d9c69d2a47ea670b442974b53935d1edc7fd64eb21e047a839171b9190a45050565b610bd2828261061d565b6105d157610bdf81610c21565b610bea836020610c33565b604051602001610bfb929190610fa8565b60408051601f198184030181529082905262461bcd60e51b825261045c9160040161101d565b60606103dd6001600160a01b03831660145b60606000610c42836002610f25565b610c4d906002610f5e565b67ffffffffffffffff811115610c6557610c65611050565b6040519080825280601f01601f191660200182016040528015610c8f576020820181803683370190505b509050600360fc1b81600081518110610caa57610caa611066565b60200101906001600160f81b031916908160001a905350600f60fb1b81600181518110610cd957610cd9611066565b60200101906001600160f81b031916908160001a9053506000610cfd846002610f25565b610d08906001610f5e565b90505b6001811115610d80576f181899199a1a9b1b9c1cb0b131b232b360811b85600f1660108110610d3c57610d3c611066565b1a60f81b828281518110610d5257610d52611066565b60200101906001600160f81b031916908160001a90535060049490941c93610d798161107c565b9050610d0b565b508315610aa65760405162461bcd60e51b815260206004820181905260248201527f537472696e67733a20686578206c656e67746820696e73756666696369656e74604482015260640161045c565b600060208284031215610de157600080fd5b81356001600160e01b031981168114610aa657600080fd5b80356001600160a01b0381168114610e1057600080fd5b919050565b600080600060608486031215610e2a57600080fd5b610e3384610df9565b9250602084013560ff81168114610e4957600080fd5b929592945050506040919091013590565b600060208284031215610e6c57600080fd5b5035919050565b60008060408385031215610e8657600080fd5b82359150610e9660208401610df9565b90509250929050565b600060208284031215610eb157600080fd5b610aa682610df9565b60008060408385031215610ecd57600080fd5b50508035926020909101359150565b600080600060608486031215610ef157600080fd5b610efa84610df9565b95602085013595506040909401359392505050565b634e487b7160e01b600052601160045260246000fd5b80820281158282048414176103dd576103dd610f0f565b600082610f5957634e487b7160e01b600052601260045260246000fd5b500490565b808201808211156103dd576103dd610f0f565b818103818111156103dd576103dd610f0f565b60005b83811015610f9f578181015183820152602001610f87565b50506000910152565b7f416363657373436f6e74726f6c3a206163636f756e7420000000000000000000815260008351610fe0816017850160208801610f84565b7001034b99036b4b9b9b4b733903937b6329607d1b6017918401918201528351611011816028840160208801610f84565b01602801949350505050565b602081526000825180602084015261103c816040850160208701610f84565b601f01601f19169190910160400192915050565b634e487b7160e01b600052604160045260246000fd5b634e487b7160e01b600052603260045260246000fd5b60008161108b5761108b610f0f565b50600019019056fea2646970667358221220b1eb3ee6444fc3be77b9a207810f9e0855cd9e0067646d4c2d2261c1df399b7564736f6c63430008140033","opcodes":"PUSH1 0x80 PUSH1 0x40 MSTORE PUSH2 0x12C PUSH1 0x2 SSTORE PUSH1 0x14 PUSH1 0x3 SSTORE PUSH8 0xB1A2BC2EC500000 PUSH1 0x4 SSTORE PUSH2 0x190 PUSH1 0x5 SSTORE PUSH2 0xBB8 PUSH1 0x6 SSTORE PUSH2 0x7D0 PUSH1 0x7 SSTORE CALLVALUE DUP1 ISZERO PUSH2 0x39 JUMPI PUSH1 0x0 DUP1 REVERT JUMPDEST POP PUSH2 0x45 PUSH1 0x0 CALLER PUSH2 0x4A JUMP JUMPDEST PUSH2 0xE9 JUMP JUMPDEST PUSH1 0x0 DUP3 DUP2 MSTORE PUSH1 0x20 DUP2 DUP2 MSTORE PUSH1 0x40 DUP1 DUP4 KECCAK256 PUSH1 0x1 PUSH1 0x1 PUSH1 0xA0 SHL SUB DUP6 AND DUP5 MSTORE SWAP1 SWAP2 MSTORE SWAP1 KECCAK256 SLOAD PUSH1 0xFF AND PUSH2 0xE5 JUMPI PUSH1 0x0 DUP3 DUP2 MSTORE PUSH1 0x20 DUP2 DUP2 MSTORE PUSH1 0x40 DUP1 DUP4 KECCAK256 PUSH1 0x1 PUSH1 0x1 PUSH1 0xA0 SHL SUB DUP6 AND DUP5 MSTORE SWAP1 SWAP2 MSTORE SWAP1 KECCAK256 DUP1 SLOAD PUSH1 0xFF NOT AND PUSH1 0x1 OR SWAP1 SSTORE PUSH2 0xA4 CALLER SWAP1 JUMP JUMPDEST PUSH1 0x1 PUSH1 0x1 PUSH1 0xA0 SHL SUB AND DUP2 PUSH1 0x1 PUSH1 0x1 PUSH1 0xA0 SHL SUB AND DUP4 PUSH32 0x2F8788117E7EFF1D82E926EC794901D17C78024A50270940304540A733656F0D PUSH1 0x40 MLOAD PUSH1 0x40 MLOAD DUP1 SWAP2 SUB SWAP1 LOG4 JUMPDEST POP POP JUMP JUMPDEST PUSH2 0x10C9 DUP1 PUSH2 0xF8 PUSH1 0x0 CODECOPY PUSH1 0x0 RETURN INVALID PUSH1 0x80 PUSH1 0x40 MSTORE CALLVALUE DUP1 ISZERO PUSH2 0x10 JUMPI PUSH1 0x0 DUP1 REVERT JUMPDEST POP PUSH1 0x4 CALLDATASIZE LT PUSH2 0x158 JUMPI PUSH1 0x0 CALLDATALOAD PUSH1 0xE0 SHR DUP1 PUSH4 0x9948B18D GT PUSH2 0xC3 JUMPI DUP1 PUSH4 0xC899E39F GT PUSH2 0x7C JUMPI DUP1 PUSH4 0xC899E39F EQ PUSH2 0x305 JUMPI DUP1 PUSH4 0xD203E728 EQ PUSH2 0x318 JUMPI DUP1 PUSH4 0xD547741F EQ PUSH2 0x32B JUMPI DUP1 PUSH4 0xDC08706D EQ PUSH2 0x33E JUMPI DUP1 PUSH4 0xDE0E63CD EQ PUSH2 0x37C JUMPI DUP1 PUSH4 0xFC193645 EQ PUSH2 0x385 JUMPI PUSH1 0x0 DUP1 REVERT JUMPDEST DUP1 PUSH4 0x9948B18D EQ PUSH2 0x272 JUMPI DUP1 PUSH4 0xA14195A8 EQ PUSH2 0x2C5 JUMPI DUP1 PUSH4 0xA217FDDF EQ PUSH2 0x2CE JUMPI DUP1 PUSH4 0xA9BB7C1F EQ PUSH2 0x2D6 JUMPI DUP1 PUSH4 0xAC8555EF EQ PUSH2 0x2E9 JUMPI DUP1 PUSH4 0xC87BED70 EQ PUSH2 0x2FC JUMPI PUSH1 0x0 DUP1 REVERT JUMPDEST DUP1 PUSH4 0x38A17370 GT PUSH2 0x115 JUMPI DUP1 PUSH4 0x38A17370 EQ PUSH2 0x1FA JUMPI DUP1 PUSH4 0x58F2EF17 EQ PUSH2 0x20D JUMPI DUP1 PUSH4 0x6290CD1C EQ PUSH2 0x23A JUMPI DUP1 PUSH4 0x8ECC987E EQ PUSH2 0x243 JUMPI DUP1 PUSH4 0x91D14854 EQ PUSH2 0x24C JUMPI DUP1 PUSH4 0x97B4A29E EQ PUSH2 0x25F JUMPI PUSH1 0x0 DUP1 REVERT JUMPDEST DUP1 PUSH4 0x1FFC9A7 EQ PUSH2 0x15D JUMPI DUP1 PUSH4 0x24CC726 EQ PUSH2 0x185 JUMPI DUP1 PUSH4 0x248A9CA3 EQ PUSH2 0x19A JUMPI DUP1 PUSH4 0x2F2FF15D EQ PUSH2 0x1CB JUMPI DUP1 PUSH4 0x3355A6A1 EQ PUSH2 0x1DE JUMPI DUP1 PUSH4 0x36568ABE EQ PUSH2 0x1E7 JUMPI JUMPDEST PUSH1 0x0 DUP1 REVERT JUMPDEST PUSH2 0x170 PUSH2 0x16B CALLDATASIZE PUSH1 0x4 PUSH2 0xDCF JUMP JUMPDEST PUSH2 0x3AC JUMP JUMPDEST PUSH1 0x40 MLOAD SWAP1 ISZERO ISZERO DUP2 MSTORE PUSH1 0x20 ADD JUMPDEST PUSH1 0x40 MLOAD DUP1 SWAP2 SUB SWAP1 RETURN JUMPDEST PUSH2 0x198 PUSH2 0x193 CALLDATASIZE PUSH1 0x4 PUSH2 0xE15 JUMP JUMPDEST PUSH2 0x3E3 JUMP JUMPDEST STOP JUMPDEST PUSH2 0x1BD PUSH2 0x1A8 CALLDATASIZE PUSH1 0x4 PUSH2 0xE5A JUMP JUMPDEST PUSH1 0x0 SWAP1 DUP2 MSTORE PUSH1 0x20 DUP2 SWAP1 MSTORE PUSH1 0x40 SWAP1 KECCAK256 PUSH1 0x1 ADD SLOAD SWAP1 JUMP JUMPDEST PUSH1 0x40 MLOAD SWAP1 DUP2 MSTORE PUSH1 0x20 ADD PUSH2 0x17C JUMP JUMPDEST PUSH2 0x198 PUSH2 0x1D9 CALLDATASIZE PUSH1 0x4 PUSH2 0xE73 JUMP JUMPDEST PUSH2 0x52D JUMP JUMPDEST PUSH2 0x1BD PUSH1 0x3 SLOAD DUP2 JUMP JUMPDEST PUSH2 0x198 PUSH2 0x1F5 CALLDATASIZE PUSH1 0x4 PUSH2 0xE73 JUMP JUMPDEST PUSH2 0x557 JUMP JUMPDEST PUSH2 0x198 PUSH2 0x208 CALLDATASIZE PUSH1 0x4 PUSH2 0xE5A JUMP JUMPDEST PUSH2 0x5D5 JUMP JUMPDEST PUSH2 0x1BD PUSH2 0x21B CALLDATASIZE PUSH1 0x4 PUSH2 0xE9F JUMP JUMPDEST PUSH1 0x1 PUSH1 0x1 PUSH1 0xA0 SHL SUB AND PUSH1 0x0 SWAP1 DUP2 MSTORE PUSH1 0x1 PUSH1 0x20 DUP2 SWAP1 MSTORE PUSH1 0x40 SWAP1 SWAP2 KECCAK256 ADD SLOAD SWAP1 JUMP JUMPDEST PUSH2 0x1BD PUSH1 0x4 SLOAD DUP2 JUMP JUMPDEST PUSH2 0x1BD PUSH1 0x2 SLOAD DUP2 JUMP JUMPDEST PUSH2 0x170 PUSH2 0x25A CALLDATASIZE PUSH1 0x4 PUSH2 0xE73 JUMP JUMPDEST PUSH2 0x61D JUMP JUMPDEST PUSH2 0x1BD PUSH2 0x26D CALLDATASIZE PUSH1 0x4 PUSH2 0xEBA JUMP JUMPDEST PUSH2 0x646 JUMP JUMPDEST PUSH2 0x2A6 PUSH2 0x280 CALLDATASIZE PUSH1 0x4 PUSH2 0xE9F JUMP JUMPDEST PUSH1 0x1 PUSH1 0x20 DUP2 SWAP1 MSTORE PUSH1 0x0 SWAP2 DUP3 MSTORE PUSH1 0x40 SWAP1 SWAP2 KECCAK256 DUP1 SLOAD SWAP2 DUP2 ADD SLOAD PUSH1 0x2 SWAP1 SWAP2 ADD SLOAD PUSH1 0xFF SWAP1 SWAP3 AND SWAP2 DUP4 JUMP JUMPDEST PUSH1 0x40 DUP1 MLOAD PUSH1 0xFF SWAP1 SWAP5 AND DUP5 MSTORE PUSH1 0x20 DUP5 ADD SWAP3 SWAP1 SWAP3 MSTORE SWAP1 DUP3 ADD MSTORE PUSH1 0x60 ADD PUSH2 0x17C JUMP JUMPDEST PUSH2 0x1BD PUSH1 0x6 SLOAD DUP2 JUMP JUMPDEST PUSH2 0x1BD PUSH1 0x0 DUP2 JUMP JUMPDEST PUSH2 0x198 PUSH2 0x2E4 CALLDATASIZE PUSH1 0x4 PUSH2 0xE15 JUMP JUMPDEST PUSH2 0x781 JUMP JUMPDEST PUSH2 0x198 PUSH2 0x2F7 CALLDATASIZE PUSH1 0x4 PUSH2 0xE5A JUMP JUMPDEST PUSH2 0x8F7 JUMP JUMPDEST PUSH2 0x1BD PUSH1 0x7 SLOAD DUP2 JUMP JUMPDEST PUSH2 0x1BD PUSH2 0x313 CALLDATASIZE PUSH1 0x4 PUSH2 0xEBA JUMP JUMPDEST PUSH2 0x937 JUMP JUMPDEST PUSH2 0x1BD PUSH2 0x326 CALLDATASIZE PUSH1 0x4 PUSH2 0xEDC JUMP JUMPDEST PUSH2 0x9F2 JUMP JUMPDEST PUSH2 0x198 PUSH2 0x339 CALLDATASIZE PUSH1 0x4 PUSH2 0xE73 JUMP JUMPDEST PUSH2 0xAAD JUMP JUMPDEST PUSH2 0x36A PUSH2 0x34C CALLDATASIZE PUSH1 0x4 PUSH2 0xE9F JUMP JUMPDEST PUSH1 0x1 PUSH1 0x1 PUSH1 0xA0 SHL SUB AND PUSH1 0x0 SWAP1 DUP2 MSTORE PUSH1 0x1 PUSH1 0x20 MSTORE PUSH1 0x40 SWAP1 KECCAK256 SLOAD PUSH1 0xFF AND SWAP1 JUMP JUMPDEST PUSH1 0x40 MLOAD PUSH1 0xFF SWAP1 SWAP2 AND DUP2 MSTORE PUSH1 0x20 ADD PUSH2 0x17C JUMP JUMPDEST PUSH2 0x1BD PUSH1 0x5 SLOAD DUP2 JUMP JUMPDEST PUSH2 0x1BD PUSH32 0xFC5E340A927DFB90E4EA870F83D58633458B79A78FD1A48271B299AC1D6DB447 DUP2 JUMP JUMPDEST PUSH1 0x0 PUSH1 0x1 PUSH1 0x1 PUSH1 0xE0 SHL SUB NOT DUP3 AND PUSH4 0x7965DB0B PUSH1 0xE0 SHL EQ DUP1 PUSH2 0x3DD JUMPI POP PUSH4 0x1FFC9A7 PUSH1 0xE0 SHL PUSH1 0x1 PUSH1 0x1 PUSH1 0xE0 SHL SUB NOT DUP4 AND EQ JUMPDEST SWAP3 SWAP2 POP POP JUMP JUMPDEST PUSH32 0xFC5E340A927DFB90E4EA870F83D58633458B79A78FD1A48271B299AC1D6DB447 PUSH2 0x40D DUP2 PUSH2 0xAD2 JUMP JUMPDEST PUSH1 0x0 DUP4 PUSH1 0xFF AND GT DUP1 ISZERO PUSH2 0x424 JUMPI POP PUSH1 0x64 DUP4 PUSH1 0xFF AND GT ISZERO JUMPDEST PUSH2 0x465 JUMPI PUSH1 0x40 MLOAD PUSH3 0x461BCD PUSH1 0xE5 SHL DUP2 MSTORE PUSH1 0x20 PUSH1 0x4 DUP3 ADD MSTORE PUSH1 0xD PUSH1 0x24 DUP3 ADD MSTORE PUSH13 0x696E76616C69642073636F7265 PUSH1 0x98 SHL PUSH1 0x44 DUP3 ADD MSTORE PUSH1 0x64 ADD JUMPDEST PUSH1 0x40 MLOAD DUP1 SWAP2 SUB SWAP1 REVERT JUMPDEST PUSH1 0x1 PUSH1 0x1 PUSH1 0xA0 SHL SUB DUP5 AND PUSH1 0x0 SWAP1 DUP2 MSTORE PUSH1 0x1 PUSH1 0x20 MSTORE PUSH1 0x40 DUP2 KECCAK256 DUP1 SLOAD SWAP1 SWAP2 PUSH1 0xFF SWAP1 SWAP2 AND SWAP1 SUB PUSH2 0x4C6 JUMPI PUSH1 0x40 MLOAD PUSH3 0x461BCD PUSH1 0xE5 SHL DUP2 MSTORE PUSH1 0x20 PUSH1 0x4 DUP3 ADD MSTORE PUSH1 0xF PUSH1 0x24 DUP3 ADD MSTORE PUSH15 0x1B9BDD081A5B9A5D1A585B1A5E9959 PUSH1 0x8A SHL PUSH1 0x44 DUP3 ADD MSTORE PUSH1 0x64 ADD PUSH2 0x45C JUMP JUMPDEST DUP1 SLOAD PUSH1 0xFF NOT AND PUSH1 0xFF DUP6 AND SWAP1 DUP2 OR DUP3 SSTORE PUSH1 0x1 DUP3 ADD DUP5 SWAP1 SSTORE TIMESTAMP PUSH1 0x2 DUP4 ADD SSTORE PUSH1 0x40 DUP1 MLOAD SWAP2 DUP3 MSTORE PUSH1 0x20 DUP3 ADD DUP6 SWAP1 MSTORE PUSH1 0x1 PUSH1 0x1 PUSH1 0xA0 SHL SUB DUP8 AND SWAP2 PUSH32 0x18D4204980AB91F36D15CB52A910A72E3E50FB5F6DEB9CAB275B43D5AFB9AAB9 SWAP2 ADD PUSH1 0x40 MLOAD DUP1 SWAP2 SUB SWAP1 LOG2 POP POP POP POP POP JUMP JUMPDEST PUSH1 0x0 DUP3 DUP2 MSTORE PUSH1 0x20 DUP2 SWAP1 MSTORE PUSH1 0x40 SWAP1 KECCAK256 PUSH1 0x1 ADD SLOAD PUSH2 0x548 DUP2 PUSH2 0xAD2 JUMP JUMPDEST PUSH2 0x552 DUP4 DUP4 PUSH2 0xADF JUMP JUMPDEST POP POP POP JUMP JUMPDEST PUSH1 0x1 PUSH1 0x1 PUSH1 0xA0 SHL SUB DUP2 AND CALLER EQ PUSH2 0x5C7 JUMPI PUSH1 0x40 MLOAD PUSH3 0x461BCD PUSH1 0xE5 SHL DUP2 MSTORE PUSH1 0x20 PUSH1 0x4 DUP3 ADD MSTORE PUSH1 0x2F PUSH1 0x24 DUP3 ADD MSTORE PUSH32 0x416363657373436F6E74726F6C3A2063616E206F6E6C792072656E6F756E6365 PUSH1 0x44 DUP3 ADD MSTORE PUSH15 0x103937B632B9903337B91039B2B633 PUSH1 0x89 SHL PUSH1 0x64 DUP3 ADD MSTORE PUSH1 0x84 ADD PUSH2 0x45C JUMP JUMPDEST PUSH2 0x5D1 DUP3 DUP3 PUSH2 0xB63 JUMP JUMPDEST POP POP JUMP JUMPDEST PUSH1 0x0 PUSH2 0x5E0 DUP2 PUSH2 0xAD2 JUMP JUMPDEST PUSH1 0x3 DUP3 SWAP1 SSTORE PUSH1 0x40 MLOAD DUP3 DUP2 MSTORE PUSH32 0xF2FFAA40BDF5BC0B2D26FEFA4F8C6CEA03EAC0AA7E0BC0800424DBDBD3D21028 SWAP1 PUSH1 0x20 ADD JUMPDEST PUSH1 0x40 MLOAD DUP1 SWAP2 SUB SWAP1 LOG1 POP POP JUMP JUMPDEST PUSH1 0x0 SWAP2 DUP3 MSTORE PUSH1 0x20 DUP3 DUP2 MSTORE PUSH1 0x40 DUP1 DUP5 KECCAK256 PUSH1 0x1 PUSH1 0x1 PUSH1 0xA0 SHL SUB SWAP4 SWAP1 SWAP4 AND DUP5 MSTORE SWAP2 SWAP1 MSTORE SWAP1 KECCAK256 SLOAD PUSH1 0xFF AND SWAP1 JUMP JUMPDEST PUSH1 0x0 DUP2 ISZERO DUP1 PUSH2 0x653 JUMPI POP DUP3 ISZERO JUMPDEST ISZERO PUSH2 0x660 JUMPI POP PUSH1 0x0 PUSH2 0x3DD JUMP JUMPDEST PUSH1 0x0 DUP3 PUSH2 0x66F DUP6 PUSH2 0x2710 PUSH2 0xF25 JUMP JUMPDEST PUSH2 0x679 SWAP2 SWAP1 PUSH2 0xF3C JUMP JUMPDEST SWAP1 POP PUSH2 0x2710 DUP2 GT ISZERO PUSH2 0x68A JUMPI POP PUSH2 0x2710 JUMPDEST PUSH1 0x2 SLOAD PUSH1 0x4 SLOAD PUSH1 0x0 SWAP1 PUSH8 0xDE0B6B3A7640000 SWAP1 PUSH2 0x6A9 SWAP1 PUSH2 0x2710 PUSH2 0xF25 JUMP JUMPDEST PUSH2 0x6B3 SWAP2 SWAP1 PUSH2 0xF3C JUMP JUMPDEST SWAP1 POP DUP1 DUP4 GT PUSH2 0x6E6 JUMPI DUP1 DUP4 PUSH1 0x5 SLOAD PUSH2 0x6CB SWAP2 SWAP1 PUSH2 0xF25 JUMP JUMPDEST PUSH2 0x6D5 SWAP2 SWAP1 PUSH2 0xF3C JUMP JUMPDEST PUSH2 0x6DF SWAP1 DUP4 PUSH2 0xF5E JUMP JUMPDEST SWAP2 POP PUSH2 0x73B JUMP JUMPDEST PUSH1 0x5 SLOAD PUSH2 0x6F3 SWAP1 DUP4 PUSH2 0xF5E JUMP JUMPDEST SWAP2 POP PUSH1 0x0 PUSH2 0x701 DUP3 DUP6 PUSH2 0xF71 JUMP JUMPDEST SWAP1 POP PUSH1 0x0 PUSH2 0x711 DUP4 PUSH2 0x2710 PUSH2 0xF71 JUMP JUMPDEST SWAP1 POP DUP1 DUP3 PUSH1 0x6 SLOAD PUSH2 0x722 SWAP2 SWAP1 PUSH2 0xF25 JUMP JUMPDEST PUSH2 0x72C SWAP2 SWAP1 PUSH2 0xF3C JUMP JUMPDEST PUSH2 0x736 SWAP1 DUP6 PUSH2 0xF5E JUMP JUMPDEST SWAP4 POP POP POP JUMPDEST PUSH1 0x0 PUSH1 0x7 SLOAD PUSH2 0x2710 PUSH2 0x74D SWAP2 SWAP1 PUSH2 0xF71 JUMP JUMPDEST SWAP1 POP PUSH1 0x0 PUSH4 0x5F5E100 DUP3 PUSH2 0x761 DUP8 DUP8 PUSH2 0xF25 JUMP JUMPDEST PUSH2 0x76B SWAP2 SWAP1 PUSH2 0xF25 JUMP JUMPDEST PUSH2 0x775 SWAP2 SWAP1 PUSH2 0xF3C JUMP JUMPDEST SWAP9 SWAP8 POP POP POP POP POP POP POP POP JUMP JUMPDEST PUSH32 0xFC5E340A927DFB90E4EA870F83D58633458B79A78FD1A48271B299AC1D6DB447 PUSH2 0x7AB DUP2 PUSH2 0xAD2 JUMP JUMPDEST PUSH1 0x0 DUP4 PUSH1 0xFF AND GT DUP1 ISZERO PUSH2 0x7C2 JUMPI POP PUSH1 0x64 DUP4 PUSH1 0xFF AND GT ISZERO JUMPDEST PUSH2 0x7FE JUMPI PUSH1 0x40 MLOAD PUSH3 0x461BCD PUSH1 0xE5 SHL DUP2 MSTORE PUSH1 0x20 PUSH1 0x4 DUP3 ADD MSTORE PUSH1 0xD PUSH1 0x24 DUP3 ADD MSTORE PUSH13 0x696E76616C69642073636F7265 PUSH1 0x98 SHL PUSH1 0x44 DUP3 ADD MSTORE PUSH1 0x64 ADD PUSH2 0x45C JUMP JUMPDEST PUSH1 0x1 PUSH1 0x1 PUSH1 0xA0 SHL SUB DUP5 AND PUSH1 0x0 SWAP1 DUP2 MSTORE PUSH1 0x1 PUSH1 0x20 MSTORE PUSH1 0x40 SWAP1 KECCAK256 SLOAD PUSH1 0xFF AND ISZERO PUSH2 0x85D JUMPI PUSH1 0x40 MLOAD PUSH3 0x461BCD PUSH1 0xE5 SHL DUP2 MSTORE PUSH1 0x20 PUSH1 0x4 DUP3 ADD MSTORE PUSH1 0x13 PUSH1 0x24 DUP3 ADD MSTORE PUSH19 0x185B1C9958591E481A5B9A5D1A585B1A5E9959 PUSH1 0x6A SHL PUSH1 0x44 DUP3 ADD MSTORE PUSH1 0x64 ADD PUSH2 0x45C JUMP JUMPDEST PUSH1 0x40 DUP1 MLOAD PUSH1 0x60 DUP2 ADD DUP3 MSTORE PUSH1 0xFF DUP6 DUP2 AND DUP1 DUP4 MSTORE PUSH1 0x20 DUP1 DUP5 ADD DUP8 DUP2 MSTORE TIMESTAMP DUP6 DUP8 ADD SWAP1 DUP2 MSTORE PUSH1 0x1 PUSH1 0x1 PUSH1 0xA0 SHL SUB DUP12 AND PUSH1 0x0 DUP2 DUP2 MSTORE PUSH1 0x1 DUP1 DUP7 MSTORE SWAP1 DUP10 SWAP1 KECCAK256 SWAP8 MLOAD DUP9 SLOAD PUSH1 0xFF NOT AND SWAP8 AND SWAP7 SWAP1 SWAP7 OR DUP8 SSTORE SWAP2 MLOAD SWAP5 DUP7 ADD SWAP5 SWAP1 SWAP5 SSTORE SWAP3 MLOAD PUSH1 0x2 SWAP1 SWAP5 ADD SWAP4 SWAP1 SWAP4 SSTORE DUP4 MLOAD SWAP1 DUP2 MSTORE SWAP2 DUP3 ADD DUP6 SWAP1 MSTORE SWAP2 PUSH32 0xD42E04CB40B38A318FB690E23B3D4C17BC6CA8D0E866948391FBECAE41746261 SWAP2 ADD PUSH1 0x40 MLOAD DUP1 SWAP2 SUB SWAP1 LOG2 POP POP POP POP JUMP JUMPDEST PUSH1 0x0 PUSH2 0x902 DUP2 PUSH2 0xAD2 JUMP JUMPDEST PUSH1 0x2 DUP3 SWAP1 SSTORE PUSH1 0x40 MLOAD DUP3 DUP2 MSTORE PUSH32 0x6D03C7415B161A70A92558F9A9BFA64827F4F79BD7550DFFFA9F0A24E5A61DDC SWAP1 PUSH1 0x20 ADD PUSH2 0x611 JUMP JUMPDEST PUSH1 0x0 DUP2 PUSH1 0x0 SUB PUSH2 0x949 JUMPI POP PUSH1 0x0 PUSH2 0x3DD JUMP JUMPDEST PUSH1 0x0 DUP3 PUSH2 0x95E DUP6 PUSH8 0xDE0B6B3A7640000 PUSH2 0xF25 JUMP JUMPDEST PUSH2 0x968 SWAP2 SWAP1 PUSH2 0xF3C JUMP JUMPDEST SWAP1 POP PUSH1 0x4 SLOAD DUP2 GT PUSH2 0x996 JUMPI PUSH1 0x4 SLOAD DUP2 PUSH1 0x5 SLOAD PUSH2 0x984 SWAP2 SWAP1 PUSH2 0xF25 JUMP JUMPDEST PUSH2 0x98E SWAP2 SWAP1 PUSH2 0xF3C JUMP JUMPDEST SWAP2 POP POP PUSH2 0x3DD JUMP JUMPDEST PUSH1 0x0 PUSH1 0x4 SLOAD DUP3 PUSH2 0x9A6 SWAP2 SWAP1 PUSH2 0xF71 JUMP JUMPDEST SWAP1 POP PUSH1 0x0 PUSH1 0x4 SLOAD PUSH8 0xDE0B6B3A7640000 PUSH2 0x9C0 SWAP2 SWAP1 PUSH2 0xF71 JUMP JUMPDEST SWAP1 POP DUP1 DUP3 PUSH1 0x6 SLOAD PUSH2 0x9D1 SWAP2 SWAP1 PUSH2 0xF25 JUMP JUMPDEST PUSH2 0x9DB SWAP2 SWAP1 PUSH2 0xF3C JUMP JUMPDEST PUSH1 0x5 SLOAD PUSH2 0x9E8 SWAP2 SWAP1 PUSH2 0xF5E JUMP JUMPDEST SWAP4 POP POP POP POP PUSH2 0x3DD JUMP JUMPDEST PUSH1 0x1 PUSH1 0x1 PUSH1 0xA0 SHL SUB DUP4 AND PUSH1 0x0 SWAP1 DUP2 MSTORE PUSH1 0x1 PUSH1 0x20 DUP2 DUP2 MSTORE PUSH1 0x40 DUP1 DUP5 KECCAK256 DUP2 MLOAD PUSH1 0x60 DUP2 ADD DUP4 MSTORE DUP2 SLOAD PUSH1 0xFF AND DUP2 MSTORE SWAP4 DUP2 ADD SLOAD SWAP3 DUP5 ADD SWAP3 SWAP1 SWAP3 MSTORE PUSH1 0x2 SWAP1 SWAP2 ADD SLOAD SWAP1 DUP3 ADD MSTORE DUP2 PUSH2 0xA3C DUP6 DUP6 PUSH2 0x937 JUMP JUMPDEST DUP3 MLOAD SWAP1 SWAP2 POP PUSH1 0xFF AND PUSH1 0x0 SUB PUSH2 0xA62 JUMPI DUP1 PUSH1 0x2 SLOAD PUSH2 0xA59 SWAP2 SWAP1 PUSH2 0xF5E JUMP JUMPDEST SWAP3 POP POP POP PUSH2 0xAA6 JUMP JUMPDEST PUSH1 0x0 PUSH1 0x64 DUP4 PUSH1 0x0 ADD MLOAD PUSH1 0xFF AND PUSH1 0x3 SLOAD PUSH2 0xA7B SWAP2 SWAP1 PUSH2 0xF25 JUMP JUMPDEST PUSH2 0xA85 SWAP2 SWAP1 PUSH2 0xF3C JUMP JUMPDEST SWAP1 POP DUP1 DUP3 PUSH1 0x2 SLOAD PUSH2 0xA96 SWAP2 SWAP1 PUSH2 0xF5E JUMP JUMPDEST PUSH2 0xAA0 SWAP2 SWAP1 PUSH2 0xF5E JUMP JUMPDEST SWAP4 POP POP POP POP JUMPDEST SWAP4 SWAP3 POP POP POP JUMP JUMPDEST PUSH1 0x0 DUP3 DUP2 MSTORE PUSH1 0x20 DUP2 SWAP1 MSTORE PUSH1 0x40 SWAP1 KECCAK256 PUSH1 0x1 ADD SLOAD PUSH2 0xAC8 DUP2 PUSH2 0xAD2 JUMP JUMPDEST PUSH2 0x552 DUP4 DUP4 PUSH2 0xB63 JUMP JUMPDEST PUSH2 0xADC DUP2 CALLER PUSH2 0xBC8 JUMP JUMPDEST POP JUMP JUMPDEST PUSH2 0xAE9 DUP3 DUP3 PUSH2 0x61D JUMP JUMPDEST PUSH2 0x5D1 JUMPI PUSH1 0x0 DUP3 DUP2 MSTORE PUSH1 0x20 DUP2 DUP2 MSTORE PUSH1 0x40 DUP1 DUP4 KECCAK256 PUSH1 0x1 PUSH1 0x1 PUSH1 0xA0 SHL SUB DUP6 AND DUP5 MSTORE SWAP1 SWAP2 MSTORE SWAP1 KECCAK256 DUP1 SLOAD PUSH1 0xFF NOT AND PUSH1 0x1 OR SWAP1 SSTORE PUSH2 0xB1F CALLER SWAP1 JUMP JUMPDEST PUSH1 0x1 PUSH1 0x1 PUSH1 0xA0 SHL SUB AND DUP2 PUSH1 0x1 PUSH1 0x1 PUSH1 0xA0 SHL SUB AND DUP4 PUSH32 0x2F8788117E7EFF1D82E926EC794901D17C78024A50270940304540A733656F0D PUSH1 0x40 MLOAD PUSH1 0x40 MLOAD DUP1 SWAP2 SUB SWAP1 LOG4 POP POP JUMP JUMPDEST PUSH2 0xB6D DUP3 DUP3 PUSH2 0x61D JUMP JUMPDEST ISZERO PUSH2 0x5D1 JUMPI PUSH1 0x0 DUP3 DUP2 MSTORE PUSH1 0x20 DUP2 DUP2 MSTORE PUSH1 0x40 DUP1 DUP4 KECCAK256 PUSH1 0x1 PUSH1 0x1 PUSH1 0xA0 SHL SUB DUP6 AND DUP1 DUP6 MSTORE SWAP3 MSTORE DUP1 DUP4 KECCAK256 DUP1 SLOAD PUSH1 0xFF NOT AND SWAP1 SSTORE MLOAD CALLER SWAP3 DUP6 SWAP2 PUSH32 0xF6391F5C32D9C69D2A47EA670B442974B53935D1EDC7FD64EB21E047A839171B SWAP2 SWAP1 LOG4 POP POP JUMP JUMPDEST PUSH2 0xBD2 DUP3 DUP3 PUSH2 0x61D JUMP JUMPDEST PUSH2 0x5D1 JUMPI PUSH2 0xBDF DUP2 PUSH2 0xC21 JUMP JUMPDEST PUSH2 0xBEA DUP4 PUSH1 0x20 PUSH2 0xC33 JUMP JUMPDEST PUSH1 0x40 MLOAD PUSH1 0x20 ADD PUSH2 0xBFB SWAP3 SWAP2 SWAP1 PUSH2 0xFA8 JUMP JUMPDEST PUSH1 0x40 DUP1 MLOAD PUSH1 0x1F NOT DUP2 DUP5 SUB ADD DUP2 MSTORE SWAP1 DUP3 SWAP1 MSTORE PUSH3 0x461BCD PUSH1 0xE5 SHL DUP3 MSTORE PUSH2 0x45C SWAP2 PUSH1 0x4 ADD PUSH2 0x101D JUMP JUMPDEST PUSH1 0x60 PUSH2 0x3DD PUSH1 0x1 PUSH1 0x1 PUSH1 0xA0 SHL SUB DUP4 AND PUSH1 0x14 JUMPDEST PUSH1 0x60 PUSH1 0x0 PUSH2 0xC42 DUP4 PUSH1 0x2 PUSH2 0xF25 JUMP JUMPDEST PUSH2 0xC4D SWAP1 PUSH1 0x2 PUSH2 0xF5E JUMP JUMPDEST PUSH8 0xFFFFFFFFFFFFFFFF DUP2 GT ISZERO PUSH2 0xC65 JUMPI PUSH2 0xC65 PUSH2 0x1050 JUMP JUMPDEST PUSH1 0x40 MLOAD SWAP1 DUP1 DUP3 MSTORE DUP1 PUSH1 0x1F ADD PUSH1 0x1F NOT AND PUSH1 0x20 ADD DUP3 ADD PUSH1 0x40 MSTORE DUP1 ISZERO PUSH2 0xC8F JUMPI PUSH1 0x20 DUP3 ADD DUP2 DUP1 CALLDATASIZE DUP4 CALLDATACOPY ADD SWAP1 POP JUMPDEST POP SWAP1 POP PUSH1 0x3 PUSH1 0xFC SHL DUP2 PUSH1 0x0 DUP2 MLOAD DUP2 LT PUSH2 0xCAA JUMPI PUSH2 0xCAA PUSH2 0x1066 JUMP JUMPDEST PUSH1 0x20 ADD ADD SWAP1 PUSH1 0x1 PUSH1 0x1 PUSH1 0xF8 SHL SUB NOT AND SWAP1 DUP2 PUSH1 0x0 BYTE SWAP1 MSTORE8 POP PUSH1 0xF PUSH1 0xFB SHL DUP2 PUSH1 0x1 DUP2 MLOAD DUP2 LT PUSH2 0xCD9 JUMPI PUSH2 0xCD9 PUSH2 0x1066 JUMP JUMPDEST PUSH1 0x20 ADD ADD SWAP1 PUSH1 0x1 PUSH1 0x1 PUSH1 0xF8 SHL SUB NOT AND SWAP1 DUP2 PUSH1 0x0 BYTE SWAP1 MSTORE8 POP PUSH1 0x0 PUSH2 0xCFD DUP5 PUSH1 0x2 PUSH2 0xF25 JUMP JUMPDEST PUSH2 0xD08 SWAP1 PUSH1 0x1 PUSH2 0xF5E JUMP JUMPDEST SWAP1 POP JUMPDEST PUSH1 0x1 DUP2 GT ISZERO PUSH2 0xD80 JUMPI PUSH16 0x181899199A1A9B1B9C1CB0B131B232B3 PUSH1 0x81 SHL DUP6 PUSH1 0xF AND PUSH1 0x10 DUP2 LT PUSH2 0xD3C JUMPI PUSH2 0xD3C PUSH2 0x1066 JUMP JUMPDEST BYTE PUSH1 0xF8 SHL DUP3 DUP3 DUP2 MLOAD DUP2 LT PUSH2 0xD52 JUMPI PUSH2 0xD52 PUSH2 0x1066 JUMP JUMPDEST PUSH1 0x20 ADD ADD SWAP1 PUSH1 0x1 PUSH1 0x1 PUSH1 0xF8 SHL SUB NOT AND SWAP1 DUP2 PUSH1 0x0 BYTE SWAP1 MSTORE8 POP PUSH1 0x4 SWAP5 SWAP1 SWAP5 SHR SWAP4 PUSH2 0xD79 DUP2 PUSH2 0x107C JUMP JUMPDEST SWAP1 POP PUSH2 0xD0B JUMP JUMPDEST POP DUP4 ISZERO PUSH2 0xAA6 JUMPI PUSH1 0x40 MLOAD PUSH3 0x461BCD PUSH1 0xE5 SHL DUP2 MSTORE PUSH1 0x20 PUSH1 0x4 DUP3 ADD DUP2 SWAP1 MSTORE PUSH1 0x24 DUP3 ADD MSTORE PUSH32 0x537472696E67733A20686578206C656E67746820696E73756666696369656E74 PUSH1 0x44 DUP3 ADD MSTORE PUSH1 0x64 ADD PUSH2 0x45C JUMP JUMPDEST PUSH1 0x0 PUSH1 0x20 DUP3 DUP5 SUB SLT ISZERO PUSH2 0xDE1 JUMPI PUSH1 0x0 DUP1 REVERT JUMPDEST DUP2 CALLDATALOAD PUSH1 0x1 PUSH1 0x1 PUSH1 0xE0 SHL SUB NOT DUP2 AND DUP2 EQ PUSH2 0xAA6 JUMPI PUSH1 0x0 DUP1 REVERT JUMPDEST DUP1 CALLDATALOAD PUSH1 0x1 PUSH1 0x1 PUSH1 0xA0 SHL SUB DUP2 AND DUP2 EQ PUSH2 0xE10 JUMPI PUSH1 0x0 DUP1 REVERT JUMPDEST SWAP2 SWAP1 POP JUMP JUMPDEST PUSH1 0x0 DUP1 PUSH1 0x0 PUSH1 0x60 DUP5 DUP7 SUB SLT ISZERO PUSH2 0xE2A JUMPI PUSH1 0x0 DUP1 REVERT JUMPDEST PUSH2 0xE33 DUP5 PUSH2 0xDF9 JUMP JUMPDEST SWAP3 POP PUSH1 0x20 DUP5 ADD CALLDATALOAD PUSH1 0xFF DUP2 AND DUP2 EQ PUSH2 0xE49 JUMPI PUSH1 0x0 DUP1 REVERT JUMPDEST SWAP3 SWAP6 SWAP3 SWAP5 POP POP POP PUSH1 0x40 SWAP2 SWAP1 SWAP2 ADD CALLDATALOAD SWAP1 JUMP JUMPDEST PUSH1 0x0 PUSH1 0x20 DUP3 DUP5 SUB SLT ISZERO PUSH2 0xE6C JUMPI PUSH1 0x0 DUP1 REVERT JUMPDEST POP CALLDATALOAD SWAP2 SWAP1 POP JUMP JUMPDEST PUSH1 0x0 DUP1 PUSH1 0x40 DUP4 DUP6 SUB SLT ISZERO PUSH2 0xE86 JUMPI PUSH1 0x0 DUP1 REVERT JUMPDEST DUP3 CALLDATALOAD SWAP2 POP PUSH2 0xE96 PUSH1 0x20 DUP5 ADD PUSH2 0xDF9 JUMP JUMPDEST SWAP1 POP SWAP3 POP SWAP3 SWAP1 POP JUMP JUMPDEST PUSH1 0x0 PUSH1 0x20 DUP3 DUP5 SUB SLT ISZERO PUSH2 0xEB1 JUMPI PUSH1 0x0 DUP1 REVERT JUMPDEST PUSH2 0xAA6 DUP3 PUSH2 0xDF9 JUMP JUMPDEST PUSH1 0x0 DUP1 PUSH1 0x40 DUP4 DUP6 SUB SLT ISZERO PUSH2 0xECD JUMPI PUSH1 0x0 DUP1 REVERT JUMPDEST POP POP DUP1 CALLDATALOAD SWAP3 PUSH1 0x20 SWAP1 SWAP2 ADD CALLDATALOAD SWAP2 POP JUMP JUMPDEST PUSH1 0x0 DUP1 PUSH1 0x0 PUSH1 0x60 DUP5 DUP7 SUB SLT ISZERO PUSH2 0xEF1 JUMPI PUSH1 0x0 DUP1 REVERT JUMPDEST PUSH2 0xEFA DUP5 PUSH2 0xDF9 JUMP JUMPDEST SWAP6 PUSH1 0x20 DUP6 ADD CALLDATALOAD SWAP6 POP PUSH1 0x40 SWAP1 SWAP5 ADD CALLDATALOAD SWAP4 SWAP3 POP POP POP JUMP JUMPDEST PUSH4 0x4E487B71 PUSH1 0xE0 SHL PUSH1 0x0 MSTORE PUSH1 0x11 PUSH1 0x4 MSTORE PUSH1 0x24 PUSH1 0x0 REVERT JUMPDEST DUP1 DUP3 MUL DUP2 ISZERO DUP3 DUP3 DIV DUP5 EQ OR PUSH2 0x3DD JUMPI PUSH2 0x3DD PUSH2 0xF0F JUMP JUMPDEST PUSH1 0x0 DUP3 PUSH2 0xF59 JUMPI PUSH4 0x4E487B71 PUSH1 0xE0 SHL PUSH1 0x0 MSTORE PUSH1 0x12 PUSH1 0x4 MSTORE PUSH1 0x24 PUSH1 0x0 REVERT JUMPDEST POP DIV SWAP1 JUMP JUMPDEST DUP1 DUP3 ADD DUP1 DUP3 GT ISZERO PUSH2 0x3DD JUMPI PUSH2 0x3DD PUSH2 0xF0F JUMP JUMPDEST DUP2 DUP2 SUB DUP2 DUP2 GT ISZERO PUSH2 0x3DD JUMPI PUSH2 0x3DD PUSH2 0xF0F JUMP JUMPDEST PUSH1 0x0 JUMPDEST DUP4 DUP2 LT ISZERO PUSH2 0xF9F JUMPI DUP2 DUP2 ADD MLOAD DUP4 DUP3 ADD MSTORE PUSH1 0x20 ADD PUSH2 0xF87 JUMP JUMPDEST POP POP PUSH1 0x0 SWAP2 ADD MSTORE JUMP JUMPDEST PUSH32 0x416363657373436F6E74726F6C3A206163636F756E7420000000000000000000 DUP2 MSTORE PUSH1 0x0 DUP4 MLOAD PUSH2 0xFE0 DUP2 PUSH1 0x17 DUP6 ADD PUSH1 0x20 DUP9 ADD PUSH2 0xF84 JUMP JUMPDEST PUSH17 0x1034B99036B4B9B9B4B733903937B6329 PUSH1 0x7D SHL PUSH1 0x17 SWAP2 DUP5 ADD SWAP2 DUP3 ADD MSTORE DUP4 MLOAD PUSH2 0x1011 DUP2 PUSH1 0x28 DUP5 ADD PUSH1 0x20 DUP9 ADD PUSH2 0xF84 JUMP JUMPDEST ADD PUSH1 0x28 ADD SWAP5 SWAP4 POP POP POP POP JUMP JUMPDEST PUSH1 0x20 DUP2 MSTORE PUSH1 0x0 DUP3 MLOAD DUP1 PUSH1 0x20 DUP5 ADD MSTORE PUSH2 0x103C DUP2 PUSH1 0x40 DUP6 ADD PUSH1 0x20 DUP8 ADD PUSH2 0xF84 JUMP JUMPDEST PUSH1 0x1F ADD PUSH1 0x1F NOT AND SWAP2 SWAP1 SWAP2 ADD PUSH1 0x40 ADD SWAP3 SWAP2 POP POP JUMP JUMPDEST PUSH4 0x4E487B71 PUSH1 0xE0 SHL PUSH1 0x0 MSTORE PUSH1 0x41 PUSH1 0x4 MSTORE PUSH1 0x24 PUSH1 0x0 REVERT JUMPDEST PUSH4 0x4E487B71 PUSH1 0xE0 SHL PUSH1 0x0 MSTORE PUSH1 0x32 PUSH1 0x4 MSTORE PUSH1 0x24 PUSH1 0x0 REVERT JUMPDEST PUSH1 0x0 DUP2 PUSH2 0x108B JUMPI PUSH2 0x108B PUSH2 0xF0F JUMP JUMPDEST POP PUSH1 0x0 NOT ADD SWAP1 JUMP INVALID LOG2 PUSH5 0x6970667358 0x22 SLT KECCAK256 0xB1 0xEB RETURNDATACOPY 0xE6 PREVRANDAO 0x4F 0xC3 0xBE PUSH24 0xB9A207810F9E0855CD9E0067646D4C2D2261C1DF399B7564 PUSH20 0x6F6C634300081400330000000000000000000000 "},"methodIdentifiers":{"DEFAULT_ADMIN_ROLE()":"a217fddf","RISK_OFFICER_ROLE()":"fc193645","baseInterestBps()":"8ecc987e","calculateUtilizationRateBps(uint256,uint256)":"c899e39f","getDailyLimit(address)":"58f2ef17","getDepositRateBps(uint256,uint256)":"97b4a29e","getInterestRateBps(address,uint256,uint256)":"d203e728","getRiskScore(address)":"dc08706d","getRoleAdmin(bytes32)":"248a9ca3","grantRole(bytes32,address)":"2f2ff15d","hasRole(bytes32,address)":"91d14854","initRisk(address,uint8,uint256)":"a9bb7c1f","optimalUtilization()":"6290cd1c","renounceRole(bytes32,address)":"36568abe","reserveFactorBps()":"c87bed70","revokeRole(bytes32,address)":"d547741f","riskProfiles(address)":"9948b18d","riskSlopeBps()":"3355a6a1","setBaseInterestBps(uint256)":"ac8555ef","setRiskSlopeBps(uint256)":"38a17370","slope1Bps()":"de0e63cd","slope2Bps()":"a14195a8","supportsInterface(bytes4)":"01ffc9a7","updateRisk(address,uint8,uint256)":"024cc726"}}}}}