{"contracts/ComplianceLog.sol":{"ComplianceLog":{"abi":[{"anonymous":false,"inputs":[{"indexed":true,"internalType":"address","name":"user","type":"address"},{"indexed":false,"internalType":"string","name":"alertType","type":"string"},{"indexed":false,"internalType":"string","name":"details","type":"string"}],"name":"AMLAlert","type":"event"},{"anonymous":false,"inputs":[{"indexed":true,"internalType":"address","name":"user","type":"address"},{"indexed":false,"internalType":"uint256","name":"until","type":"uint256"},{"indexed":false,"internalType":"string","name":"reason","type":"string"}],"name":"AccountLocked","type":"event"},{"anonymous":false,"inputs":[{"indexed":true,"internalType":"address","name":"user","type":"address"}],"name":"AccountUnlocked","type":"event"},{"anonymous":false,"inputs":[{"indexed":true,"internalType":"address","name":"auditor","type":"address"}],"name":"AuditorAdded","type":"event"},{"anonymous":false,"inputs":[{"indexed":true,"internalType":"address","name":"auditor","type":"address"}],"name":"AuditorRemoved","type":"event"},{"anonymous":false,"inputs":[{"indexed":true,"internalType":"address","name":"who","type":"address"},{"indexed":false,"internalType":"bool","name":"isBlacklisted","type":"bool"}],"name":"BlacklistUpdated","type":"event"},{"anonymous":false,"inputs":[{"indexed":true,"internalType":"address","name":"user","type":"address"},{"indexed":false,"internalType":"uint256","name":"caseId","type":"uint256"},{"indexed":false,"internalType":"string","name":"reason","type":"string"}],"name":"EDDRequested","type":"event"},{"anonymous":false,"inputs":[{"indexed":false,"internalType":"string","name":"paramName","type":"string"},{"indexed":false,"internalType":"bytes32","name":"oldValue","type":"bytes32"},{"indexed":false,"internalType":"bytes32","name":"newValue","type":"bytes32"}],"name":"GlobalParamUpdated","type":"event"},{"anonymous":false,"inputs":[{"indexed":true,"internalType":"uint256","name":"caseId","type":"uint256"},{"indexed":true,"internalType":"address","name":"auditor","type":"address"}],"name":"TransferApproved","type":"event"},{"anonymous":false,"inputs":[{"indexed":true,"internalType":"uint256","name":"caseId","type":"uint256"},{"indexed":true,"internalType":"address","name":"from","type":"address"},{"indexed":true,"internalType":"address","name":"to","type":"address"},{"indexed":false,"internalType":"uint256","name":"amount","type":"uint256"},{"indexed":false,"internalType":"string","name":"reason","type":"string"}],"name":"TransferEscrowed","type":"event"},{"anonymous":false,"inputs":[{"indexed":true,"internalType":"uint256","name":"caseId","type":"uint256"},{"indexed":true,"internalType":"address","name":"auditor","type":"address"},{"indexed":false,"internalType":"string","name":"reason","type":"string"}],"name":"TransferRejected","type":"event"},{"anonymous":false,"inputs":[{"indexed":true,"internalType":"uint256","name":"caseId","type":"uint256"},{"indexed":true,"internalType":"address","name":"from","type":"address"},{"indexed":true,"internalType":"address","name":"to","type":"address"},{"indexed":false,"internalType":"uint256","name":"amount","type":"uint256"}],"name":"TransferRequested","type":"event"},{"inputs":[{"internalType":"address","name":"user","type":"address"},{"internalType":"string","name":"alertType","type":"string"},{"internalType":"string","name":"details","type":"string"}],"name":"emitAMLAlert","outputs":[],"stateMutability":"nonpayable","type":"function"},{"inputs":[{"internalType":"address","name":"user","type":"address"},{"internalType":"uint256","name":"until","type":"uint256"},{"internalType":"string","name":"reason","type":"string"}],"name":"emitAccountLocked","outputs":[],"stateMutability":"nonpayable","type":"function"},{"inputs":[{"internalType":"address","name":"user","type":"address"}],"name":"emitAccountUnlocked","outputs":[],"stateMutability":"nonpayable","type":"function"},{"inputs":[{"internalType":"address","name":"auditor","type":"address"}],"name":"emitAuditorAdded","outputs":[],"stateMutability":"nonpayable","type":"function"},{"inputs":[{"internalType":"address","name":"auditor","type":"address"}],"name":"emitAuditorRemoved","outputs":[],"stateMutability":"nonpayable","type":"function"},{"inputs":[{"internalType":"address","name":"who","type":"address"},{"internalType":"bool","name":"isBlacklisted","type":"bool"}],"name":"emitBlacklistUpdated","outputs":[],"stateMutability":"nonpayable","type":"function"},{"inputs":[{"internalType":"address","name":"user","type":"address"},{"internalType":"uint256","name":"caseId","type":"uint256"},{"internalType":"string","name":"reason","type":"string"}],"name":"emitEDDRequested","outputs":[],"stateMutability":"nonpayable","type":"function"},{"inputs":[{"internalType":"string","name":"paramName","type":"string"},{"internalType":"bytes32","name":"oldValue","type":"bytes32"},{"internalType":"bytes32","name":"newValue","type":"bytes32"}],"name":"emitGlobalParamUpdated","outputs":[],"stateMutability":"nonpayable","type":"function"},{"inputs":[{"internalType":"uint256","name":"caseId","type":"uint256"},{"internalType":"address","name":"auditor","type":"address"}],"name":"emitTransferApproved","outputs":[],"stateMutability":"nonpayable","type":"function"},{"inputs":[{"internalType":"uint256","name":"caseId","type":"uint256"},{"internalType":"address","name":"from","type":"address"},{"internalType":"address","name":"to","type":"address"},{"internalType":"uint256","name":"amount","type":"uint256"},{"internalType":"string","name":"reason","type":"string"}],"name":"emitTransferEscrowed","outputs":[],"stateMutability":"nonpayable","type":"function"},{"inputs":[{"internalType":"uint256","name":"caseId","type":"uint256"},{"internalType":"address","name":"auditor","type":"address"},{"internalType":"string","name":"reason","type":"string"}],"name":"emitTransferRejected","outputs":[],"stateMutability":"nonpayable","type":"function"},{"inputs":[{"internalType":"uint256","name":"caseId","type":"uint256"},{"internalType":"address","name":"from","type":"address"},{"internalType":"address","name":"to","type":"address"},{"internalType":"uint256","name":"amount","type":"uint256"}],"name":"emitTransferRequested","outputs":[],"stateMutability":"nonpayable","type":"function"}],"evm":{"bytecode":{"linkReferences":{},"object":"608060405234801561001057600080fd5b506108e6806100206000396000f3fe608060405234801561001057600080fd5b50600436106100b45760003560e01c8063a2ea2ddc11610071578063a2ea2ddc1461012d578063ac14c14f14610140578063af19422714610153578063ec22bd6114610166578063efce5ef614610179578063f5155b611461018c57600080fd5b80632e0f0ed8146100b957806342ab08bc146100ce57806353cd9142146100e157806357c0ef76146100f4578063770b8729146101075780638b252c881461011a575b600080fd5b6100cc6100c73660046104f2565b61019f565b005b6100cc6100dc36600461055d565b6101d6565b6100cc6100ef3660046105de565b610224565b6100cc61010236600461062f565b610267565b6100cc61011536600461066b565b6102b0565b6100cc6101283660046106e3565b610308565b6100cc61013b366004610727565b61035c565b6100cc61014e3660046104f2565b6103a7565b6100cc610161366004610781565b6103de565b6100cc6101743660046107ad565b610418565b6100cc6101873660046104f2565b610462565b6100cc61019a366004610727565b610499565b6040516001600160a01b038216907fb7df7ef889418eecc895118f0d863c3074abf7769bfe39ba852192114c725dfc90600090a250565b846001600160a01b03167f238846d206fd61b6a3a971c4fecae3e9092ed1a8e99b317628dc1b9d66a0e701858585856040516102159493929190610818565b60405180910390a25050505050565b7f1251353c2ac9028fa28ac161bcd01fd4026f22e84ef84ba74685c210efad7c0984848484604051610259949392919061084a565b60405180910390a150505050565b816001600160a01b03167f6a12b3df6cba4203bd7fd06b816789f87de8c594299aed5717ae070fac781bac826040516102a4911515815260200190565b60405180910390a25050565b836001600160a01b0316856001600160a01b0316877fd466fe263c7e7f7baca04fefe8ca6d0e0bcbda3590644f5ea928bbe84249ef738686866040516102f893929190610871565b60405180910390a4505050505050565b816001600160a01b0316836001600160a01b0316857f962e9098ec9c999cf9e171626d6bed38f75fd5911f12a6fda5c2e76e895de6f58460405161034e91815260200190565b60405180910390a450505050565b836001600160a01b03167fdaf1a0e6241c0c4b04020b6f09059807f04741f697998ca4a7d77a0278f8e47c84848460405161039993929190610871565b60405180910390a250505050565b6040516001600160a01b038216907fd3e803f2dfdacd206b7d19aa46d847206386d84e3dc6b8de0926e54affa6fddc90600090a250565b6040516001600160a01b0382169083907fa4269914b1afdc8f7e4c3aa6794f0de6e37f00884fb97ea9288a1d68ba7de67b90600090a35050565b826001600160a01b0316847f983dee05b0574d0bc3f63b6c60086c1e297360e910af8b34bcc1845147a278e88484604051610454929190610894565b60405180910390a350505050565b6040516001600160a01b038216907f2c31044378cc14466459f09320dd4057d7ad6e99b194c0800c78227383a2529690600090a250565b836001600160a01b03167f978c495d1650b72837251b0fc7e3f9b210e20d26d0fa93fd509e23a8b45edf9584848460405161039993929190610871565b80356001600160a01b03811681146104ed57600080fd5b919050565b60006020828403121561050457600080fd5b61050d826104d6565b9392505050565b60008083601f84011261052657600080fd5b50813567ffffffffffffffff81111561053e57600080fd5b60208301915083602082850101111561055657600080fd5b9250929050565b60008060008060006060868803121561057557600080fd5b61057e866104d6565b9450602086013567ffffffffffffffff8082111561059b57600080fd5b6105a789838a01610514565b909650945060408801359150808211156105c057600080fd5b506105cd88828901610514565b969995985093965092949392505050565b600080600080606085870312156105f457600080fd5b843567ffffffffffffffff81111561060b57600080fd5b61061787828801610514565b90989097506020870135966040013595509350505050565b6000806040838503121561064257600080fd5b61064b836104d6565b91506020830135801515811461066057600080fd5b809150509250929050565b60008060008060008060a0878903121561068457600080fd5b86359550610694602088016104d6565b94506106a2604088016104d6565b935060608701359250608087013567ffffffffffffffff8111156106c557600080fd5b6106d189828a01610514565b979a9699509497509295939492505050565b600080600080608085870312156106f957600080fd5b84359350610709602086016104d6565b9250610717604086016104d6565b9396929550929360600135925050565b6000806000806060858703121561073d57600080fd5b610746856104d6565b935060208501359250604085013567ffffffffffffffff81111561076957600080fd5b61077587828801610514565b95989497509550505050565b6000806040838503121561079457600080fd5b823591506107a4602084016104d6565b90509250929050565b600080600080606085870312156107c357600080fd5b843593506107d3602086016104d6565b9250604085013567ffffffffffffffff81111561076957600080fd5b81835281816020850137506000828201602090810191909152601f909101601f19169091010190565b60408152600061082c6040830186886107ef565b828103602084015261083f8185876107ef565b979650505050505050565b60608152600061085e6060830186886107ef565b6020830194909452506040015292915050565b83815260406020820152600061088b6040830184866107ef565b95945050505050565b6020815260006108a86020830184866107ef565b94935050505056fea2646970667358221220ad5afb5927828d1ff5e95070d53bb9ffdec5da8508b4907228167b486c6b63be64736f6c63430008140033","opcodes":"PUSH1 0x80 PUSH1 0x40 MSTORE CALLVALUE DUP1 ISZERO PUSH2 0x10 JUMPI PUSH1 0x0 DUP1 REVERT JUMPDEST POP PUSH2 0x8E6 DUP1 PUSH2 0x20 PUSH1 0x0 CODECOPY PUSH1 0x0 RETURN INVALID PUSH1 0x80 PUSH1 0x40 MSTORE CALLVALUE DUP1 ISZERO PUSH2 0x10 JUMPI PUSH1 0x0 DUP1 REVERT JUMPDEST POP PUSH1 0x4 CALLDATASIZE LT PUSH2 0xB4 JUMPI PUSH1 0x0 CALLDATALOAD PUSH1 0xE0 SHR DUP1 PUSH4 0xA2EA2DDC GT PUSH2 0x71 JUMPI DUP1 PUSH4 0xA2EA2DDC EQ PUSH2 0x12D JUMPI DUP1 PUSH4 0xAC14C14F EQ PUSH2 0x140 JUMPI DUP1 PUSH4 0xAF194227 EQ PUSH2 0x153 JUMPI DUP1 PUSH4 0xEC22BD61 EQ PUSH2 0x166 JUMPI DUP1 PUSH4 0xEFCE5EF6 EQ PUSH2 0x179 JUMPI DUP1 PUSH4 0xF5155B61 EQ PUSH2 0x18C JUMPI PUSH1 0x0 DUP1 REVERT JUMPDEST DUP1 PUSH4 0x2E0F0ED8 EQ PUSH2 0xB9 JUMPI DUP1 PUSH4 0x42AB08BC EQ PUSH2 0xCE JUMPI DUP1 PUSH4 0x53CD9142 EQ PUSH2 0xE1 JUMPI DUP1 PUSH4 0x57C0EF76 EQ PUSH2 0xF4 JUMPI DUP1 PUSH4 0x770B8729 EQ PUSH2 0x107 JUMPI DUP1 PUSH4 0x8B252C88 EQ PUSH2 0x11A JUMPI JUMPDEST PUSH1 0x0 DUP1 REVERT JUMPDEST PUSH2 0xCC PUSH2 0xC7 CALLDATASIZE PUSH1 0x4 PUSH2 0x4F2 JUMP JUMPDEST PUSH2 0x19F JUMP JUMPDEST STOP JUMPDEST PUSH2 0xCC PUSH2 0xDC CALLDATASIZE PUSH1 0x4 PUSH2 0x55D JUMP JUMPDEST PUSH2 0x1D6 JUMP JUMPDEST PUSH2 0xCC PUSH2 0xEF CALLDATASIZE PUSH1 0x4 PUSH2 0x5DE JUMP JUMPDEST PUSH2 0x224 JUMP JUMPDEST PUSH2 0xCC PUSH2 0x102 CALLDATASIZE PUSH1 0x4 PUSH2 0x62F JUMP JUMPDEST PUSH2 0x267 JUMP JUMPDEST PUSH2 0xCC PUSH2 0x115 CALLDATASIZE PUSH1 0x4 PUSH2 0x66B JUMP JUMPDEST PUSH2 0x2B0 JUMP JUMPDEST PUSH2 0xCC PUSH2 0x128 CALLDATASIZE PUSH1 0x4 PUSH2 0x6E3 JUMP JUMPDEST PUSH2 0x308 JUMP JUMPDEST PUSH2 0xCC PUSH2 0x13B CALLDATASIZE PUSH1 0x4 PUSH2 0x727 JUMP JUMPDEST PUSH2 0x35C JUMP JUMPDEST PUSH2 0xCC PUSH2 0x14E CALLDATASIZE PUSH1 0x4 PUSH2 0x4F2 JUMP JUMPDEST PUSH2 0x3A7 JUMP JUMPDEST PUSH2 0xCC PUSH2 0x161 CALLDATASIZE PUSH1 0x4 PUSH2 0x781 JUMP JUMPDEST PUSH2 0x3DE JUMP JUMPDEST PUSH2 0xCC PUSH2 0x174 CALLDATASIZE PUSH1 0x4 PUSH2 0x7AD JUMP JUMPDEST PUSH2 0x418 JUMP JUMPDEST PUSH2 0xCC PUSH2 0x187 CALLDATASIZE PUSH1 0x4 PUSH2 0x4F2 JUMP JUMPDEST PUSH2 0x462 JUMP JUMPDEST PUSH2 0xCC PUSH2 0x19A CALLDATASIZE PUSH1 0x4 PUSH2 0x727 JUMP JUMPDEST PUSH2 0x499 JUMP JUMPDEST PUSH1 0x40 MLOAD PUSH1 0x1 PUSH1 0x1 PUSH1 0xA0 SHL SUB DUP3 AND SWAP1 PUSH32 0xB7DF7EF889418EECC895118F0D863C3074ABF7769BFE39BA852192114C725DFC SWAP1 PUSH1 0x0 SWAP1 LOG2 POP JUMP JUMPDEST DUP5 PUSH1 0x1 PUSH1 0x1 PUSH1 0xA0 SHL SUB AND PUSH32 0x238846D206FD61B6A3A971C4FECAE3E9092ED1A8E99B317628DC1B9D66A0E701 DUP6 DUP6 DUP6 DUP6 PUSH1 0x40 MLOAD PUSH2 0x215 SWAP5 SWAP4 SWAP3 SWAP2 SWAP1 PUSH2 0x818 JUMP JUMPDEST PUSH1 0x40 MLOAD DUP1 SWAP2 SUB SWAP1 LOG2 POP POP POP POP POP JUMP JUMPDEST PUSH32 0x1251353C2AC9028FA28AC161BCD01FD4026F22E84EF84BA74685C210EFAD7C09 DUP5 DUP5 DUP5 DUP5 PUSH1 0x40 MLOAD PUSH2 0x259 SWAP5 SWAP4 SWAP3 SWAP2 SWAP1 PUSH2 0x84A JUMP JUMPDEST PUSH1 0x40 MLOAD DUP1 SWAP2 SUB SWAP1 LOG1 POP POP POP POP JUMP JUMPDEST DUP2 PUSH1 0x1 PUSH1 0x1 PUSH1 0xA0 SHL SUB AND PUSH32 0x6A12B3DF6CBA4203BD7FD06B816789F87DE8C594299AED5717AE070FAC781BAC DUP3 PUSH1 0x40 MLOAD PUSH2 0x2A4 SWAP2 ISZERO ISZERO DUP2 MSTORE PUSH1 0x20 ADD SWAP1 JUMP JUMPDEST PUSH1 0x40 MLOAD DUP1 SWAP2 SUB SWAP1 LOG2 POP POP JUMP JUMPDEST DUP4 PUSH1 0x1 PUSH1 0x1 PUSH1 0xA0 SHL SUB AND DUP6 PUSH1 0x1 PUSH1 0x1 PUSH1 0xA0 SHL SUB AND DUP8 PUSH32 0xD466FE263C7E7F7BACA04FEFE8CA6D0E0BCBDA3590644F5EA928BBE84249EF73 DUP7 DUP7 DUP7 PUSH1 0x40 MLOAD PUSH2 0x2F8 SWAP4 SWAP3 SWAP2 SWAP1 PUSH2 0x871 JUMP JUMPDEST PUSH1 0x40 MLOAD DUP1 SWAP2 SUB SWAP1 LOG4 POP POP POP POP POP POP JUMP JUMPDEST DUP2 PUSH1 0x1 PUSH1 0x1 PUSH1 0xA0 SHL SUB AND DUP4 PUSH1 0x1 PUSH1 0x1 PUSH1 0xA0 SHL SUB AND DUP6 PUSH32 0x962E9098EC9C999CF9E171626D6BED38F75FD5911F12A6FDA5C2E76E895DE6F5 DUP5 PUSH1 0x40 MLOAD PUSH2 0x34E SWAP2 DUP2 MSTORE PUSH1 0x20 ADD SWAP1 JUMP JUMPDEST PUSH1 0x40 MLOAD DUP1 SWAP2 SUB SWAP1 LOG4 POP POP POP POP JUMP JUMPDEST DUP4 PUSH1 0x1 PUSH1 0x1 PUSH1 0xA0 SHL SUB AND PUSH32 0xDAF1A0E6241C0C4B04020B6F09059807F04741F697998CA4A7D77A0278F8E47C DUP5 DUP5 DUP5 PUSH1 0x40 MLOAD PUSH2 0x399 SWAP4 SWAP3 SWAP2 SWAP1 PUSH2 0x871 JUMP JUMPDEST PUSH1 0x40 MLOAD DUP1 SWAP2 SUB SWAP1 LOG2 POP POP POP POP JUMP JUMPDEST PUSH1 0x40 MLOAD PUSH1 0x1 PUSH1 0x1 PUSH1 0xA0 SHL SUB DUP3 AND SWAP1 PUSH32 0xD3E803F2DFDACD206B7D19AA46D847206386D84E3DC6B8DE0926E54AFFA6FDDC SWAP1 PUSH1 0x0 SWAP1 LOG2 POP JUMP JUMPDEST PUSH1 0x40 MLOAD PUSH1 0x1 PUSH1 0x1 PUSH1 0xA0 SHL SUB DUP3 AND SWAP1 DUP4 SWAP1 PUSH32 0xA4269914B1AFDC8F7E4C3AA6794F0DE6E37F00884FB97EA9288A1D68BA7DE67B SWAP1 PUSH1 0x0 SWAP1 LOG3 POP POP JUMP JUMPDEST DUP3 PUSH1 0x1 PUSH1 0x1 PUSH1 0xA0 SHL SUB AND DUP5 PUSH32 0x983DEE05B0574D0BC3F63B6C60086C1E297360E910AF8B34BCC1845147A278E8 DUP5 DUP5 PUSH1 0x40 MLOAD PUSH2 0x454 SWAP3 SWAP2 SWAP1 PUSH2 0x894 JUMP JUMPDEST PUSH1 0x40 MLOAD DUP1 SWAP2 SUB SWAP1 LOG3 POP POP POP POP JUMP JUMPDEST PUSH1 0x40 MLOAD PUSH1 0x1 PUSH1 0x1 PUSH1 0xA0 SHL SUB DUP3 AND SWAP1 PUSH32 0x2C31044378CC14466459F09320DD4057D7AD6E99B194C0800C78227383A25296 SWAP1 PUSH1 0x0 SWAP1 LOG2 POP JUMP JUMPDEST DUP4 PUSH1 0x1 PUSH1 0x1 PUSH1 0xA0 SHL SUB AND PUSH32 0x978C495D1650B72837251B0FC7E3F9B210E20D26D0FA93FD509E23A8B45EDF95 DUP5 DUP5 DUP5 PUSH1 0x40 MLOAD PUSH2 0x399 SWAP4 SWAP3 SWAP2 SWAP1 PUSH2 0x871 JUMP JUMPDEST DUP1 CALLDATALOAD PUSH1 0x1 PUSH1 0x1 PUSH1 0xA0 SHL SUB DUP2 AND DUP2 EQ PUSH2 0x4ED JUMPI PUSH1 0x0 DUP1 REVERT JUMPDEST SWAP2 SWAP1 POP JUMP JUMPDEST PUSH1 0x0 PUSH1 0x20 DUP3 DUP5 SUB SLT ISZERO PUSH2 0x504 JUMPI PUSH1 0x0 DUP1 REVERT JUMPDEST PUSH2 0x50D DUP3 PUSH2 0x4D6 JUMP JUMPDEST SWAP4 SWAP3 POP POP POP JUMP JUMPDEST PUSH1 0x0 DUP1 DUP4 PUSH1 0x1F DUP5 ADD SLT PUSH2 0x526 JUMPI PUSH1 0x0 DUP1 REVERT JUMPDEST POP DUP2 CALLDATALOAD PUSH8 0xFFFFFFFFFFFFFFFF DUP2 GT ISZERO PUSH2 0x53E JUMPI PUSH1 0x0 DUP1 REVERT JUMPDEST PUSH1 0x20 DUP4 ADD SWAP2 POP DUP4 PUSH1 0x20 DUP3 DUP6 ADD ADD GT ISZERO PUSH2 0x556 JUMPI PUSH1 0x0 DUP1 REVERT JUMPDEST SWAP3 POP SWAP3 SWAP1 POP JUMP JUMPDEST PUSH1 0x0 DUP1 PUSH1 0x0 DUP1 PUSH1 0x0 PUSH1 0x60 DUP7 DUP9 SUB SLT ISZERO PUSH2 0x575 JUMPI PUSH1 0x0 DUP1 REVERT JUMPDEST PUSH2 0x57E DUP7 PUSH2 0x4D6 JUMP JUMPDEST SWAP5 POP PUSH1 0x20 DUP7 ADD CALLDATALOAD PUSH8 0xFFFFFFFFFFFFFFFF DUP1 DUP3 GT ISZERO PUSH2 0x59B JUMPI PUSH1 0x0 DUP1 REVERT JUMPDEST PUSH2 0x5A7 DUP10 DUP4 DUP11 ADD PUSH2 0x514 JUMP JUMPDEST SWAP1 SWAP7 POP SWAP5 POP PUSH1 0x40 DUP9 ADD CALLDATALOAD SWAP2 POP DUP1 DUP3 GT ISZERO PUSH2 0x5C0 JUMPI PUSH1 0x0 DUP1 REVERT JUMPDEST POP PUSH2 0x5CD DUP9 DUP3 DUP10 ADD PUSH2 0x514 JUMP JUMPDEST SWAP7 SWAP10 SWAP6 SWAP9 POP SWAP4 SWAP7 POP SWAP3 SWAP5 SWAP4 SWAP3 POP POP POP JUMP JUMPDEST PUSH1 0x0 DUP1 PUSH1 0x0 DUP1 PUSH1 0x60 DUP6 DUP8 SUB SLT ISZERO PUSH2 0x5F4 JUMPI PUSH1 0x0 DUP1 REVERT JUMPDEST DUP5 CALLDATALOAD PUSH8 0xFFFFFFFFFFFFFFFF DUP2 GT ISZERO PUSH2 0x60B JUMPI PUSH1 0x0 DUP1 REVERT JUMPDEST PUSH2 0x617 DUP8 DUP3 DUP9 ADD PUSH2 0x514 JUMP JUMPDEST SWAP1 SWAP9 SWAP1 SWAP8 POP PUSH1 0x20 DUP8 ADD CALLDATALOAD SWAP7 PUSH1 0x40 ADD CALLDATALOAD SWAP6 POP SWAP4 POP POP POP POP JUMP JUMPDEST PUSH1 0x0 DUP1 PUSH1 0x40 DUP4 DUP6 SUB SLT ISZERO PUSH2 0x642 JUMPI PUSH1 0x0 DUP1 REVERT JUMPDEST PUSH2 0x64B DUP4 PUSH2 0x4D6 JUMP JUMPDEST SWAP2 POP PUSH1 0x20 DUP4 ADD CALLDATALOAD DUP1 ISZERO ISZERO DUP2 EQ PUSH2 0x660 JUMPI PUSH1 0x0 DUP1 REVERT JUMPDEST DUP1 SWAP2 POP POP SWAP3 POP SWAP3 SWAP1 POP JUMP JUMPDEST PUSH1 0x0 DUP1 PUSH1 0x0 DUP1 PUSH1 0x0 DUP1 PUSH1 0xA0 DUP8 DUP10 SUB SLT ISZERO PUSH2 0x684 JUMPI PUSH1 0x0 DUP1 REVERT JUMPDEST DUP7 CALLDATALOAD SWAP6 POP PUSH2 0x694 PUSH1 0x20 DUP9 ADD PUSH2 0x4D6 JUMP JUMPDEST SWAP5 POP PUSH2 0x6A2 PUSH1 0x40 DUP9 ADD PUSH2 0x4D6 JUMP JUMPDEST SWAP4 POP PUSH1 0x60 DUP8 ADD CALLDATALOAD SWAP3 POP PUSH1 0x80 DUP8 ADD CALLDATALOAD PUSH8 0xFFFFFFFFFFFFFFFF DUP2 GT ISZERO PUSH2 0x6C5 JUMPI PUSH1 0x0 DUP1 REVERT JUMPDEST PUSH2 0x6D1 DUP10 DUP3 DUP11 ADD PUSH2 0x514 JUMP JUMPDEST SWAP8 SWAP11 SWAP7 SWAP10 POP SWAP5 SWAP8 POP SWAP3 SWAP6 SWAP4 SWAP5 SWAP3 POP POP POP JUMP JUMPDEST PUSH1 0x0 DUP1 PUSH1 0x0 DUP1 PUSH1 0x80 DUP6 DUP8 SUB SLT ISZERO PUSH2 0x6F9 JUMPI PUSH1 0x0 DUP1 REVERT JUMPDEST DUP5 CALLDATALOAD SWAP4 POP PUSH2 0x709 PUSH1 0x20 DUP7 ADD PUSH2 0x4D6 JUMP JUMPDEST SWAP3 POP PUSH2 0x717 PUSH1 0x40 DUP7 ADD PUSH2 0x4D6 JUMP JUMPDEST SWAP4 SWAP7 SWAP3 SWAP6 POP SWAP3 SWAP4 PUSH1 0x60 ADD CALLDATALOAD SWAP3 POP POP JUMP JUMPDEST PUSH1 0x0 DUP1 PUSH1 0x0 DUP1 PUSH1 0x60 DUP6 DUP8 SUB SLT ISZERO PUSH2 0x73D JUMPI PUSH1 0x0 DUP1 REVERT JUMPDEST PUSH2 0x746 DUP6 PUSH2 0x4D6 JUMP JUMPDEST SWAP4 POP PUSH1 0x20 DUP6 ADD CALLDATALOAD SWAP3 POP PUSH1 0x40 DUP6 ADD CALLDATALOAD PUSH8 0xFFFFFFFFFFFFFFFF DUP2 GT ISZERO PUSH2 0x769 JUMPI PUSH1 0x0 DUP1 REVERT JUMPDEST PUSH2 0x775 DUP8 DUP3 DUP9 ADD PUSH2 0x514 JUMP JUMPDEST SWAP6 SWAP9 SWAP5 SWAP8 POP SWAP6 POP POP POP POP JUMP JUMPDEST PUSH1 0x0 DUP1 PUSH1 0x40 DUP4 DUP6 SUB SLT ISZERO PUSH2 0x794 JUMPI PUSH1 0x0 DUP1 REVERT JUMPDEST DUP3 CALLDATALOAD SWAP2 POP PUSH2 0x7A4 PUSH1 0x20 DUP5 ADD PUSH2 0x4D6 JUMP JUMPDEST SWAP1 POP SWAP3 POP SWAP3 SWAP1 POP JUMP JUMPDEST PUSH1 0x0 DUP1 PUSH1 0x0 DUP1 PUSH1 0x60 DUP6 DUP8 SUB SLT ISZERO PUSH2 0x7C3 JUMPI PUSH1 0x0 DUP1 REVERT JUMPDEST DUP5 CALLDATALOAD SWAP4 POP PUSH2 0x7D3 PUSH1 0x20 DUP7 ADD PUSH2 0x4D6 JUMP JUMPDEST SWAP3 POP PUSH1 0x40 DUP6 ADD CALLDATALOAD PUSH8 0xFFFFFFFFFFFFFFFF DUP2 GT ISZERO PUSH2 0x769 JUMPI PUSH1 0x0 DUP1 REVERT JUMPDEST DUP2 DUP4 MSTORE DUP2 DUP2 PUSH1 0x20 DUP6 ADD CALLDATACOPY POP PUSH1 0x0 DUP3 DUP3 ADD PUSH1 0x20 SWAP1 DUP2 ADD SWAP2 SWAP1 SWAP2 MSTORE PUSH1 0x1F SWAP1 SWAP2 ADD PUSH1 0x1F NOT AND SWAP1 SWAP2 ADD ADD SWAP1 JUMP JUMPDEST PUSH1 0x40 DUP2 MSTORE PUSH1 0x0 PUSH2 0x82C PUSH1 0x40 DUP4 ADD DUP7 DUP9 PUSH2 0x7EF JUMP JUMPDEST DUP3 DUP2 SUB PUSH1 0x20 DUP5 ADD MSTORE PUSH2 0x83F DUP2 DUP6 DUP8 PUSH2 0x7EF JUMP JUMPDEST SWAP8 SWAP7 POP POP POP POP POP POP POP JUMP JUMPDEST PUSH1 0x60 DUP2 MSTORE PUSH1 0x0 PUSH2 0x85E PUSH1 0x60 DUP4 ADD DUP7 DUP9 PUSH2 0x7EF JUMP JUMPDEST PUSH1 0x20 DUP4 ADD SWAP5 SWAP1 SWAP5 MSTORE POP PUSH1 0x40 ADD MSTORE SWAP3 SWAP2 POP POP JUMP JUMPDEST DUP4 DUP2 MSTORE PUSH1 0x40 PUSH1 0x20 DUP3 ADD MSTORE PUSH1 0x0 PUSH2 0x88B PUSH1 0x40 DUP4 ADD DUP5 DUP7 PUSH2 0x7EF JUMP JUMPDEST SWAP6 SWAP5 POP POP POP POP POP JUMP JUMPDEST PUSH1 0x20 DUP2 MSTORE PUSH1 0x0 PUSH2 0x8A8 PUSH1 0x20 DUP4 ADD DUP5 DUP7 PUSH2 0x7EF JUMP JUMPDEST SWAP5 SWAP4 POP POP POP POP JUMP INVALID LOG2 PUSH5 0x6970667358 0x22 SLT KECCAK256 0xAD GAS 0xFB MSIZE 0x27 DUP3 DUP14 0x1F CREATE2 0xE9 POP PUSH17 0xD53BB9FFDEC5DA8508B4907228167B486C PUSH12 0x63BE64736F6C634300081400 CALLER "},"methodIdentifiers":{"emitAMLAlert(address,string,string)":"42ab08bc","emitAccountLocked(address,uint256,string)":"a2ea2ddc","emitAccountUnlocked(address)":"2e0f0ed8","emitAuditorAdded(address)":"efce5ef6","emitAuditorRemoved(address)":"ac14c14f","emitBlacklistUpdated(address,bool)":"57c0ef76","emitEDDRequested(address,uint256,string)":"f5155b61","emitGlobalParamUpdated(string,bytes32,bytes32)":"53cd9142","emitTransferApproved(uint256,address)":"af194227","emitTransferEscrowed(uint256,address,address,uint256,string)":"770b8729","emitTransferRejected(uint256,address,string)":"ec22bd61","emitTransferRequested(uint256,address,address,uint256)":"8b252c88"}}}}}