{"contracts/BankVault.sol":{"BankVault":{"abi":[{"inputs":[{"internalType":"contract IERC20","name":"_token","type":"address"},{"internalType":"contract IdentityRegistry","name":"_identity","type":"address"},{"internalType":"contract RiskEngine","name":"_risk","type":"address"},{"internalType":"contract ComplianceLog","name":"_log","type":"address"}],"stateMutability":"nonpayable","type":"constructor"},{"anonymous":false,"inputs":[{"indexed":true,"internalType":"address","name":"user","type":"address"},{"indexed":false,"internalType":"uint256","name":"amount","type":"uint256"}],"name":"Deposited","type":"event"},{"anonymous":false,"inputs":[{"indexed":true,"internalType":"uint256","name":"caseId","type":"uint256"},{"indexed":true,"internalType":"address","name":"from","type":"address"},{"indexed":true,"internalType":"address","name":"to","type":"address"},{"indexed":false,"internalType":"uint256","name":"amount","type":"uint256"}],"name":"EscrowApproved","type":"event"},{"anonymous":false,"inputs":[{"indexed":true,"internalType":"uint256","name":"caseId","type":"uint256"},{"indexed":true,"internalType":"address","name":"from","type":"address"},{"indexed":true,"internalType":"address","name":"to","type":"address"},{"indexed":false,"internalType":"uint256","name":"amount","type":"uint256"}],"name":"EscrowCreated","type":"event"},{"anonymous":false,"inputs":[{"indexed":true,"internalType":"uint256","name":"caseId","type":"uint256"},{"indexed":true,"internalType":"address","name":"from","type":"address"},{"indexed":true,"internalType":"address","name":"to","type":"address"},{"indexed":false,"internalType":"uint256","name":"amount","type":"uint256"},{"indexed":false,"internalType":"string","name":"reason","type":"string"}],"name":"EscrowRejected","type":"event"},{"anonymous":false,"inputs":[{"indexed":true,"internalType":"address","name":"from","type":"address"},{"indexed":true,"internalType":"address","name":"to","type":"address"},{"indexed":false,"internalType":"uint256","name":"amount","type":"uint256"}],"name":"ImmediateTransfer","type":"event"},{"anonymous":false,"inputs":[{"indexed":true,"internalType":"uint256","name":"loanId","type":"uint256"},{"indexed":true,"internalType":"address","name":"borrower","type":"address"},{"indexed":false,"internalType":"uint256","name":"principal","type":"uint256"}],"name":"LoanApproved","type":"event"},{"anonymous":false,"inputs":[{"indexed":true,"internalType":"uint256","name":"loanId","type":"uint256"},{"indexed":true,"internalType":"address","name":"borrower","type":"address"},{"indexed":false,"internalType":"uint256","name":"principal","type":"uint256"},{"indexed":false,"internalType":"string","name":"reason","type":"string"}],"name":"LoanRejected","type":"event"},{"anonymous":false,"inputs":[{"indexed":true,"internalType":"address","name":"borrower","type":"address"},{"indexed":false,"internalType":"uint256","name":"amount","type":"uint256"}],"name":"LoanRepaid","type":"event"},{"anonymous":false,"inputs":[{"indexed":true,"internalType":"uint256","name":"loanId","type":"uint256"},{"indexed":true,"internalType":"address","name":"borrower","type":"address"},{"indexed":false,"internalType":"uint256","name":"principal","type":"uint256"},{"indexed":false,"internalType":"uint256","name":"rateBps","type":"uint256"}],"name":"LoanRequested","type":"event"},{"anonymous":false,"inputs":[{"indexed":true,"internalType":"uint256","name":"redeemId","type":"uint256"},{"indexed":true,"internalType":"address","name":"user","type":"address"},{"indexed":false,"internalType":"uint256","name":"susdAmount","type":"uint256"},{"indexed":false,"internalType":"uint256","name":"ethAmount","type":"uint256"}],"name":"RedeemApproved","type":"event"},{"anonymous":false,"inputs":[{"indexed":true,"internalType":"uint256","name":"redeemId","type":"uint256"},{"indexed":true,"internalType":"address","name":"user","type":"address"},{"indexed":false,"internalType":"uint256","name":"susdAmount","type":"uint256"},{"indexed":false,"internalType":"string","name":"reason","type":"string"}],"name":"RedeemRejected","type":"event"},{"anonymous":false,"inputs":[{"indexed":true,"internalType":"uint256","name":"redeemId","type":"uint256"},{"indexed":true,"internalType":"address","name":"user","type":"address"},{"indexed":false,"internalType":"string","name":"assetSymbol","type":"string"},{"indexed":false,"internalType":"uint256","name":"susdAmount","type":"uint256"}],"name":"RedeemRequested","type":"event"},{"anonymous":false,"inputs":[{"indexed":true,"internalType":"bytes32","name":"role","type":"bytes32"},{"indexed":true,"internalType":"bytes32","name":"previousAdminRole","type":"bytes32"},{"indexed":true,"internalType":"bytes32","name":"newAdminRole","type":"bytes32"}],"name":"RoleAdminChanged","type":"event"},{"anonymous":false,"inputs":[{"indexed":true,"internalType":"bytes32","name":"role","type":"bytes32"},{"indexed":true,"internalType":"address","name":"account","type":"address"},{"indexed":true,"internalType":"address","name":"sender","type":"address"}],"name":"RoleGranted","type":"event"},{"anonymous":false,"inputs":[{"indexed":true,"internalType":"bytes32","name":"role","type":"bytes32"},{"indexed":true,"internalType":"address","name":"account","type":"address"},{"indexed":true,"internalType":"address","name":"sender","type":"address"}],"name":"RoleRevoked","type":"event"},{"anonymous":false,"inputs":[{"indexed":true,"internalType":"address","name":"user","type":"address"},{"indexed":false,"internalType":"uint256","name":"amount","type":"uint256"}],"name":"Withdrawn","type":"event"},{"inputs":[],"name":"ADMIN_ROLE","outputs":[{"internalType":"bytes32","name":"","type":"bytes32"}],"stateMutability":"view","type":"function"},{"inputs":[],"name":"AUDITOR_ROLE","outputs":[{"internalType":"bytes32","name":"","type":"bytes32"}],"stateMutability":"view","type":"function"},{"inputs":[],"name":"DEFAULT_ADMIN_ROLE","outputs":[{"internalType":"bytes32","name":"","type":"bytes32"}],"stateMutability":"view","type":"function"},{"inputs":[],"name":"TEN_K","outputs":[{"internalType":"uint256","name":"","type":"uint256"}],"stateMutability":"view","type":"function"},{"inputs":[{"internalType":"address","name":"auditor","type":"address"}],"name":"addAuditor","outputs":[],"stateMutability":"nonpayable","type":"function"},{"inputs":[{"internalType":"uint256","name":"caseId","type":"uint256"}],"name":"approveEscrow","outputs":[],"stateMutability":"nonpayable","type":"function"},{"inputs":[{"internalType":"uint256","name":"loanId","type":"uint256"},{"internalType":"uint256","name":"ethAmount","type":"uint256"}],"name":"approveLoan","outputs":[],"stateMutability":"nonpayable","type":"function"},{"inputs":[{"internalType":"uint256","name":"redeemId","type":"uint256"}],"name":"approveRedeem","outputs":[],"stateMutability":"nonpayable","type":"function"},{"inputs":[{"internalType":"address","name":"","type":"address"}],"name":"balances","outputs":[{"internalType":"uint256","name":"","type":"uint256"}],"stateMutability":"view","type":"function"},{"inputs":[{"internalType":"address","name":"","type":"address"}],"name":"blacklisted","outputs":[{"internalType":"bool","name":"","type":"bool"}],"stateMutability":"view","type":"function"},{"inputs":[{"internalType":"address","name":"","type":"address"}],"name":"dailyStats","outputs":[{"internalType":"uint256","name":"day","type":"uint256"},{"internalType":"uint256","name":"spent","type":"uint256"}],"stateMutability":"view","type":"function"},{"inputs":[{"internalType":"uint256","name":"amount","type":"uint256"}],"name":"deposit","outputs":[],"stateMutability":"nonpayable","type":"function"},{"inputs":[],"name":"depositApyBps","outputs":[{"internalType":"uint256","name":"","type":"uint256"}],"stateMutability":"view","type":"function"},{"inputs":[{"internalType":"uint256","name":"susdAmount","type":"uint256"}],"name":"depositFromExternal","outputs":[],"stateMutability":"payable","type":"function"},{"inputs":[],"name":"ethPerSUSDE18","outputs":[{"internalType":"uint256","name":"","type":"uint256"}],"stateMutability":"view","type":"function"},{"inputs":[{"internalType":"address","name":"user","type":"address"},{"internalType":"uint256","name":"until","type":"uint256"},{"internalType":"string","name":"reason","type":"string"}],"name":"forceLockAccount","outputs":[],"stateMutability":"nonpayable","type":"function"},{"inputs":[{"internalType":"address","name":"","type":"address"}],"name":"freqStats","outputs":[{"internalType":"uint256","name":"windowStart","type":"uint256"},{"internalType":"uint256","name":"count","type":"uint256"}],"stateMutability":"view","type":"function"},{"inputs":[],"name":"frequencyWindow","outputs":[{"internalType":"uint256","name":"","type":"uint256"}],"stateMutability":"view","type":"function"},{"inputs":[{"internalType":"uint256","name":"caseId","type":"uint256"}],"name":"getEscrow","outputs":[{"internalType":"address","name":"from_","type":"address"},{"internalType":"address","name":"to_","type":"address"},{"internalType":"uint256","name":"amount_","type":"uint256"},{"internalType":"enum BankVault.EscrowStatus","name":"status_","type":"uint8"},{"internalType":"uint256","name":"createdAt_","type":"uint256"},{"internalType":"uint256","name":"approvals_","type":"uint256"}],"stateMutability":"view","type":"function"},{"inputs":[{"internalType":"uint256","name":"loanId","type":"uint256"}],"name":"getLoanCase","outputs":[{"internalType":"address","name":"borrower_","type":"address"},{"internalType":"uint256","name":"principal_","type":"uint256"},{"internalType":"uint256","name":"rateBps_","type":"uint256"},{"internalType":"enum BankVault.LoanStatus","name":"status_","type":"uint8"},{"internalType":"uint256","name":"createdAt_","type":"uint256"},{"internalType":"uint256","name":"approvals_","type":"uint256"}],"stateMutability":"view","type":"function"},{"inputs":[{"internalType":"uint256","name":"redeemId","type":"uint256"}],"name":"getRedeemCase","outputs":[{"internalType":"address","name":"user_","type":"address"},{"internalType":"string","name":"assetSymbol_","type":"string"},{"internalType":"uint256","name":"susdAmount_","type":"uint256"},{"internalType":"uint256","name":"ethAmount_","type":"uint256"},{"internalType":"enum BankVault.RedeemStatus","name":"status_","type":"uint8"},{"internalType":"uint256","name":"createdAt_","type":"uint256"},{"internalType":"uint256","name":"approvals_","type":"uint256"}],"stateMutability":"view","type":"function"},{"inputs":[{"internalType":"bytes32","name":"role","type":"bytes32"}],"name":"getRoleAdmin","outputs":[{"internalType":"bytes32","name":"","type":"bytes32"}],"stateMutability":"view","type":"function"},{"inputs":[{"internalType":"bytes32","name":"role","type":"bytes32"},{"internalType":"address","name":"account","type":"address"}],"name":"grantRole","outputs":[],"stateMutability":"nonpayable","type":"function"},{"inputs":[{"internalType":"bytes32","name":"role","type":"bytes32"},{"internalType":"address","name":"account","type":"address"}],"name":"hasRole","outputs":[{"internalType":"bool","name":"","type":"bool"}],"stateMutability":"view","type":"function"},{"inputs":[],"name":"identity","outputs":[{"internalType":"contract IdentityRegistry","name":"","type":"address"}],"stateMutability":"view","type":"function"},{"inputs":[],"name":"lockDuration","outputs":[{"internalType":"uint256","name":"","type":"uint256"}],"stateMutability":"view","type":"function"},{"inputs":[{"internalType":"address","name":"","type":"address"}],"name":"lockedUntil","outputs":[{"internalType":"uint256","name":"","type":"uint256"}],"stateMutability":"view","type":"function"},{"inputs":[],"name":"logContract","outputs":[{"internalType":"contract ComplianceLog","name":"","type":"address"}],"stateMutability":"view","type":"function"},{"inputs":[],"name":"maxTxPerWindow","outputs":[{"internalType":"uint256","name":"","type":"uint256"}],"stateMutability":"view","type":"function"},{"inputs":[],"name":"nextCaseId","outputs":[{"internalType":"uint256","name":"","type":"uint256"}],"stateMutability":"view","type":"function"},{"inputs":[],"name":"nextLoanId","outputs":[{"internalType":"uint256","name":"","type":"uint256"}],"stateMutability":"view","type":"function"},{"inputs":[],"name":"nextRedeemId","outputs":[{"internalType":"uint256","name":"","type":"uint256"}],"stateMutability":"view","type":"function"},{"inputs":[],"name":"pause","outputs":[],"stateMutability":"nonpayable","type":"function"},{"inputs":[],"name":"paused","outputs":[{"internalType":"bool","name":"","type":"bool"}],"stateMutability":"view","type":"function"},{"inputs":[{"internalType":"string","name":"assetSymbol","type":"string"},{"internalType":"uint256","name":"susdAmount","type":"uint256"},{"internalType":"uint256","name":"ethAmount","type":"uint256"}],"name":"redeemToAsset","outputs":[],"stateMutability":"nonpayable","type":"function"},{"inputs":[{"internalType":"uint256","name":"caseId","type":"uint256"},{"internalType":"string","name":"reason","type":"string"}],"name":"rejectEscrow","outputs":[],"stateMutability":"nonpayable","type":"function"},{"inputs":[{"internalType":"uint256","name":"loanId","type":"uint256"},{"internalType":"string","name":"reason","type":"string"}],"name":"rejectLoan","outputs":[],"stateMutability":"nonpayable","type":"function"},{"inputs":[{"internalType":"uint256","name":"redeemId","type":"uint256"},{"internalType":"string","name":"reason","type":"string"}],"name":"rejectRedeem","outputs":[],"stateMutability":"nonpayable","type":"function"},{"inputs":[{"internalType":"address","name":"auditor","type":"address"}],"name":"removeAuditor","outputs":[],"stateMutability":"nonpayable","type":"function"},{"inputs":[{"internalType":"bytes32","name":"role","type":"bytes32"},{"internalType":"address","name":"account","type":"address"}],"name":"renounceRole","outputs":[],"stateMutability":"nonpayable","type":"function"},{"inputs":[{"internalType":"uint256","name":"amount","type":"uint256"}],"name":"repayLoan","outputs":[],"stateMutability":"nonpayable","type":"function"},{"inputs":[{"internalType":"uint256","name":"principal","type":"uint256"}],"name":"requestLoan","outputs":[],"stateMutability":"nonpayable","type":"function"},{"inputs":[{"internalType":"bytes32","name":"role","type":"bytes32"},{"internalType":"address","name":"account","type":"address"}],"name":"revokeRole","outputs":[],"stateMutability":"nonpayable","type":"function"},{"inputs":[],"name":"riskEngine","outputs":[{"internalType":"contract RiskEngine","name":"","type":"address"}],"stateMutability":"view","type":"function"},{"inputs":[{"internalType":"address","name":"user","type":"address"},{"internalType":"bool","name":"isBlacklisted_","type":"bool"}],"name":"setBlacklist","outputs":[],"stateMutability":"nonpayable","type":"function"},{"inputs":[{"internalType":"uint256","name":"bps","type":"uint256"}],"name":"setDepositApyBps","outputs":[],"stateMutability":"nonpayable","type":"function"},{"inputs":[{"internalType":"uint256","name":"windowSec","type":"uint256"},{"internalType":"uint256","name":"maxCount","type":"uint256"},{"internalType":"uint256","name":"lockSec","type":"uint256"}],"name":"setFrequencyParams","outputs":[],"stateMutability":"nonpayable","type":"function"},{"inputs":[{"internalType":"bytes4","name":"interfaceId","type":"bytes4"}],"name":"supportsInterface","outputs":[{"internalType":"bool","name":"","type":"bool"}],"stateMutability":"view","type":"function"},{"inputs":[],"name":"token","outputs":[{"internalType":"contract IERC20","name":"","type":"address"}],"stateMutability":"view","type":"function"},{"inputs":[],"name":"totalBorrowedSusd","outputs":[{"internalType":"uint256","name":"","type":"uint256"}],"stateMutability":"view","type":"function"},{"inputs":[],"name":"totalDepositsSusd","outputs":[{"internalType":"uint256","name":"","type":"uint256"}],"stateMutability":"view","type":"function"},{"inputs":[{"internalType":"address","name":"to","type":"address"},{"internalType":"uint256","name":"amount","type":"uint256"}],"name":"transfer","outputs":[],"stateMutability":"nonpayable","type":"function"},{"inputs":[{"internalType":"address","name":"user","type":"address"}],"name":"unlockAccount","outputs":[],"stateMutability":"nonpayable","type":"function"},{"inputs":[],"name":"unpause","outputs":[],"stateMutability":"nonpayable","type":"function"},{"inputs":[{"internalType":"uint256","name":"amount","type":"uint256"}],"name":"withdraw","outputs":[],"stateMutability":"nonpayable","type":"function"},{"stateMutability":"payable","type":"receive"}],"evm":{"bytecode":{"linkReferences":{},"object":"610100604052603c6001556003600255610e1060035560016009556001600b556001600d5560c86013553480156200003657600080fd5b5060405162004b1338038062004b13833981016040819052620000599162000175565b6001600160a01b0380851660805283811660a05282811660c052811660e05262000085600033620000bb565b620000b17fa49807205ce4d355092ef5a8a18f56e8913cf4a201fbe287825b095693c2177533620000bb565b50505050620001dd565b6000828152602081815260408083206001600160a01b038516845290915290205460ff1662000158576000828152602081815260408083206001600160a01b03851684529091529020805460ff19166001179055620001173390565b6001600160a01b0316816001600160a01b0316837f2f8788117e7eff1d82e926ec794901d17c78024a50270940304540a733656f0d60405160405180910390a45b5050565b6001600160a01b03811681146200017257600080fd5b50565b600080600080608085870312156200018c57600080fd5b845162000199816200015c565b6020860151909450620001ac816200015c565b6040860151909350620001bf816200015c565b6060860151909250620001d2816200015c565b939692955090935050565b60805160a05160c05160e05161483f620002d46000396000818161094301528181610c2c01528181610db3015281816122360152818161234301528181612aab01528181612f4c01528181613061015281816130ef015281816133120152818161358501528181613640015281816137cf01528181613a5d0152613ae10152600081816107be01528181611ffd0152818161212201526136cf0152600081816104b601528181610fb801528181611b1b01528181611d9b01528181612406015281816126040152818161286c0152612b50015260008181610ac301528181611135015281816127340152612ca4015261483f6000f3fe6080604052600436106103545760003560e01c8063837cbe04116101c6578063b6b55f25116100f7578063e283bc4a11610095578063e6116cfd1161006f578063e6116cfd14610a51578063f4baae4114610a71578063f6fcaf1214610a91578063fc0c546a14610ab157600080fd5b8063e283bc4a146109e9578063e429cef1146109ff578063e4f598c014610a1f57600080fd5b8063cfe279b2116100d1578063cfe279b214610931578063d211d8e514610965578063d547741f14610999578063dbac26e9146109b957600080fd5b8063b6b55f2514610895578063c5a52635146108b5578063cc3a1aba146108e857600080fd5b806392b888ae11610164578063a9059cbb1161013e578063a9059cbb14610822578063ab7b1c8914610842578063b547986b14610862578063b58fb4571461087557600080fd5b806392b888ae146107ac5780639bc289f1146107e0578063a217fddf1461080d57600080fd5b80638c970e77116101a05780638c970e771461072c5780638d5d34291461074c578063905295e31461076c57806391d148541461078c57600080fd5b8063837cbe04146106e35780638456cb591461070157806387c514591461071657600080fd5b80633eb09ece116102a05780636350eae81161023e578063731314e611610218578063731314e61461064f57806375b238fc1461066f5780637a646492146106915780637d19e596146106b157600080fd5b80636350eae8146106015780636c828a52146106175780636e1d616e1461062d57600080fd5b8063475cfb551161027a578063475cfb551461059b57806352ee8f81146105b1578063582b7506146105d15780635c975abb146105e757600080fd5b80633eb09ece146105505780633f4ba83a1461057057806342569ca71461058557600080fd5b8063268fb01e1161030d5780632c159a1a116102e75780632c159a1a146104a45780632e1a7d4d146104f05780632f2ff15d1461051057806336568abe1461053057600080fd5b8063268fb01e1461044157806327e235e314610461578063281189091461048e57600080fd5b806301ffc9a71461036057806303fce7ef1461039557806304554443146103b7578063153b0d1e146103db578063248a9ca3146103fb57806325d712401461042b57600080fd5b3661035b57005b600080fd5b34801561036c57600080fd5b5061038061037b366004613df2565b610ae5565b60405190151581526020015b60405180910390f35b3480156103a157600080fd5b506103b56103b0366004613e1c565b610b1c565b005b3480156103c357600080fd5b506103cd60035481565b60405190815260200161038c565b3480156103e757600080fd5b506103b56103f6366004613e5f565b610d3a565b34801561040757600080fd5b506103cd610416366004613e1c565b60009081526020819052604090206001015490565b34801561043757600080fd5b506103cd60015481565b34801561044d57600080fd5b506103b561045c366004613edf565b610e15565b34801561046d57600080fd5b506103cd61047c366004613f2b565b60046020526000908152604090205481565b34801561049a57600080fd5b506103cd60025481565b3480156104b057600080fd5b506104d87f000000000000000000000000000000000000000000000000000000000000000081565b6040516001600160a01b03909116815260200161038c565b3480156104fc57600080fd5b506103b561050b366004613e1c565b610f80565b34801561051c57600080fd5b506103b561052b366004613f46565b611221565b34801561053c57600080fd5b506103b561054b366004613f46565b611246565b34801561055c57600080fd5b506103b561056b366004613e1c565b6112c4565b34801561057c57600080fd5b506103b561157a565b34801561059157600080fd5b506103cd60135481565b3480156105a757600080fd5b506103cd600c5481565b3480156105bd57600080fd5b506103b56105cc366004613edf565b6115ba565b3480156105dd57600080fd5b506103cd600f5481565b3480156105f357600080fd5b506012546103809060ff1681565b34801561060d57600080fd5b506103cd60095481565b34801561062357600080fd5b506103cd60105481565b34801561063957600080fd5b506103cd6000805160206147ca83398151915281565b34801561065b57600080fd5b506103b561066a366004613e1c565b6116da565b34801561067b57600080fd5b506103cd6000805160206147ea83398151915281565b34801561069d57600080fd5b506103b56106ac366004613f72565b611713565b3480156106bd57600080fd5b506106d16106cc366004613e1c565b611a1c565b60405161038c96959493929190613fc8565b3480156106ef57600080fd5b506103cd69021e19e0c9bab240000081565b34801561070d57600080fd5b506103b5611aa0565b34801561072257600080fd5b506103cd600d5481565b34801561073857600080fd5b506103b561074736600461400d565b611ae3565b34801561075857600080fd5b506103b5610767366004613e1c565b611d63565b34801561077857600080fd5b506103b5610787366004613f2b565b6122dc565b34801561079857600080fd5b506103806107a7366004613f46565b6123a5565b3480156107b857600080fd5b506104d87f000000000000000000000000000000000000000000000000000000000000000081565b3480156107ec57600080fd5b506103cd6107fb366004613f2b565b60076020526000908152604090205481565b34801561081957600080fd5b506103cd600081565b34801561082e57600080fd5b506103b561083d36600461405e565b6123ce565b34801561084e57600080fd5b506103b561085d366004613e1c565b6125cc565b6103b5610870366004613e1c565b612834565b34801561088157600080fd5b506103b5610890366004614088565b612a22565b3480156108a157600080fd5b506103b56108b0366004613e1c565b612b18565b3480156108c157600080fd5b506108d56108d0366004613e1c565b612d8d565b60405161038c9796959493929190614104565b3480156108f457600080fd5b5061091c610903366004613f2b565b6006602052600090815260409020805460019091015482565b6040805192835260208301919091520161038c565b34801561093d57600080fd5b506104d87f000000000000000000000000000000000000000000000000000000000000000081565b34801561097157600080fd5b5061091c610980366004613f2b565b6005602052600090815260409020805460019091015482565b3480156109a557600080fd5b506103b56109b4366004613f46565b612ebc565b3480156109c557600080fd5b506103806109d4366004613f2b565b60086020526000908152604090205460ff1681565b3480156109f557600080fd5b506103cd600b5481565b348015610a0b57600080fd5b506103b5610a1a366004613f2b565b612ee1565b348015610a2b57600080fd5b50610a3f610a3a366004613e1c565b612f7b565b60405161038c9695949392919061415d565b348015610a5d57600080fd5b506103b5610a6c366004613f2b565b612ff6565b348015610a7d57600080fd5b506103b5610a8c366004614184565b613090565b348015610a9d57600080fd5b506103b5610aac366004613edf565b613164565b348015610abd57600080fd5b506104d87f000000000000000000000000000000000000000000000000000000000000000081565b60006001600160e01b03198216637965db0b60e01b1480610b1657506301ffc9a760e01b6001600160e01b03198316145b92915050565b60125460ff1615610b485760405162461bcd60e51b8152600401610b3f906141de565b60405180910390fd5b6000805160206147ca833981519152610b6081613388565b6000828152600a6020526040812090600382015460ff166002811115610b8857610b88613f94565b14610ba55760405162461bcd60e51b8152600401610b3f906141fe565b33600090815260068201602052604090205460ff1615610bd75760405162461bcd60e51b8152600401610b3f90614223565b3360009081526006820160205260408120805460ff1916600190811790915560058301805491929091610c0b908490614263565b909155505060405163af19422760e01b8152600481018490523360248201527f00000000000000000000000000000000000000000000000000000000000000006001600160a01b03169063af19422790604401600060405180830381600087803b158015610c7857600080fd5b505af1158015610c8c573d6000803e3d6000fd5b505050506002816005015410610d355760038101805460ff191660019081179091556002820154908201546001600160a01b031660009081526004602052604081208054909190610cde908490614263565b90915550506001810154815460028301546040519081526001600160a01b03928316929091169085907f6791f4aaba9ebc05664a6379f9daf9fd658b4337b4295132285fb6ed1ca8400c9060200160405180910390a45b505050565b610d526000805160206147ea833981519152336123a5565b610d6e5760405162461bcd60e51b8152600401610b3f90614276565b6001600160a01b0382811660008181526008602052604090819020805460ff19168515159081179091559051632be077bb60e11b8152600481019290925260248201527f0000000000000000000000000000000000000000000000000000000000000000909116906357c0ef7690604401600060405180830381600087803b158015610df957600080fd5b505af1158015610e0d573d6000803e3d6000fd5b505050505050565b60125460ff1615610e385760405162461bcd60e51b8152600401610b3f906141de565b6000805160206147ca833981519152610e5081613388565b600084815260116020526040902080546001600160a01b0316610ea85760405162461bcd60e51b815260206004820152601060248201526f1c995919595b481b9bdd08199bdd5b9960821b6044820152606401610b3f565b6000600482015460ff166002811115610ec357610ec3613f94565b14610ee05760405162461bcd60e51b8152600401610b3f906141fe565b6004810180546002919060ff19166001830217905550600281015481546001600160a01b031660009081526004602052604081208054909190610f24908490614263565b9091555050805460028201546040516001600160a01b039092169187917fb88ec921e26f1bcb2cb4dfef7a22411678948d5fcc92cf89c1b5b0cf512d8e9091610f719190899089906142c2565b60405180910390a35050505050565b60125460ff1615610fa35760405162461bcd60e51b8152600401610b3f906141de565b60405163607a23f360e01b81523360048201527f00000000000000000000000000000000000000000000000000000000000000006001600160a01b03169063607a23f390602401602060405180830381865afa158015611007573d6000803e3d6000fd5b505050506040513d601f19601f8201168201806040525081019061102b91906142e5565b6110475760405162461bcd60e51b8152600401610b3f90614302565b3360009081526008602052604090205460ff16156110775760405162461bcd60e51b8152600401610b3f9061432c565b336000908152600760205260409020544210156110a65760405162461bcd60e51b8152600401610b3f90614351565b600081116110c65760405162461bcd60e51b8152600401610b3f90614379565b336000908152600460205260409020548111156110f55760405162461bcd60e51b8152600401610b3f9061439b565b33600090815260046020526040812080548392906111149084906143c1565b909155505060405163a9059cbb60e01b8152336004820152602481018290527f00000000000000000000000000000000000000000000000000000000000000006001600160a01b03169063a9059cbb906044016020604051808303816000875af1158015611186573d6000803e3d6000fd5b505050506040513d601f19601f820116820180604052508101906111aa91906142e5565b6111e85760405162461bcd60e51b815260206004820152600f60248201526e1d1c985b9cd9995c8819985a5b1959608a1b6044820152606401610b3f565b60405181815233907f7084f5476618d8e60b11ef0d7d3f06914655adb8793e28ff7f018d4c76d505d5906020015b60405180910390a250565b60008281526020819052604090206001015461123c81613388565b610d358383613395565b6001600160a01b03811633146112b65760405162461bcd60e51b815260206004820152602f60248201527f416363657373436f6e74726f6c3a2063616e206f6e6c792072656e6f756e636560448201526e103937b632b9903337b91039b2b63360891b6064820152608401610b3f565b6112c08282613419565b5050565b60125460ff16156112e75760405162461bcd60e51b8152600401610b3f906141de565b6000805160206147ca8339815191526112ff81613388565b600082815260116020526040902080546001600160a01b03166113575760405162461bcd60e51b815260206004820152601060248201526f1c995919595b481b9bdd08199bdd5b9960821b6044820152606401610b3f565b6000600482015460ff16600281111561137257611372613f94565b1461138f5760405162461bcd60e51b8152600401610b3f906141fe565b33600090815260078201602052604090205460ff16156113c15760405162461bcd60e51b8152600401610b3f90614223565b3360009081526007820160205260408120805460ff19166001908117909155600683018054919290916113f5908490614263565b90915550506006810154600211610d355760048101805460ff1916600117905560038101544710156114645760405162461bcd60e51b8152602060048201526018602482015277696e73756666696369656e7420455448207265736572766560401b6044820152606401610b3f565b805460038201546040516000926001600160a01b031691908381818185875af1925050503d80600081146114b4576040519150601f19603f3d011682016040523d82523d6000602084013e6114b9565b606091505b50509050806115005760405162461bcd60e51b8152602060048201526013602482015272115512081d1c985b9cd9995c8819985a5b1959606a1b6044820152606401610b3f565b8160020154600f600082825461151691906143c1565b90915550508154600283015460038401546040516001600160a01b039093169287927f7983cb2e608321c3e20a437d27bb5daeede1ddc38f87c0245fafbc7ee8d12d319261156c92918252602082015260400190565b60405180910390a350505050565b6115926000805160206147ea833981519152336123a5565b6115ae5760405162461bcd60e51b8152600401610b3f90614276565b6012805460ff19169055565b60125460ff16156115dd5760405162461bcd60e51b8152600401610b3f906141de565b6000805160206147ca8339815191526115f581613388565b6000848152600e6020526040902080546001600160a01b031661164b5760405162461bcd60e51b815260206004820152600e60248201526d1b1bd85b881b9bdd08199bdd5b9960921b6044820152606401610b3f565b6000600382015460ff16600281111561166657611666613f94565b146116835760405162461bcd60e51b8152600401610b3f906141fe565b60038101805460ff19166002179055805460018201546040516001600160a01b039092169187917f38f1f980114d056d6ab178991091de16301d414b5cc758a1072d3447948686a191610f719190899089906142c2565b6116f26000805160206147ea833981519152336123a5565b61170e5760405162461bcd60e51b8152600401610b3f90614276565b601355565b60125460ff16156117365760405162461bcd60e51b8152600401610b3f906141de565b6000805160206147ca83398151915261174e81613388565b6000838152600e6020526040902080546001600160a01b03166117a45760405162461bcd60e51b815260206004820152600e60248201526d1b1bd85b881b9bdd08199bdd5b9960921b6044820152606401610b3f565b6000600382015460ff1660028111156117bf576117bf613f94565b146117dc5760405162461bcd60e51b8152600401610b3f906141fe565b33600090815260068201602052604090205460ff161561180e5760405162461bcd60e51b8152600401610b3f90614223565b6000831161182e5760405162461bcd60e51b8152600401610b3f906143d4565b3360009081526006820160205260408120805460ff1916600190811790915560058301805491929091611862908490614263565b90915550506005810154600211611a165760038101805460ff1916600190811790915581015481546001600160a01b0316600090815260046020526040812080549091906118b1908490614263565b90915550506001810154600f80546000906118cd908490614263565b90915550506001810154601080546000906118e9908490614263565b9091555050478311156119395760405162461bcd60e51b8152602060048201526018602482015277696e73756666696369656e7420455448207265736572766560401b6044820152606401610b3f565b80546040516000916001600160a01b03169085908381818185875af1925050503d8060008114611985576040519150601f19603f3d011682016040523d82523d6000602084013e61198a565b606091505b50509050806119d15760405162461bcd60e51b8152602060048201526013602482015272115512081d1c985b9cd9995c8819985a5b1959606a1b6044820152606401610b3f565b815460018301546040519081526001600160a01b039091169086907f2b993938baa27c88e77a207903d275c96fa30ae5949a3ea5cd56e466e4f5c89190602001610f71565b50505050565b60008080808080861580611a3257506009548710155b15611a4f5750600094508493508392506002915082905080611a97565b5050506000848152600a60205260409020805460018201546002830154600384015460048501546005909501546001600160a01b039485169850939092169550935060ff1691905b91939550919395565b611ab86000805160206147ea833981519152336123a5565b611ad45760405162461bcd60e51b8152600401610b3f90614276565b6012805460ff19166001179055565b60125460ff1615611b065760405162461bcd60e51b8152600401610b3f906141de565b60405163607a23f360e01b81523360048201527f00000000000000000000000000000000000000000000000000000000000000006001600160a01b03169063607a23f390602401602060405180830381865afa158015611b6a573d6000803e3d6000fd5b505050506040513d601f19601f82011682018060405250810190611b8e91906142e5565b611baa5760405162461bcd60e51b8152600401610b3f90614302565b3360009081526008602052604090205460ff1615611bda5760405162461bcd60e51b8152600401610b3f9061432c565b33600090815260076020526040902054421015611c095760405162461bcd60e51b8152600401610b3f90614351565b60008211611c425760405162461bcd60e51b81526020600482015260066024820152650737573643d360d41b6044820152606401610b3f565b60008111611c625760405162461bcd60e51b8152600401610b3f906143d4565b33600090815260046020526040902054821115611c915760405162461bcd60e51b8152600401610b3f9061439b565b3360009081526004602052604081208054849290611cb09084906143c1565b9091555050600b805460009182611cc6836143f3565b90915550600081815260116020526040902080546001600160a01b0319163317815590915060018101611cfa8688836144a2565b50600281018490556003810183905560048101805460ff19169055426005820155604051339083907f17fe45d7cd13f1c47d41f0f332c8ef0f050b98f1b75e28395d3a52253b78615190611d53908a908a908a90614562565b60405180910390a3505050505050565b60125460ff1615611d865760405162461bcd60e51b8152600401610b3f906141de565b60405163607a23f360e01b81523360048201527f00000000000000000000000000000000000000000000000000000000000000006001600160a01b03169063607a23f390602401602060405180830381865afa158015611dea573d6000803e3d6000fd5b505050506040513d601f19601f82011682018060405250810190611e0e91906142e5565b611e2a5760405162461bcd60e51b8152600401610b3f90614302565b3360009081526008602052604090205460ff1615611e5a5760405162461bcd60e51b8152600401610b3f9061432c565b33600090815260076020526040902054421015611e895760405162461bcd60e51b8152600401610b3f90614351565b60008111611ec75760405162461bcd60e51b815260206004820152600b60248201526a07072696e636970616c3d360ac1b6044820152606401610b3f565b600f541580611f0a5750670c7d713b49da0000600f5482601054611eeb9190614263565b611efd90670de0b6b3a7640000614586565b611f07919061459d565b11155b611f6a5760405162461bcd60e51b815260206004820152602b60248201527f5269736b3a2053797374656d206c6971756964697479207574696c697a61746960448201526a0dedc40e8dede40d0d2ced60ab1b6064820152608401610b3f565b611f7560028261459d565b336000908152600460205260409020541015611fe55760405162461bcd60e51b815260206004820152602960248201527f5269736b3a20496e73756666696369656e742062616c616e636520666f7220636044820152681bdb1b185d195c985b60ba1b6064820152608401610b3f565b6040516358f2ef1760e01b81523360048201526000907f00000000000000000000000000000000000000000000000000000000000000006001600160a01b0316906358f2ef1790602401602060405180830381865afa15801561204c573d6000803e3d6000fd5b505050506040513d601f19601f8201168201806040525081019061207091906145bf565b9050808211156120b85760405162461bcd60e51b81526020600482015260136024820152721b1bd85b881b1a5b5a5d08195e18d959591959606a1b6044820152606401610b3f565b600d8054600091826120c9836143f3565b909155506000818152600e60205260409081902080546001600160a01b03191633908117825560018201879055601054600f549351631a407ce560e31b81526004810192909252602482015260448101929092529192507f00000000000000000000000000000000000000000000000000000000000000006001600160a01b03169063d203e72890606401602060405180830381865afa158015612171573d6000803e3d6000fd5b505050506040513d601f19601f8201168201806040525081019061219591906145bf565b600282015560038101805460ff1916905542600482015569021e19e0c9bab2400000841061229c576040516310aac22f60e21b81523360048201526060602480830191909152600a6064830152692620a923a2afa627a0a760b11b608483015260a0604483015260a48201527f4c61726765206c6f616e207265717565737420666f72206d616e75616c20726560c4820152637669657760e01b60e48201527f00000000000000000000000000000000000000000000000000000000000000006001600160a01b0316906342ab08bc9061010401600060405180830381600087803b15801561228357600080fd5b505af1158015612297573d6000803e3d6000fd5b505050505b6002810154604080518681526020810192909252339184917f68595dbe887ae7f496f2c88735019a8918919a1decfdee6bdb460480ab87decb910161156c565b6122f46000805160206147ea833981519152336123a5565b6123105760405162461bcd60e51b8152600401610b3f90614276565b6001600160a01b0381811660008181526007602052604080822091909155516305c1e1db60e31b815260048101919091527f000000000000000000000000000000000000000000000000000000000000000090911690632e0f0ed8906024015b600060405180830381600087803b15801561238a57600080fd5b505af115801561239e573d6000803e3d6000fd5b5050505050565b6000918252602082815260408084206001600160a01b0393909316845291905290205460ff1690565b60125460ff16156123f15760405162461bcd60e51b8152600401610b3f906141de565b60405163607a23f360e01b81523360048201527f00000000000000000000000000000000000000000000000000000000000000006001600160a01b03169063607a23f390602401602060405180830381865afa158015612455573d6000803e3d6000fd5b505050506040513d601f19601f8201168201806040525081019061247991906142e5565b6124955760405162461bcd60e51b8152600401610b3f90614302565b3360009081526008602052604090205460ff16156124c55760405162461bcd60e51b8152600401610b3f9061432c565b336000908152600760205260409020544210156124f45760405162461bcd60e51b8152600401610b3f90614351565b6001600160a01b0382166125375760405162461bcd60e51b815260206004820152600a602482015269696e76616c696420746f60b01b6044820152606401610b3f565b600081116125575760405162461bcd60e51b8152600401610b3f90614379565b6001600160a01b03821660009081526008602052604090205460ff16156125b85760405162461bcd60e51b81526020600482015260156024820152741c9958da5c1a595b9d08189b1858dadb1a5cdd1959605a1b6044820152606401610b3f565b6125c13361347e565b6112c0338383613671565b60125460ff16156125ef5760405162461bcd60e51b8152600401610b3f906141de565b60405163607a23f360e01b81523360048201527f00000000000000000000000000000000000000000000000000000000000000006001600160a01b03169063607a23f390602401602060405180830381865afa158015612653573d6000803e3d6000fd5b505050506040513d601f19601f8201168201806040525081019061267791906142e5565b6126935760405162461bcd60e51b8152600401610b3f90614302565b3360009081526008602052604090205460ff16156126c35760405162461bcd60e51b8152600401610b3f9061432c565b336000908152600760205260409020544210156126f25760405162461bcd60e51b8152600401610b3f90614351565b600081116127125760405162461bcd60e51b8152600401610b3f90614379565b6040516323b872dd60e01b8152336004820152306024820152604481018290527f00000000000000000000000000000000000000000000000000000000000000006001600160a01b0316906323b872dd906064016020604051808303816000875af1158015612785573d6000803e3d6000fd5b505050506040513d601f19601f820116820180604052508101906127a991906142e5565b6127eb5760405162461bcd60e51b81526020600482015260136024820152721d1c985b9cd9995c919c9bdb4819985a5b1959606a1b6044820152606401610b3f565b80601060008282546127fd91906143c1565b909155505060405181815233907fc200a1f31dd659e356e0f112c82558e25f49f7b0f84438691cd96f5cb355882390602001611216565b60125460ff16156128575760405162461bcd60e51b8152600401610b3f906141de565b60405163607a23f360e01b81523360048201527f00000000000000000000000000000000000000000000000000000000000000006001600160a01b03169063607a23f390602401602060405180830381865afa1580156128bb573d6000803e3d6000fd5b505050506040513d601f19601f820116820180604052508101906128df91906142e5565b6128fb5760405162461bcd60e51b8152600401610b3f90614302565b3360009081526008602052604090205460ff161561292b5760405162461bcd60e51b8152600401610b3f9061432c565b3360009081526007602052604090205442101561295a5760405162461bcd60e51b8152600401610b3f90614351565b6000341161297a5760405162461bcd60e51b8152600401610b3f906143d4565b600081116129b35760405162461bcd60e51b81526020600482015260066024820152650737573643d360d41b6044820152606401610b3f565b33600090815260046020526040812080548392906129d2908490614263565b9250508190555080600f60008282546129eb9190614263565b909155505060405181815233907f2da466a7b24304f47e87fa2e1e5a81b9831ce54fec19055ce277ca2f39ba42c490602001611216565b612a3a6000805160206147ea833981519152336123a5565b612a565760405162461bcd60e51b8152600401610b3f90614276565b600183905560028290556003819055604080516020808201869052818301859052606080830185905283518084039091018152608083019384905280519101206329e6c8a160e11b9092526001600160a01b037f000000000000000000000000000000000000000000000000000000000000000016916353cd914291612ae1916000916084016145d8565b600060405180830381600087803b158015612afb57600080fd5b505af1158015612b0f573d6000803e3d6000fd5b50505050505050565b60125460ff1615612b3b5760405162461bcd60e51b8152600401610b3f906141de565b60405163607a23f360e01b81523360048201527f00000000000000000000000000000000000000000000000000000000000000006001600160a01b03169063607a23f390602401602060405180830381865afa158015612b9f573d6000803e3d6000fd5b505050506040513d601f19601f82011682018060405250810190612bc391906142e5565b612bdf5760405162461bcd60e51b8152600401610b3f90614302565b3360009081526008602052604090205460ff1615612c0f5760405162461bcd60e51b8152600401610b3f9061432c565b33600090815260076020526040902054421015612c3e5760405162461bcd60e51b8152600401610b3f90614351565b60008111612c5e5760405162461bcd60e51b8152600401610b3f90614379565b3360009081526004602052604081208054839290612c7d908490614263565b90915550506040516323b872dd60e01b8152336004820152306024820152604481018290527f00000000000000000000000000000000000000000000000000000000000000006001600160a01b0316906323b872dd906064016020604051808303816000875af1158015612cf5573d6000803e3d6000fd5b505050506040513d601f19601f82011682018060405250810190612d1991906142e5565b612d5b5760405162461bcd60e51b81526020600482015260136024820152721d1c985b9cd9995c919c9bdb4819985a5b1959606a1b6044820152606401610b3f565b60405181815233907f2da466a7b24304f47e87fa2e1e5a81b9831ce54fec19055ce277ca2f39ba42c490602001611216565b600060608180808080871580612da55750600b548810155b15612dd15750506040805160208101909152600080825295509350849250829150600290508180612eb1565b60008881526011602052604090208054600282015460038301546004840154600585015460068601546001870180546001600160a01b03909716969095949360ff169291908690612e2190614422565b80601f0160208091040260200160405190810160405280929190818152602001828054612e4d90614422565b8015612e9a5780601f10612e6f57610100808354040283529160200191612e9a565b820191906000526020600020905b815481529060010190602001808311612e7d57829003601f168201915b505050505095509750975097509750975097509750505b919395979092949650565b600082815260208190526040902060010154612ed781613388565b610d358383613419565b612ef96000805160206147ea833981519152336123a5565b612f155760405162461bcd60e51b8152600401610b3f90614276565b612f2d6000805160206147ca83398151915282613395565b6040516377e72f7b60e11b81526001600160a01b0382811660048301527f0000000000000000000000000000000000000000000000000000000000000000169063efce5ef690602401612370565b60008080808080861580612f915750600d548710155b15612fae5750600094508493508392506002915082905080611a97565b50505060009384525050600e6020525060409020805460018201546002830154600384015460048501546005909501546001600160a01b03909416959294919360ff90911692565b61300e6000805160206147ea833981519152336123a5565b61302a5760405162461bcd60e51b8152600401610b3f90614276565b6130426000805160206147ca83398151915282613419565b60405163ac14c14f60e01b81526001600160a01b0382811660048301527f0000000000000000000000000000000000000000000000000000000000000000169063ac14c14f90602401612370565b6130a86000805160206147ea833981519152336123a5565b6130c45760405162461bcd60e51b8152600401610b3f90614276565b6001600160a01b0380851660009081526007602052604090819020859055516328ba8b7760e21b81527f00000000000000000000000000000000000000000000000000000000000000009091169063a2ea2ddc9061312c908790879087908790600401614611565b600060405180830381600087803b15801561314657600080fd5b505af115801561315a573d6000803e3d6000fd5b5050505050505050565b60125460ff16156131875760405162461bcd60e51b8152600401610b3f906141de565b6000805160206147ca83398151915261319f81613388565b6000848152600a6020526040812090600382015460ff1660028111156131c7576131c7613f94565b146131e45760405162461bcd60e51b8152600401610b3f906141fe565b60038101805460ff1916600290811790915581015481546001600160a01b031660009081526004602052604081208054909190613222908490614263565b909155505080546001600160a01b031660009081526005602052604081209061324e620151804261459d565b8254909150811461326857808255600060018301556132a2565b826002015482600101541061329a57826002015482600101600082825461328f91906143c1565b909155506132a29050565b600060018301555b6001830154835460028501546040516001600160a01b0393841693909216918a917f4f54d2de4848c2fe39afabbd588b1b4136b1b7be330a5aa04524c2305abbd4cc916132f391908c908c906142c2565b60405180910390a460405163ec22bd6160e01b81526001600160a01b037f0000000000000000000000000000000000000000000000000000000000000000169063ec22bd619061334d908a9033908b908b90600401614643565b600060405180830381600087803b15801561336757600080fd5b505af115801561337b573d6000803e3d6000fd5b5050505050505050505050565b6133928133613856565b50565b61339f82826123a5565b6112c0576000828152602081815260408083206001600160a01b03851684529091529020805460ff191660011790556133d53390565b6001600160a01b0316816001600160a01b0316837f2f8788117e7eff1d82e926ec794901d17c78024a50270940304540a733656f0d60405160405180910390a45050565b61342382826123a5565b156112c0576000828152602081815260408083206001600160a01b0385168085529252808320805460ff1916905551339285917ff6391f5c32d9c69d2a47ea670b442974b53935d1edc7fd64eb21e047a839171b9190a45050565b6001600160a01b0381166000908152600660205260409020600154815442916134a691614263565b8111156134bb578082556001808301556134d6565b60018260010160008282546134d09190614263565b90915550505b60025482600101541115610d35576003546134f19082614263565b6001600160a01b03848116600081815260076020526040908190209390935591516310aac22f60e21b815260048101929092526060602483015260096064830152684652455155454e435960b81b608483015260a06044830152602260a48301527f546f6f206d616e79207472616e736665727320696e2073686f72742077696e6460c4830152616f7760f01b60e48301527f000000000000000000000000000000000000000000000000000000000000000016906342ab08bc9061010401600060405180830381600087803b1580156135ca57600080fd5b505af11580156135de573d6000803e3d6000fd5b505050506001600160a01b03838116600081815260076020526040908190205490516328ba8b7760e21b81526004810192909252602482015260606044820152601060648201526f08ce4cae2eacadcc6f240c4e4cac2c6d60831b60848201527f00000000000000000000000000000000000000000000000000000000000000009091169063a2ea2ddc9060a401612ae1565b6001600160a01b038316600090815260056020526040812090613697620151804261459d565b825490915081146136ad57808255600060018301555b6040516358f2ef1760e01b81526001600160a01b0386811660048301526000917f0000000000000000000000000000000000000000000000000000000000000000909116906358f2ef1790602401602060405180830381865afa158015613718573d6000803e3d6000fd5b505050506040513d601f19601f8201168201806040525081019061373c91906145bf565b90506000818585600101546137519190614263565b11905069021e19e0c9bab2400000851015818061376b5750805b1561383157600061377f89898986866138af565b9050868660010160008282546137959190614263565b9091555050604051631164a59160e31b8152600481018290526001600160a01b038a811660248301528981166044830152606482018990527f00000000000000000000000000000000000000000000000000000000000000001690638b252c8890608401600060405180830381600087803b15801561381357600080fd5b505af1158015613827573d6000803e3d6000fd5b505050505061315a565b858560010160008282546138459190614263565b9091555061315a9050888888613b57565b61386082826123a5565b6112c05761386d81613c3d565b613878836020613c4f565b60405160200161388992919061466e565b60408051601f198184030181529082905262461bcd60e51b8252610b3f916004016146e3565b6001600160a01b0385166000908152600460205260408120548411156138e75760405162461bcd60e51b8152600401610b3f9061439b565b6001600160a01b0386166000908152600460205260408120805486929061390f9084906143c1565b909155505060098054906000613924836143f3565b909155506000818152600a6020526040812080546001600160a01b038a81166001600160a01b0319928316178355600183018054918b16919092161790556002810187905560038101805460ff19169055426004820155919250846139d157836139ab576040518060400160405280600581526020016427aa2422a960d91b8152506139f6565b6040518060400160405280600881526020016709882a48e8abea8b60c31b8152506139f6565b6040518060400160405280600b81526020016a111052531657d31253525560aa1b8152505b9050866001600160a01b0316886001600160a01b0316847f9405ad0a6208539879349284d71265479b1623846f70303da1f9890d6e8c10a789604051613a3e91815260200190565b60405180910390a460405163770b872960e01b81526001600160a01b037f0000000000000000000000000000000000000000000000000000000000000000169063770b872990613a9a9086908c908c908c9088906004016146f6565b600060405180830381600087803b158015613ab457600080fd5b505af1158015613ac8573d6000803e3d6000fd5b50506040516310aac22f60e21b81526001600160a01b037f00000000000000000000000000000000000000000000000000000000000000001692506342ab08bc9150613b1a908b90859060040161473a565b600060405180830381600087803b158015613b3457600080fd5b505af1158015613b48573d6000803e3d6000fd5b50505050505095945050505050565b6001600160a01b038316600090815260046020526040902054811115613b8f5760405162461bcd60e51b8152600401610b3f9061439b565b6001600160a01b03831660009081526004602052604081208054839290613bb79084906143c1565b90915550506001600160a01b03821660009081526004602052604081208054839290613be4908490614263565b92505081905550816001600160a01b0316836001600160a01b03167f961f7160d742cfc3dc4123da66debbf9a494518bfbcfca5df7dd4f3dd2b0565f83604051613c3091815260200190565b60405180910390a3505050565b6060610b166001600160a01b03831660145b60606000613c5e836002614586565b613c69906002614263565b67ffffffffffffffff811115613c8157613c8161440c565b6040519080825280601f01601f191660200182016040528015613cab576020820181803683370190505b509050600360fc1b81600081518110613cc657613cc661479c565b60200101906001600160f81b031916908160001a905350600f60fb1b81600181518110613cf557613cf561479c565b60200101906001600160f81b031916908160001a9053506000613d19846002614586565b613d24906001614263565b90505b6001811115613d9c576f181899199a1a9b1b9c1cb0b131b232b360811b85600f1660108110613d5857613d5861479c565b1a60f81b828281518110613d6e57613d6e61479c565b60200101906001600160f81b031916908160001a90535060049490941c93613d95816147b2565b9050613d27565b508315613deb5760405162461bcd60e51b815260206004820181905260248201527f537472696e67733a20686578206c656e67746820696e73756666696369656e746044820152606401610b3f565b9392505050565b600060208284031215613e0457600080fd5b81356001600160e01b031981168114613deb57600080fd5b600060208284031215613e2e57600080fd5b5035919050565b80356001600160a01b0381168114613e4c57600080fd5b919050565b801515811461339257600080fd5b60008060408385031215613e7257600080fd5b613e7b83613e35565b91506020830135613e8b81613e51565b809150509250929050565b60008083601f840112613ea857600080fd5b50813567ffffffffffffffff811115613ec057600080fd5b602083019150836020828501011115613ed857600080fd5b9250929050565b600080600060408486031215613ef457600080fd5b83359250602084013567ffffffffffffffff811115613f1257600080fd5b613f1e86828701613e96565b9497909650939450505050565b600060208284031215613f3d57600080fd5b613deb82613e35565b60008060408385031215613f5957600080fd5b82359150613f6960208401613e35565b90509250929050565b60008060408385031215613f8557600080fd5b50508035926020909101359150565b634e487b7160e01b600052602160045260246000fd5b6003811061339257634e487b7160e01b600052602160045260246000fd5b6001600160a01b038781168252861660208201526040810185905260c08101613ff085613faa565b8460608301528360808301528260a0830152979650505050505050565b6000806000806060858703121561402357600080fd5b843567ffffffffffffffff81111561403a57600080fd5b61404687828801613e96565b90989097506020870135966040013595509350505050565b6000806040838503121561407157600080fd5b61407a83613e35565b946020939093013593505050565b60008060006060848603121561409d57600080fd5b505081359360208301359350604090920135919050565b60005b838110156140cf5781810151838201526020016140b7565b50506000910152565b600081518084526140f08160208601602086016140b4565b601f01601f19169290920160200192915050565b6001600160a01b038816815260e060208201819052600090614128908301896140d8565b905086604083015285606083015261413f85613faa565b8460808301528360a08301528260c083015298975050505050505050565b6001600160a01b0387168152602081018690526040810185905260c08101613ff085613faa565b6000806000806060858703121561419a57600080fd5b6141a385613e35565b935060208501359250604085013567ffffffffffffffff8111156141c657600080fd5b6141d287828801613e96565b95989497509550505050565b6020808252600690820152651c185d5cd95960d21b604082015260600190565b6020808252600b908201526a6e6f742070656e64696e6760a81b604082015260600190565b60208082526010908201526f185b1c9958591e48185c1c1c9bdd995960821b604082015260600190565b634e487b7160e01b600052601160045260246000fd5b80820180821115610b1657610b1661424d565b6020808252600990820152683737ba1030b236b4b760b91b604082015260600190565b81835281816020850137506000828201602090810191909152601f909101601f19169091010190565b8381526040602082015260006142dc604083018486614299565b95945050505050565b6000602082840312156142f757600080fd5b8151613deb81613e51565b60208082526010908201526f12d650cbd4d095081c995c5d5a5c995960821b604082015260600190565b6020808252600b908201526a189b1858dadb1a5cdd195960aa1b604082015260600190565b6020808252600e908201526d1858d8dbdd5b9d081b1bd8dad95960921b604082015260600190565b6020808252600890820152670616d6f756e743d360c41b604082015260600190565b6020808252600c908201526b1a5b9cdd59999a58da595b9d60a21b604082015260600190565b81810381811115610b1657610b1661424d565b60208082526005908201526406574683d360dc1b604082015260600190565b6000600182016144055761440561424d565b5060010190565b634e487b7160e01b600052604160045260246000fd5b600181811c9082168061443657607f821691505b60208210810361445657634e487b7160e01b600052602260045260246000fd5b50919050565b601f821115610d3557600081815260208120601f850160051c810160208610156144835750805b601f850160051c820191505b81811015610e0d5782815560010161448f565b67ffffffffffffffff8311156144ba576144ba61440c565b6144ce836144c88354614422565b8361445c565b6000601f84116001811461450257600085156144ea5750838201355b600019600387901b1c1916600186901b17835561239e565b600083815260209020601f19861690835b828110156145335786850135825560209485019460019092019101614513565b50868210156145505760001960f88860031b161c19848701351681555b505060018560011b0183555050505050565b604081526000614576604083018587614299565b9050826020830152949350505050565b8082028115828204841417610b1657610b1661424d565b6000826145ba57634e487b7160e01b600052601260045260246000fd5b500490565b6000602082840312156145d157600080fd5b5051919050565b6060815260006146016060830160098152684652455155454e435960b81b602082015260400190565b6020830194909452506040015290565b60018060a01b0385168152836020820152606060408201526000614639606083018486614299565b9695505050505050565b8481526001600160a01b03841660208201526060604082018190526000906146399083018486614299565b7f416363657373436f6e74726f6c3a206163636f756e74200000000000000000008152600083516146a68160178501602088016140b4565b7001034b99036b4b9b9b4b733903937b6329607d1b60179184019182015283516146d78160288401602088016140b4565b01602801949350505050565b602081526000613deb60208301846140d8565b8581526001600160a01b038581166020830152841660408201526060810183905260a06080820181905260009061472f908301846140d8565b979650505050505050565b6001600160a01b038316815260606020820181905260009061475e908301846140d8565b828103604093840152601a81527f457363726f77656420666f72206d616e75616c207265766965770000000000006020820152919091019392505050565b634e487b7160e01b600052603260045260246000fd5b6000816147c1576147c161424d565b50600019019056fe59a1c48e5837ad7a7f3dcedcbe129bf3249ec4fbf651fd4f5e2600ead39fe2f5a49807205ce4d355092ef5a8a18f56e8913cf4a201fbe287825b095693c21775a2646970667358221220c732d4dd747e650ea69490c5bcf393d4998a426b2141049971a4b9464bbacaf964736f6c63430008140033","opcodes":"PUSH2 0x100 PUSH1 0x40 MSTORE PUSH1 0x3C PUSH1 0x1 SSTORE PUSH1 0x3 PUSH1 0x2 SSTORE PUSH2 0xE10 PUSH1 0x3 SSTORE PUSH1 0x1 PUSH1 0x9 SSTORE PUSH1 0x1 PUSH1 0xB SSTORE PUSH1 0x1 PUSH1 0xD SSTORE PUSH1 0xC8 PUSH1 0x13 SSTORE CALLVALUE DUP1 ISZERO PUSH3 0x36 JUMPI PUSH1 0x0 DUP1 REVERT JUMPDEST POP PUSH1 0x40 MLOAD PUSH3 0x4B13 CODESIZE SUB DUP1 PUSH3 0x4B13 DUP4 CODECOPY DUP2 ADD PUSH1 0x40 DUP2 SWAP1 MSTORE PUSH3 0x59 SWAP2 PUSH3 0x175 JUMP JUMPDEST PUSH1 0x1 PUSH1 0x1 PUSH1 0xA0 SHL SUB DUP1 DUP6 AND PUSH1 0x80 MSTORE DUP4 DUP2 AND PUSH1 0xA0 MSTORE DUP3 DUP2 AND PUSH1 0xC0 MSTORE DUP2 AND PUSH1 0xE0 MSTORE PUSH3 0x85 PUSH1 0x0 CALLER PUSH3 0xBB JUMP JUMPDEST PUSH3 0xB1 PUSH32 0xA49807205CE4D355092EF5A8A18F56E8913CF4A201FBE287825B095693C21775 CALLER PUSH3 0xBB JUMP JUMPDEST POP POP POP POP PUSH3 0x1DD JUMP JUMPDEST PUSH1 0x0 DUP3 DUP2 MSTORE PUSH1 0x20 DUP2 DUP2 MSTORE PUSH1 0x40 DUP1 DUP4 KECCAK256 PUSH1 0x1 PUSH1 0x1 PUSH1 0xA0 SHL SUB DUP6 AND DUP5 MSTORE SWAP1 SWAP2 MSTORE SWAP1 KECCAK256 SLOAD PUSH1 0xFF AND PUSH3 0x158 JUMPI PUSH1 0x0 DUP3 DUP2 MSTORE PUSH1 0x20 DUP2 DUP2 MSTORE PUSH1 0x40 DUP1 DUP4 KECCAK256 PUSH1 0x1 PUSH1 0x1 PUSH1 0xA0 SHL SUB DUP6 AND DUP5 MSTORE SWAP1 SWAP2 MSTORE SWAP1 KECCAK256 DUP1 SLOAD PUSH1 0xFF NOT AND PUSH1 0x1 OR SWAP1 SSTORE PUSH3 0x117 CALLER SWAP1 JUMP JUMPDEST PUSH1 0x1 PUSH1 0x1 PUSH1 0xA0 SHL SUB AND DUP2 PUSH1 0x1 PUSH1 0x1 PUSH1 0xA0 SHL SUB AND DUP4 PUSH32 0x2F8788117E7EFF1D82E926EC794901D17C78024A50270940304540A733656F0D PUSH1 0x40 MLOAD PUSH1 0x40 MLOAD DUP1 SWAP2 SUB SWAP1 LOG4 JUMPDEST POP POP JUMP JUMPDEST PUSH1 0x1 PUSH1 0x1 PUSH1 0xA0 SHL SUB DUP2 AND DUP2 EQ PUSH3 0x172 JUMPI PUSH1 0x0 DUP1 REVERT JUMPDEST POP JUMP JUMPDEST PUSH1 0x0 DUP1 PUSH1 0x0 DUP1 PUSH1 0x80 DUP6 DUP8 SUB SLT ISZERO PUSH3 0x18C JUMPI PUSH1 0x0 DUP1 REVERT JUMPDEST DUP5 MLOAD PUSH3 0x199 DUP2 PUSH3 0x15C JUMP JUMPDEST PUSH1 0x20 DUP7 ADD MLOAD SWAP1 SWAP5 POP PUSH3 0x1AC DUP2 PUSH3 0x15C JUMP JUMPDEST PUSH1 0x40 DUP7 ADD MLOAD SWAP1 SWAP4 POP PUSH3 0x1BF DUP2 PUSH3 0x15C JUMP JUMPDEST PUSH1 0x60 DUP7 ADD MLOAD SWAP1 SWAP3 POP PUSH3 0x1D2 DUP2 PUSH3 0x15C JUMP JUMPDEST SWAP4 SWAP7 SWAP3 SWAP6 POP SWAP1 SWAP4 POP POP JUMP JUMPDEST PUSH1 0x80 MLOAD PUSH1 0xA0 MLOAD PUSH1 0xC0 MLOAD PUSH1 0xE0 MLOAD PUSH2 0x483F PUSH3 0x2D4 PUSH1 0x0 CODECOPY PUSH1 0x0 DUP2 DUP2 PUSH2 0x943 ADD MSTORE DUP2 DUP2 PUSH2 0xC2C ADD MSTORE DUP2 DUP2 PUSH2 0xDB3 ADD MSTORE DUP2 DUP2 PUSH2 0x2236 ADD MSTORE DUP2 DUP2 PUSH2 0x2343 ADD MSTORE DUP2 DUP2 PUSH2 0x2AAB ADD MSTORE DUP2 DUP2 PUSH2 0x2F4C ADD MSTORE DUP2 DUP2 PUSH2 0x3061 ADD MSTORE DUP2 DUP2 PUSH2 0x30EF ADD MSTORE DUP2 DUP2 PUSH2 0x3312 ADD MSTORE DUP2 DUP2 PUSH2 0x3585 ADD MSTORE DUP2 DUP2 PUSH2 0x3640 ADD MSTORE DUP2 DUP2 PUSH2 0x37CF ADD MSTORE DUP2 DUP2 PUSH2 0x3A5D ADD MSTORE PUSH2 0x3AE1 ADD MSTORE PUSH1 0x0 DUP2 DUP2 PUSH2 0x7BE ADD MSTORE DUP2 DUP2 PUSH2 0x1FFD ADD MSTORE DUP2 DUP2 PUSH2 0x2122 ADD MSTORE PUSH2 0x36CF ADD MSTORE PUSH1 0x0 DUP2 DUP2 PUSH2 0x4B6 ADD MSTORE DUP2 DUP2 PUSH2 0xFB8 ADD MSTORE DUP2 DUP2 PUSH2 0x1B1B ADD MSTORE DUP2 DUP2 PUSH2 0x1D9B ADD MSTORE DUP2 DUP2 PUSH2 0x2406 ADD MSTORE DUP2 DUP2 PUSH2 0x2604 ADD MSTORE DUP2 DUP2 PUSH2 0x286C ADD MSTORE PUSH2 0x2B50 ADD MSTORE PUSH1 0x0 DUP2 DUP2 PUSH2 0xAC3 ADD MSTORE DUP2 DUP2 PUSH2 0x1135 ADD MSTORE DUP2 DUP2 PUSH2 0x2734 ADD MSTORE PUSH2 0x2CA4 ADD MSTORE PUSH2 0x483F PUSH1 0x0 RETURN INVALID PUSH1 0x80 PUSH1 0x40 MSTORE PUSH1 0x4 CALLDATASIZE LT PUSH2 0x354 JUMPI PUSH1 0x0 CALLDATALOAD PUSH1 0xE0 SHR DUP1 PUSH4 0x837CBE04 GT PUSH2 0x1C6 JUMPI DUP1 PUSH4 0xB6B55F25 GT PUSH2 0xF7 JUMPI DUP1 PUSH4 0xE283BC4A GT PUSH2 0x95 JUMPI DUP1 PUSH4 0xE6116CFD GT PUSH2 0x6F JUMPI DUP1 PUSH4 0xE6116CFD EQ PUSH2 0xA51 JUMPI DUP1 PUSH4 0xF4BAAE41 EQ PUSH2 0xA71 JUMPI DUP1 PUSH4 0xF6FCAF12 EQ PUSH2 0xA91 JUMPI DUP1 PUSH4 0xFC0C546A EQ PUSH2 0xAB1 JUMPI PUSH1 0x0 DUP1 REVERT JUMPDEST DUP1 PUSH4 0xE283BC4A EQ PUSH2 0x9E9 JUMPI DUP1 PUSH4 0xE429CEF1 EQ PUSH2 0x9FF JUMPI DUP1 PUSH4 0xE4F598C0 EQ PUSH2 0xA1F JUMPI PUSH1 0x0 DUP1 REVERT JUMPDEST DUP1 PUSH4 0xCFE279B2 GT PUSH2 0xD1 JUMPI DUP1 PUSH4 0xCFE279B2 EQ PUSH2 0x931 JUMPI DUP1 PUSH4 0xD211D8E5 EQ PUSH2 0x965 JUMPI DUP1 PUSH4 0xD547741F EQ PUSH2 0x999 JUMPI DUP1 PUSH4 0xDBAC26E9 EQ PUSH2 0x9B9 JUMPI PUSH1 0x0 DUP1 REVERT JUMPDEST DUP1 PUSH4 0xB6B55F25 EQ PUSH2 0x895 JUMPI DUP1 PUSH4 0xC5A52635 EQ PUSH2 0x8B5 JUMPI DUP1 PUSH4 0xCC3A1ABA EQ PUSH2 0x8E8 JUMPI PUSH1 0x0 DUP1 REVERT JUMPDEST DUP1 PUSH4 0x92B888AE GT PUSH2 0x164 JUMPI DUP1 PUSH4 0xA9059CBB GT PUSH2 0x13E JUMPI DUP1 PUSH4 0xA9059CBB EQ PUSH2 0x822 JUMPI DUP1 PUSH4 0xAB7B1C89 EQ PUSH2 0x842 JUMPI DUP1 PUSH4 0xB547986B EQ PUSH2 0x862 JUMPI DUP1 PUSH4 0xB58FB457 EQ PUSH2 0x875 JUMPI PUSH1 0x0 DUP1 REVERT JUMPDEST DUP1 PUSH4 0x92B888AE EQ PUSH2 0x7AC JUMPI DUP1 PUSH4 0x9BC289F1 EQ PUSH2 0x7E0 JUMPI DUP1 PUSH4 0xA217FDDF EQ PUSH2 0x80D JUMPI PUSH1 0x0 DUP1 REVERT JUMPDEST DUP1 PUSH4 0x8C970E77 GT PUSH2 0x1A0 JUMPI DUP1 PUSH4 0x8C970E77 EQ PUSH2 0x72C JUMPI DUP1 PUSH4 0x8D5D3429 EQ PUSH2 0x74C JUMPI DUP1 PUSH4 0x905295E3 EQ PUSH2 0x76C JUMPI DUP1 PUSH4 0x91D14854 EQ PUSH2 0x78C JUMPI PUSH1 0x0 DUP1 REVERT JUMPDEST DUP1 PUSH4 0x837CBE04 EQ PUSH2 0x6E3 JUMPI DUP1 PUSH4 0x8456CB59 EQ PUSH2 0x701 JUMPI DUP1 PUSH4 0x87C51459 EQ PUSH2 0x716 JUMPI PUSH1 0x0 DUP1 REVERT JUMPDEST DUP1 PUSH4 0x3EB09ECE GT PUSH2 0x2A0 JUMPI DUP1 PUSH4 0x6350EAE8 GT PUSH2 0x23E JUMPI DUP1 PUSH4 0x731314E6 GT PUSH2 0x218 JUMPI DUP1 PUSH4 0x731314E6 EQ PUSH2 0x64F JUMPI DUP1 PUSH4 0x75B238FC EQ PUSH2 0x66F JUMPI DUP1 PUSH4 0x7A646492 EQ PUSH2 0x691 JUMPI DUP1 PUSH4 0x7D19E596 EQ PUSH2 0x6B1 JUMPI PUSH1 0x0 DUP1 REVERT JUMPDEST DUP1 PUSH4 0x6350EAE8 EQ PUSH2 0x601 JUMPI DUP1 PUSH4 0x6C828A52 EQ PUSH2 0x617 JUMPI DUP1 PUSH4 0x6E1D616E EQ PUSH2 0x62D JUMPI PUSH1 0x0 DUP1 REVERT JUMPDEST DUP1 PUSH4 0x475CFB55 GT PUSH2 0x27A JUMPI DUP1 PUSH4 0x475CFB55 EQ PUSH2 0x59B JUMPI DUP1 PUSH4 0x52EE8F81 EQ PUSH2 0x5B1 JUMPI DUP1 PUSH4 0x582B7506 EQ PUSH2 0x5D1 JUMPI DUP1 PUSH4 0x5C975ABB EQ PUSH2 0x5E7 JUMPI PUSH1 0x0 DUP1 REVERT JUMPDEST DUP1 PUSH4 0x3EB09ECE EQ PUSH2 0x550 JUMPI DUP1 PUSH4 0x3F4BA83A EQ PUSH2 0x570 JUMPI DUP1 PUSH4 0x42569CA7 EQ PUSH2 0x585 JUMPI PUSH1 0x0 DUP1 REVERT JUMPDEST DUP1 PUSH4 0x268FB01E GT PUSH2 0x30D JUMPI DUP1 PUSH4 0x2C159A1A GT PUSH2 0x2E7 JUMPI DUP1 PUSH4 0x2C159A1A EQ PUSH2 0x4A4 JUMPI DUP1 PUSH4 0x2E1A7D4D EQ PUSH2 0x4F0 JUMPI DUP1 PUSH4 0x2F2FF15D EQ PUSH2 0x510 JUMPI DUP1 PUSH4 0x36568ABE EQ PUSH2 0x530 JUMPI PUSH1 0x0 DUP1 REVERT JUMPDEST DUP1 PUSH4 0x268FB01E EQ PUSH2 0x441 JUMPI DUP1 PUSH4 0x27E235E3 EQ PUSH2 0x461 JUMPI DUP1 PUSH4 0x28118909 EQ PUSH2 0x48E JUMPI PUSH1 0x0 DUP1 REVERT JUMPDEST DUP1 PUSH4 0x1FFC9A7 EQ PUSH2 0x360 JUMPI DUP1 PUSH4 0x3FCE7EF EQ PUSH2 0x395 JUMPI DUP1 PUSH4 0x4554443 EQ PUSH2 0x3B7 JUMPI DUP1 PUSH4 0x153B0D1E EQ PUSH2 0x3DB JUMPI DUP1 PUSH4 0x248A9CA3 EQ PUSH2 0x3FB JUMPI DUP1 PUSH4 0x25D71240 EQ PUSH2 0x42B JUMPI PUSH1 0x0 DUP1 REVERT JUMPDEST CALLDATASIZE PUSH2 0x35B JUMPI STOP JUMPDEST PUSH1 0x0 DUP1 REVERT JUMPDEST CALLVALUE DUP1 ISZERO PUSH2 0x36C JUMPI PUSH1 0x0 DUP1 REVERT JUMPDEST POP PUSH2 0x380 PUSH2 0x37B CALLDATASIZE PUSH1 0x4 PUSH2 0x3DF2 JUMP JUMPDEST PUSH2 0xAE5 JUMP JUMPDEST PUSH1 0x40 MLOAD SWAP1 ISZERO ISZERO DUP2 MSTORE PUSH1 0x20 ADD JUMPDEST PUSH1 0x40 MLOAD DUP1 SWAP2 SUB SWAP1 RETURN JUMPDEST CALLVALUE DUP1 ISZERO PUSH2 0x3A1 JUMPI PUSH1 0x0 DUP1 REVERT JUMPDEST POP PUSH2 0x3B5 PUSH2 0x3B0 CALLDATASIZE PUSH1 0x4 PUSH2 0x3E1C JUMP JUMPDEST PUSH2 0xB1C JUMP JUMPDEST STOP JUMPDEST CALLVALUE DUP1 ISZERO PUSH2 0x3C3 JUMPI PUSH1 0x0 DUP1 REVERT JUMPDEST POP PUSH2 0x3CD PUSH1 0x3 SLOAD DUP2 JUMP JUMPDEST PUSH1 0x40 MLOAD SWAP1 DUP2 MSTORE PUSH1 0x20 ADD PUSH2 0x38C JUMP JUMPDEST CALLVALUE DUP1 ISZERO PUSH2 0x3E7 JUMPI PUSH1 0x0 DUP1 REVERT JUMPDEST POP PUSH2 0x3B5 PUSH2 0x3F6 CALLDATASIZE PUSH1 0x4 PUSH2 0x3E5F JUMP JUMPDEST PUSH2 0xD3A JUMP JUMPDEST CALLVALUE DUP1 ISZERO PUSH2 0x407 JUMPI PUSH1 0x0 DUP1 REVERT JUMPDEST POP PUSH2 0x3CD PUSH2 0x416 CALLDATASIZE PUSH1 0x4 PUSH2 0x3E1C JUMP JUMPDEST PUSH1 0x0 SWAP1 DUP2 MSTORE PUSH1 0x20 DUP2 SWAP1 MSTORE PUSH1 0x40 SWAP1 KECCAK256 PUSH1 0x1 ADD SLOAD SWAP1 JUMP JUMPDEST CALLVALUE DUP1 ISZERO PUSH2 0x437 JUMPI PUSH1 0x0 DUP1 REVERT JUMPDEST POP PUSH2 0x3CD PUSH1 0x1 SLOAD DUP2 JUMP JUMPDEST CALLVALUE DUP1 ISZERO PUSH2 0x44D JUMPI PUSH1 0x0 DUP1 REVERT JUMPDEST POP PUSH2 0x3B5 PUSH2 0x45C CALLDATASIZE PUSH1 0x4 PUSH2 0x3EDF JUMP JUMPDEST PUSH2 0xE15 JUMP JUMPDEST CALLVALUE DUP1 ISZERO PUSH2 0x46D JUMPI PUSH1 0x0 DUP1 REVERT JUMPDEST POP PUSH2 0x3CD PUSH2 0x47C CALLDATASIZE PUSH1 0x4 PUSH2 0x3F2B JUMP JUMPDEST PUSH1 0x4 PUSH1 0x20 MSTORE PUSH1 0x0 SWAP1 DUP2 MSTORE PUSH1 0x40 SWAP1 KECCAK256 SLOAD DUP2 JUMP JUMPDEST CALLVALUE DUP1 ISZERO PUSH2 0x49A JUMPI PUSH1 0x0 DUP1 REVERT JUMPDEST POP PUSH2 0x3CD PUSH1 0x2 SLOAD DUP2 JUMP JUMPDEST CALLVALUE DUP1 ISZERO PUSH2 0x4B0 JUMPI PUSH1 0x0 DUP1 REVERT JUMPDEST POP PUSH2 0x4D8 PUSH32 0x0 DUP2 JUMP JUMPDEST PUSH1 0x40 MLOAD PUSH1 0x1 PUSH1 0x1 PUSH1 0xA0 SHL SUB SWAP1 SWAP2 AND DUP2 MSTORE PUSH1 0x20 ADD PUSH2 0x38C JUMP JUMPDEST CALLVALUE DUP1 ISZERO PUSH2 0x4FC JUMPI PUSH1 0x0 DUP1 REVERT JUMPDEST POP PUSH2 0x3B5 PUSH2 0x50B CALLDATASIZE PUSH1 0x4 PUSH2 0x3E1C JUMP JUMPDEST PUSH2 0xF80 JUMP JUMPDEST CALLVALUE DUP1 ISZERO PUSH2 0x51C JUMPI PUSH1 0x0 DUP1 REVERT JUMPDEST POP PUSH2 0x3B5 PUSH2 0x52B CALLDATASIZE PUSH1 0x4 PUSH2 0x3F46 JUMP JUMPDEST PUSH2 0x1221 JUMP JUMPDEST CALLVALUE DUP1 ISZERO PUSH2 0x53C JUMPI PUSH1 0x0 DUP1 REVERT JUMPDEST POP PUSH2 0x3B5 PUSH2 0x54B CALLDATASIZE PUSH1 0x4 PUSH2 0x3F46 JUMP JUMPDEST PUSH2 0x1246 JUMP JUMPDEST CALLVALUE DUP1 ISZERO PUSH2 0x55C JUMPI PUSH1 0x0 DUP1 REVERT JUMPDEST POP PUSH2 0x3B5 PUSH2 0x56B CALLDATASIZE PUSH1 0x4 PUSH2 0x3E1C JUMP JUMPDEST PUSH2 0x12C4 JUMP JUMPDEST CALLVALUE DUP1 ISZERO PUSH2 0x57C JUMPI PUSH1 0x0 DUP1 REVERT JUMPDEST POP PUSH2 0x3B5 PUSH2 0x157A JUMP JUMPDEST CALLVALUE DUP1 ISZERO PUSH2 0x591 JUMPI PUSH1 0x0 DUP1 REVERT JUMPDEST POP PUSH2 0x3CD PUSH1 0x13 SLOAD DUP2 JUMP JUMPDEST CALLVALUE DUP1 ISZERO PUSH2 0x5A7 JUMPI PUSH1 0x0 DUP1 REVERT JUMPDEST POP PUSH2 0x3CD PUSH1 0xC SLOAD DUP2 JUMP JUMPDEST CALLVALUE DUP1 ISZERO PUSH2 0x5BD JUMPI PUSH1 0x0 DUP1 REVERT JUMPDEST POP PUSH2 0x3B5 PUSH2 0x5CC CALLDATASIZE PUSH1 0x4 PUSH2 0x3EDF JUMP JUMPDEST PUSH2 0x15BA JUMP JUMPDEST CALLVALUE DUP1 ISZERO PUSH2 0x5DD JUMPI PUSH1 0x0 DUP1 REVERT JUMPDEST POP PUSH2 0x3CD PUSH1 0xF SLOAD DUP2 JUMP JUMPDEST CALLVALUE DUP1 ISZERO PUSH2 0x5F3 JUMPI PUSH1 0x0 DUP1 REVERT JUMPDEST POP PUSH1 0x12 SLOAD PUSH2 0x380 SWAP1 PUSH1 0xFF AND DUP2 JUMP JUMPDEST CALLVALUE DUP1 ISZERO PUSH2 0x60D JUMPI PUSH1 0x0 DUP1 REVERT JUMPDEST POP PUSH2 0x3CD PUSH1 0x9 SLOAD DUP2 JUMP JUMPDEST CALLVALUE DUP1 ISZERO PUSH2 0x623 JUMPI PUSH1 0x0 DUP1 REVERT JUMPDEST POP PUSH2 0x3CD PUSH1 0x10 SLOAD DUP2 JUMP JUMPDEST CALLVALUE DUP1 ISZERO PUSH2 0x639 JUMPI PUSH1 0x0 DUP1 REVERT JUMPDEST POP PUSH2 0x3CD PUSH1 0x0 DUP1 MLOAD PUSH1 0x20 PUSH2 0x47CA DUP4 CODECOPY DUP2 MLOAD SWAP2 MSTORE DUP2 JUMP JUMPDEST CALLVALUE DUP1 ISZERO PUSH2 0x65B JUMPI PUSH1 0x0 DUP1 REVERT JUMPDEST POP PUSH2 0x3B5 PUSH2 0x66A CALLDATASIZE PUSH1 0x4 PUSH2 0x3E1C JUMP JUMPDEST PUSH2 0x16DA JUMP JUMPDEST CALLVALUE DUP1 ISZERO PUSH2 0x67B JUMPI PUSH1 0x0 DUP1 REVERT JUMPDEST POP PUSH2 0x3CD PUSH1 0x0 DUP1 MLOAD PUSH1 0x20 PUSH2 0x47EA DUP4 CODECOPY DUP2 MLOAD SWAP2 MSTORE DUP2 JUMP JUMPDEST CALLVALUE DUP1 ISZERO PUSH2 0x69D JUMPI PUSH1 0x0 DUP1 REVERT JUMPDEST POP PUSH2 0x3B5 PUSH2 0x6AC CALLDATASIZE PUSH1 0x4 PUSH2 0x3F72 JUMP JUMPDEST PUSH2 0x1713 JUMP JUMPDEST CALLVALUE DUP1 ISZERO PUSH2 0x6BD JUMPI PUSH1 0x0 DUP1 REVERT JUMPDEST POP PUSH2 0x6D1 PUSH2 0x6CC CALLDATASIZE PUSH1 0x4 PUSH2 0x3E1C JUMP JUMPDEST PUSH2 0x1A1C JUMP JUMPDEST PUSH1 0x40 MLOAD PUSH2 0x38C SWAP7 SWAP6 SWAP5 SWAP4 SWAP3 SWAP2 SWAP1 PUSH2 0x3FC8 JUMP JUMPDEST CALLVALUE DUP1 ISZERO PUSH2 0x6EF JUMPI PUSH1 0x0 DUP1 REVERT JUMPDEST POP PUSH2 0x3CD PUSH10 0x21E19E0C9BAB2400000 DUP2 JUMP JUMPDEST CALLVALUE DUP1 ISZERO PUSH2 0x70D JUMPI PUSH1 0x0 DUP1 REVERT JUMPDEST POP PUSH2 0x3B5 PUSH2 0x1AA0 JUMP JUMPDEST CALLVALUE DUP1 ISZERO PUSH2 0x722 JUMPI PUSH1 0x0 DUP1 REVERT JUMPDEST POP PUSH2 0x3CD PUSH1 0xD SLOAD DUP2 JUMP JUMPDEST CALLVALUE DUP1 ISZERO PUSH2 0x738 JUMPI PUSH1 0x0 DUP1 REVERT JUMPDEST POP PUSH2 0x3B5 PUSH2 0x747 CALLDATASIZE PUSH1 0x4 PUSH2 0x400D JUMP JUMPDEST PUSH2 0x1AE3 JUMP JUMPDEST CALLVALUE DUP1 ISZERO PUSH2 0x758 JUMPI PUSH1 0x0 DUP1 REVERT JUMPDEST POP PUSH2 0x3B5 PUSH2 0x767 CALLDATASIZE PUSH1 0x4 PUSH2 0x3E1C JUMP JUMPDEST PUSH2 0x1D63 JUMP JUMPDEST CALLVALUE DUP1 ISZERO PUSH2 0x778 JUMPI PUSH1 0x0 DUP1 REVERT JUMPDEST POP PUSH2 0x3B5 PUSH2 0x787 CALLDATASIZE PUSH1 0x4 PUSH2 0x3F2B JUMP JUMPDEST PUSH2 0x22DC JUMP JUMPDEST CALLVALUE DUP1 ISZERO PUSH2 0x798 JUMPI PUSH1 0x0 DUP1 REVERT JUMPDEST POP PUSH2 0x380 PUSH2 0x7A7 CALLDATASIZE PUSH1 0x4 PUSH2 0x3F46 JUMP JUMPDEST PUSH2 0x23A5 JUMP JUMPDEST CALLVALUE DUP1 ISZERO PUSH2 0x7B8 JUMPI PUSH1 0x0 DUP1 REVERT JUMPDEST POP PUSH2 0x4D8 PUSH32 0x0 DUP2 JUMP JUMPDEST CALLVALUE DUP1 ISZERO PUSH2 0x7EC JUMPI PUSH1 0x0 DUP1 REVERT JUMPDEST POP PUSH2 0x3CD PUSH2 0x7FB CALLDATASIZE PUSH1 0x4 PUSH2 0x3F2B JUMP JUMPDEST PUSH1 0x7 PUSH1 0x20 MSTORE PUSH1 0x0 SWAP1 DUP2 MSTORE PUSH1 0x40 SWAP1 KECCAK256 SLOAD DUP2 JUMP JUMPDEST CALLVALUE DUP1 ISZERO PUSH2 0x819 JUMPI PUSH1 0x0 DUP1 REVERT JUMPDEST POP PUSH2 0x3CD PUSH1 0x0 DUP2 JUMP JUMPDEST CALLVALUE DUP1 ISZERO PUSH2 0x82E JUMPI PUSH1 0x0 DUP1 REVERT JUMPDEST POP PUSH2 0x3B5 PUSH2 0x83D CALLDATASIZE PUSH1 0x4 PUSH2 0x405E JUMP JUMPDEST PUSH2 0x23CE JUMP JUMPDEST CALLVALUE DUP1 ISZERO PUSH2 0x84E JUMPI PUSH1 0x0 DUP1 REVERT JUMPDEST POP PUSH2 0x3B5 PUSH2 0x85D CALLDATASIZE PUSH1 0x4 PUSH2 0x3E1C JUMP JUMPDEST PUSH2 0x25CC JUMP JUMPDEST PUSH2 0x3B5 PUSH2 0x870 CALLDATASIZE PUSH1 0x4 PUSH2 0x3E1C JUMP JUMPDEST PUSH2 0x2834 JUMP JUMPDEST CALLVALUE DUP1 ISZERO PUSH2 0x881 JUMPI PUSH1 0x0 DUP1 REVERT JUMPDEST POP PUSH2 0x3B5 PUSH2 0x890 CALLDATASIZE PUSH1 0x4 PUSH2 0x4088 JUMP JUMPDEST PUSH2 0x2A22 JUMP JUMPDEST CALLVALUE DUP1 ISZERO PUSH2 0x8A1 JUMPI PUSH1 0x0 DUP1 REVERT JUMPDEST POP PUSH2 0x3B5 PUSH2 0x8B0 CALLDATASIZE PUSH1 0x4 PUSH2 0x3E1C JUMP JUMPDEST PUSH2 0x2B18 JUMP JUMPDEST CALLVALUE DUP1 ISZERO PUSH2 0x8C1 JUMPI PUSH1 0x0 DUP1 REVERT JUMPDEST POP PUSH2 0x8D5 PUSH2 0x8D0 CALLDATASIZE PUSH1 0x4 PUSH2 0x3E1C JUMP JUMPDEST PUSH2 0x2D8D JUMP JUMPDEST PUSH1 0x40 MLOAD PUSH2 0x38C SWAP8 SWAP7 SWAP6 SWAP5 SWAP4 SWAP3 SWAP2 SWAP1 PUSH2 0x4104 JUMP JUMPDEST CALLVALUE DUP1 ISZERO PUSH2 0x8F4 JUMPI PUSH1 0x0 DUP1 REVERT JUMPDEST POP PUSH2 0x91C PUSH2 0x903 CALLDATASIZE PUSH1 0x4 PUSH2 0x3F2B JUMP JUMPDEST PUSH1 0x6 PUSH1 0x20 MSTORE PUSH1 0x0 SWAP1 DUP2 MSTORE PUSH1 0x40 SWAP1 KECCAK256 DUP1 SLOAD PUSH1 0x1 SWAP1 SWAP2 ADD SLOAD DUP3 JUMP JUMPDEST PUSH1 0x40 DUP1 MLOAD SWAP3 DUP4 MSTORE PUSH1 0x20 DUP4 ADD SWAP2 SWAP1 SWAP2 MSTORE ADD PUSH2 0x38C JUMP JUMPDEST CALLVALUE DUP1 ISZERO PUSH2 0x93D JUMPI PUSH1 0x0 DUP1 REVERT JUMPDEST POP PUSH2 0x4D8 PUSH32 0x0 DUP2 JUMP JUMPDEST CALLVALUE DUP1 ISZERO PUSH2 0x971 JUMPI PUSH1 0x0 DUP1 REVERT JUMPDEST POP PUSH2 0x91C PUSH2 0x980 CALLDATASIZE PUSH1 0x4 PUSH2 0x3F2B JUMP JUMPDEST PUSH1 0x5 PUSH1 0x20 MSTORE PUSH1 0x0 SWAP1 DUP2 MSTORE PUSH1 0x40 SWAP1 KECCAK256 DUP1 SLOAD PUSH1 0x1 SWAP1 SWAP2 ADD SLOAD DUP3 JUMP JUMPDEST CALLVALUE DUP1 ISZERO PUSH2 0x9A5 JUMPI PUSH1 0x0 DUP1 REVERT JUMPDEST POP PUSH2 0x3B5 PUSH2 0x9B4 CALLDATASIZE PUSH1 0x4 PUSH2 0x3F46 JUMP JUMPDEST PUSH2 0x2EBC JUMP JUMPDEST CALLVALUE DUP1 ISZERO PUSH2 0x9C5 JUMPI PUSH1 0x0 DUP1 REVERT JUMPDEST POP PUSH2 0x380 PUSH2 0x9D4 CALLDATASIZE PUSH1 0x4 PUSH2 0x3F2B JUMP JUMPDEST PUSH1 0x8 PUSH1 0x20 MSTORE PUSH1 0x0 SWAP1 DUP2 MSTORE PUSH1 0x40 SWAP1 KECCAK256 SLOAD PUSH1 0xFF AND DUP2 JUMP JUMPDEST CALLVALUE DUP1 ISZERO PUSH2 0x9F5 JUMPI PUSH1 0x0 DUP1 REVERT JUMPDEST POP PUSH2 0x3CD PUSH1 0xB SLOAD DUP2 JUMP JUMPDEST CALLVALUE DUP1 ISZERO PUSH2 0xA0B JUMPI PUSH1 0x0 DUP1 REVERT JUMPDEST POP PUSH2 0x3B5 PUSH2 0xA1A CALLDATASIZE PUSH1 0x4 PUSH2 0x3F2B JUMP JUMPDEST PUSH2 0x2EE1 JUMP JUMPDEST CALLVALUE DUP1 ISZERO PUSH2 0xA2B JUMPI PUSH1 0x0 DUP1 REVERT JUMPDEST POP PUSH2 0xA3F PUSH2 0xA3A CALLDATASIZE PUSH1 0x4 PUSH2 0x3E1C JUMP JUMPDEST PUSH2 0x2F7B JUMP JUMPDEST PUSH1 0x40 MLOAD PUSH2 0x38C SWAP7 SWAP6 SWAP5 SWAP4 SWAP3 SWAP2 SWAP1 PUSH2 0x415D JUMP JUMPDEST CALLVALUE DUP1 ISZERO PUSH2 0xA5D JUMPI PUSH1 0x0 DUP1 REVERT JUMPDEST POP PUSH2 0x3B5 PUSH2 0xA6C CALLDATASIZE PUSH1 0x4 PUSH2 0x3F2B JUMP JUMPDEST PUSH2 0x2FF6 JUMP JUMPDEST CALLVALUE DUP1 ISZERO PUSH2 0xA7D JUMPI PUSH1 0x0 DUP1 REVERT JUMPDEST POP PUSH2 0x3B5 PUSH2 0xA8C CALLDATASIZE PUSH1 0x4 PUSH2 0x4184 JUMP JUMPDEST PUSH2 0x3090 JUMP JUMPDEST CALLVALUE DUP1 ISZERO PUSH2 0xA9D JUMPI PUSH1 0x0 DUP1 REVERT JUMPDEST POP PUSH2 0x3B5 PUSH2 0xAAC CALLDATASIZE PUSH1 0x4 PUSH2 0x3EDF JUMP JUMPDEST PUSH2 0x3164 JUMP JUMPDEST CALLVALUE DUP1 ISZERO PUSH2 0xABD JUMPI PUSH1 0x0 DUP1 REVERT JUMPDEST POP PUSH2 0x4D8 PUSH32 0x0 DUP2 JUMP JUMPDEST PUSH1 0x0 PUSH1 0x1 PUSH1 0x1 PUSH1 0xE0 SHL SUB NOT DUP3 AND PUSH4 0x7965DB0B PUSH1 0xE0 SHL EQ DUP1 PUSH2 0xB16 JUMPI POP PUSH4 0x1FFC9A7 PUSH1 0xE0 SHL PUSH1 0x1 PUSH1 0x1 PUSH1 0xE0 SHL SUB NOT DUP4 AND EQ JUMPDEST SWAP3 SWAP2 POP POP JUMP JUMPDEST PUSH1 0x12 SLOAD PUSH1 0xFF AND ISZERO PUSH2 0xB48 JUMPI PUSH1 0x40 MLOAD PUSH3 0x461BCD PUSH1 0xE5 SHL DUP2 MSTORE PUSH1 0x4 ADD PUSH2 0xB3F SWAP1 PUSH2 0x41DE JUMP JUMPDEST PUSH1 0x40 MLOAD DUP1 SWAP2 SUB SWAP1 REVERT JUMPDEST PUSH1 0x0 DUP1 MLOAD PUSH1 0x20 PUSH2 0x47CA DUP4 CODECOPY DUP2 MLOAD SWAP2 MSTORE PUSH2 0xB60 DUP2 PUSH2 0x3388 JUMP JUMPDEST PUSH1 0x0 DUP3 DUP2 MSTORE PUSH1 0xA PUSH1 0x20 MSTORE PUSH1 0x40 DUP2 KECCAK256 SWAP1 PUSH1 0x3 DUP3 ADD SLOAD PUSH1 0xFF AND PUSH1 0x2 DUP2 GT ISZERO PUSH2 0xB88 JUMPI PUSH2 0xB88 PUSH2 0x3F94 JUMP JUMPDEST EQ PUSH2 0xBA5 JUMPI PUSH1 0x40 MLOAD PUSH3 0x461BCD PUSH1 0xE5 SHL DUP2 MSTORE PUSH1 0x4 ADD PUSH2 0xB3F SWAP1 PUSH2 0x41FE JUMP JUMPDEST CALLER PUSH1 0x0 SWAP1 DUP2 MSTORE PUSH1 0x6 DUP3 ADD PUSH1 0x20 MSTORE PUSH1 0x40 SWAP1 KECCAK256 SLOAD PUSH1 0xFF AND ISZERO PUSH2 0xBD7 JUMPI PUSH1 0x40 MLOAD PUSH3 0x461BCD PUSH1 0xE5 SHL DUP2 MSTORE PUSH1 0x4 ADD PUSH2 0xB3F SWAP1 PUSH2 0x4223 JUMP JUMPDEST CALLER PUSH1 0x0 SWAP1 DUP2 MSTORE PUSH1 0x6 DUP3 ADD PUSH1 0x20 MSTORE PUSH1 0x40 DUP2 KECCAK256 DUP1 SLOAD PUSH1 0xFF NOT AND PUSH1 0x1 SWAP1 DUP2 OR SWAP1 SWAP2 SSTORE PUSH1 0x5 DUP4 ADD DUP1 SLOAD SWAP2 SWAP3 SWAP1 SWAP2 PUSH2 0xC0B SWAP1 DUP5 SWAP1 PUSH2 0x4263 JUMP JUMPDEST SWAP1 SWAP2 SSTORE POP POP PUSH1 0x40 MLOAD PUSH4 0xAF194227 PUSH1 0xE0 SHL DUP2 MSTORE PUSH1 0x4 DUP2 ADD DUP5 SWAP1 MSTORE CALLER PUSH1 0x24 DUP3 ADD MSTORE PUSH32 0x0 PUSH1 0x1 PUSH1 0x1 PUSH1 0xA0 SHL SUB AND SWAP1 PUSH4 0xAF194227 SWAP1 PUSH1 0x44 ADD PUSH1 0x0 PUSH1 0x40 MLOAD DUP1 DUP4 SUB DUP2 PUSH1 0x0 DUP8 DUP1 EXTCODESIZE ISZERO DUP1 ISZERO PUSH2 0xC78 JUMPI PUSH1 0x0 DUP1 REVERT JUMPDEST POP GAS CALL ISZERO DUP1 ISZERO PUSH2 0xC8C JUMPI RETURNDATASIZE PUSH1 0x0 DUP1 RETURNDATACOPY RETURNDATASIZE PUSH1 0x0 REVERT JUMPDEST POP POP POP POP PUSH1 0x2 DUP2 PUSH1 0x5 ADD SLOAD LT PUSH2 0xD35 JUMPI PUSH1 0x3 DUP2 ADD DUP1 SLOAD PUSH1 0xFF NOT AND PUSH1 0x1 SWAP1 DUP2 OR SWAP1 SWAP2 SSTORE PUSH1 0x2 DUP3 ADD SLOAD SWAP1 DUP3 ADD SLOAD PUSH1 0x1 PUSH1 0x1 PUSH1 0xA0 SHL SUB AND PUSH1 0x0 SWAP1 DUP2 MSTORE PUSH1 0x4 PUSH1 0x20 MSTORE PUSH1 0x40 DUP2 KECCAK256 DUP1 SLOAD SWAP1 SWAP2 SWAP1 PUSH2 0xCDE SWAP1 DUP5 SWAP1 PUSH2 0x4263 JUMP JUMPDEST SWAP1 SWAP2 SSTORE POP POP PUSH1 0x1 DUP2 ADD SLOAD DUP2 SLOAD PUSH1 0x2 DUP4 ADD SLOAD PUSH1 0x40 MLOAD SWAP1 DUP2 MSTORE PUSH1 0x1 PUSH1 0x1 PUSH1 0xA0 SHL SUB SWAP3 DUP4 AND SWAP3 SWAP1 SWAP2 AND SWAP1 DUP6 SWAP1 PUSH32 0x6791F4AABA9EBC05664A6379F9DAF9FD658B4337B4295132285FB6ED1CA8400C SWAP1 PUSH1 0x20 ADD PUSH1 0x40 MLOAD DUP1 SWAP2 SUB SWAP1 LOG4 JUMPDEST POP POP POP JUMP JUMPDEST PUSH2 0xD52 PUSH1 0x0 DUP1 MLOAD PUSH1 0x20 PUSH2 0x47EA DUP4 CODECOPY DUP2 MLOAD SWAP2 MSTORE CALLER PUSH2 0x23A5 JUMP JUMPDEST PUSH2 0xD6E JUMPI PUSH1 0x40 MLOAD PUSH3 0x461BCD PUSH1 0xE5 SHL DUP2 MSTORE PUSH1 0x4 ADD PUSH2 0xB3F SWAP1 PUSH2 0x4276 JUMP JUMPDEST PUSH1 0x1 PUSH1 0x1 PUSH1 0xA0 SHL SUB DUP3 DUP2 AND PUSH1 0x0 DUP2 DUP2 MSTORE PUSH1 0x8 PUSH1 0x20 MSTORE PUSH1 0x40 SWAP1 DUP2 SWAP1 KECCAK256 DUP1 SLOAD PUSH1 0xFF NOT AND DUP6 ISZERO ISZERO SWAP1 DUP2 OR SWAP1 SWAP2 SSTORE SWAP1 MLOAD PUSH4 0x2BE077BB PUSH1 0xE1 SHL DUP2 MSTORE PUSH1 0x4 DUP2 ADD SWAP3 SWAP1 SWAP3 MSTORE PUSH1 0x24 DUP3 ADD MSTORE PUSH32 0x0 SWAP1 SWAP2 AND SWAP1 PUSH4 0x57C0EF76 SWAP1 PUSH1 0x44 ADD PUSH1 0x0 PUSH1 0x40 MLOAD DUP1 DUP4 SUB DUP2 PUSH1 0x0 DUP8 DUP1 EXTCODESIZE ISZERO DUP1 ISZERO PUSH2 0xDF9 JUMPI PUSH1 0x0 DUP1 REVERT JUMPDEST POP GAS CALL ISZERO DUP1 ISZERO PUSH2 0xE0D JUMPI RETURNDATASIZE PUSH1 0x0 DUP1 RETURNDATACOPY RETURNDATASIZE PUSH1 0x0 REVERT JUMPDEST POP POP POP POP POP POP JUMP JUMPDEST PUSH1 0x12 SLOAD PUSH1 0xFF AND ISZERO PUSH2 0xE38 JUMPI PUSH1 0x40 MLOAD PUSH3 0x461BCD PUSH1 0xE5 SHL DUP2 MSTORE PUSH1 0x4 ADD PUSH2 0xB3F SWAP1 PUSH2 0x41DE JUMP JUMPDEST PUSH1 0x0 DUP1 MLOAD PUSH1 0x20 PUSH2 0x47CA DUP4 CODECOPY DUP2 MLOAD SWAP2 MSTORE PUSH2 0xE50 DUP2 PUSH2 0x3388 JUMP JUMPDEST PUSH1 0x0 DUP5 DUP2 MSTORE PUSH1 0x11 PUSH1 0x20 MSTORE PUSH1 0x40 SWAP1 KECCAK256 DUP1 SLOAD PUSH1 0x1 PUSH1 0x1 PUSH1 0xA0 SHL SUB AND PUSH2 0xEA8 JUMPI PUSH1 0x40 MLOAD PUSH3 0x461BCD PUSH1 0xE5 SHL DUP2 MSTORE PUSH1 0x20 PUSH1 0x4 DUP3 ADD MSTORE PUSH1 0x10 PUSH1 0x24 DUP3 ADD MSTORE PUSH16 0x1C995919595B481B9BDD08199BDD5B99 PUSH1 0x82 SHL PUSH1 0x44 DUP3 ADD MSTORE PUSH1 0x64 ADD PUSH2 0xB3F JUMP JUMPDEST PUSH1 0x0 PUSH1 0x4 DUP3 ADD SLOAD PUSH1 0xFF AND PUSH1 0x2 DUP2 GT ISZERO PUSH2 0xEC3 JUMPI PUSH2 0xEC3 PUSH2 0x3F94 JUMP JUMPDEST EQ PUSH2 0xEE0 JUMPI PUSH1 0x40 MLOAD PUSH3 0x461BCD PUSH1 0xE5 SHL DUP2 MSTORE PUSH1 0x4 ADD PUSH2 0xB3F SWAP1 PUSH2 0x41FE JUMP JUMPDEST PUSH1 0x4 DUP2 ADD DUP1 SLOAD PUSH1 0x2 SWAP2 SWAP1 PUSH1 0xFF NOT AND PUSH1 0x1 DUP4 MUL OR SWAP1 SSTORE POP PUSH1 0x2 DUP2 ADD SLOAD DUP2 SLOAD PUSH1 0x1 PUSH1 0x1 PUSH1 0xA0 SHL SUB AND PUSH1 0x0 SWAP1 DUP2 MSTORE PUSH1 0x4 PUSH1 0x20 MSTORE PUSH1 0x40 DUP2 KECCAK256 DUP1 SLOAD SWAP1 SWAP2 SWAP1 PUSH2 0xF24 SWAP1 DUP5 SWAP1 PUSH2 0x4263 JUMP JUMPDEST SWAP1 SWAP2 SSTORE POP POP DUP1 SLOAD PUSH1 0x2 DUP3 ADD SLOAD PUSH1 0x40 MLOAD PUSH1 0x1 PUSH1 0x1 PUSH1 0xA0 SHL SUB SWAP1 SWAP3 AND SWAP2 DUP8 SWAP2 PUSH32 0xB88EC921E26F1BCB2CB4DFEF7A22411678948D5FCC92CF89C1B5B0CF512D8E90 SWAP2 PUSH2 0xF71 SWAP2 SWAP1 DUP10 SWAP1 DUP10 SWAP1 PUSH2 0x42C2 JUMP JUMPDEST PUSH1 0x40 MLOAD DUP1 SWAP2 SUB SWAP1 LOG3 POP POP POP POP POP JUMP JUMPDEST PUSH1 0x12 SLOAD PUSH1 0xFF AND ISZERO PUSH2 0xFA3 JUMPI PUSH1 0x40 MLOAD PUSH3 0x461BCD PUSH1 0xE5 SHL DUP2 MSTORE PUSH1 0x4 ADD PUSH2 0xB3F SWAP1 PUSH2 0x41DE JUMP JUMPDEST PUSH1 0x40 MLOAD PUSH4 0x607A23F3 PUSH1 0xE0 SHL DUP2 MSTORE CALLER PUSH1 0x4 DUP3 ADD MSTORE PUSH32 0x0 PUSH1 0x1 PUSH1 0x1 PUSH1 0xA0 SHL SUB AND SWAP1 PUSH4 0x607A23F3 SWAP1 PUSH1 0x24 ADD PUSH1 0x20 PUSH1 0x40 MLOAD DUP1 DUP4 SUB DUP2 DUP7 GAS STATICCALL ISZERO DUP1 ISZERO PUSH2 0x1007 JUMPI RETURNDATASIZE PUSH1 0x0 DUP1 RETURNDATACOPY RETURNDATASIZE PUSH1 0x0 REVERT JUMPDEST POP POP POP POP PUSH1 0x40 MLOAD RETURNDATASIZE PUSH1 0x1F NOT PUSH1 0x1F DUP3 ADD AND DUP3 ADD DUP1 PUSH1 0x40 MSTORE POP DUP2 ADD SWAP1 PUSH2 0x102B SWAP2 SWAP1 PUSH2 0x42E5 JUMP JUMPDEST PUSH2 0x1047 JUMPI PUSH1 0x40 MLOAD PUSH3 0x461BCD PUSH1 0xE5 SHL DUP2 MSTORE PUSH1 0x4 ADD PUSH2 0xB3F SWAP1 PUSH2 0x4302 JUMP JUMPDEST CALLER PUSH1 0x0 SWAP1 DUP2 MSTORE PUSH1 0x8 PUSH1 0x20 MSTORE PUSH1 0x40 SWAP1 KECCAK256 SLOAD PUSH1 0xFF AND ISZERO PUSH2 0x1077 JUMPI PUSH1 0x40 MLOAD PUSH3 0x461BCD PUSH1 0xE5 SHL DUP2 MSTORE PUSH1 0x4 ADD PUSH2 0xB3F SWAP1 PUSH2 0x432C JUMP JUMPDEST CALLER PUSH1 0x0 SWAP1 DUP2 MSTORE PUSH1 0x7 PUSH1 0x20 MSTORE PUSH1 0x40 SWAP1 KECCAK256 SLOAD TIMESTAMP LT ISZERO PUSH2 0x10A6 JUMPI PUSH1 0x40 MLOAD PUSH3 0x461BCD PUSH1 0xE5 SHL DUP2 MSTORE PUSH1 0x4 ADD PUSH2 0xB3F SWAP1 PUSH2 0x4351 JUMP JUMPDEST PUSH1 0x0 DUP2 GT PUSH2 0x10C6 JUMPI PUSH1 0x40 MLOAD PUSH3 0x461BCD PUSH1 0xE5 SHL DUP2 MSTORE PUSH1 0x4 ADD PUSH2 0xB3F SWAP1 PUSH2 0x4379 JUMP JUMPDEST CALLER PUSH1 0x0 SWAP1 DUP2 MSTORE PUSH1 0x4 PUSH1 0x20 MSTORE PUSH1 0x40 SWAP1 KECCAK256 SLOAD DUP2 GT ISZERO PUSH2 0x10F5 JUMPI PUSH1 0x40 MLOAD PUSH3 0x461BCD PUSH1 0xE5 SHL DUP2 MSTORE PUSH1 0x4 ADD PUSH2 0xB3F SWAP1 PUSH2 0x439B JUMP JUMPDEST CALLER PUSH1 0x0 SWAP1 DUP2 MSTORE PUSH1 0x4 PUSH1 0x20 MSTORE PUSH1 0x40 DUP2 KECCAK256 DUP1 SLOAD DUP4 SWAP3 SWAP1 PUSH2 0x1114 SWAP1 DUP5 SWAP1 PUSH2 0x43C1 JUMP JUMPDEST SWAP1 SWAP2 SSTORE POP POP PUSH1 0x40 MLOAD PUSH4 0xA9059CBB PUSH1 0xE0 SHL DUP2 MSTORE CALLER PUSH1 0x4 DUP3 ADD MSTORE PUSH1 0x24 DUP2 ADD DUP3 SWAP1 MSTORE PUSH32 0x0 PUSH1 0x1 PUSH1 0x1 PUSH1 0xA0 SHL SUB AND SWAP1 PUSH4 0xA9059CBB SWAP1 PUSH1 0x44 ADD PUSH1 0x20 PUSH1 0x40 MLOAD DUP1 DUP4 SUB DUP2 PUSH1 0x0 DUP8 GAS CALL ISZERO DUP1 ISZERO PUSH2 0x1186 JUMPI RETURNDATASIZE PUSH1 0x0 DUP1 RETURNDATACOPY RETURNDATASIZE PUSH1 0x0 REVERT JUMPDEST POP POP POP POP PUSH1 0x40 MLOAD RETURNDATASIZE PUSH1 0x1F NOT PUSH1 0x1F DUP3 ADD AND DUP3 ADD DUP1 PUSH1 0x40 MSTORE POP DUP2 ADD SWAP1 PUSH2 0x11AA SWAP2 SWAP1 PUSH2 0x42E5 JUMP JUMPDEST PUSH2 0x11E8 JUMPI PUSH1 0x40 MLOAD PUSH3 0x461BCD PUSH1 0xE5 SHL DUP2 MSTORE PUSH1 0x20 PUSH1 0x4 DUP3 ADD MSTORE PUSH1 0xF PUSH1 0x24 DUP3 ADD MSTORE PUSH15 0x1D1C985B9CD9995C8819985A5B1959 PUSH1 0x8A SHL PUSH1 0x44 DUP3 ADD MSTORE PUSH1 0x64 ADD PUSH2 0xB3F JUMP JUMPDEST PUSH1 0x40 MLOAD DUP2 DUP2 MSTORE CALLER SWAP1 PUSH32 0x7084F5476618D8E60B11EF0D7D3F06914655ADB8793E28FF7F018D4C76D505D5 SWAP1 PUSH1 0x20 ADD JUMPDEST PUSH1 0x40 MLOAD DUP1 SWAP2 SUB SWAP1 LOG2 POP JUMP JUMPDEST PUSH1 0x0 DUP3 DUP2 MSTORE PUSH1 0x20 DUP2 SWAP1 MSTORE PUSH1 0x40 SWAP1 KECCAK256 PUSH1 0x1 ADD SLOAD PUSH2 0x123C DUP2 PUSH2 0x3388 JUMP JUMPDEST PUSH2 0xD35 DUP4 DUP4 PUSH2 0x3395 JUMP JUMPDEST PUSH1 0x1 PUSH1 0x1 PUSH1 0xA0 SHL SUB DUP2 AND CALLER EQ PUSH2 0x12B6 JUMPI PUSH1 0x40 MLOAD PUSH3 0x461BCD PUSH1 0xE5 SHL DUP2 MSTORE PUSH1 0x20 PUSH1 0x4 DUP3 ADD MSTORE PUSH1 0x2F PUSH1 0x24 DUP3 ADD MSTORE PUSH32 0x416363657373436F6E74726F6C3A2063616E206F6E6C792072656E6F756E6365 PUSH1 0x44 DUP3 ADD MSTORE PUSH15 0x103937B632B9903337B91039B2B633 PUSH1 0x89 SHL PUSH1 0x64 DUP3 ADD MSTORE PUSH1 0x84 ADD PUSH2 0xB3F JUMP JUMPDEST PUSH2 0x12C0 DUP3 DUP3 PUSH2 0x3419 JUMP JUMPDEST POP POP JUMP JUMPDEST PUSH1 0x12 SLOAD PUSH1 0xFF AND ISZERO PUSH2 0x12E7 JUMPI PUSH1 0x40 MLOAD PUSH3 0x461BCD PUSH1 0xE5 SHL DUP2 MSTORE PUSH1 0x4 ADD PUSH2 0xB3F SWAP1 PUSH2 0x41DE JUMP JUMPDEST PUSH1 0x0 DUP1 MLOAD PUSH1 0x20 PUSH2 0x47CA DUP4 CODECOPY DUP2 MLOAD SWAP2 MSTORE PUSH2 0x12FF DUP2 PUSH2 0x3388 JUMP JUMPDEST PUSH1 0x0 DUP3 DUP2 MSTORE PUSH1 0x11 PUSH1 0x20 MSTORE PUSH1 0x40 SWAP1 KECCAK256 DUP1 SLOAD PUSH1 0x1 PUSH1 0x1 PUSH1 0xA0 SHL SUB AND PUSH2 0x1357 JUMPI PUSH1 0x40 MLOAD PUSH3 0x461BCD PUSH1 0xE5 SHL DUP2 MSTORE PUSH1 0x20 PUSH1 0x4 DUP3 ADD MSTORE PUSH1 0x10 PUSH1 0x24 DUP3 ADD MSTORE PUSH16 0x1C995919595B481B9BDD08199BDD5B99 PUSH1 0x82 SHL PUSH1 0x44 DUP3 ADD MSTORE PUSH1 0x64 ADD PUSH2 0xB3F JUMP JUMPDEST PUSH1 0x0 PUSH1 0x4 DUP3 ADD SLOAD PUSH1 0xFF AND PUSH1 0x2 DUP2 GT ISZERO PUSH2 0x1372 JUMPI PUSH2 0x1372 PUSH2 0x3F94 JUMP JUMPDEST EQ PUSH2 0x138F JUMPI PUSH1 0x40 MLOAD PUSH3 0x461BCD PUSH1 0xE5 SHL DUP2 MSTORE PUSH1 0x4 ADD PUSH2 0xB3F SWAP1 PUSH2 0x41FE JUMP JUMPDEST CALLER PUSH1 0x0 SWAP1 DUP2 MSTORE PUSH1 0x7 DUP3 ADD PUSH1 0x20 MSTORE PUSH1 0x40 SWAP1 KECCAK256 SLOAD PUSH1 0xFF AND ISZERO PUSH2 0x13C1 JUMPI PUSH1 0x40 MLOAD PUSH3 0x461BCD PUSH1 0xE5 SHL DUP2 MSTORE PUSH1 0x4 ADD PUSH2 0xB3F SWAP1 PUSH2 0x4223 JUMP JUMPDEST CALLER PUSH1 0x0 SWAP1 DUP2 MSTORE PUSH1 0x7 DUP3 ADD PUSH1 0x20 MSTORE PUSH1 0x40 DUP2 KECCAK256 DUP1 SLOAD PUSH1 0xFF NOT AND PUSH1 0x1 SWAP1 DUP2 OR SWAP1 SWAP2 SSTORE PUSH1 0x6 DUP4 ADD DUP1 SLOAD SWAP2 SWAP3 SWAP1 SWAP2 PUSH2 0x13F5 SWAP1 DUP5 SWAP1 PUSH2 0x4263 JUMP JUMPDEST SWAP1 SWAP2 SSTORE POP POP PUSH1 0x6 DUP2 ADD SLOAD PUSH1 0x2 GT PUSH2 0xD35 JUMPI PUSH1 0x4 DUP2 ADD DUP1 SLOAD PUSH1 0xFF NOT AND PUSH1 0x1 OR SWAP1 SSTORE PUSH1 0x3 DUP2 ADD SLOAD SELFBALANCE LT ISZERO PUSH2 0x1464 JUMPI PUSH1 0x40 MLOAD PUSH3 0x461BCD PUSH1 0xE5 SHL DUP2 MSTORE PUSH1 0x20 PUSH1 0x4 DUP3 ADD MSTORE PUSH1 0x18 PUSH1 0x24 DUP3 ADD MSTORE PUSH24 0x696E73756666696369656E74204554482072657365727665 PUSH1 0x40 SHL PUSH1 0x44 DUP3 ADD MSTORE PUSH1 0x64 ADD PUSH2 0xB3F JUMP JUMPDEST DUP1 SLOAD PUSH1 0x3 DUP3 ADD SLOAD PUSH1 0x40 MLOAD PUSH1 0x0 SWAP3 PUSH1 0x1 PUSH1 0x1 PUSH1 0xA0 SHL SUB AND SWAP2 SWAP1 DUP4 DUP2 DUP2 DUP2 DUP6 DUP8 GAS CALL SWAP3 POP POP POP RETURNDATASIZE DUP1 PUSH1 0x0 DUP2 EQ PUSH2 0x14B4 JUMPI PUSH1 0x40 MLOAD SWAP2 POP PUSH1 0x1F NOT PUSH1 0x3F RETURNDATASIZE ADD AND DUP3 ADD PUSH1 0x40 MSTORE RETURNDATASIZE DUP3 MSTORE RETURNDATASIZE PUSH1 0x0 PUSH1 0x20 DUP5 ADD RETURNDATACOPY PUSH2 0x14B9 JUMP JUMPDEST PUSH1 0x60 SWAP2 POP JUMPDEST POP POP SWAP1 POP DUP1 PUSH2 0x1500 JUMPI PUSH1 0x40 MLOAD PUSH3 0x461BCD PUSH1 0xE5 SHL DUP2 MSTORE PUSH1 0x20 PUSH1 0x4 DUP3 ADD MSTORE PUSH1 0x13 PUSH1 0x24 DUP3 ADD MSTORE PUSH19 0x115512081D1C985B9CD9995C8819985A5B1959 PUSH1 0x6A SHL PUSH1 0x44 DUP3 ADD MSTORE PUSH1 0x64 ADD PUSH2 0xB3F JUMP JUMPDEST DUP2 PUSH1 0x2 ADD SLOAD PUSH1 0xF PUSH1 0x0 DUP3 DUP3 SLOAD PUSH2 0x1516 SWAP2 SWAP1 PUSH2 0x43C1 JUMP JUMPDEST SWAP1 SWAP2 SSTORE POP POP DUP2 SLOAD PUSH1 0x2 DUP4 ADD SLOAD PUSH1 0x3 DUP5 ADD SLOAD PUSH1 0x40 MLOAD PUSH1 0x1 PUSH1 0x1 PUSH1 0xA0 SHL SUB SWAP1 SWAP4 AND SWAP3 DUP8 SWAP3 PUSH32 0x7983CB2E608321C3E20A437D27BB5DAEEDE1DDC38F87C0245FAFBC7EE8D12D31 SWAP3 PUSH2 0x156C SWAP3 SWAP2 DUP3 MSTORE PUSH1 0x20 DUP3 ADD MSTORE PUSH1 0x40 ADD SWAP1 JUMP JUMPDEST PUSH1 0x40 MLOAD DUP1 SWAP2 SUB SWAP1 LOG3 POP POP POP POP JUMP JUMPDEST PUSH2 0x1592 PUSH1 0x0 DUP1 MLOAD PUSH1 0x20 PUSH2 0x47EA DUP4 CODECOPY DUP2 MLOAD SWAP2 MSTORE CALLER PUSH2 0x23A5 JUMP JUMPDEST PUSH2 0x15AE JUMPI PUSH1 0x40 MLOAD PUSH3 0x461BCD PUSH1 0xE5 SHL DUP2 MSTORE PUSH1 0x4 ADD PUSH2 0xB3F SWAP1 PUSH2 0x4276 JUMP JUMPDEST PUSH1 0x12 DUP1 SLOAD PUSH1 0xFF NOT AND SWAP1 SSTORE JUMP JUMPDEST PUSH1 0x12 SLOAD PUSH1 0xFF AND ISZERO PUSH2 0x15DD JUMPI PUSH1 0x40 MLOAD PUSH3 0x461BCD PUSH1 0xE5 SHL DUP2 MSTORE PUSH1 0x4 ADD PUSH2 0xB3F SWAP1 PUSH2 0x41DE JUMP JUMPDEST PUSH1 0x0 DUP1 MLOAD PUSH1 0x20 PUSH2 0x47CA DUP4 CODECOPY DUP2 MLOAD SWAP2 MSTORE PUSH2 0x15F5 DUP2 PUSH2 0x3388 JUMP JUMPDEST PUSH1 0x0 DUP5 DUP2 MSTORE PUSH1 0xE PUSH1 0x20 MSTORE PUSH1 0x40 SWAP1 KECCAK256 DUP1 SLOAD PUSH1 0x1 PUSH1 0x1 PUSH1 0xA0 SHL SUB AND PUSH2 0x164B JUMPI PUSH1 0x40 MLOAD PUSH3 0x461BCD PUSH1 0xE5 SHL DUP2 MSTORE PUSH1 0x20 PUSH1 0x4 DUP3 ADD MSTORE PUSH1 0xE PUSH1 0x24 DUP3 ADD MSTORE PUSH14 0x1B1BD85B881B9BDD08199BDD5B99 PUSH1 0x92 SHL PUSH1 0x44 DUP3 ADD MSTORE PUSH1 0x64 ADD PUSH2 0xB3F JUMP JUMPDEST PUSH1 0x0 PUSH1 0x3 DUP3 ADD SLOAD PUSH1 0xFF AND PUSH1 0x2 DUP2 GT ISZERO PUSH2 0x1666 JUMPI PUSH2 0x1666 PUSH2 0x3F94 JUMP JUMPDEST EQ PUSH2 0x1683 JUMPI PUSH1 0x40 MLOAD PUSH3 0x461BCD PUSH1 0xE5 SHL DUP2 MSTORE PUSH1 0x4 ADD PUSH2 0xB3F SWAP1 PUSH2 0x41FE JUMP JUMPDEST PUSH1 0x3 DUP2 ADD DUP1 SLOAD PUSH1 0xFF NOT AND PUSH1 0x2 OR SWAP1 SSTORE DUP1 SLOAD PUSH1 0x1 DUP3 ADD SLOAD PUSH1 0x40 MLOAD PUSH1 0x1 PUSH1 0x1 PUSH1 0xA0 SHL SUB SWAP1 SWAP3 AND SWAP2 DUP8 SWAP2 PUSH32 0x38F1F980114D056D6AB178991091DE16301D414B5CC758A1072D3447948686A1 SWAP2 PUSH2 0xF71 SWAP2 SWAP1 DUP10 SWAP1 DUP10 SWAP1 PUSH2 0x42C2 JUMP JUMPDEST PUSH2 0x16F2 PUSH1 0x0 DUP1 MLOAD PUSH1 0x20 PUSH2 0x47EA DUP4 CODECOPY DUP2 MLOAD SWAP2 MSTORE CALLER PUSH2 0x23A5 JUMP JUMPDEST PUSH2 0x170E JUMPI PUSH1 0x40 MLOAD PUSH3 0x461BCD PUSH1 0xE5 SHL DUP2 MSTORE PUSH1 0x4 ADD PUSH2 0xB3F SWAP1 PUSH2 0x4276 JUMP JUMPDEST PUSH1 0x13 SSTORE JUMP JUMPDEST PUSH1 0x12 SLOAD PUSH1 0xFF AND ISZERO PUSH2 0x1736 JUMPI PUSH1 0x40 MLOAD PUSH3 0x461BCD PUSH1 0xE5 SHL DUP2 MSTORE PUSH1 0x4 ADD PUSH2 0xB3F SWAP1 PUSH2 0x41DE JUMP JUMPDEST PUSH1 0x0 DUP1 MLOAD PUSH1 0x20 PUSH2 0x47CA DUP4 CODECOPY DUP2 MLOAD SWAP2 MSTORE PUSH2 0x174E DUP2 PUSH2 0x3388 JUMP JUMPDEST PUSH1 0x0 DUP4 DUP2 MSTORE PUSH1 0xE PUSH1 0x20 MSTORE PUSH1 0x40 SWAP1 KECCAK256 DUP1 SLOAD PUSH1 0x1 PUSH1 0x1 PUSH1 0xA0 SHL SUB AND PUSH2 0x17A4 JUMPI PUSH1 0x40 MLOAD PUSH3 0x461BCD PUSH1 0xE5 SHL DUP2 MSTORE PUSH1 0x20 PUSH1 0x4 DUP3 ADD MSTORE PUSH1 0xE PUSH1 0x24 DUP3 ADD MSTORE PUSH14 0x1B1BD85B881B9BDD08199BDD5B99 PUSH1 0x92 SHL PUSH1 0x44 DUP3 ADD MSTORE PUSH1 0x64 ADD PUSH2 0xB3F JUMP JUMPDEST PUSH1 0x0 PUSH1 0x3 DUP3 ADD SLOAD PUSH1 0xFF AND PUSH1 0x2 DUP2 GT ISZERO PUSH2 0x17BF JUMPI PUSH2 0x17BF PUSH2 0x3F94 JUMP JUMPDEST EQ PUSH2 0x17DC JUMPI PUSH1 0x40 MLOAD PUSH3 0x461BCD PUSH1 0xE5 SHL DUP2 MSTORE PUSH1 0x4 ADD PUSH2 0xB3F SWAP1 PUSH2 0x41FE JUMP JUMPDEST CALLER PUSH1 0x0 SWAP1 DUP2 MSTORE PUSH1 0x6 DUP3 ADD PUSH1 0x20 MSTORE PUSH1 0x40 SWAP1 KECCAK256 SLOAD PUSH1 0xFF AND ISZERO PUSH2 0x180E JUMPI PUSH1 0x40 MLOAD PUSH3 0x461BCD PUSH1 0xE5 SHL DUP2 MSTORE PUSH1 0x4 ADD PUSH2 0xB3F SWAP1 PUSH2 0x4223 JUMP JUMPDEST PUSH1 0x0 DUP4 GT PUSH2 0x182E JUMPI PUSH1 0x40 MLOAD PUSH3 0x461BCD PUSH1 0xE5 SHL DUP2 MSTORE PUSH1 0x4 ADD PUSH2 0xB3F SWAP1 PUSH2 0x43D4 JUMP JUMPDEST CALLER PUSH1 0x0 SWAP1 DUP2 MSTORE PUSH1 0x6 DUP3 ADD PUSH1 0x20 MSTORE PUSH1 0x40 DUP2 KECCAK256 DUP1 SLOAD PUSH1 0xFF NOT AND PUSH1 0x1 SWAP1 DUP2 OR SWAP1 SWAP2 SSTORE PUSH1 0x5 DUP4 ADD DUP1 SLOAD SWAP2 SWAP3 SWAP1 SWAP2 PUSH2 0x1862 SWAP1 DUP5 SWAP1 PUSH2 0x4263 JUMP JUMPDEST SWAP1 SWAP2 SSTORE POP POP PUSH1 0x5 DUP2 ADD SLOAD PUSH1 0x2 GT PUSH2 0x1A16 JUMPI PUSH1 0x3 DUP2 ADD DUP1 SLOAD PUSH1 0xFF NOT AND PUSH1 0x1 SWAP1 DUP2 OR SWAP1 SWAP2 SSTORE DUP2 ADD SLOAD DUP2 SLOAD PUSH1 0x1 PUSH1 0x1 PUSH1 0xA0 SHL SUB AND PUSH1 0x0 SWAP1 DUP2 MSTORE PUSH1 0x4 PUSH1 0x20 MSTORE PUSH1 0x40 DUP2 KECCAK256 DUP1 SLOAD SWAP1 SWAP2 SWAP1 PUSH2 0x18B1 SWAP1 DUP5 SWAP1 PUSH2 0x4263 JUMP JUMPDEST SWAP1 SWAP2 SSTORE POP POP PUSH1 0x1 DUP2 ADD SLOAD PUSH1 0xF DUP1 SLOAD PUSH1 0x0 SWAP1 PUSH2 0x18CD SWAP1 DUP5 SWAP1 PUSH2 0x4263 JUMP JUMPDEST SWAP1 SWAP2 SSTORE POP POP PUSH1 0x1 DUP2 ADD SLOAD PUSH1 0x10 DUP1 SLOAD PUSH1 0x0 SWAP1 PUSH2 0x18E9 SWAP1 DUP5 SWAP1 PUSH2 0x4263 JUMP JUMPDEST SWAP1 SWAP2 SSTORE POP POP SELFBALANCE DUP4 GT ISZERO PUSH2 0x1939 JUMPI PUSH1 0x40 MLOAD PUSH3 0x461BCD PUSH1 0xE5 SHL DUP2 MSTORE PUSH1 0x20 PUSH1 0x4 DUP3 ADD MSTORE PUSH1 0x18 PUSH1 0x24 DUP3 ADD MSTORE PUSH24 0x696E73756666696369656E74204554482072657365727665 PUSH1 0x40 SHL PUSH1 0x44 DUP3 ADD MSTORE PUSH1 0x64 ADD PUSH2 0xB3F JUMP JUMPDEST DUP1 SLOAD PUSH1 0x40 MLOAD PUSH1 0x0 SWAP2 PUSH1 0x1 PUSH1 0x1 PUSH1 0xA0 SHL SUB AND SWAP1 DUP6 SWAP1 DUP4 DUP2 DUP2 DUP2 DUP6 DUP8 GAS CALL SWAP3 POP POP POP RETURNDATASIZE DUP1 PUSH1 0x0 DUP2 EQ PUSH2 0x1985 JUMPI PUSH1 0x40 MLOAD SWAP2 POP PUSH1 0x1F NOT PUSH1 0x3F RETURNDATASIZE ADD AND DUP3 ADD PUSH1 0x40 MSTORE RETURNDATASIZE DUP3 MSTORE RETURNDATASIZE PUSH1 0x0 PUSH1 0x20 DUP5 ADD RETURNDATACOPY PUSH2 0x198A JUMP JUMPDEST PUSH1 0x60 SWAP2 POP JUMPDEST POP POP SWAP1 POP DUP1 PUSH2 0x19D1 JUMPI PUSH1 0x40 MLOAD PUSH3 0x461BCD PUSH1 0xE5 SHL DUP2 MSTORE PUSH1 0x20 PUSH1 0x4 DUP3 ADD MSTORE PUSH1 0x13 PUSH1 0x24 DUP3 ADD MSTORE PUSH19 0x115512081D1C985B9CD9995C8819985A5B1959 PUSH1 0x6A SHL PUSH1 0x44 DUP3 ADD MSTORE PUSH1 0x64 ADD PUSH2 0xB3F JUMP JUMPDEST DUP2 SLOAD PUSH1 0x1 DUP4 ADD SLOAD PUSH1 0x40 MLOAD SWAP1 DUP2 MSTORE PUSH1 0x1 PUSH1 0x1 PUSH1 0xA0 SHL SUB SWAP1 SWAP2 AND SWAP1 DUP7 SWAP1 PUSH32 0x2B993938BAA27C88E77A207903D275C96FA30AE5949A3EA5CD56E466E4F5C891 SWAP1 PUSH1 0x20 ADD PUSH2 0xF71 JUMP JUMPDEST POP POP POP POP JUMP JUMPDEST PUSH1 0x0 DUP1 DUP1 DUP1 DUP1 DUP1 DUP7 ISZERO DUP1 PUSH2 0x1A32 JUMPI POP PUSH1 0x9 SLOAD DUP8 LT ISZERO JUMPDEST ISZERO PUSH2 0x1A4F JUMPI POP PUSH1 0x0 SWAP5 POP DUP5 SWAP4 POP DUP4 SWAP3 POP PUSH1 0x2 SWAP2 POP DUP3 SWAP1 POP DUP1 PUSH2 0x1A97 JUMP JUMPDEST POP POP POP PUSH1 0x0 DUP5 DUP2 MSTORE PUSH1 0xA PUSH1 0x20 MSTORE PUSH1 0x40 SWAP1 KECCAK256 DUP1 SLOAD PUSH1 0x1 DUP3 ADD SLOAD PUSH1 0x2 DUP4 ADD SLOAD PUSH1 0x3 DUP5 ADD SLOAD PUSH1 0x4 DUP6 ADD SLOAD PUSH1 0x5 SWAP1 SWAP6 ADD SLOAD PUSH1 0x1 PUSH1 0x1 PUSH1 0xA0 SHL SUB SWAP5 DUP6 AND SWAP9 POP SWAP4 SWAP1 SWAP3 AND SWAP6 POP SWAP4 POP PUSH1 0xFF AND SWAP2 SWAP1 JUMPDEST SWAP2 SWAP4 SWAP6 POP SWAP2 SWAP4 SWAP6 JUMP JUMPDEST PUSH2 0x1AB8 PUSH1 0x0 DUP1 MLOAD PUSH1 0x20 PUSH2 0x47EA DUP4 CODECOPY DUP2 MLOAD SWAP2 MSTORE CALLER PUSH2 0x23A5 JUMP JUMPDEST PUSH2 0x1AD4 JUMPI PUSH1 0x40 MLOAD PUSH3 0x461BCD PUSH1 0xE5 SHL DUP2 MSTORE PUSH1 0x4 ADD PUSH2 0xB3F SWAP1 PUSH2 0x4276 JUMP JUMPDEST PUSH1 0x12 DUP1 SLOAD PUSH1 0xFF NOT AND PUSH1 0x1 OR SWAP1 SSTORE JUMP JUMPDEST PUSH1 0x12 SLOAD PUSH1 0xFF AND ISZERO PUSH2 0x1B06 JUMPI PUSH1 0x40 MLOAD PUSH3 0x461BCD PUSH1 0xE5 SHL DUP2 MSTORE PUSH1 0x4 ADD PUSH2 0xB3F SWAP1 PUSH2 0x41DE JUMP JUMPDEST PUSH1 0x40 MLOAD PUSH4 0x607A23F3 PUSH1 0xE0 SHL DUP2 MSTORE CALLER PUSH1 0x4 DUP3 ADD MSTORE PUSH32 0x0 PUSH1 0x1 PUSH1 0x1 PUSH1 0xA0 SHL SUB AND SWAP1 PUSH4 0x607A23F3 SWAP1 PUSH1 0x24 ADD PUSH1 0x20 PUSH1 0x40 MLOAD DUP1 DUP4 SUB DUP2 DUP7 GAS STATICCALL ISZERO DUP1 ISZERO PUSH2 0x1B6A JUMPI RETURNDATASIZE PUSH1 0x0 DUP1 RETURNDATACOPY RETURNDATASIZE PUSH1 0x0 REVERT JUMPDEST POP POP POP POP PUSH1 0x40 MLOAD RETURNDATASIZE PUSH1 0x1F NOT PUSH1 0x1F DUP3 ADD AND DUP3 ADD DUP1 PUSH1 0x40 MSTORE POP DUP2 ADD SWAP1 PUSH2 0x1B8E SWAP2 SWAP1 PUSH2 0x42E5 JUMP JUMPDEST PUSH2 0x1BAA JUMPI PUSH1 0x40 MLOAD PUSH3 0x461BCD PUSH1 0xE5 SHL DUP2 MSTORE PUSH1 0x4 ADD PUSH2 0xB3F SWAP1 PUSH2 0x4302 JUMP JUMPDEST CALLER PUSH1 0x0 SWAP1 DUP2 MSTORE PUSH1 0x8 PUSH1 0x20 MSTORE PUSH1 0x40 SWAP1 KECCAK256 SLOAD PUSH1 0xFF AND ISZERO PUSH2 0x1BDA JUMPI PUSH1 0x40 MLOAD PUSH3 0x461BCD PUSH1 0xE5 SHL DUP2 MSTORE PUSH1 0x4 ADD PUSH2 0xB3F SWAP1 PUSH2 0x432C JUMP JUMPDEST CALLER PUSH1 0x0 SWAP1 DUP2 MSTORE PUSH1 0x7 PUSH1 0x20 MSTORE PUSH1 0x40 SWAP1 KECCAK256 SLOAD TIMESTAMP LT ISZERO PUSH2 0x1C09 JUMPI PUSH1 0x40 MLOAD PUSH3 0x461BCD PUSH1 0xE5 SHL DUP2 MSTORE PUSH1 0x4 ADD PUSH2 0xB3F SWAP1 PUSH2 0x4351 JUMP JUMPDEST PUSH1 0x0 DUP3 GT PUSH2 0x1C42 JUMPI PUSH1 0x40 MLOAD PUSH3 0x461BCD PUSH1 0xE5 SHL DUP2 MSTORE PUSH1 0x20 PUSH1 0x4 DUP3 ADD MSTORE PUSH1 0x6 PUSH1 0x24 DUP3 ADD MSTORE PUSH6 0x737573643D3 PUSH1 0xD4 SHL PUSH1 0x44 DUP3 ADD MSTORE PUSH1 0x64 ADD PUSH2 0xB3F JUMP JUMPDEST PUSH1 0x0 DUP2 GT PUSH2 0x1C62 JUMPI PUSH1 0x40 MLOAD PUSH3 0x461BCD PUSH1 0xE5 SHL DUP2 MSTORE PUSH1 0x4 ADD PUSH2 0xB3F SWAP1 PUSH2 0x43D4 JUMP JUMPDEST CALLER PUSH1 0x0 SWAP1 DUP2 MSTORE PUSH1 0x4 PUSH1 0x20 MSTORE PUSH1 0x40 SWAP1 KECCAK256 SLOAD DUP3 GT ISZERO PUSH2 0x1C91 JUMPI PUSH1 0x40 MLOAD PUSH3 0x461BCD PUSH1 0xE5 SHL DUP2 MSTORE PUSH1 0x4 ADD PUSH2 0xB3F SWAP1 PUSH2 0x439B JUMP JUMPDEST CALLER PUSH1 0x0 SWAP1 DUP2 MSTORE PUSH1 0x4 PUSH1 0x20 MSTORE PUSH1 0x40 DUP2 KECCAK256 DUP1 SLOAD DUP5 SWAP3 SWAP1 PUSH2 0x1CB0 SWAP1 DUP5 SWAP1 PUSH2 0x43C1 JUMP JUMPDEST SWAP1 SWAP2 SSTORE POP POP PUSH1 0xB DUP1 SLOAD PUSH1 0x0 SWAP2 DUP3 PUSH2 0x1CC6 DUP4 PUSH2 0x43F3 JUMP JUMPDEST SWAP1 SWAP2 SSTORE POP PUSH1 0x0 DUP2 DUP2 MSTORE PUSH1 0x11 PUSH1 0x20 MSTORE PUSH1 0x40 SWAP1 KECCAK256 DUP1 SLOAD PUSH1 0x1 PUSH1 0x1 PUSH1 0xA0 SHL SUB NOT AND CALLER OR DUP2 SSTORE SWAP1 SWAP2 POP PUSH1 0x1 DUP2 ADD PUSH2 0x1CFA DUP7 DUP9 DUP4 PUSH2 0x44A2 JUMP JUMPDEST POP PUSH1 0x2 DUP2 ADD DUP5 SWAP1 SSTORE PUSH1 0x3 DUP2 ADD DUP4 SWAP1 SSTORE PUSH1 0x4 DUP2 ADD DUP1 SLOAD PUSH1 0xFF NOT AND SWAP1 SSTORE TIMESTAMP PUSH1 0x5 DUP3 ADD SSTORE PUSH1 0x40 MLOAD CALLER SWAP1 DUP4 SWAP1 PUSH32 0x17FE45D7CD13F1C47D41F0F332C8EF0F050B98F1B75E28395D3A52253B786151 SWAP1 PUSH2 0x1D53 SWAP1 DUP11 SWAP1 DUP11 SWAP1 DUP11 SWAP1 PUSH2 0x4562 JUMP JUMPDEST PUSH1 0x40 MLOAD DUP1 SWAP2 SUB SWAP1 LOG3 POP POP POP POP POP POP JUMP JUMPDEST PUSH1 0x12 SLOAD PUSH1 0xFF AND ISZERO PUSH2 0x1D86 JUMPI PUSH1 0x40 MLOAD PUSH3 0x461BCD PUSH1 0xE5 SHL DUP2 MSTORE PUSH1 0x4 ADD PUSH2 0xB3F SWAP1 PUSH2 0x41DE JUMP JUMPDEST PUSH1 0x40 MLOAD PUSH4 0x607A23F3 PUSH1 0xE0 SHL DUP2 MSTORE CALLER PUSH1 0x4 DUP3 ADD MSTORE PUSH32 0x0 PUSH1 0x1 PUSH1 0x1 PUSH1 0xA0 SHL SUB AND SWAP1 PUSH4 0x607A23F3 SWAP1 PUSH1 0x24 ADD PUSH1 0x20 PUSH1 0x40 MLOAD DUP1 DUP4 SUB DUP2 DUP7 GAS STATICCALL ISZERO DUP1 ISZERO PUSH2 0x1DEA JUMPI RETURNDATASIZE PUSH1 0x0 DUP1 RETURNDATACOPY RETURNDATASIZE PUSH1 0x0 REVERT JUMPDEST POP POP POP POP PUSH1 0x40 MLOAD RETURNDATASIZE PUSH1 0x1F NOT PUSH1 0x1F DUP3 ADD AND DUP3 ADD DUP1 PUSH1 0x40 MSTORE POP DUP2 ADD SWAP1 PUSH2 0x1E0E SWAP2 SWAP1 PUSH2 0x42E5 JUMP JUMPDEST PUSH2 0x1E2A JUMPI PUSH1 0x40 MLOAD PUSH3 0x461BCD PUSH1 0xE5 SHL DUP2 MSTORE PUSH1 0x4 ADD PUSH2 0xB3F SWAP1 PUSH2 0x4302 JUMP JUMPDEST CALLER PUSH1 0x0 SWAP1 DUP2 MSTORE PUSH1 0x8 PUSH1 0x20 MSTORE PUSH1 0x40 SWAP1 KECCAK256 SLOAD PUSH1 0xFF AND ISZERO PUSH2 0x1E5A JUMPI PUSH1 0x40 MLOAD PUSH3 0x461BCD PUSH1 0xE5 SHL DUP2 MSTORE PUSH1 0x4 ADD PUSH2 0xB3F SWAP1 PUSH2 0x432C JUMP JUMPDEST CALLER PUSH1 0x0 SWAP1 DUP2 MSTORE PUSH1 0x7 PUSH1 0x20 MSTORE PUSH1 0x40 SWAP1 KECCAK256 SLOAD TIMESTAMP LT ISZERO PUSH2 0x1E89 JUMPI PUSH1 0x40 MLOAD PUSH3 0x461BCD PUSH1 0xE5 SHL DUP2 MSTORE PUSH1 0x4 ADD PUSH2 0xB3F SWAP1 PUSH2 0x4351 JUMP JUMPDEST PUSH1 0x0 DUP2 GT PUSH2 0x1EC7 JUMPI PUSH1 0x40 MLOAD PUSH3 0x461BCD PUSH1 0xE5 SHL DUP2 MSTORE PUSH1 0x20 PUSH1 0x4 DUP3 ADD MSTORE PUSH1 0xB PUSH1 0x24 DUP3 ADD MSTORE PUSH11 0x7072696E636970616C3D3 PUSH1 0xAC SHL PUSH1 0x44 DUP3 ADD MSTORE PUSH1 0x64 ADD PUSH2 0xB3F JUMP JUMPDEST PUSH1 0xF SLOAD ISZERO DUP1 PUSH2 0x1F0A JUMPI POP PUSH8 0xC7D713B49DA0000 PUSH1 0xF SLOAD DUP3 PUSH1 0x10 SLOAD PUSH2 0x1EEB SWAP2 SWAP1 PUSH2 0x4263 JUMP JUMPDEST PUSH2 0x1EFD SWAP1 PUSH8 0xDE0B6B3A7640000 PUSH2 0x4586 JUMP JUMPDEST PUSH2 0x1F07 SWAP2 SWAP1 PUSH2 0x459D JUMP JUMPDEST GT ISZERO JUMPDEST PUSH2 0x1F6A JUMPI PUSH1 0x40 MLOAD PUSH3 0x461BCD PUSH1 0xE5 SHL DUP2 MSTORE PUSH1 0x20 PUSH1 0x4 DUP3 ADD MSTORE PUSH1 0x2B PUSH1 0x24 DUP3 ADD MSTORE PUSH32 0x5269736B3A2053797374656D206C6971756964697479207574696C697A617469 PUSH1 0x44 DUP3 ADD MSTORE PUSH11 0xDEDC40E8DEDE40D0D2CED PUSH1 0xAB SHL PUSH1 0x64 DUP3 ADD MSTORE PUSH1 0x84 ADD PUSH2 0xB3F JUMP JUMPDEST PUSH2 0x1F75 PUSH1 0x2 DUP3 PUSH2 0x459D JUMP JUMPDEST CALLER PUSH1 0x0 SWAP1 DUP2 MSTORE PUSH1 0x4 PUSH1 0x20 MSTORE PUSH1 0x40 SWAP1 KECCAK256 SLOAD LT ISZERO PUSH2 0x1FE5 JUMPI PUSH1 0x40 MLOAD PUSH3 0x461BCD PUSH1 0xE5 SHL DUP2 MSTORE PUSH1 0x20 PUSH1 0x4 DUP3 ADD MSTORE PUSH1 0x29 PUSH1 0x24 DUP3 ADD MSTORE PUSH32 0x5269736B3A20496E73756666696369656E742062616C616E636520666F722063 PUSH1 0x44 DUP3 ADD MSTORE PUSH9 0x1BDB1B185D195C985B PUSH1 0xBA SHL PUSH1 0x64 DUP3 ADD MSTORE PUSH1 0x84 ADD PUSH2 0xB3F JUMP JUMPDEST PUSH1 0x40 MLOAD PUSH4 0x58F2EF17 PUSH1 0xE0 SHL DUP2 MSTORE CALLER PUSH1 0x4 DUP3 ADD MSTORE PUSH1 0x0 SWAP1 PUSH32 0x0 PUSH1 0x1 PUSH1 0x1 PUSH1 0xA0 SHL SUB AND SWAP1 PUSH4 0x58F2EF17 SWAP1 PUSH1 0x24 ADD PUSH1 0x20 PUSH1 0x40 MLOAD DUP1 DUP4 SUB DUP2 DUP7 GAS STATICCALL ISZERO DUP1 ISZERO PUSH2 0x204C JUMPI RETURNDATASIZE PUSH1 0x0 DUP1 RETURNDATACOPY RETURNDATASIZE PUSH1 0x0 REVERT JUMPDEST POP POP POP POP PUSH1 0x40 MLOAD RETURNDATASIZE PUSH1 0x1F NOT PUSH1 0x1F DUP3 ADD AND DUP3 ADD DUP1 PUSH1 0x40 MSTORE POP DUP2 ADD SWAP1 PUSH2 0x2070 SWAP2 SWAP1 PUSH2 0x45BF JUMP JUMPDEST SWAP1 POP DUP1 DUP3 GT ISZERO PUSH2 0x20B8 JUMPI PUSH1 0x40 MLOAD PUSH3 0x461BCD PUSH1 0xE5 SHL DUP2 MSTORE PUSH1 0x20 PUSH1 0x4 DUP3 ADD MSTORE PUSH1 0x13 PUSH1 0x24 DUP3 ADD MSTORE PUSH19 0x1B1BD85B881B1A5B5A5D08195E18D959591959 PUSH1 0x6A SHL PUSH1 0x44 DUP3 ADD MSTORE PUSH1 0x64 ADD PUSH2 0xB3F JUMP JUMPDEST PUSH1 0xD DUP1 SLOAD PUSH1 0x0 SWAP2 DUP3 PUSH2 0x20C9 DUP4 PUSH2 0x43F3 JUMP JUMPDEST SWAP1 SWAP2 SSTORE POP PUSH1 0x0 DUP2 DUP2 MSTORE PUSH1 0xE PUSH1 0x20 MSTORE PUSH1 0x40 SWAP1 DUP2 SWAP1 KECCAK256 DUP1 SLOAD PUSH1 0x1 PUSH1 0x1 PUSH1 0xA0 SHL SUB NOT AND CALLER SWAP1 DUP2 OR DUP3 SSTORE PUSH1 0x1 DUP3 ADD DUP8 SWAP1 SSTORE PUSH1 0x10 SLOAD PUSH1 0xF SLOAD SWAP4 MLOAD PUSH4 0x1A407CE5 PUSH1 0xE3 SHL DUP2 MSTORE PUSH1 0x4 DUP2 ADD SWAP3 SWAP1 SWAP3 MSTORE PUSH1 0x24 DUP3 ADD MSTORE PUSH1 0x44 DUP2 ADD SWAP3 SWAP1 SWAP3 MSTORE SWAP2 SWAP3 POP PUSH32 0x0 PUSH1 0x1 PUSH1 0x1 PUSH1 0xA0 SHL SUB AND SWAP1 PUSH4 0xD203E728 SWAP1 PUSH1 0x64 ADD PUSH1 0x20 PUSH1 0x40 MLOAD DUP1 DUP4 SUB DUP2 DUP7 GAS STATICCALL ISZERO DUP1 ISZERO PUSH2 0x2171 JUMPI RETURNDATASIZE PUSH1 0x0 DUP1 RETURNDATACOPY RETURNDATASIZE PUSH1 0x0 REVERT JUMPDEST POP POP POP POP PUSH1 0x40 MLOAD RETURNDATASIZE PUSH1 0x1F NOT PUSH1 0x1F DUP3 ADD AND DUP3 ADD DUP1 PUSH1 0x40 MSTORE POP DUP2 ADD SWAP1 PUSH2 0x2195 SWAP2 SWAP1 PUSH2 0x45BF JUMP JUMPDEST PUSH1 0x2 DUP3 ADD SSTORE PUSH1 0x3 DUP2 ADD DUP1 SLOAD PUSH1 0xFF NOT AND SWAP1 SSTORE TIMESTAMP PUSH1 0x4 DUP3 ADD SSTORE PUSH10 0x21E19E0C9BAB2400000 DUP5 LT PUSH2 0x229C JUMPI PUSH1 0x40 MLOAD PUSH4 0x10AAC22F PUSH1 0xE2 SHL DUP2 MSTORE CALLER PUSH1 0x4 DUP3 ADD MSTORE PUSH1 0x60 PUSH1 0x24 DUP1 DUP4 ADD SWAP2 SWAP1 SWAP2 MSTORE PUSH1 0xA PUSH1 0x64 DUP4 ADD MSTORE PUSH10 0x2620A923A2AFA627A0A7 PUSH1 0xB1 SHL PUSH1 0x84 DUP4 ADD MSTORE PUSH1 0xA0 PUSH1 0x44 DUP4 ADD MSTORE PUSH1 0xA4 DUP3 ADD MSTORE PUSH32 0x4C61726765206C6F616E207265717565737420666F72206D616E75616C207265 PUSH1 0xC4 DUP3 ADD MSTORE PUSH4 0x76696577 PUSH1 0xE0 SHL PUSH1 0xE4 DUP3 ADD MSTORE PUSH32 0x0 PUSH1 0x1 PUSH1 0x1 PUSH1 0xA0 SHL SUB AND SWAP1 PUSH4 0x42AB08BC SWAP1 PUSH2 0x104 ADD PUSH1 0x0 PUSH1 0x40 MLOAD DUP1 DUP4 SUB DUP2 PUSH1 0x0 DUP8 DUP1 EXTCODESIZE ISZERO DUP1 ISZERO PUSH2 0x2283 JUMPI PUSH1 0x0 DUP1 REVERT JUMPDEST POP GAS CALL ISZERO DUP1 ISZERO PUSH2 0x2297 JUMPI RETURNDATASIZE PUSH1 0x0 DUP1 RETURNDATACOPY RETURNDATASIZE PUSH1 0x0 REVERT JUMPDEST POP POP POP POP JUMPDEST PUSH1 0x2 DUP2 ADD SLOAD PUSH1 0x40 DUP1 MLOAD DUP7 DUP2 MSTORE PUSH1 0x20 DUP2 ADD SWAP3 SWAP1 SWAP3 MSTORE CALLER SWAP2 DUP5 SWAP2 PUSH32 0x68595DBE887AE7F496F2C88735019A8918919A1DECFDEE6BDB460480AB87DECB SWAP2 ADD PUSH2 0x156C JUMP JUMPDEST PUSH2 0x22F4 PUSH1 0x0 DUP1 MLOAD PUSH1 0x20 PUSH2 0x47EA DUP4 CODECOPY DUP2 MLOAD SWAP2 MSTORE CALLER PUSH2 0x23A5 JUMP JUMPDEST PUSH2 0x2310 JUMPI PUSH1 0x40 MLOAD PUSH3 0x461BCD PUSH1 0xE5 SHL DUP2 MSTORE PUSH1 0x4 ADD PUSH2 0xB3F SWAP1 PUSH2 0x4276 JUMP JUMPDEST PUSH1 0x1 PUSH1 0x1 PUSH1 0xA0 SHL SUB DUP2 DUP2 AND PUSH1 0x0 DUP2 DUP2 MSTORE PUSH1 0x7 PUSH1 0x20 MSTORE PUSH1 0x40 DUP1 DUP3 KECCAK256 SWAP2 SWAP1 SWAP2 SSTORE MLOAD PUSH4 0x5C1E1DB PUSH1 0xE3 SHL DUP2 MSTORE PUSH1 0x4 DUP2 ADD SWAP2 SWAP1 SWAP2 MSTORE PUSH32 0x0 SWAP1 SWAP2 AND SWAP1 PUSH4 0x2E0F0ED8 SWAP1 PUSH1 0x24 ADD JUMPDEST PUSH1 0x0 PUSH1 0x40 MLOAD DUP1 DUP4 SUB DUP2 PUSH1 0x0 DUP8 DUP1 EXTCODESIZE ISZERO DUP1 ISZERO PUSH2 0x238A JUMPI PUSH1 0x0 DUP1 REVERT JUMPDEST POP GAS CALL ISZERO DUP1 ISZERO PUSH2 0x239E JUMPI RETURNDATASIZE PUSH1 0x0 DUP1 RETURNDATACOPY RETURNDATASIZE PUSH1 0x0 REVERT JUMPDEST POP POP POP POP POP JUMP JUMPDEST PUSH1 0x0 SWAP2 DUP3 MSTORE PUSH1 0x20 DUP3 DUP2 MSTORE PUSH1 0x40 DUP1 DUP5 KECCAK256 PUSH1 0x1 PUSH1 0x1 PUSH1 0xA0 SHL SUB SWAP4 SWAP1 SWAP4 AND DUP5 MSTORE SWAP2 SWAP1 MSTORE SWAP1 KECCAK256 SLOAD PUSH1 0xFF AND SWAP1 JUMP JUMPDEST PUSH1 0x12 SLOAD PUSH1 0xFF AND ISZERO PUSH2 0x23F1 JUMPI PUSH1 0x40 MLOAD PUSH3 0x461BCD PUSH1 0xE5 SHL DUP2 MSTORE PUSH1 0x4 ADD PUSH2 0xB3F SWAP1 PUSH2 0x41DE JUMP JUMPDEST PUSH1 0x40 MLOAD PUSH4 0x607A23F3 PUSH1 0xE0 SHL DUP2 MSTORE CALLER PUSH1 0x4 DUP3 ADD MSTORE PUSH32 0x0 PUSH1 0x1 PUSH1 0x1 PUSH1 0xA0 SHL SUB AND SWAP1 PUSH4 0x607A23F3 SWAP1 PUSH1 0x24 ADD PUSH1 0x20 PUSH1 0x40 MLOAD DUP1 DUP4 SUB DUP2 DUP7 GAS STATICCALL ISZERO DUP1 ISZERO PUSH2 0x2455 JUMPI RETURNDATASIZE PUSH1 0x0 DUP1 RETURNDATACOPY RETURNDATASIZE PUSH1 0x0 REVERT JUMPDEST POP POP POP POP PUSH1 0x40 MLOAD RETURNDATASIZE PUSH1 0x1F NOT PUSH1 0x1F DUP3 ADD AND DUP3 ADD DUP1 PUSH1 0x40 MSTORE POP DUP2 ADD SWAP1 PUSH2 0x2479 SWAP2 SWAP1 PUSH2 0x42E5 JUMP JUMPDEST PUSH2 0x2495 JUMPI PUSH1 0x40 MLOAD PUSH3 0x461BCD PUSH1 0xE5 SHL DUP2 MSTORE PUSH1 0x4 ADD PUSH2 0xB3F SWAP1 PUSH2 0x4302 JUMP JUMPDEST CALLER PUSH1 0x0 SWAP1 DUP2 MSTORE PUSH1 0x8 PUSH1 0x20 MSTORE PUSH1 0x40 SWAP1 KECCAK256 SLOAD PUSH1 0xFF AND ISZERO PUSH2 0x24C5 JUMPI PUSH1 0x40 MLOAD PUSH3 0x461BCD PUSH1 0xE5 SHL DUP2 MSTORE PUSH1 0x4 ADD PUSH2 0xB3F SWAP1 PUSH2 0x432C JUMP JUMPDEST CALLER PUSH1 0x0 SWAP1 DUP2 MSTORE PUSH1 0x7 PUSH1 0x20 MSTORE PUSH1 0x40 SWAP1 KECCAK256 SLOAD TIMESTAMP LT ISZERO PUSH2 0x24F4 JUMPI PUSH1 0x40 MLOAD PUSH3 0x461BCD PUSH1 0xE5 SHL DUP2 MSTORE PUSH1 0x4 ADD PUSH2 0xB3F SWAP1 PUSH2 0x4351 JUMP JUMPDEST PUSH1 0x1 PUSH1 0x1 PUSH1 0xA0 SHL SUB DUP3 AND PUSH2 0x2537 JUMPI PUSH1 0x40 MLOAD PUSH3 0x461BCD PUSH1 0xE5 SHL DUP2 MSTORE PUSH1 0x20 PUSH1 0x4 DUP3 ADD MSTORE PUSH1 0xA PUSH1 0x24 DUP3 ADD MSTORE PUSH10 0x696E76616C696420746F PUSH1 0xB0 SHL PUSH1 0x44 DUP3 ADD MSTORE PUSH1 0x64 ADD PUSH2 0xB3F JUMP JUMPDEST PUSH1 0x0 DUP2 GT PUSH2 0x2557 JUMPI PUSH1 0x40 MLOAD PUSH3 0x461BCD PUSH1 0xE5 SHL DUP2 MSTORE PUSH1 0x4 ADD PUSH2 0xB3F SWAP1 PUSH2 0x4379 JUMP JUMPDEST PUSH1 0x1 PUSH1 0x1 PUSH1 0xA0 SHL SUB DUP3 AND PUSH1 0x0 SWAP1 DUP2 MSTORE PUSH1 0x8 PUSH1 0x20 MSTORE PUSH1 0x40 SWAP1 KECCAK256 SLOAD PUSH1 0xFF AND ISZERO PUSH2 0x25B8 JUMPI PUSH1 0x40 MLOAD PUSH3 0x461BCD PUSH1 0xE5 SHL DUP2 MSTORE PUSH1 0x20 PUSH1 0x4 DUP3 ADD MSTORE PUSH1 0x15 PUSH1 0x24 DUP3 ADD MSTORE PUSH21 0x1C9958DA5C1A595B9D08189B1858DADB1A5CDD1959 PUSH1 0x5A SHL PUSH1 0x44 DUP3 ADD MSTORE PUSH1 0x64 ADD PUSH2 0xB3F JUMP JUMPDEST PUSH2 0x25C1 CALLER PUSH2 0x347E JUMP JUMPDEST PUSH2 0x12C0 CALLER DUP4 DUP4 PUSH2 0x3671 JUMP JUMPDEST PUSH1 0x12 SLOAD PUSH1 0xFF AND ISZERO PUSH2 0x25EF JUMPI PUSH1 0x40 MLOAD PUSH3 0x461BCD PUSH1 0xE5 SHL DUP2 MSTORE PUSH1 0x4 ADD PUSH2 0xB3F SWAP1 PUSH2 0x41DE JUMP JUMPDEST PUSH1 0x40 MLOAD PUSH4 0x607A23F3 PUSH1 0xE0 SHL DUP2 MSTORE CALLER PUSH1 0x4 DUP3 ADD MSTORE PUSH32 0x0 PUSH1 0x1 PUSH1 0x1 PUSH1 0xA0 SHL SUB AND SWAP1 PUSH4 0x607A23F3 SWAP1 PUSH1 0x24 ADD PUSH1 0x20 PUSH1 0x40 MLOAD DUP1 DUP4 SUB DUP2 DUP7 GAS STATICCALL ISZERO DUP1 ISZERO PUSH2 0x2653 JUMPI RETURNDATASIZE PUSH1 0x0 DUP1 RETURNDATACOPY RETURNDATASIZE PUSH1 0x0 REVERT JUMPDEST POP POP POP POP PUSH1 0x40 MLOAD RETURNDATASIZE PUSH1 0x1F NOT PUSH1 0x1F DUP3 ADD AND DUP3 ADD DUP1 PUSH1 0x40 MSTORE POP DUP2 ADD SWAP1 PUSH2 0x2677 SWAP2 SWAP1 PUSH2 0x42E5 JUMP JUMPDEST PUSH2 0x2693 JUMPI PUSH1 0x40 MLOAD PUSH3 0x461BCD PUSH1 0xE5 SHL DUP2 MSTORE PUSH1 0x4 ADD PUSH2 0xB3F SWAP1 PUSH2 0x4302 JUMP JUMPDEST CALLER PUSH1 0x0 SWAP1 DUP2 MSTORE PUSH1 0x8 PUSH1 0x20 MSTORE PUSH1 0x40 SWAP1 KECCAK256 SLOAD PUSH1 0xFF AND ISZERO PUSH2 0x26C3 JUMPI PUSH1 0x40 MLOAD PUSH3 0x461BCD PUSH1 0xE5 SHL DUP2 MSTORE PUSH1 0x4 ADD PUSH2 0xB3F SWAP1 PUSH2 0x432C JUMP JUMPDEST CALLER PUSH1 0x0 SWAP1 DUP2 MSTORE PUSH1 0x7 PUSH1 0x20 MSTORE PUSH1 0x40 SWAP1 KECCAK256 SLOAD TIMESTAMP LT ISZERO PUSH2 0x26F2 JUMPI PUSH1 0x40 MLOAD PUSH3 0x461BCD PUSH1 0xE5 SHL DUP2 MSTORE PUSH1 0x4 ADD PUSH2 0xB3F SWAP1 PUSH2 0x4351 JUMP JUMPDEST PUSH1 0x0 DUP2 GT PUSH2 0x2712 JUMPI PUSH1 0x40 MLOAD PUSH3 0x461BCD PUSH1 0xE5 SHL DUP2 MSTORE PUSH1 0x4 ADD PUSH2 0xB3F SWAP1 PUSH2 0x4379 JUMP JUMPDEST PUSH1 0x40 MLOAD PUSH4 0x23B872DD PUSH1 0xE0 SHL DUP2 MSTORE CALLER PUSH1 0x4 DUP3 ADD MSTORE ADDRESS PUSH1 0x24 DUP3 ADD MSTORE PUSH1 0x44 DUP2 ADD DUP3 SWAP1 MSTORE PUSH32 0x0 PUSH1 0x1 PUSH1 0x1 PUSH1 0xA0 SHL SUB AND SWAP1 PUSH4 0x23B872DD SWAP1 PUSH1 0x64 ADD PUSH1 0x20 PUSH1 0x40 MLOAD DUP1 DUP4 SUB DUP2 PUSH1 0x0 DUP8 GAS CALL ISZERO DUP1 ISZERO PUSH2 0x2785 JUMPI RETURNDATASIZE PUSH1 0x0 DUP1 RETURNDATACOPY RETURNDATASIZE PUSH1 0x0 REVERT JUMPDEST POP POP POP POP PUSH1 0x40 MLOAD RETURNDATASIZE PUSH1 0x1F NOT PUSH1 0x1F DUP3 ADD AND DUP3 ADD DUP1 PUSH1 0x40 MSTORE POP DUP2 ADD SWAP1 PUSH2 0x27A9 SWAP2 SWAP1 PUSH2 0x42E5 JUMP JUMPDEST PUSH2 0x27EB JUMPI PUSH1 0x40 MLOAD PUSH3 0x461BCD PUSH1 0xE5 SHL DUP2 MSTORE PUSH1 0x20 PUSH1 0x4 DUP3 ADD MSTORE PUSH1 0x13 PUSH1 0x24 DUP3 ADD MSTORE PUSH19 0x1D1C985B9CD9995C919C9BDB4819985A5B1959 PUSH1 0x6A SHL PUSH1 0x44 DUP3 ADD MSTORE PUSH1 0x64 ADD PUSH2 0xB3F JUMP JUMPDEST DUP1 PUSH1 0x10 PUSH1 0x0 DUP3 DUP3 SLOAD PUSH2 0x27FD SWAP2 SWAP1 PUSH2 0x43C1 JUMP JUMPDEST SWAP1 SWAP2 SSTORE POP POP PUSH1 0x40 MLOAD DUP2 DUP2 MSTORE CALLER SWAP1 PUSH32 0xC200A1F31DD659E356E0F112C82558E25F49F7B0F84438691CD96F5CB3558823 SWAP1 PUSH1 0x20 ADD PUSH2 0x1216 JUMP JUMPDEST PUSH1 0x12 SLOAD PUSH1 0xFF AND ISZERO PUSH2 0x2857 JUMPI PUSH1 0x40 MLOAD PUSH3 0x461BCD PUSH1 0xE5 SHL DUP2 MSTORE PUSH1 0x4 ADD PUSH2 0xB3F SWAP1 PUSH2 0x41DE JUMP JUMPDEST PUSH1 0x40 MLOAD PUSH4 0x607A23F3 PUSH1 0xE0 SHL DUP2 MSTORE CALLER PUSH1 0x4 DUP3 ADD MSTORE PUSH32 0x0 PUSH1 0x1 PUSH1 0x1 PUSH1 0xA0 SHL SUB AND SWAP1 PUSH4 0x607A23F3 SWAP1 PUSH1 0x24 ADD PUSH1 0x20 PUSH1 0x40 MLOAD DUP1 DUP4 SUB DUP2 DUP7 GAS STATICCALL ISZERO DUP1 ISZERO PUSH2 0x28BB JUMPI RETURNDATASIZE PUSH1 0x0 DUP1 RETURNDATACOPY RETURNDATASIZE PUSH1 0x0 REVERT JUMPDEST POP POP POP POP PUSH1 0x40 MLOAD RETURNDATASIZE PUSH1 0x1F NOT PUSH1 0x1F DUP3 ADD AND DUP3 ADD DUP1 PUSH1 0x40 MSTORE POP DUP2 ADD SWAP1 PUSH2 0x28DF SWAP2 SWAP1 PUSH2 0x42E5 JUMP JUMPDEST PUSH2 0x28FB JUMPI PUSH1 0x40 MLOAD PUSH3 0x461BCD PUSH1 0xE5 SHL DUP2 MSTORE PUSH1 0x4 ADD PUSH2 0xB3F SWAP1 PUSH2 0x4302 JUMP JUMPDEST CALLER PUSH1 0x0 SWAP1 DUP2 MSTORE PUSH1 0x8 PUSH1 0x20 MSTORE PUSH1 0x40 SWAP1 KECCAK256 SLOAD PUSH1 0xFF AND ISZERO PUSH2 0x292B JUMPI PUSH1 0x40 MLOAD PUSH3 0x461BCD PUSH1 0xE5 SHL DUP2 MSTORE PUSH1 0x4 ADD PUSH2 0xB3F SWAP1 PUSH2 0x432C JUMP JUMPDEST CALLER PUSH1 0x0 SWAP1 DUP2 MSTORE PUSH1 0x7 PUSH1 0x20 MSTORE PUSH1 0x40 SWAP1 KECCAK256 SLOAD TIMESTAMP LT ISZERO PUSH2 0x295A JUMPI PUSH1 0x40 MLOAD PUSH3 0x461BCD PUSH1 0xE5 SHL DUP2 MSTORE PUSH1 0x4 ADD PUSH2 0xB3F SWAP1 PUSH2 0x4351 JUMP JUMPDEST PUSH1 0x0 CALLVALUE GT PUSH2 0x297A JUMPI PUSH1 0x40 MLOAD PUSH3 0x461BCD PUSH1 0xE5 SHL DUP2 MSTORE PUSH1 0x4 ADD PUSH2 0xB3F SWAP1 PUSH2 0x43D4 JUMP JUMPDEST PUSH1 0x0 DUP2 GT PUSH2 0x29B3 JUMPI PUSH1 0x40 MLOAD PUSH3 0x461BCD PUSH1 0xE5 SHL DUP2 MSTORE PUSH1 0x20 PUSH1 0x4 DUP3 ADD MSTORE PUSH1 0x6 PUSH1 0x24 DUP3 ADD MSTORE PUSH6 0x737573643D3 PUSH1 0xD4 SHL PUSH1 0x44 DUP3 ADD MSTORE PUSH1 0x64 ADD PUSH2 0xB3F JUMP JUMPDEST CALLER PUSH1 0x0 SWAP1 DUP2 MSTORE PUSH1 0x4 PUSH1 0x20 MSTORE PUSH1 0x40 DUP2 KECCAK256 DUP1 SLOAD DUP4 SWAP3 SWAP1 PUSH2 0x29D2 SWAP1 DUP5 SWAP1 PUSH2 0x4263 JUMP JUMPDEST SWAP3 POP POP DUP2 SWAP1 SSTORE POP DUP1 PUSH1 0xF PUSH1 0x0 DUP3 DUP3 SLOAD PUSH2 0x29EB SWAP2 SWAP1 PUSH2 0x4263 JUMP JUMPDEST SWAP1 SWAP2 SSTORE POP POP PUSH1 0x40 MLOAD DUP2 DUP2 MSTORE CALLER SWAP1 PUSH32 0x2DA466A7B24304F47E87FA2E1E5A81B9831CE54FEC19055CE277CA2F39BA42C4 SWAP1 PUSH1 0x20 ADD PUSH2 0x1216 JUMP JUMPDEST PUSH2 0x2A3A PUSH1 0x0 DUP1 MLOAD PUSH1 0x20 PUSH2 0x47EA DUP4 CODECOPY DUP2 MLOAD SWAP2 MSTORE CALLER PUSH2 0x23A5 JUMP JUMPDEST PUSH2 0x2A56 JUMPI PUSH1 0x40 MLOAD PUSH3 0x461BCD PUSH1 0xE5 SHL DUP2 MSTORE PUSH1 0x4 ADD PUSH2 0xB3F SWAP1 PUSH2 0x4276 JUMP JUMPDEST PUSH1 0x1 DUP4 SWAP1 SSTORE PUSH1 0x2 DUP3 SWAP1 SSTORE PUSH1 0x3 DUP2 SWAP1 SSTORE PUSH1 0x40 DUP1 MLOAD PUSH1 0x20 DUP1 DUP3 ADD DUP7 SWAP1 MSTORE DUP2 DUP4 ADD DUP6 SWAP1 MSTORE PUSH1 0x60 DUP1 DUP4 ADD DUP6 SWAP1 MSTORE DUP4 MLOAD DUP1 DUP5 SUB SWAP1 SWAP2 ADD DUP2 MSTORE PUSH1 0x80 DUP4 ADD SWAP4 DUP5 SWAP1 MSTORE DUP1 MLOAD SWAP2 ADD KECCAK256 PUSH4 0x29E6C8A1 PUSH1 0xE1 SHL SWAP1 SWAP3 MSTORE PUSH1 0x1 PUSH1 0x1 PUSH1 0xA0 SHL SUB PUSH32 0x0 AND SWAP2 PUSH4 0x53CD9142 SWAP2 PUSH2 0x2AE1 SWAP2 PUSH1 0x0 SWAP2 PUSH1 0x84 ADD PUSH2 0x45D8 JUMP JUMPDEST PUSH1 0x0 PUSH1 0x40 MLOAD DUP1 DUP4 SUB DUP2 PUSH1 0x0 DUP8 DUP1 EXTCODESIZE ISZERO DUP1 ISZERO PUSH2 0x2AFB JUMPI PUSH1 0x0 DUP1 REVERT JUMPDEST POP GAS CALL ISZERO DUP1 ISZERO PUSH2 0x2B0F JUMPI RETURNDATASIZE PUSH1 0x0 DUP1 RETURNDATACOPY RETURNDATASIZE PUSH1 0x0 REVERT JUMPDEST POP POP POP POP POP POP POP JUMP JUMPDEST PUSH1 0x12 SLOAD PUSH1 0xFF AND ISZERO PUSH2 0x2B3B JUMPI PUSH1 0x40 MLOAD PUSH3 0x461BCD PUSH1 0xE5 SHL DUP2 MSTORE PUSH1 0x4 ADD PUSH2 0xB3F SWAP1 PUSH2 0x41DE JUMP JUMPDEST PUSH1 0x40 MLOAD PUSH4 0x607A23F3 PUSH1 0xE0 SHL DUP2 MSTORE CALLER PUSH1 0x4 DUP3 ADD MSTORE PUSH32 0x0 PUSH1 0x1 PUSH1 0x1 PUSH1 0xA0 SHL SUB AND SWAP1 PUSH4 0x607A23F3 SWAP1 PUSH1 0x24 ADD PUSH1 0x20 PUSH1 0x40 MLOAD DUP1 DUP4 SUB DUP2 DUP7 GAS STATICCALL ISZERO DUP1 ISZERO PUSH2 0x2B9F JUMPI RETURNDATASIZE PUSH1 0x0 DUP1 RETURNDATACOPY RETURNDATASIZE PUSH1 0x0 REVERT JUMPDEST POP POP POP POP PUSH1 0x40 MLOAD RETURNDATASIZE PUSH1 0x1F NOT PUSH1 0x1F DUP3 ADD AND DUP3 ADD DUP1 PUSH1 0x40 MSTORE POP DUP2 ADD SWAP1 PUSH2 0x2BC3 SWAP2 SWAP1 PUSH2 0x42E5 JUMP JUMPDEST PUSH2 0x2BDF JUMPI PUSH1 0x40 MLOAD PUSH3 0x461BCD PUSH1 0xE5 SHL DUP2 MSTORE PUSH1 0x4 ADD PUSH2 0xB3F SWAP1 PUSH2 0x4302 JUMP JUMPDEST CALLER PUSH1 0x0 SWAP1 DUP2 MSTORE PUSH1 0x8 PUSH1 0x20 MSTORE PUSH1 0x40 SWAP1 KECCAK256 SLOAD PUSH1 0xFF AND ISZERO PUSH2 0x2C0F JUMPI PUSH1 0x40 MLOAD PUSH3 0x461BCD PUSH1 0xE5 SHL DUP2 MSTORE PUSH1 0x4 ADD PUSH2 0xB3F SWAP1 PUSH2 0x432C JUMP JUMPDEST CALLER PUSH1 0x0 SWAP1 DUP2 MSTORE PUSH1 0x7 PUSH1 0x20 MSTORE PUSH1 0x40 SWAP1 KECCAK256 SLOAD TIMESTAMP LT ISZERO PUSH2 0x2C3E JUMPI PUSH1 0x40 MLOAD PUSH3 0x461BCD PUSH1 0xE5 SHL DUP2 MSTORE PUSH1 0x4 ADD PUSH2 0xB3F SWAP1 PUSH2 0x4351 JUMP JUMPDEST PUSH1 0x0 DUP2 GT PUSH2 0x2C5E JUMPI PUSH1 0x40 MLOAD PUSH3 0x461BCD PUSH1 0xE5 SHL DUP2 MSTORE PUSH1 0x4 ADD PUSH2 0xB3F SWAP1 PUSH2 0x4379 JUMP JUMPDEST CALLER PUSH1 0x0 SWAP1 DUP2 MSTORE PUSH1 0x4 PUSH1 0x20 MSTORE PUSH1 0x40 DUP2 KECCAK256 DUP1 SLOAD DUP4 SWAP3 SWAP1 PUSH2 0x2C7D SWAP1 DUP5 SWAP1 PUSH2 0x4263 JUMP JUMPDEST SWAP1 SWAP2 SSTORE POP POP PUSH1 0x40 MLOAD PUSH4 0x23B872DD PUSH1 0xE0 SHL DUP2 MSTORE CALLER PUSH1 0x4 DUP3 ADD MSTORE ADDRESS PUSH1 0x24 DUP3 ADD MSTORE PUSH1 0x44 DUP2 ADD DUP3 SWAP1 MSTORE PUSH32 0x0 PUSH1 0x1 PUSH1 0x1 PUSH1 0xA0 SHL SUB AND SWAP1 PUSH4 0x23B872DD SWAP1 PUSH1 0x64 ADD PUSH1 0x20 PUSH1 0x40 MLOAD DUP1 DUP4 SUB DUP2 PUSH1 0x0 DUP8 GAS CALL ISZERO DUP1 ISZERO PUSH2 0x2CF5 JUMPI RETURNDATASIZE PUSH1 0x0 DUP1 RETURNDATACOPY RETURNDATASIZE PUSH1 0x0 REVERT JUMPDEST POP POP POP POP PUSH1 0x40 MLOAD RETURNDATASIZE PUSH1 0x1F NOT PUSH1 0x1F DUP3 ADD AND DUP3 ADD DUP1 PUSH1 0x40 MSTORE POP DUP2 ADD SWAP1 PUSH2 0x2D19 SWAP2 SWAP1 PUSH2 0x42E5 JUMP JUMPDEST PUSH2 0x2D5B JUMPI PUSH1 0x40 MLOAD PUSH3 0x461BCD PUSH1 0xE5 SHL DUP2 MSTORE PUSH1 0x20 PUSH1 0x4 DUP3 ADD MSTORE PUSH1 0x13 PUSH1 0x24 DUP3 ADD MSTORE PUSH19 0x1D1C985B9CD9995C919C9BDB4819985A5B1959 PUSH1 0x6A SHL PUSH1 0x44 DUP3 ADD MSTORE PUSH1 0x64 ADD PUSH2 0xB3F JUMP JUMPDEST PUSH1 0x40 MLOAD DUP2 DUP2 MSTORE CALLER SWAP1 PUSH32 0x2DA466A7B24304F47E87FA2E1E5A81B9831CE54FEC19055CE277CA2F39BA42C4 SWAP1 PUSH1 0x20 ADD PUSH2 0x1216 JUMP JUMPDEST PUSH1 0x0 PUSH1 0x60 DUP2 DUP1 DUP1 DUP1 DUP1 DUP8 ISZERO DUP1 PUSH2 0x2DA5 JUMPI POP PUSH1 0xB SLOAD DUP9 LT ISZERO JUMPDEST ISZERO PUSH2 0x2DD1 JUMPI POP POP PUSH1 0x40 DUP1 MLOAD PUSH1 0x20 DUP2 ADD SWAP1 SWAP2 MSTORE PUSH1 0x0 DUP1 DUP3 MSTORE SWAP6 POP SWAP4 POP DUP5 SWAP3 POP DUP3 SWAP2 POP PUSH1 0x2 SWAP1 POP DUP2 DUP1 PUSH2 0x2EB1 JUMP JUMPDEST PUSH1 0x0 DUP9 DUP2 MSTORE PUSH1 0x11 PUSH1 0x20 MSTORE PUSH1 0x40 SWAP1 KECCAK256 DUP1 SLOAD PUSH1 0x2 DUP3 ADD SLOAD PUSH1 0x3 DUP4 ADD SLOAD PUSH1 0x4 DUP5 ADD SLOAD PUSH1 0x5 DUP6 ADD SLOAD PUSH1 0x6 DUP7 ADD SLOAD PUSH1 0x1 DUP8 ADD DUP1 SLOAD PUSH1 0x1 PUSH1 0x1 PUSH1 0xA0 SHL SUB SWAP1 SWAP8 AND SWAP7 SWAP1 SWAP6 SWAP5 SWAP4 PUSH1 0xFF AND SWAP3 SWAP2 SWAP1 DUP7 SWAP1 PUSH2 0x2E21 SWAP1 PUSH2 0x4422 JUMP JUMPDEST DUP1 PUSH1 0x1F ADD PUSH1 0x20 DUP1 SWAP2 DIV MUL PUSH1 0x20 ADD PUSH1 0x40 MLOAD SWAP1 DUP2 ADD PUSH1 0x40 MSTORE DUP1 SWAP3 SWAP2 SWAP1 DUP2 DUP2 MSTORE PUSH1 0x20 ADD DUP3 DUP1 SLOAD PUSH2 0x2E4D SWAP1 PUSH2 0x4422 JUMP JUMPDEST DUP1 ISZERO PUSH2 0x2E9A JUMPI DUP1 PUSH1 0x1F LT PUSH2 0x2E6F JUMPI PUSH2 0x100 DUP1 DUP4 SLOAD DIV MUL DUP4 MSTORE SWAP2 PUSH1 0x20 ADD SWAP2 PUSH2 0x2E9A JUMP JUMPDEST DUP3 ADD SWAP2 SWAP1 PUSH1 0x0 MSTORE PUSH1 0x20 PUSH1 0x0 KECCAK256 SWAP1 JUMPDEST DUP2 SLOAD DUP2 MSTORE SWAP1 PUSH1 0x1 ADD SWAP1 PUSH1 0x20 ADD DUP1 DUP4 GT PUSH2 0x2E7D JUMPI DUP3 SWAP1 SUB PUSH1 0x1F AND DUP3 ADD SWAP2 JUMPDEST POP POP POP POP POP SWAP6 POP SWAP8 POP SWAP8 POP SWAP8 POP SWAP8 POP SWAP8 POP SWAP8 POP SWAP8 POP POP JUMPDEST SWAP2 SWAP4 SWAP6 SWAP8 SWAP1 SWAP3 SWAP5 SWAP7 POP JUMP JUMPDEST PUSH1 0x0 DUP3 DUP2 MSTORE PUSH1 0x20 DUP2 SWAP1 MSTORE PUSH1 0x40 SWAP1 KECCAK256 PUSH1 0x1 ADD SLOAD PUSH2 0x2ED7 DUP2 PUSH2 0x3388 JUMP JUMPDEST PUSH2 0xD35 DUP4 DUP4 PUSH2 0x3419 JUMP JUMPDEST PUSH2 0x2EF9 PUSH1 0x0 DUP1 MLOAD PUSH1 0x20 PUSH2 0x47EA DUP4 CODECOPY DUP2 MLOAD SWAP2 MSTORE CALLER PUSH2 0x23A5 JUMP JUMPDEST PUSH2 0x2F15 JUMPI PUSH1 0x40 MLOAD PUSH3 0x461BCD PUSH1 0xE5 SHL DUP2 MSTORE PUSH1 0x4 ADD PUSH2 0xB3F SWAP1 PUSH2 0x4276 JUMP JUMPDEST PUSH2 0x2F2D PUSH1 0x0 DUP1 MLOAD PUSH1 0x20 PUSH2 0x47CA DUP4 CODECOPY DUP2 MLOAD SWAP2 MSTORE DUP3 PUSH2 0x3395 JUMP JUMPDEST PUSH1 0x40 MLOAD PUSH4 0x77E72F7B PUSH1 0xE1 SHL DUP2 MSTORE PUSH1 0x1 PUSH1 0x1 PUSH1 0xA0 SHL SUB DUP3 DUP2 AND PUSH1 0x4 DUP4 ADD MSTORE PUSH32 0x0 AND SWAP1 PUSH4 0xEFCE5EF6 SWAP1 PUSH1 0x24 ADD PUSH2 0x2370 JUMP JUMPDEST PUSH1 0x0 DUP1 DUP1 DUP1 DUP1 DUP1 DUP7 ISZERO DUP1 PUSH2 0x2F91 JUMPI POP PUSH1 0xD SLOAD DUP8 LT ISZERO JUMPDEST ISZERO PUSH2 0x2FAE JUMPI POP PUSH1 0x0 SWAP5 POP DUP5 SWAP4 POP DUP4 SWAP3 POP PUSH1 0x2 SWAP2 POP DUP3 SWAP1 POP DUP1 PUSH2 0x1A97 JUMP JUMPDEST POP POP POP PUSH1 0x0 SWAP4 DUP5 MSTORE POP POP PUSH1 0xE PUSH1 0x20 MSTORE POP PUSH1 0x40 SWAP1 KECCAK256 DUP1 SLOAD PUSH1 0x1 DUP3 ADD SLOAD PUSH1 0x2 DUP4 ADD SLOAD PUSH1 0x3 DUP5 ADD SLOAD PUSH1 0x4 DUP6 ADD SLOAD PUSH1 0x5 SWAP1 SWAP6 ADD SLOAD PUSH1 0x1 PUSH1 0x1 PUSH1 0xA0 SHL SUB SWAP1 SWAP5 AND SWAP6 SWAP3 SWAP5 SWAP2 SWAP4 PUSH1 0xFF SWAP1 SWAP2 AND SWAP3 JUMP JUMPDEST PUSH2 0x300E PUSH1 0x0 DUP1 MLOAD PUSH1 0x20 PUSH2 0x47EA DUP4 CODECOPY DUP2 MLOAD SWAP2 MSTORE CALLER PUSH2 0x23A5 JUMP JUMPDEST PUSH2 0x302A JUMPI PUSH1 0x40 MLOAD PUSH3 0x461BCD PUSH1 0xE5 SHL DUP2 MSTORE PUSH1 0x4 ADD PUSH2 0xB3F SWAP1 PUSH2 0x4276 JUMP JUMPDEST PUSH2 0x3042 PUSH1 0x0 DUP1 MLOAD PUSH1 0x20 PUSH2 0x47CA DUP4 CODECOPY DUP2 MLOAD SWAP2 MSTORE DUP3 PUSH2 0x3419 JUMP JUMPDEST PUSH1 0x40 MLOAD PUSH4 0xAC14C14F PUSH1 0xE0 SHL DUP2 MSTORE PUSH1 0x1 PUSH1 0x1 PUSH1 0xA0 SHL SUB DUP3 DUP2 AND PUSH1 0x4 DUP4 ADD MSTORE PUSH32 0x0 AND SWAP1 PUSH4 0xAC14C14F SWAP1 PUSH1 0x24 ADD PUSH2 0x2370 JUMP JUMPDEST PUSH2 0x30A8 PUSH1 0x0 DUP1 MLOAD PUSH1 0x20 PUSH2 0x47EA DUP4 CODECOPY DUP2 MLOAD SWAP2 MSTORE CALLER PUSH2 0x23A5 JUMP JUMPDEST PUSH2 0x30C4 JUMPI PUSH1 0x40 MLOAD PUSH3 0x461BCD PUSH1 0xE5 SHL DUP2 MSTORE PUSH1 0x4 ADD PUSH2 0xB3F SWAP1 PUSH2 0x4276 JUMP JUMPDEST PUSH1 0x1 PUSH1 0x1 PUSH1 0xA0 SHL SUB DUP1 DUP6 AND PUSH1 0x0 SWAP1 DUP2 MSTORE PUSH1 0x7 PUSH1 0x20 MSTORE PUSH1 0x40 SWAP1 DUP2 SWAP1 KECCAK256 DUP6 SWAP1 SSTORE MLOAD PUSH4 0x28BA8B77 PUSH1 0xE2 SHL DUP2 MSTORE PUSH32 0x0 SWAP1 SWAP2 AND SWAP1 PUSH4 0xA2EA2DDC SWAP1 PUSH2 0x312C SWAP1 DUP8 SWAP1 DUP8 SWAP1 DUP8 SWAP1 DUP8 SWAP1 PUSH1 0x4 ADD PUSH2 0x4611 JUMP JUMPDEST PUSH1 0x0 PUSH1 0x40 MLOAD DUP1 DUP4 SUB DUP2 PUSH1 0x0 DUP8 DUP1 EXTCODESIZE ISZERO DUP1 ISZERO PUSH2 0x3146 JUMPI PUSH1 0x0 DUP1 REVERT JUMPDEST POP GAS CALL ISZERO DUP1 ISZERO PUSH2 0x315A JUMPI RETURNDATASIZE PUSH1 0x0 DUP1 RETURNDATACOPY RETURNDATASIZE PUSH1 0x0 REVERT JUMPDEST POP POP POP POP POP POP POP POP JUMP JUMPDEST PUSH1 0x12 SLOAD PUSH1 0xFF AND ISZERO PUSH2 0x3187 JUMPI PUSH1 0x40 MLOAD PUSH3 0x461BCD PUSH1 0xE5 SHL DUP2 MSTORE PUSH1 0x4 ADD PUSH2 0xB3F SWAP1 PUSH2 0x41DE JUMP JUMPDEST PUSH1 0x0 DUP1 MLOAD PUSH1 0x20 PUSH2 0x47CA DUP4 CODECOPY DUP2 MLOAD SWAP2 MSTORE PUSH2 0x319F DUP2 PUSH2 0x3388 JUMP JUMPDEST PUSH1 0x0 DUP5 DUP2 MSTORE PUSH1 0xA PUSH1 0x20 MSTORE PUSH1 0x40 DUP2 KECCAK256 SWAP1 PUSH1 0x3 DUP3 ADD SLOAD PUSH1 0xFF AND PUSH1 0x2 DUP2 GT ISZERO PUSH2 0x31C7 JUMPI PUSH2 0x31C7 PUSH2 0x3F94 JUMP JUMPDEST EQ PUSH2 0x31E4 JUMPI PUSH1 0x40 MLOAD PUSH3 0x461BCD PUSH1 0xE5 SHL DUP2 MSTORE PUSH1 0x4 ADD PUSH2 0xB3F SWAP1 PUSH2 0x41FE JUMP JUMPDEST PUSH1 0x3 DUP2 ADD DUP1 SLOAD PUSH1 0xFF NOT AND PUSH1 0x2 SWAP1 DUP2 OR SWAP1 SWAP2 SSTORE DUP2 ADD SLOAD DUP2 SLOAD PUSH1 0x1 PUSH1 0x1 PUSH1 0xA0 SHL SUB AND PUSH1 0x0 SWAP1 DUP2 MSTORE PUSH1 0x4 PUSH1 0x20 MSTORE PUSH1 0x40 DUP2 KECCAK256 DUP1 SLOAD SWAP1 SWAP2 SWAP1 PUSH2 0x3222 SWAP1 DUP5 SWAP1 PUSH2 0x4263 JUMP JUMPDEST SWAP1 SWAP2 SSTORE POP POP DUP1 SLOAD PUSH1 0x1 PUSH1 0x1 PUSH1 0xA0 SHL SUB AND PUSH1 0x0 SWAP1 DUP2 MSTORE PUSH1 0x5 PUSH1 0x20 MSTORE PUSH1 0x40 DUP2 KECCAK256 SWAP1 PUSH2 0x324E PUSH3 0x15180 TIMESTAMP PUSH2 0x459D JUMP JUMPDEST DUP3 SLOAD SWAP1 SWAP2 POP DUP2 EQ PUSH2 0x3268 JUMPI DUP1 DUP3 SSTORE PUSH1 0x0 PUSH1 0x1 DUP4 ADD SSTORE PUSH2 0x32A2 JUMP JUMPDEST DUP3 PUSH1 0x2 ADD SLOAD DUP3 PUSH1 0x1 ADD SLOAD LT PUSH2 0x329A JUMPI DUP3 PUSH1 0x2 ADD SLOAD DUP3 PUSH1 0x1 ADD PUSH1 0x0 DUP3 DUP3 SLOAD PUSH2 0x328F SWAP2 SWAP1 PUSH2 0x43C1 JUMP JUMPDEST SWAP1 SWAP2 SSTORE POP PUSH2 0x32A2 SWAP1 POP JUMP JUMPDEST PUSH1 0x0 PUSH1 0x1 DUP4 ADD SSTORE JUMPDEST PUSH1 0x1 DUP4 ADD SLOAD DUP4 SLOAD PUSH1 0x2 DUP6 ADD SLOAD PUSH1 0x40 MLOAD PUSH1 0x1 PUSH1 0x1 PUSH1 0xA0 SHL SUB SWAP4 DUP5 AND SWAP4 SWAP1 SWAP3 AND SWAP2 DUP11 SWAP2 PUSH32 0x4F54D2DE4848C2FE39AFABBD588B1B4136B1B7BE330A5AA04524C2305ABBD4CC SWAP2 PUSH2 0x32F3 SWAP2 SWAP1 DUP13 SWAP1 DUP13 SWAP1 PUSH2 0x42C2 JUMP JUMPDEST PUSH1 0x40 MLOAD DUP1 SWAP2 SUB SWAP1 LOG4 PUSH1 0x40 MLOAD PUSH4 0xEC22BD61 PUSH1 0xE0 SHL DUP2 MSTORE PUSH1 0x1 PUSH1 0x1 PUSH1 0xA0 SHL SUB PUSH32 0x0 AND SWAP1 PUSH4 0xEC22BD61 SWAP1 PUSH2 0x334D SWAP1 DUP11 SWAP1 CALLER SWAP1 DUP12 SWAP1 DUP12 SWAP1 PUSH1 0x4 ADD PUSH2 0x4643 JUMP JUMPDEST PUSH1 0x0 PUSH1 0x40 MLOAD DUP1 DUP4 SUB DUP2 PUSH1 0x0 DUP8 DUP1 EXTCODESIZE ISZERO DUP1 ISZERO PUSH2 0x3367 JUMPI PUSH1 0x0 DUP1 REVERT JUMPDEST POP GAS CALL ISZERO DUP1 ISZERO PUSH2 0x337B JUMPI RETURNDATASIZE PUSH1 0x0 DUP1 RETURNDATACOPY RETURNDATASIZE PUSH1 0x0 REVERT JUMPDEST POP POP POP POP POP POP POP POP POP POP POP JUMP JUMPDEST PUSH2 0x3392 DUP2 CALLER PUSH2 0x3856 JUMP JUMPDEST POP JUMP JUMPDEST PUSH2 0x339F DUP3 DUP3 PUSH2 0x23A5 JUMP JUMPDEST PUSH2 0x12C0 JUMPI PUSH1 0x0 DUP3 DUP2 MSTORE PUSH1 0x20 DUP2 DUP2 MSTORE PUSH1 0x40 DUP1 DUP4 KECCAK256 PUSH1 0x1 PUSH1 0x1 PUSH1 0xA0 SHL SUB DUP6 AND DUP5 MSTORE SWAP1 SWAP2 MSTORE SWAP1 KECCAK256 DUP1 SLOAD PUSH1 0xFF NOT AND PUSH1 0x1 OR SWAP1 SSTORE PUSH2 0x33D5 CALLER SWAP1 JUMP JUMPDEST PUSH1 0x1 PUSH1 0x1 PUSH1 0xA0 SHL SUB AND DUP2 PUSH1 0x1 PUSH1 0x1 PUSH1 0xA0 SHL SUB AND DUP4 PUSH32 0x2F8788117E7EFF1D82E926EC794901D17C78024A50270940304540A733656F0D PUSH1 0x40 MLOAD PUSH1 0x40 MLOAD DUP1 SWAP2 SUB SWAP1 LOG4 POP POP JUMP JUMPDEST PUSH2 0x3423 DUP3 DUP3 PUSH2 0x23A5 JUMP JUMPDEST ISZERO PUSH2 0x12C0 JUMPI PUSH1 0x0 DUP3 DUP2 MSTORE PUSH1 0x20 DUP2 DUP2 MSTORE PUSH1 0x40 DUP1 DUP4 KECCAK256 PUSH1 0x1 PUSH1 0x1 PUSH1 0xA0 SHL SUB DUP6 AND DUP1 DUP6 MSTORE SWAP3 MSTORE DUP1 DUP4 KECCAK256 DUP1 SLOAD PUSH1 0xFF NOT AND SWAP1 SSTORE MLOAD CALLER SWAP3 DUP6 SWAP2 PUSH32 0xF6391F5C32D9C69D2A47EA670B442974B53935D1EDC7FD64EB21E047A839171B SWAP2 SWAP1 LOG4 POP POP JUMP JUMPDEST PUSH1 0x1 PUSH1 0x1 PUSH1 0xA0 SHL SUB DUP2 AND PUSH1 0x0 SWAP1 DUP2 MSTORE PUSH1 0x6 PUSH1 0x20 MSTORE PUSH1 0x40 SWAP1 KECCAK256 PUSH1 0x1 SLOAD DUP2 SLOAD TIMESTAMP SWAP2 PUSH2 0x34A6 SWAP2 PUSH2 0x4263 JUMP JUMPDEST DUP2 GT ISZERO PUSH2 0x34BB JUMPI DUP1 DUP3 SSTORE PUSH1 0x1 DUP1 DUP4 ADD SSTORE PUSH2 0x34D6 JUMP JUMPDEST PUSH1 0x1 DUP3 PUSH1 0x1 ADD PUSH1 0x0 DUP3 DUP3 SLOAD PUSH2 0x34D0 SWAP2 SWAP1 PUSH2 0x4263 JUMP JUMPDEST SWAP1 SWAP2 SSTORE POP POP JUMPDEST PUSH1 0x2 SLOAD DUP3 PUSH1 0x1 ADD SLOAD GT ISZERO PUSH2 0xD35 JUMPI PUSH1 0x3 SLOAD PUSH2 0x34F1 SWAP1 DUP3 PUSH2 0x4263 JUMP JUMPDEST PUSH1 0x1 PUSH1 0x1 PUSH1 0xA0 SHL SUB DUP5 DUP2 AND PUSH1 0x0 DUP2 DUP2 MSTORE PUSH1 0x7 PUSH1 0x20 MSTORE PUSH1 0x40 SWAP1 DUP2 SWAP1 KECCAK256 SWAP4 SWAP1 SWAP4 SSTORE SWAP2 MLOAD PUSH4 0x10AAC22F PUSH1 0xE2 SHL DUP2 MSTORE PUSH1 0x4 DUP2 ADD SWAP3 SWAP1 SWAP3 MSTORE PUSH1 0x60 PUSH1 0x24 DUP4 ADD MSTORE PUSH1 0x9 PUSH1 0x64 DUP4 ADD MSTORE PUSH9 0x4652455155454E4359 PUSH1 0xB8 SHL PUSH1 0x84 DUP4 ADD MSTORE PUSH1 0xA0 PUSH1 0x44 DUP4 ADD MSTORE PUSH1 0x22 PUSH1 0xA4 DUP4 ADD MSTORE PUSH32 0x546F6F206D616E79207472616E736665727320696E2073686F72742077696E64 PUSH1 0xC4 DUP4 ADD MSTORE PUSH2 0x6F77 PUSH1 0xF0 SHL PUSH1 0xE4 DUP4 ADD MSTORE PUSH32 0x0 AND SWAP1 PUSH4 0x42AB08BC SWAP1 PUSH2 0x104 ADD PUSH1 0x0 PUSH1 0x40 MLOAD DUP1 DUP4 SUB DUP2 PUSH1 0x0 DUP8 DUP1 EXTCODESIZE ISZERO DUP1 ISZERO PUSH2 0x35CA JUMPI PUSH1 0x0 DUP1 REVERT JUMPDEST POP GAS CALL ISZERO DUP1 ISZERO PUSH2 0x35DE JUMPI RETURNDATASIZE PUSH1 0x0 DUP1 RETURNDATACOPY RETURNDATASIZE PUSH1 0x0 REVERT JUMPDEST POP POP POP POP PUSH1 0x1 PUSH1 0x1 PUSH1 0xA0 SHL SUB DUP4 DUP2 AND PUSH1 0x0 DUP2 DUP2 MSTORE PUSH1 0x7 PUSH1 0x20 MSTORE PUSH1 0x40 SWAP1 DUP2 SWAP1 KECCAK256 SLOAD SWAP1 MLOAD PUSH4 0x28BA8B77 PUSH1 0xE2 SHL DUP2 MSTORE PUSH1 0x4 DUP2 ADD SWAP3 SWAP1 SWAP3 MSTORE PUSH1 0x24 DUP3 ADD MSTORE PUSH1 0x60 PUSH1 0x44 DUP3 ADD MSTORE PUSH1 0x10 PUSH1 0x64 DUP3 ADD MSTORE PUSH16 0x8CE4CAE2EACADCC6F240C4E4CAC2C6D PUSH1 0x83 SHL PUSH1 0x84 DUP3 ADD MSTORE PUSH32 0x0 SWAP1 SWAP2 AND SWAP1 PUSH4 0xA2EA2DDC SWAP1 PUSH1 0xA4 ADD PUSH2 0x2AE1 JUMP JUMPDEST PUSH1 0x1 PUSH1 0x1 PUSH1 0xA0 SHL SUB DUP4 AND PUSH1 0x0 SWAP1 DUP2 MSTORE PUSH1 0x5 PUSH1 0x20 MSTORE PUSH1 0x40 DUP2 KECCAK256 SWAP1 PUSH2 0x3697 PUSH3 0x15180 TIMESTAMP PUSH2 0x459D JUMP JUMPDEST DUP3 SLOAD SWAP1 SWAP2 POP DUP2 EQ PUSH2 0x36AD JUMPI DUP1 DUP3 SSTORE PUSH1 0x0 PUSH1 0x1 DUP4 ADD SSTORE JUMPDEST PUSH1 0x40 MLOAD PUSH4 0x58F2EF17 PUSH1 0xE0 SHL DUP2 MSTORE PUSH1 0x1 PUSH1 0x1 PUSH1 0xA0 SHL SUB DUP7 DUP2 AND PUSH1 0x4 DUP4 ADD MSTORE PUSH1 0x0 SWAP2 PUSH32 0x0 SWAP1 SWAP2 AND SWAP1 PUSH4 0x58F2EF17 SWAP1 PUSH1 0x24 ADD PUSH1 0x20 PUSH1 0x40 MLOAD DUP1 DUP4 SUB DUP2 DUP7 GAS STATICCALL ISZERO DUP1 ISZERO PUSH2 0x3718 JUMPI RETURNDATASIZE PUSH1 0x0 DUP1 RETURNDATACOPY RETURNDATASIZE PUSH1 0x0 REVERT JUMPDEST POP POP POP POP PUSH1 0x40 MLOAD RETURNDATASIZE PUSH1 0x1F NOT PUSH1 0x1F DUP3 ADD AND DUP3 ADD DUP1 PUSH1 0x40 MSTORE POP DUP2 ADD SWAP1 PUSH2 0x373C SWAP2 SWAP1 PUSH2 0x45BF JUMP JUMPDEST SWAP1 POP PUSH1 0x0 DUP2 DUP6 DUP6 PUSH1 0x1 ADD SLOAD PUSH2 0x3751 SWAP2 SWAP1 PUSH2 0x4263 JUMP JUMPDEST GT SWAP1 POP PUSH10 0x21E19E0C9BAB2400000 DUP6 LT ISZERO DUP2 DUP1 PUSH2 0x376B JUMPI POP DUP1 JUMPDEST ISZERO PUSH2 0x3831 JUMPI PUSH1 0x0 PUSH2 0x377F DUP10 DUP10 DUP10 DUP7 DUP7 PUSH2 0x38AF JUMP JUMPDEST SWAP1 POP DUP7 DUP7 PUSH1 0x1 ADD PUSH1 0x0 DUP3 DUP3 SLOAD PUSH2 0x3795 SWAP2 SWAP1 PUSH2 0x4263 JUMP JUMPDEST SWAP1 SWAP2 SSTORE POP POP PUSH1 0x40 MLOAD PUSH4 0x1164A591 PUSH1 0xE3 SHL DUP2 MSTORE PUSH1 0x4 DUP2 ADD DUP3 SWAP1 MSTORE PUSH1 0x1 PUSH1 0x1 PUSH1 0xA0 SHL SUB DUP11 DUP2 AND PUSH1 0x24 DUP4 ADD MSTORE DUP10 DUP2 AND PUSH1 0x44 DUP4 ADD MSTORE PUSH1 0x64 DUP3 ADD DUP10 SWAP1 MSTORE PUSH32 0x0 AND SWAP1 PUSH4 0x8B252C88 SWAP1 PUSH1 0x84 ADD PUSH1 0x0 PUSH1 0x40 MLOAD DUP1 DUP4 SUB DUP2 PUSH1 0x0 DUP8 DUP1 EXTCODESIZE ISZERO DUP1 ISZERO PUSH2 0x3813 JUMPI PUSH1 0x0 DUP1 REVERT JUMPDEST POP GAS CALL ISZERO DUP1 ISZERO PUSH2 0x3827 JUMPI RETURNDATASIZE PUSH1 0x0 DUP1 RETURNDATACOPY RETURNDATASIZE PUSH1 0x0 REVERT JUMPDEST POP POP POP POP POP PUSH2 0x315A JUMP JUMPDEST DUP6 DUP6 PUSH1 0x1 ADD PUSH1 0x0 DUP3 DUP3 SLOAD PUSH2 0x3845 SWAP2 SWAP1 PUSH2 0x4263 JUMP JUMPDEST SWAP1 SWAP2 SSTORE POP PUSH2 0x315A SWAP1 POP DUP9 DUP9 DUP9 PUSH2 0x3B57 JUMP JUMPDEST PUSH2 0x3860 DUP3 DUP3 PUSH2 0x23A5 JUMP JUMPDEST PUSH2 0x12C0 JUMPI PUSH2 0x386D DUP2 PUSH2 0x3C3D JUMP JUMPDEST PUSH2 0x3878 DUP4 PUSH1 0x20 PUSH2 0x3C4F JUMP JUMPDEST PUSH1 0x40 MLOAD PUSH1 0x20 ADD PUSH2 0x3889 SWAP3 SWAP2 SWAP1 PUSH2 0x466E JUMP JUMPDEST PUSH1 0x40 DUP1 MLOAD PUSH1 0x1F NOT DUP2 DUP5 SUB ADD DUP2 MSTORE SWAP1 DUP3 SWAP1 MSTORE PUSH3 0x461BCD PUSH1 0xE5 SHL DUP3 MSTORE PUSH2 0xB3F SWAP2 PUSH1 0x4 ADD PUSH2 0x46E3 JUMP JUMPDEST PUSH1 0x1 PUSH1 0x1 PUSH1 0xA0 SHL SUB DUP6 AND PUSH1 0x0 SWAP1 DUP2 MSTORE PUSH1 0x4 PUSH1 0x20 MSTORE PUSH1 0x40 DUP2 KECCAK256 SLOAD DUP5 GT ISZERO PUSH2 0x38E7 JUMPI PUSH1 0x40 MLOAD PUSH3 0x461BCD PUSH1 0xE5 SHL DUP2 MSTORE PUSH1 0x4 ADD PUSH2 0xB3F SWAP1 PUSH2 0x439B JUMP JUMPDEST PUSH1 0x1 PUSH1 0x1 PUSH1 0xA0 SHL SUB DUP7 AND PUSH1 0x0 SWAP1 DUP2 MSTORE PUSH1 0x4 PUSH1 0x20 MSTORE PUSH1 0x40 DUP2 KECCAK256 DUP1 SLOAD DUP7 SWAP3 SWAP1 PUSH2 0x390F SWAP1 DUP5 SWAP1 PUSH2 0x43C1 JUMP JUMPDEST SWAP1 SWAP2 SSTORE POP POP PUSH1 0x9 DUP1 SLOAD SWAP1 PUSH1 0x0 PUSH2 0x3924 DUP4 PUSH2 0x43F3 JUMP JUMPDEST SWAP1 SWAP2 SSTORE POP PUSH1 0x0 DUP2 DUP2 MSTORE PUSH1 0xA PUSH1 0x20 MSTORE PUSH1 0x40 DUP2 KECCAK256 DUP1 SLOAD PUSH1 0x1 PUSH1 0x1 PUSH1 0xA0 SHL SUB DUP11 DUP2 AND PUSH1 0x1 PUSH1 0x1 PUSH1 0xA0 SHL SUB NOT SWAP3 DUP4 AND OR DUP4 SSTORE PUSH1 0x1 DUP4 ADD DUP1 SLOAD SWAP2 DUP12 AND SWAP2 SWAP1 SWAP3 AND OR SWAP1 SSTORE PUSH1 0x2 DUP2 ADD DUP8 SWAP1 SSTORE PUSH1 0x3 DUP2 ADD DUP1 SLOAD PUSH1 0xFF NOT AND SWAP1 SSTORE TIMESTAMP PUSH1 0x4 DUP3 ADD SSTORE SWAP2 SWAP3 POP DUP5 PUSH2 0x39D1 JUMPI DUP4 PUSH2 0x39AB JUMPI PUSH1 0x40 MLOAD DUP1 PUSH1 0x40 ADD PUSH1 0x40 MSTORE DUP1 PUSH1 0x5 DUP2 MSTORE PUSH1 0x20 ADD PUSH5 0x27AA2422A9 PUSH1 0xD9 SHL DUP2 MSTORE POP PUSH2 0x39F6 JUMP JUMPDEST PUSH1 0x40 MLOAD DUP1 PUSH1 0x40 ADD PUSH1 0x40 MSTORE DUP1 PUSH1 0x8 DUP2 MSTORE PUSH1 0x20 ADD PUSH8 0x9882A48E8ABEA8B PUSH1 0xC3 SHL DUP2 MSTORE POP PUSH2 0x39F6 JUMP JUMPDEST PUSH1 0x40 MLOAD DUP1 PUSH1 0x40 ADD PUSH1 0x40 MSTORE DUP1 PUSH1 0xB DUP2 MSTORE PUSH1 0x20 ADD PUSH11 0x111052531657D312535255 PUSH1 0xAA SHL DUP2 MSTORE POP JUMPDEST SWAP1 POP DUP7 PUSH1 0x1 PUSH1 0x1 PUSH1 0xA0 SHL SUB AND DUP9 PUSH1 0x1 PUSH1 0x1 PUSH1 0xA0 SHL SUB AND DUP5 PUSH32 0x9405AD0A6208539879349284D71265479B1623846F70303DA1F9890D6E8C10A7 DUP10 PUSH1 0x40 MLOAD PUSH2 0x3A3E SWAP2 DUP2 MSTORE PUSH1 0x20 ADD SWAP1 JUMP JUMPDEST PUSH1 0x40 MLOAD DUP1 SWAP2 SUB SWAP1 LOG4 PUSH1 0x40 MLOAD PUSH4 0x770B8729 PUSH1 0xE0 SHL DUP2 MSTORE PUSH1 0x1 PUSH1 0x1 PUSH1 0xA0 SHL SUB PUSH32 0x0 AND SWAP1 PUSH4 0x770B8729 SWAP1 PUSH2 0x3A9A SWAP1 DUP7 SWAP1 DUP13 SWAP1 DUP13 SWAP1 DUP13 SWAP1 DUP9 SWAP1 PUSH1 0x4 ADD PUSH2 0x46F6 JUMP JUMPDEST PUSH1 0x0 PUSH1 0x40 MLOAD DUP1 DUP4 SUB DUP2 PUSH1 0x0 DUP8 DUP1 EXTCODESIZE ISZERO DUP1 ISZERO PUSH2 0x3AB4 JUMPI PUSH1 0x0 DUP1 REVERT JUMPDEST POP GAS CALL ISZERO DUP1 ISZERO PUSH2 0x3AC8 JUMPI RETURNDATASIZE PUSH1 0x0 DUP1 RETURNDATACOPY RETURNDATASIZE PUSH1 0x0 REVERT JUMPDEST POP POP PUSH1 0x40 MLOAD PUSH4 0x10AAC22F PUSH1 0xE2 SHL DUP2 MSTORE PUSH1 0x1 PUSH1 0x1 PUSH1 0xA0 SHL SUB PUSH32 0x0 AND SWAP3 POP PUSH4 0x42AB08BC SWAP2 POP PUSH2 0x3B1A SWAP1 DUP12 SWAP1 DUP6 SWAP1 PUSH1 0x4 ADD PUSH2 0x473A JUMP JUMPDEST PUSH1 0x0 PUSH1 0x40 MLOAD DUP1 DUP4 SUB DUP2 PUSH1 0x0 DUP8 DUP1 EXTCODESIZE ISZERO DUP1 ISZERO PUSH2 0x3B34 JUMPI PUSH1 0x0 DUP1 REVERT JUMPDEST POP GAS CALL ISZERO DUP1 ISZERO PUSH2 0x3B48 JUMPI RETURNDATASIZE PUSH1 0x0 DUP1 RETURNDATACOPY RETURNDATASIZE PUSH1 0x0 REVERT JUMPDEST POP POP POP POP POP POP SWAP6 SWAP5 POP POP POP POP POP JUMP JUMPDEST PUSH1 0x1 PUSH1 0x1 PUSH1 0xA0 SHL SUB DUP4 AND PUSH1 0x0 SWAP1 DUP2 MSTORE PUSH1 0x4 PUSH1 0x20 MSTORE PUSH1 0x40 SWAP1 KECCAK256 SLOAD DUP2 GT ISZERO PUSH2 0x3B8F JUMPI PUSH1 0x40 MLOAD PUSH3 0x461BCD PUSH1 0xE5 SHL DUP2 MSTORE PUSH1 0x4 ADD PUSH2 0xB3F SWAP1 PUSH2 0x439B JUMP JUMPDEST PUSH1 0x1 PUSH1 0x1 PUSH1 0xA0 SHL SUB DUP4 AND PUSH1 0x0 SWAP1 DUP2 MSTORE PUSH1 0x4 PUSH1 0x20 MSTORE PUSH1 0x40 DUP2 KECCAK256 DUP1 SLOAD DUP4 SWAP3 SWAP1 PUSH2 0x3BB7 SWAP1 DUP5 SWAP1 PUSH2 0x43C1 JUMP JUMPDEST SWAP1 SWAP2 SSTORE POP POP PUSH1 0x1 PUSH1 0x1 PUSH1 0xA0 SHL SUB DUP3 AND PUSH1 0x0 SWAP1 DUP2 MSTORE PUSH1 0x4 PUSH1 0x20 MSTORE PUSH1 0x40 DUP2 KECCAK256 DUP1 SLOAD DUP4 SWAP3 SWAP1 PUSH2 0x3BE4 SWAP1 DUP5 SWAP1 PUSH2 0x4263 JUMP JUMPDEST SWAP3 POP POP DUP2 SWAP1 SSTORE POP DUP2 PUSH1 0x1 PUSH1 0x1 PUSH1 0xA0 SHL SUB AND DUP4 PUSH1 0x1 PUSH1 0x1 PUSH1 0xA0 SHL SUB AND PUSH32 0x961F7160D742CFC3DC4123DA66DEBBF9A494518BFBCFCA5DF7DD4F3DD2B0565F DUP4 PUSH1 0x40 MLOAD PUSH2 0x3C30 SWAP2 DUP2 MSTORE PUSH1 0x20 ADD SWAP1 JUMP JUMPDEST PUSH1 0x40 MLOAD DUP1 SWAP2 SUB SWAP1 LOG3 POP POP POP JUMP JUMPDEST PUSH1 0x60 PUSH2 0xB16 PUSH1 0x1 PUSH1 0x1 PUSH1 0xA0 SHL SUB DUP4 AND PUSH1 0x14 JUMPDEST PUSH1 0x60 PUSH1 0x0 PUSH2 0x3C5E DUP4 PUSH1 0x2 PUSH2 0x4586 JUMP JUMPDEST PUSH2 0x3C69 SWAP1 PUSH1 0x2 PUSH2 0x4263 JUMP JUMPDEST PUSH8 0xFFFFFFFFFFFFFFFF DUP2 GT ISZERO PUSH2 0x3C81 JUMPI PUSH2 0x3C81 PUSH2 0x440C JUMP JUMPDEST PUSH1 0x40 MLOAD SWAP1 DUP1 DUP3 MSTORE DUP1 PUSH1 0x1F ADD PUSH1 0x1F NOT AND PUSH1 0x20 ADD DUP3 ADD PUSH1 0x40 MSTORE DUP1 ISZERO PUSH2 0x3CAB JUMPI PUSH1 0x20 DUP3 ADD DUP2 DUP1 CALLDATASIZE DUP4 CALLDATACOPY ADD SWAP1 POP JUMPDEST POP SWAP1 POP PUSH1 0x3 PUSH1 0xFC SHL DUP2 PUSH1 0x0 DUP2 MLOAD DUP2 LT PUSH2 0x3CC6 JUMPI PUSH2 0x3CC6 PUSH2 0x479C JUMP JUMPDEST PUSH1 0x20 ADD ADD SWAP1 PUSH1 0x1 PUSH1 0x1 PUSH1 0xF8 SHL SUB NOT AND SWAP1 DUP2 PUSH1 0x0 BYTE SWAP1 MSTORE8 POP PUSH1 0xF PUSH1 0xFB SHL DUP2 PUSH1 0x1 DUP2 MLOAD DUP2 LT PUSH2 0x3CF5 JUMPI PUSH2 0x3CF5 PUSH2 0x479C JUMP JUMPDEST PUSH1 0x20 ADD ADD SWAP1 PUSH1 0x1 PUSH1 0x1 PUSH1 0xF8 SHL SUB NOT AND SWAP1 DUP2 PUSH1 0x0 BYTE SWAP1 MSTORE8 POP PUSH1 0x0 PUSH2 0x3D19 DUP5 PUSH1 0x2 PUSH2 0x4586 JUMP JUMPDEST PUSH2 0x3D24 SWAP1 PUSH1 0x1 PUSH2 0x4263 JUMP JUMPDEST SWAP1 POP JUMPDEST PUSH1 0x1 DUP2 GT ISZERO PUSH2 0x3D9C JUMPI PUSH16 0x181899199A1A9B1B9C1CB0B131B232B3 PUSH1 0x81 SHL DUP6 PUSH1 0xF AND PUSH1 0x10 DUP2 LT PUSH2 0x3D58 JUMPI PUSH2 0x3D58 PUSH2 0x479C JUMP JUMPDEST BYTE PUSH1 0xF8 SHL DUP3 DUP3 DUP2 MLOAD DUP2 LT PUSH2 0x3D6E JUMPI PUSH2 0x3D6E PUSH2 0x479C JUMP JUMPDEST PUSH1 0x20 ADD ADD SWAP1 PUSH1 0x1 PUSH1 0x1 PUSH1 0xF8 SHL SUB NOT AND SWAP1 DUP2 PUSH1 0x0 BYTE SWAP1 MSTORE8 POP PUSH1 0x4 SWAP5 SWAP1 SWAP5 SHR SWAP4 PUSH2 0x3D95 DUP2 PUSH2 0x47B2 JUMP JUMPDEST SWAP1 POP PUSH2 0x3D27 JUMP JUMPDEST POP DUP4 ISZERO PUSH2 0x3DEB JUMPI PUSH1 0x40 MLOAD PUSH3 0x461BCD PUSH1 0xE5 SHL DUP2 MSTORE PUSH1 0x20 PUSH1 0x4 DUP3 ADD DUP2 SWAP1 MSTORE PUSH1 0x24 DUP3 ADD MSTORE PUSH32 0x537472696E67733A20686578206C656E67746820696E73756666696369656E74 PUSH1 0x44 DUP3 ADD MSTORE PUSH1 0x64 ADD PUSH2 0xB3F JUMP JUMPDEST SWAP4 SWAP3 POP POP POP JUMP JUMPDEST PUSH1 0x0 PUSH1 0x20 DUP3 DUP5 SUB SLT ISZERO PUSH2 0x3E04 JUMPI PUSH1 0x0 DUP1 REVERT JUMPDEST DUP2 CALLDATALOAD PUSH1 0x1 PUSH1 0x1 PUSH1 0xE0 SHL SUB NOT DUP2 AND DUP2 EQ PUSH2 0x3DEB JUMPI PUSH1 0x0 DUP1 REVERT JUMPDEST PUSH1 0x0 PUSH1 0x20 DUP3 DUP5 SUB SLT ISZERO PUSH2 0x3E2E JUMPI PUSH1 0x0 DUP1 REVERT JUMPDEST POP CALLDATALOAD SWAP2 SWAP1 POP JUMP JUMPDEST DUP1 CALLDATALOAD PUSH1 0x1 PUSH1 0x1 PUSH1 0xA0 SHL SUB DUP2 AND DUP2 EQ PUSH2 0x3E4C JUMPI PUSH1 0x0 DUP1 REVERT JUMPDEST SWAP2 SWAP1 POP JUMP JUMPDEST DUP1 ISZERO ISZERO DUP2 EQ PUSH2 0x3392 JUMPI PUSH1 0x0 DUP1 REVERT JUMPDEST PUSH1 0x0 DUP1 PUSH1 0x40 DUP4 DUP6 SUB SLT ISZERO PUSH2 0x3E72 JUMPI PUSH1 0x0 DUP1 REVERT JUMPDEST PUSH2 0x3E7B DUP4 PUSH2 0x3E35 JUMP JUMPDEST SWAP2 POP PUSH1 0x20 DUP4 ADD CALLDATALOAD PUSH2 0x3E8B DUP2 PUSH2 0x3E51 JUMP JUMPDEST DUP1 SWAP2 POP POP SWAP3 POP SWAP3 SWAP1 POP JUMP JUMPDEST PUSH1 0x0 DUP1 DUP4 PUSH1 0x1F DUP5 ADD SLT PUSH2 0x3EA8 JUMPI PUSH1 0x0 DUP1 REVERT JUMPDEST POP DUP2 CALLDATALOAD PUSH8 0xFFFFFFFFFFFFFFFF DUP2 GT ISZERO PUSH2 0x3EC0 JUMPI PUSH1 0x0 DUP1 REVERT JUMPDEST PUSH1 0x20 DUP4 ADD SWAP2 POP DUP4 PUSH1 0x20 DUP3 DUP6 ADD ADD GT ISZERO PUSH2 0x3ED8 JUMPI PUSH1 0x0 DUP1 REVERT JUMPDEST SWAP3 POP SWAP3 SWAP1 POP JUMP JUMPDEST PUSH1 0x0 DUP1 PUSH1 0x0 PUSH1 0x40 DUP5 DUP7 SUB SLT ISZERO PUSH2 0x3EF4 JUMPI PUSH1 0x0 DUP1 REVERT JUMPDEST DUP4 CALLDATALOAD SWAP3 POP PUSH1 0x20 DUP5 ADD CALLDATALOAD PUSH8 0xFFFFFFFFFFFFFFFF DUP2 GT ISZERO PUSH2 0x3F12 JUMPI PUSH1 0x0 DUP1 REVERT JUMPDEST PUSH2 0x3F1E DUP7 DUP3 DUP8 ADD PUSH2 0x3E96 JUMP JUMPDEST SWAP5 SWAP8 SWAP1 SWAP7 POP SWAP4 SWAP5 POP POP POP POP JUMP JUMPDEST PUSH1 0x0 PUSH1 0x20 DUP3 DUP5 SUB SLT ISZERO PUSH2 0x3F3D JUMPI PUSH1 0x0 DUP1 REVERT JUMPDEST PUSH2 0x3DEB DUP3 PUSH2 0x3E35 JUMP JUMPDEST PUSH1 0x0 DUP1 PUSH1 0x40 DUP4 DUP6 SUB SLT ISZERO PUSH2 0x3F59 JUMPI PUSH1 0x0 DUP1 REVERT JUMPDEST DUP3 CALLDATALOAD SWAP2 POP PUSH2 0x3F69 PUSH1 0x20 DUP5 ADD PUSH2 0x3E35 JUMP JUMPDEST SWAP1 POP SWAP3 POP SWAP3 SWAP1 POP JUMP JUMPDEST PUSH1 0x0 DUP1 PUSH1 0x40 DUP4 DUP6 SUB SLT ISZERO PUSH2 0x3F85 JUMPI PUSH1 0x0 DUP1 REVERT JUMPDEST POP POP DUP1 CALLDATALOAD SWAP3 PUSH1 0x20 SWAP1 SWAP2 ADD CALLDATALOAD SWAP2 POP JUMP JUMPDEST PUSH4 0x4E487B71 PUSH1 0xE0 SHL PUSH1 0x0 MSTORE PUSH1 0x21 PUSH1 0x4 MSTORE PUSH1 0x24 PUSH1 0x0 REVERT JUMPDEST PUSH1 0x3 DUP2 LT PUSH2 0x3392 JUMPI PUSH4 0x4E487B71 PUSH1 0xE0 SHL PUSH1 0x0 MSTORE PUSH1 0x21 PUSH1 0x4 MSTORE PUSH1 0x24 PUSH1 0x0 REVERT JUMPDEST PUSH1 0x1 PUSH1 0x1 PUSH1 0xA0 SHL SUB DUP8 DUP2 AND DUP3 MSTORE DUP7 AND PUSH1 0x20 DUP3 ADD MSTORE PUSH1 0x40 DUP2 ADD DUP6 SWAP1 MSTORE PUSH1 0xC0 DUP2 ADD PUSH2 0x3FF0 DUP6 PUSH2 0x3FAA JUMP JUMPDEST DUP5 PUSH1 0x60 DUP4 ADD MSTORE DUP4 PUSH1 0x80 DUP4 ADD MSTORE DUP3 PUSH1 0xA0 DUP4 ADD MSTORE SWAP8 SWAP7 POP POP POP POP POP POP POP JUMP JUMPDEST PUSH1 0x0 DUP1 PUSH1 0x0 DUP1 PUSH1 0x60 DUP6 DUP8 SUB SLT ISZERO PUSH2 0x4023 JUMPI PUSH1 0x0 DUP1 REVERT JUMPDEST DUP5 CALLDATALOAD PUSH8 0xFFFFFFFFFFFFFFFF DUP2 GT ISZERO PUSH2 0x403A JUMPI PUSH1 0x0 DUP1 REVERT JUMPDEST PUSH2 0x4046 DUP8 DUP3 DUP9 ADD PUSH2 0x3E96 JUMP JUMPDEST SWAP1 SWAP9 SWAP1 SWAP8 POP PUSH1 0x20 DUP8 ADD CALLDATALOAD SWAP7 PUSH1 0x40 ADD CALLDATALOAD SWAP6 POP SWAP4 POP POP POP POP JUMP JUMPDEST PUSH1 0x0 DUP1 PUSH1 0x40 DUP4 DUP6 SUB SLT ISZERO PUSH2 0x4071 JUMPI PUSH1 0x0 DUP1 REVERT JUMPDEST PUSH2 0x407A DUP4 PUSH2 0x3E35 JUMP JUMPDEST SWAP5 PUSH1 0x20 SWAP4 SWAP1 SWAP4 ADD CALLDATALOAD SWAP4 POP POP POP JUMP JUMPDEST PUSH1 0x0 DUP1 PUSH1 0x0 PUSH1 0x60 DUP5 DUP7 SUB SLT ISZERO PUSH2 0x409D JUMPI PUSH1 0x0 DUP1 REVERT JUMPDEST POP POP DUP2 CALLDATALOAD SWAP4 PUSH1 0x20 DUP4 ADD CALLDATALOAD SWAP4 POP PUSH1 0x40 SWAP1 SWAP3 ADD CALLDATALOAD SWAP2 SWAP1 POP JUMP JUMPDEST PUSH1 0x0 JUMPDEST DUP4 DUP2 LT ISZERO PUSH2 0x40CF JUMPI DUP2 DUP2 ADD MLOAD DUP4 DUP3 ADD MSTORE PUSH1 0x20 ADD PUSH2 0x40B7 JUMP JUMPDEST POP POP PUSH1 0x0 SWAP2 ADD MSTORE JUMP JUMPDEST PUSH1 0x0 DUP2 MLOAD DUP1 DUP5 MSTORE PUSH2 0x40F0 DUP2 PUSH1 0x20 DUP7 ADD PUSH1 0x20 DUP7 ADD PUSH2 0x40B4 JUMP JUMPDEST PUSH1 0x1F ADD PUSH1 0x1F NOT AND SWAP3 SWAP1 SWAP3 ADD PUSH1 0x20 ADD SWAP3 SWAP2 POP POP JUMP JUMPDEST PUSH1 0x1 PUSH1 0x1 PUSH1 0xA0 SHL SUB DUP9 AND DUP2 MSTORE PUSH1 0xE0 PUSH1 0x20 DUP3 ADD DUP2 SWAP1 MSTORE PUSH1 0x0 SWAP1 PUSH2 0x4128 SWAP1 DUP4 ADD DUP10 PUSH2 0x40D8 JUMP JUMPDEST SWAP1 POP DUP7 PUSH1 0x40 DUP4 ADD MSTORE DUP6 PUSH1 0x60 DUP4 ADD MSTORE PUSH2 0x413F DUP6 PUSH2 0x3FAA JUMP JUMPDEST DUP5 PUSH1 0x80 DUP4 ADD MSTORE DUP4 PUSH1 0xA0 DUP4 ADD MSTORE DUP3 PUSH1 0xC0 DUP4 ADD MSTORE SWAP9 SWAP8 POP POP POP POP POP POP POP POP JUMP JUMPDEST PUSH1 0x1 PUSH1 0x1 PUSH1 0xA0 SHL SUB DUP8 AND DUP2 MSTORE PUSH1 0x20 DUP2 ADD DUP7 SWAP1 MSTORE PUSH1 0x40 DUP2 ADD DUP6 SWAP1 MSTORE PUSH1 0xC0 DUP2 ADD PUSH2 0x3FF0 DUP6 PUSH2 0x3FAA JUMP JUMPDEST PUSH1 0x0 DUP1 PUSH1 0x0 DUP1 PUSH1 0x60 DUP6 DUP8 SUB SLT ISZERO PUSH2 0x419A JUMPI PUSH1 0x0 DUP1 REVERT JUMPDEST PUSH2 0x41A3 DUP6 PUSH2 0x3E35 JUMP JUMPDEST SWAP4 POP PUSH1 0x20 DUP6 ADD CALLDATALOAD SWAP3 POP PUSH1 0x40 DUP6 ADD CALLDATALOAD PUSH8 0xFFFFFFFFFFFFFFFF DUP2 GT ISZERO PUSH2 0x41C6 JUMPI PUSH1 0x0 DUP1 REVERT JUMPDEST PUSH2 0x41D2 DUP8 DUP3 DUP9 ADD PUSH2 0x3E96 JUMP JUMPDEST SWAP6 SWAP9 SWAP5 SWAP8 POP SWAP6 POP POP POP POP JUMP JUMPDEST PUSH1 0x20 DUP1 DUP3 MSTORE PUSH1 0x6 SWAP1 DUP3 ADD MSTORE PUSH6 0x1C185D5CD959 PUSH1 0xD2 SHL PUSH1 0x40 DUP3 ADD MSTORE PUSH1 0x60 ADD SWAP1 JUMP JUMPDEST PUSH1 0x20 DUP1 DUP3 MSTORE PUSH1 0xB SWAP1 DUP3 ADD MSTORE PUSH11 0x6E6F742070656E64696E67 PUSH1 0xA8 SHL PUSH1 0x40 DUP3 ADD MSTORE PUSH1 0x60 ADD SWAP1 JUMP JUMPDEST PUSH1 0x20 DUP1 DUP3 MSTORE PUSH1 0x10 SWAP1 DUP3 ADD MSTORE PUSH16 0x185B1C9958591E48185C1C1C9BDD9959 PUSH1 0x82 SHL PUSH1 0x40 DUP3 ADD MSTORE PUSH1 0x60 ADD SWAP1 JUMP JUMPDEST PUSH4 0x4E487B71 PUSH1 0xE0 SHL PUSH1 0x0 MSTORE PUSH1 0x11 PUSH1 0x4 MSTORE PUSH1 0x24 PUSH1 0x0 REVERT JUMPDEST DUP1 DUP3 ADD DUP1 DUP3 GT ISZERO PUSH2 0xB16 JUMPI PUSH2 0xB16 PUSH2 0x424D JUMP JUMPDEST PUSH1 0x20 DUP1 DUP3 MSTORE PUSH1 0x9 SWAP1 DUP3 ADD MSTORE PUSH9 0x3737BA1030B236B4B7 PUSH1 0xB9 SHL PUSH1 0x40 DUP3 ADD MSTORE PUSH1 0x60 ADD SWAP1 JUMP JUMPDEST DUP2 DUP4 MSTORE DUP2 DUP2 PUSH1 0x20 DUP6 ADD CALLDATACOPY POP PUSH1 0x0 DUP3 DUP3 ADD PUSH1 0x20 SWAP1 DUP2 ADD SWAP2 SWAP1 SWAP2 MSTORE PUSH1 0x1F SWAP1 SWAP2 ADD PUSH1 0x1F NOT AND SWAP1 SWAP2 ADD ADD SWAP1 JUMP JUMPDEST DUP4 DUP2 MSTORE PUSH1 0x40 PUSH1 0x20 DUP3 ADD MSTORE PUSH1 0x0 PUSH2 0x42DC PUSH1 0x40 DUP4 ADD DUP5 DUP7 PUSH2 0x4299 JUMP JUMPDEST SWAP6 SWAP5 POP POP POP POP POP JUMP JUMPDEST PUSH1 0x0 PUSH1 0x20 DUP3 DUP5 SUB SLT ISZERO PUSH2 0x42F7 JUMPI PUSH1 0x0 DUP1 REVERT JUMPDEST DUP2 MLOAD PUSH2 0x3DEB DUP2 PUSH2 0x3E51 JUMP JUMPDEST PUSH1 0x20 DUP1 DUP3 MSTORE PUSH1 0x10 SWAP1 DUP3 ADD MSTORE PUSH16 0x12D650CBD4D095081C995C5D5A5C9959 PUSH1 0x82 SHL PUSH1 0x40 DUP3 ADD MSTORE PUSH1 0x60 ADD SWAP1 JUMP JUMPDEST PUSH1 0x20 DUP1 DUP3 MSTORE PUSH1 0xB SWAP1 DUP3 ADD MSTORE PUSH11 0x189B1858DADB1A5CDD1959 PUSH1 0xAA SHL PUSH1 0x40 DUP3 ADD MSTORE PUSH1 0x60 ADD SWAP1 JUMP JUMPDEST PUSH1 0x20 DUP1 DUP3 MSTORE PUSH1 0xE SWAP1 DUP3 ADD MSTORE PUSH14 0x1858D8DBDD5B9D081B1BD8DAD959 PUSH1 0x92 SHL PUSH1 0x40 DUP3 ADD MSTORE PUSH1 0x60 ADD SWAP1 JUMP JUMPDEST PUSH1 0x20 DUP1 DUP3 MSTORE PUSH1 0x8 SWAP1 DUP3 ADD MSTORE PUSH8 0x616D6F756E743D3 PUSH1 0xC4 SHL PUSH1 0x40 DUP3 ADD MSTORE PUSH1 0x60 ADD SWAP1 JUMP JUMPDEST PUSH1 0x20 DUP1 DUP3 MSTORE PUSH1 0xC SWAP1 DUP3 ADD MSTORE PUSH12 0x1A5B9CDD59999A58DA595B9D PUSH1 0xA2 SHL PUSH1 0x40 DUP3 ADD MSTORE PUSH1 0x60 ADD SWAP1 JUMP JUMPDEST DUP2 DUP2 SUB DUP2 DUP2 GT ISZERO PUSH2 0xB16 JUMPI PUSH2 0xB16 PUSH2 0x424D JUMP JUMPDEST PUSH1 0x20 DUP1 DUP3 MSTORE PUSH1 0x5 SWAP1 DUP3 ADD MSTORE PUSH5 0x6574683D3 PUSH1 0xDC SHL PUSH1 0x40 DUP3 ADD MSTORE PUSH1 0x60 ADD SWAP1 JUMP JUMPDEST PUSH1 0x0 PUSH1 0x1 DUP3 ADD PUSH2 0x4405 JUMPI PUSH2 0x4405 PUSH2 0x424D JUMP JUMPDEST POP PUSH1 0x1 ADD SWAP1 JUMP JUMPDEST PUSH4 0x4E487B71 PUSH1 0xE0 SHL PUSH1 0x0 MSTORE PUSH1 0x41 PUSH1 0x4 MSTORE PUSH1 0x24 PUSH1 0x0 REVERT JUMPDEST PUSH1 0x1 DUP2 DUP2 SHR SWAP1 DUP3 AND DUP1 PUSH2 0x4436 JUMPI PUSH1 0x7F DUP3 AND SWAP2 POP JUMPDEST PUSH1 0x20 DUP3 LT DUP2 SUB PUSH2 0x4456 JUMPI PUSH4 0x4E487B71 PUSH1 0xE0 SHL PUSH1 0x0 MSTORE PUSH1 0x22 PUSH1 0x4 MSTORE PUSH1 0x24 PUSH1 0x0 REVERT JUMPDEST POP SWAP2 SWAP1 POP JUMP JUMPDEST PUSH1 0x1F DUP3 GT ISZERO PUSH2 0xD35 JUMPI PUSH1 0x0 DUP2 DUP2 MSTORE PUSH1 0x20 DUP2 KECCAK256 PUSH1 0x1F DUP6 ADD PUSH1 0x5 SHR DUP2 ADD PUSH1 0x20 DUP7 LT ISZERO PUSH2 0x4483 JUMPI POP DUP1 JUMPDEST PUSH1 0x1F DUP6 ADD PUSH1 0x5 SHR DUP3 ADD SWAP2 POP JUMPDEST DUP2 DUP2 LT ISZERO PUSH2 0xE0D JUMPI DUP3 DUP2 SSTORE PUSH1 0x1 ADD PUSH2 0x448F JUMP JUMPDEST PUSH8 0xFFFFFFFFFFFFFFFF DUP4 GT ISZERO PUSH2 0x44BA JUMPI PUSH2 0x44BA PUSH2 0x440C JUMP JUMPDEST PUSH2 0x44CE DUP4 PUSH2 0x44C8 DUP4 SLOAD PUSH2 0x4422 JUMP JUMPDEST DUP4 PUSH2 0x445C JUMP JUMPDEST PUSH1 0x0 PUSH1 0x1F DUP5 GT PUSH1 0x1 DUP2 EQ PUSH2 0x4502 JUMPI PUSH1 0x0 DUP6 ISZERO PUSH2 0x44EA JUMPI POP DUP4 DUP3 ADD CALLDATALOAD JUMPDEST PUSH1 0x0 NOT PUSH1 0x3 DUP8 SWAP1 SHL SHR NOT AND PUSH1 0x1 DUP7 SWAP1 SHL OR DUP4 SSTORE PUSH2 0x239E JUMP JUMPDEST PUSH1 0x0 DUP4 DUP2 MSTORE PUSH1 0x20 SWAP1 KECCAK256 PUSH1 0x1F NOT DUP7 AND SWAP1 DUP4 JUMPDEST DUP3 DUP2 LT ISZERO PUSH2 0x4533 JUMPI DUP7 DUP6 ADD CALLDATALOAD DUP3 SSTORE PUSH1 0x20 SWAP5 DUP6 ADD SWAP5 PUSH1 0x1 SWAP1 SWAP3 ADD SWAP2 ADD PUSH2 0x4513 JUMP JUMPDEST POP DUP7 DUP3 LT ISZERO PUSH2 0x4550 JUMPI PUSH1 0x0 NOT PUSH1 0xF8 DUP9 PUSH1 0x3 SHL AND SHR NOT DUP5 DUP8 ADD CALLDATALOAD AND DUP2 SSTORE JUMPDEST POP POP PUSH1 0x1 DUP6 PUSH1 0x1 SHL ADD DUP4 SSTORE POP POP POP POP POP JUMP JUMPDEST PUSH1 0x40 DUP2 MSTORE PUSH1 0x0 PUSH2 0x4576 PUSH1 0x40 DUP4 ADD DUP6 DUP8 PUSH2 0x4299 JUMP JUMPDEST SWAP1 POP DUP3 PUSH1 0x20 DUP4 ADD MSTORE SWAP5 SWAP4 POP POP POP POP JUMP JUMPDEST DUP1 DUP3 MUL DUP2 ISZERO DUP3 DUP3 DIV DUP5 EQ OR PUSH2 0xB16 JUMPI PUSH2 0xB16 PUSH2 0x424D JUMP JUMPDEST PUSH1 0x0 DUP3 PUSH2 0x45BA JUMPI PUSH4 0x4E487B71 PUSH1 0xE0 SHL PUSH1 0x0 MSTORE PUSH1 0x12 PUSH1 0x4 MSTORE PUSH1 0x24 PUSH1 0x0 REVERT JUMPDEST POP DIV SWAP1 JUMP JUMPDEST PUSH1 0x0 PUSH1 0x20 DUP3 DUP5 SUB SLT ISZERO PUSH2 0x45D1 JUMPI PUSH1 0x0 DUP1 REVERT JUMPDEST POP MLOAD SWAP2 SWAP1 POP JUMP JUMPDEST PUSH1 0x60 DUP2 MSTORE PUSH1 0x0 PUSH2 0x4601 PUSH1 0x60 DUP4 ADD PUSH1 0x9 DUP2 MSTORE PUSH9 0x4652455155454E4359 PUSH1 0xB8 SHL PUSH1 0x20 DUP3 ADD MSTORE PUSH1 0x40 ADD SWAP1 JUMP JUMPDEST PUSH1 0x20 DUP4 ADD SWAP5 SWAP1 SWAP5 MSTORE POP PUSH1 0x40 ADD MSTORE SWAP1 JUMP JUMPDEST PUSH1 0x1 DUP1 PUSH1 0xA0 SHL SUB DUP6 AND DUP2 MSTORE DUP4 PUSH1 0x20 DUP3 ADD MSTORE PUSH1 0x60 PUSH1 0x40 DUP3 ADD MSTORE PUSH1 0x0 PUSH2 0x4639 PUSH1 0x60 DUP4 ADD DUP5 DUP7 PUSH2 0x4299 JUMP JUMPDEST SWAP7 SWAP6 POP POP POP POP POP POP JUMP JUMPDEST DUP5 DUP2 MSTORE PUSH1 0x1 PUSH1 0x1 PUSH1 0xA0 SHL SUB DUP5 AND PUSH1 0x20 DUP3 ADD MSTORE PUSH1 0x60 PUSH1 0x40 DUP3 ADD DUP2 SWAP1 MSTORE PUSH1 0x0 SWAP1 PUSH2 0x4639 SWAP1 DUP4 ADD DUP5 DUP7 PUSH2 0x4299 JUMP JUMPDEST PUSH32 0x416363657373436F6E74726F6C3A206163636F756E7420000000000000000000 DUP2 MSTORE PUSH1 0x0 DUP4 MLOAD PUSH2 0x46A6 DUP2 PUSH1 0x17 DUP6 ADD PUSH1 0x20 DUP9 ADD PUSH2 0x40B4 JUMP JUMPDEST PUSH17 0x1034B99036B4B9B9B4B733903937B6329 PUSH1 0x7D SHL PUSH1 0x17 SWAP2 DUP5 ADD SWAP2 DUP3 ADD MSTORE DUP4 MLOAD PUSH2 0x46D7 DUP2 PUSH1 0x28 DUP5 ADD PUSH1 0x20 DUP9 ADD PUSH2 0x40B4 JUMP JUMPDEST ADD PUSH1 0x28 ADD SWAP5 SWAP4 POP POP POP POP JUMP JUMPDEST PUSH1 0x20 DUP2 MSTORE PUSH1 0x0 PUSH2 0x3DEB PUSH1 0x20 DUP4 ADD DUP5 PUSH2 0x40D8 JUMP JUMPDEST DUP6 DUP2 MSTORE PUSH1 0x1 PUSH1 0x1 PUSH1 0xA0 SHL SUB DUP6 DUP2 AND PUSH1 0x20 DUP4 ADD MSTORE DUP5 AND PUSH1 0x40 DUP3 ADD MSTORE PUSH1 0x60 DUP2 ADD DUP4 SWAP1 MSTORE PUSH1 0xA0 PUSH1 0x80 DUP3 ADD DUP2 SWAP1 MSTORE PUSH1 0x0 SWAP1 PUSH2 0x472F SWAP1 DUP4 ADD DUP5 PUSH2 0x40D8 JUMP JUMPDEST SWAP8 SWAP7 POP POP POP POP POP POP POP JUMP JUMPDEST PUSH1 0x1 PUSH1 0x1 PUSH1 0xA0 SHL SUB DUP4 AND DUP2 MSTORE PUSH1 0x60 PUSH1 0x20 DUP3 ADD DUP2 SWAP1 MSTORE PUSH1 0x0 SWAP1 PUSH2 0x475E SWAP1 DUP4 ADD DUP5 PUSH2 0x40D8 JUMP JUMPDEST DUP3 DUP2 SUB PUSH1 0x40 SWAP4 DUP5 ADD MSTORE PUSH1 0x1A DUP2 MSTORE PUSH32 0x457363726F77656420666F72206D616E75616C20726576696577000000000000 PUSH1 0x20 DUP3 ADD MSTORE SWAP2 SWAP1 SWAP2 ADD SWAP4 SWAP3 POP POP POP JUMP JUMPDEST PUSH4 0x4E487B71 PUSH1 0xE0 SHL PUSH1 0x0 MSTORE PUSH1 0x32 PUSH1 0x4 MSTORE PUSH1 0x24 PUSH1 0x0 REVERT JUMPDEST PUSH1 0x0 DUP2 PUSH2 0x47C1 JUMPI PUSH2 0x47C1 PUSH2 0x424D JUMP JUMPDEST POP PUSH1 0x0 NOT ADD SWAP1 JUMP INVALID MSIZE LOG1 0xC4 DUP15 PC CALLDATACOPY 0xAD PUSH27 0x7F3DCEDCBE129BF3249EC4FBF651FD4F5E2600EAD39FE2F5A49807 KECCAK256 0x5C 0xE4 0xD3 SSTORE MULMOD 0x2E CREATE2 0xA8 LOG1 DUP16 JUMP 0xE8 SWAP2 EXTCODECOPY DELEGATECALL LOG2 ADD 0xFB 0xE2 DUP8 DUP3 JUMPDEST MULMOD JUMP SWAP4 0xC2 OR PUSH22 0xA2646970667358221220C732D4DD747E650EA69490C5 0xBC RETURN SWAP4 0xD4 SWAP10 DUP11 TIMESTAMP PUSH12 0x2141049971A4B9464BBACAF9 PUSH5 0x736F6C6343 STOP ADDMOD EQ STOP CALLER "},"methodIdentifiers":{"ADMIN_ROLE()":"75b238fc","AUDITOR_ROLE()":"6e1d616e","DEFAULT_ADMIN_ROLE()":"a217fddf","TEN_K()":"837cbe04","addAuditor(address)":"e429cef1","approveEscrow(uint256)":"03fce7ef","approveLoan(uint256,uint256)":"7a646492","approveRedeem(uint256)":"3eb09ece","balances(address)":"27e235e3","blacklisted(address)":"dbac26e9","dailyStats(address)":"d211d8e5","deposit(uint256)":"b6b55f25","depositApyBps()":"42569ca7","depositFromExternal(uint256)":"b547986b","ethPerSUSDE18()":"475cfb55","forceLockAccount(address,uint256,string)":"f4baae41","freqStats(address)":"cc3a1aba","frequencyWindow()":"25d71240","getEscrow(uint256)":"7d19e596","getLoanCase(uint256)":"e4f598c0","getRedeemCase(uint256)":"c5a52635","getRoleAdmin(bytes32)":"248a9ca3","grantRole(bytes32,address)":"2f2ff15d","hasRole(bytes32,address)":"91d14854","identity()":"2c159a1a","lockDuration()":"04554443","lockedUntil(address)":"9bc289f1","logContract()":"cfe279b2","maxTxPerWindow()":"28118909","nextCaseId()":"6350eae8","nextLoanId()":"87c51459","nextRedeemId()":"e283bc4a","pause()":"8456cb59","paused()":"5c975abb","redeemToAsset(string,uint256,uint256)":"8c970e77","rejectEscrow(uint256,string)":"f6fcaf12","rejectLoan(uint256,string)":"52ee8f81","rejectRedeem(uint256,string)":"268fb01e","removeAuditor(address)":"e6116cfd","renounceRole(bytes32,address)":"36568abe","repayLoan(uint256)":"ab7b1c89","requestLoan(uint256)":"8d5d3429","revokeRole(bytes32,address)":"d547741f","riskEngine()":"92b888ae","setBlacklist(address,bool)":"153b0d1e","setDepositApyBps(uint256)":"731314e6","setFrequencyParams(uint256,uint256,uint256)":"b58fb457","supportsInterface(bytes4)":"01ffc9a7","token()":"fc0c546a","totalBorrowedSusd()":"6c828a52","totalDepositsSusd()":"582b7506","transfer(address,uint256)":"a9059cbb","unlockAccount(address)":"905295e3","unpause()":"3f4ba83a","withdraw(uint256)":"2e1a7d4d"}}}}}