{"contracts/RiskEngine.sol":{"RiskEngine":{"abi":[{"inputs":[],"stateMutability":"nonpayable","type":"constructor"},{"anonymous":false,"inputs":[{"indexed":false,"internalType":"uint256","name":"newBaseBps","type":"uint256"}],"name":"BaseInterestUpdated","type":"event"},{"anonymous":false,"inputs":[{"indexed":true,"internalType":"address","name":"user","type":"address"},{"indexed":false,"internalType":"uint8","name":"score","type":"uint8"},{"indexed":false,"internalType":"uint256","name":"dailyLimit","type":"uint256"}],"name":"RiskInitialized","type":"event"},{"anonymous":false,"inputs":[{"indexed":false,"internalType":"uint256","name":"newSlopeBps","type":"uint256"}],"name":"RiskSlopeUpdated","type":"event"},{"anonymous":false,"inputs":[{"indexed":true,"internalType":"address","name":"user","type":"address"},{"indexed":false,"internalType":"uint8","name":"score","type":"uint8"},{"indexed":false,"internalType":"uint256","name":"dailyLimit","type":"uint256"}],"name":"RiskUpdated","type":"event"},{"anonymous":false,"inputs":[{"indexed":true,"internalType":"bytes32","name":"role","type":"bytes32"},{"indexed":true,"internalType":"bytes32","name":"previousAdminRole","type":"bytes32"},{"indexed":true,"internalType":"bytes32","name":"newAdminRole","type":"bytes32"}],"name":"RoleAdminChanged","type":"event"},{"anonymous":false,"inputs":[{"indexed":true,"internalType":"bytes32","name":"role","type":"bytes32"},{"indexed":true,"internalType":"address","name":"account","type":"address"},{"indexed":true,"internalType":"address","name":"sender","type":"address"}],"name":"RoleGranted","type":"event"},{"anonymous":false,"inputs":[{"indexed":true,"internalType":"bytes32","name":"role","type":"bytes32"},{"indexed":true,"internalType":"address","name":"account","type":"address"},{"indexed":true,"internalType":"address","name":"sender","type":"address"}],"name":"RoleRevoked","type":"event"},{"inputs":[],"name":"DEFAULT_ADMIN_ROLE","outputs":[{"internalType":"bytes32","name":"","type":"bytes32"}],"stateMutability":"view","type":"function"},{"inputs":[],"name":"RISK_OFFICER_ROLE","outputs":[{"internalType":"bytes32","name":"","type":"bytes32"}],"stateMutability":"view","type":"function"},{"inputs":[],"name":"baseInterestBps","outputs":[{"internalType":"uint256","name":"","type":"uint256"}],"stateMutability":"view","type":"function"},{"inputs":[{"internalType":"address","name":"user","type":"address"}],"name":"getDailyLimit","outputs":[{"internalType":"uint256","name":"","type":"uint256"}],"stateMutability":"view","type":"function"},{"inputs":[{"internalType":"address","name":"user","type":"address"}],"name":"getInterestRateBps","outputs":[{"internalType":"uint256","name":"","type":"uint256"}],"stateMutability":"view","type":"function"},{"inputs":[{"internalType":"address","name":"user","type":"address"}],"name":"getRiskScore","outputs":[{"internalType":"uint8","name":"","type":"uint8"}],"stateMutability":"view","type":"function"},{"inputs":[{"internalType":"bytes32","name":"role","type":"bytes32"}],"name":"getRoleAdmin","outputs":[{"internalType":"bytes32","name":"","type":"bytes32"}],"stateMutability":"view","type":"function"},{"inputs":[{"internalType":"bytes32","name":"role","type":"bytes32"},{"internalType":"address","name":"account","type":"address"}],"name":"grantRole","outputs":[],"stateMutability":"nonpayable","type":"function"},{"inputs":[{"internalType":"bytes32","name":"role","type":"bytes32"},{"internalType":"address","name":"account","type":"address"}],"name":"hasRole","outputs":[{"internalType":"bool","name":"","type":"bool"}],"stateMutability":"view","type":"function"},{"inputs":[{"internalType":"address","name":"user","type":"address"},{"internalType":"uint8","name":"score","type":"uint8"},{"internalType":"uint256","name":"dailyLimit","type":"uint256"}],"name":"initRisk","outputs":[],"stateMutability":"nonpayable","type":"function"},{"inputs":[{"internalType":"bytes32","name":"role","type":"bytes32"},{"internalType":"address","name":"account","type":"address"}],"name":"renounceRole","outputs":[],"stateMutability":"nonpayable","type":"function"},{"inputs":[{"internalType":"bytes32","name":"role","type":"bytes32"},{"internalType":"address","name":"account","type":"address"}],"name":"revokeRole","outputs":[],"stateMutability":"nonpayable","type":"function"},{"inputs":[{"internalType":"address","name":"","type":"address"}],"name":"riskProfiles","outputs":[{"internalType":"uint8","name":"riskScore","type":"uint8"},{"internalType":"uint256","name":"dailyTransferLimit","type":"uint256"},{"internalType":"uint256","name":"lastUpdatedAt","type":"uint256"}],"stateMutability":"view","type":"function"},{"inputs":[],"name":"riskSlopeBps","outputs":[{"internalType":"uint256","name":"","type":"uint256"}],"stateMutability":"view","type":"function"},{"inputs":[{"internalType":"uint256","name":"newBaseBps","type":"uint256"}],"name":"setBaseInterestBps","outputs":[],"stateMutability":"nonpayable","type":"function"},{"inputs":[{"internalType":"uint256","name":"newSlopeBps","type":"uint256"}],"name":"setRiskSlopeBps","outputs":[],"stateMutability":"nonpayable","type":"function"},{"inputs":[{"internalType":"bytes4","name":"interfaceId","type":"bytes4"}],"name":"supportsInterface","outputs":[{"internalType":"bool","name":"","type":"bool"}],"stateMutability":"view","type":"function"},{"inputs":[{"internalType":"address","name":"user","type":"address"},{"internalType":"uint8","name":"newScore","type":"uint8"},{"internalType":"uint256","name":"newDailyLimit","type":"uint256"}],"name":"updateRisk","outputs":[],"stateMutability":"nonpayable","type":"function"}],"evm":{"bytecode":{"linkReferences":{},"object":"608060405261012c600255601460035534801561001b57600080fd5b5061002760003361002c565b6100cb565b6000828152602081815260408083206001600160a01b038516845290915290205460ff166100c7576000828152602081815260408083206001600160a01b03851684529091529020805460ff191660011790556100863390565b6001600160a01b0316816001600160a01b0316837f2f8788117e7eff1d82e926ec794901d17c78024a50270940304540a733656f0d60405160405180910390a45b5050565b610db5806100da6000396000f3fe608060405234801561001057600080fd5b50600436106101165760003560e01c80638ecc987e116100a2578063a9bb7c1f11610071578063a9bb7c1f14610282578063ac8555ef14610295578063d547741f146102a8578063dc08706d146102bb578063fc193645146102f957600080fd5b80638ecc987e1461020b57806391d14854146102145780639948b18d14610227578063a217fddf1461027a57600080fd5b80633355a6a1116100e95780633355a6a11461019c57806336568abe146101a557806338a17370146101b857806358f2ef17146101cb5780638904b29b146101f857600080fd5b806301ffc9a71461011b578063024cc72614610143578063248a9ca3146101585780632f2ff15d14610189575b600080fd5b61012e610129366004610b23565b610320565b60405190151581526020015b60405180910390f35b610156610151366004610b69565b610357565b005b61017b610166366004610bae565b60009081526020819052604090206001015490565b60405190815260200161013a565b610156610197366004610bc7565b6104a1565b61017b60035481565b6101566101b3366004610bc7565b6104cb565b6101566101c6366004610bae565b610549565b61017b6101d9366004610bf3565b6001600160a01b03166000908152600160208190526040909120015490565b61017b610206366004610bf3565b610591565b61017b60025481565b61012e610222366004610bc7565b61061b565b61025b610235366004610bf3565b600160208190526000918252604090912080549181015460029091015460ff9092169183565b6040805160ff909416845260208401929092529082015260600161013a565b61017b600081565b610156610290366004610b69565b610644565b6101566102a3366004610bae565b6107ba565b6101566102b6366004610bc7565b6107fa565b6102e76102c9366004610bf3565b6001600160a01b031660009081526001602052604090205460ff1690565b60405160ff909116815260200161013a565b61017b7ffc5e340a927dfb90e4ea870f83d58633458b79a78fd1a48271b299ac1d6db44781565b60006001600160e01b03198216637965db0b60e01b148061035157506301ffc9a760e01b6001600160e01b03198316145b92915050565b7ffc5e340a927dfb90e4ea870f83d58633458b79a78fd1a48271b299ac1d6db4476103818161081f565b60008360ff16118015610398575060648360ff1611155b6103d95760405162461bcd60e51b815260206004820152600d60248201526c696e76616c69642073636f726560981b60448201526064015b60405180910390fd5b6001600160a01b03841660009081526001602052604081208054909160ff909116900361043a5760405162461bcd60e51b815260206004820152600f60248201526e1b9bdd081a5b9a5d1a585b1a5e9959608a1b60448201526064016103d0565b805460ff191660ff851690811782556001820184905542600283015560408051918252602082018590526001600160a01b038716917f18d4204980ab91f36d15cb52a910a72e3e50fb5f6deb9cab275b43d5afb9aab9910160405180910390a25050505050565b6000828152602081905260409020600101546104bc8161081f565b6104c6838361082c565b505050565b6001600160a01b038116331461053b5760405162461bcd60e51b815260206004820152602f60248201527f416363657373436f6e74726f6c3a2063616e206f6e6c792072656e6f756e636560448201526e103937b632b9903337b91039b2b63360891b60648201526084016103d0565b61054582826108b0565b5050565b60006105548161081f565b60038290556040518281527ff2ffaa40bdf5bc0b2d26fefa4f8c6cea03eac0aa7e0bc0800424dbdbd3d21028906020015b60405180910390a15050565b6001600160a01b03811660009081526001602081815260408084208151606081018352815460ff16808252948201549381019390935260020154908201529082036105e0575050600254919050565b60006064826000015160ff166003546105f99190610c24565b6106039190610c3b565b9050806002546106139190610c5d565b949350505050565b6000918252602082815260408084206001600160a01b0393909316845291905290205460ff1690565b7ffc5e340a927dfb90e4ea870f83d58633458b79a78fd1a48271b299ac1d6db44761066e8161081f565b60008360ff16118015610685575060648360ff1611155b6106c15760405162461bcd60e51b815260206004820152600d60248201526c696e76616c69642073636f726560981b60448201526064016103d0565b6001600160a01b03841660009081526001602052604090205460ff16156107205760405162461bcd60e51b8152602060048201526013602482015272185b1c9958591e481a5b9a5d1a585b1a5e9959606a1b60448201526064016103d0565b6040805160608101825260ff8581168083526020808401878152428587019081526001600160a01b038b1660008181526001808652908990209751885460ff1916971696909617875591519486019490945592516002909401939093558351908152918201859052917fd42e04cb40b38a318fb690e23b3d4c17bc6ca8d0e866948391fbecae41746261910160405180910390a250505050565b60006107c58161081f565b60028290556040518281527f6d03c7415b161a70a92558f9a9bfa64827f4f79bd7550dfffa9f0a24e5a61ddc90602001610585565b6000828152602081905260409020600101546108158161081f565b6104c683836108b0565b6108298133610915565b50565b610836828261061b565b610545576000828152602081815260408083206001600160a01b03851684529091529020805460ff1916600117905561086c3390565b6001600160a01b0316816001600160a01b0316837f2f8788117e7eff1d82e926ec794901d17c78024a50270940304540a733656f0d60405160405180910390a45050565b6108ba828261061b565b15610545576000828152602081815260408083206001600160a01b0385168085529252808320805460ff1916905551339285917ff6391f5c32d9c69d2a47ea670b442974b53935d1edc7fd64eb21e047a839171b9190a45050565b61091f828261061b565b6105455761092c8161096e565b610937836020610980565b604051602001610948929190610c94565b60408051601f198184030181529082905262461bcd60e51b82526103d091600401610d09565b60606103516001600160a01b03831660145b6060600061098f836002610c24565b61099a906002610c5d565b67ffffffffffffffff8111156109b2576109b2610d3c565b6040519080825280601f01601f1916602001820160405280156109dc576020820181803683370190505b509050600360fc1b816000815181106109f7576109f7610d52565b60200101906001600160f81b031916908160001a905350600f60fb1b81600181518110610a2657610a26610d52565b60200101906001600160f81b031916908160001a9053506000610a4a846002610c24565b610a55906001610c5d565b90505b6001811115610acd576f181899199a1a9b1b9c1cb0b131b232b360811b85600f1660108110610a8957610a89610d52565b1a60f81b828281518110610a9f57610a9f610d52565b60200101906001600160f81b031916908160001a90535060049490941c93610ac681610d68565b9050610a58565b508315610b1c5760405162461bcd60e51b815260206004820181905260248201527f537472696e67733a20686578206c656e67746820696e73756666696369656e7460448201526064016103d0565b9392505050565b600060208284031215610b3557600080fd5b81356001600160e01b031981168114610b1c57600080fd5b80356001600160a01b0381168114610b6457600080fd5b919050565b600080600060608486031215610b7e57600080fd5b610b8784610b4d565b9250602084013560ff81168114610b9d57600080fd5b929592945050506040919091013590565b600060208284031215610bc057600080fd5b5035919050565b60008060408385031215610bda57600080fd5b82359150610bea60208401610b4d565b90509250929050565b600060208284031215610c0557600080fd5b610b1c82610b4d565b634e487b7160e01b600052601160045260246000fd5b808202811582820484141761035157610351610c0e565b600082610c5857634e487b7160e01b600052601260045260246000fd5b500490565b8082018082111561035157610351610c0e565b60005b83811015610c8b578181015183820152602001610c73565b50506000910152565b7f416363657373436f6e74726f6c3a206163636f756e7420000000000000000000815260008351610ccc816017850160208801610c70565b7001034b99036b4b9b9b4b733903937b6329607d1b6017918401918201528351610cfd816028840160208801610c70565b01602801949350505050565b6020815260008251806020840152610d28816040850160208701610c70565b601f01601f19169190910160400192915050565b634e487b7160e01b600052604160045260246000fd5b634e487b7160e01b600052603260045260246000fd5b600081610d7757610d77610c0e565b50600019019056fea2646970667358221220c384b159af44b71aa1da51ef0819764f21a1c7aa83efd9d0756557c446da06c864736f6c63430008140033","opcodes":"PUSH1 0x80 PUSH1 0x40 MSTORE PUSH2 0x12C PUSH1 0x2 SSTORE PUSH1 0x14 PUSH1 0x3 SSTORE CALLVALUE DUP1 ISZERO PUSH2 0x1B JUMPI PUSH1 0x0 DUP1 REVERT JUMPDEST POP PUSH2 0x27 PUSH1 0x0 CALLER PUSH2 0x2C JUMP JUMPDEST PUSH2 0xCB JUMP JUMPDEST PUSH1 0x0 DUP3 DUP2 MSTORE PUSH1 0x20 DUP2 DUP2 MSTORE PUSH1 0x40 DUP1 DUP4 KECCAK256 PUSH1 0x1 PUSH1 0x1 PUSH1 0xA0 SHL SUB DUP6 AND DUP5 MSTORE SWAP1 SWAP2 MSTORE SWAP1 KECCAK256 SLOAD PUSH1 0xFF AND PUSH2 0xC7 JUMPI PUSH1 0x0 DUP3 DUP2 MSTORE PUSH1 0x20 DUP2 DUP2 MSTORE PUSH1 0x40 DUP1 DUP4 KECCAK256 PUSH1 0x1 PUSH1 0x1 PUSH1 0xA0 SHL SUB DUP6 AND DUP5 MSTORE SWAP1 SWAP2 MSTORE SWAP1 KECCAK256 DUP1 SLOAD PUSH1 0xFF NOT AND PUSH1 0x1 OR SWAP1 SSTORE PUSH2 0x86 CALLER SWAP1 JUMP JUMPDEST PUSH1 0x1 PUSH1 0x1 PUSH1 0xA0 SHL SUB AND DUP2 PUSH1 0x1 PUSH1 0x1 PUSH1 0xA0 SHL SUB AND DUP4 PUSH32 0x2F8788117E7EFF1D82E926EC794901D17C78024A50270940304540A733656F0D PUSH1 0x40 MLOAD PUSH1 0x40 MLOAD DUP1 SWAP2 SUB SWAP1 LOG4 JUMPDEST POP POP JUMP JUMPDEST PUSH2 0xDB5 DUP1 PUSH2 0xDA PUSH1 0x0 CODECOPY PUSH1 0x0 RETURN INVALID PUSH1 0x80 PUSH1 0x40 MSTORE CALLVALUE DUP1 ISZERO PUSH2 0x10 JUMPI PUSH1 0x0 DUP1 REVERT JUMPDEST POP PUSH1 0x4 CALLDATASIZE LT PUSH2 0x116 JUMPI PUSH1 0x0 CALLDATALOAD PUSH1 0xE0 SHR DUP1 PUSH4 0x8ECC987E GT PUSH2 0xA2 JUMPI DUP1 PUSH4 0xA9BB7C1F GT PUSH2 0x71 JUMPI DUP1 PUSH4 0xA9BB7C1F EQ PUSH2 0x282 JUMPI DUP1 PUSH4 0xAC8555EF EQ PUSH2 0x295 JUMPI DUP1 PUSH4 0xD547741F EQ PUSH2 0x2A8 JUMPI DUP1 PUSH4 0xDC08706D EQ PUSH2 0x2BB JUMPI DUP1 PUSH4 0xFC193645 EQ PUSH2 0x2F9 JUMPI PUSH1 0x0 DUP1 REVERT JUMPDEST DUP1 PUSH4 0x8ECC987E EQ PUSH2 0x20B JUMPI DUP1 PUSH4 0x91D14854 EQ PUSH2 0x214 JUMPI DUP1 PUSH4 0x9948B18D EQ PUSH2 0x227 JUMPI DUP1 PUSH4 0xA217FDDF EQ PUSH2 0x27A JUMPI PUSH1 0x0 DUP1 REVERT JUMPDEST DUP1 PUSH4 0x3355A6A1 GT PUSH2 0xE9 JUMPI DUP1 PUSH4 0x3355A6A1 EQ PUSH2 0x19C JUMPI DUP1 PUSH4 0x36568ABE EQ PUSH2 0x1A5 JUMPI DUP1 PUSH4 0x38A17370 EQ PUSH2 0x1B8 JUMPI DUP1 PUSH4 0x58F2EF17 EQ PUSH2 0x1CB JUMPI DUP1 PUSH4 0x8904B29B EQ PUSH2 0x1F8 JUMPI PUSH1 0x0 DUP1 REVERT JUMPDEST DUP1 PUSH4 0x1FFC9A7 EQ PUSH2 0x11B JUMPI DUP1 PUSH4 0x24CC726 EQ PUSH2 0x143 JUMPI DUP1 PUSH4 0x248A9CA3 EQ PUSH2 0x158 JUMPI DUP1 PUSH4 0x2F2FF15D EQ PUSH2 0x189 JUMPI JUMPDEST PUSH1 0x0 DUP1 REVERT JUMPDEST PUSH2 0x12E PUSH2 0x129 CALLDATASIZE PUSH1 0x4 PUSH2 0xB23 JUMP JUMPDEST PUSH2 0x320 JUMP JUMPDEST PUSH1 0x40 MLOAD SWAP1 ISZERO ISZERO DUP2 MSTORE PUSH1 0x20 ADD JUMPDEST PUSH1 0x40 MLOAD DUP1 SWAP2 SUB SWAP1 RETURN JUMPDEST PUSH2 0x156 PUSH2 0x151 CALLDATASIZE PUSH1 0x4 PUSH2 0xB69 JUMP JUMPDEST PUSH2 0x357 JUMP JUMPDEST STOP JUMPDEST PUSH2 0x17B PUSH2 0x166 CALLDATASIZE PUSH1 0x4 PUSH2 0xBAE JUMP JUMPDEST PUSH1 0x0 SWAP1 DUP2 MSTORE PUSH1 0x20 DUP2 SWAP1 MSTORE PUSH1 0x40 SWAP1 KECCAK256 PUSH1 0x1 ADD SLOAD SWAP1 JUMP JUMPDEST PUSH1 0x40 MLOAD SWAP1 DUP2 MSTORE PUSH1 0x20 ADD PUSH2 0x13A JUMP JUMPDEST PUSH2 0x156 PUSH2 0x197 CALLDATASIZE PUSH1 0x4 PUSH2 0xBC7 JUMP JUMPDEST PUSH2 0x4A1 JUMP JUMPDEST PUSH2 0x17B PUSH1 0x3 SLOAD DUP2 JUMP JUMPDEST PUSH2 0x156 PUSH2 0x1B3 CALLDATASIZE PUSH1 0x4 PUSH2 0xBC7 JUMP JUMPDEST PUSH2 0x4CB JUMP JUMPDEST PUSH2 0x156 PUSH2 0x1C6 CALLDATASIZE PUSH1 0x4 PUSH2 0xBAE JUMP JUMPDEST PUSH2 0x549 JUMP JUMPDEST PUSH2 0x17B PUSH2 0x1D9 CALLDATASIZE PUSH1 0x4 PUSH2 0xBF3 JUMP JUMPDEST PUSH1 0x1 PUSH1 0x1 PUSH1 0xA0 SHL SUB AND PUSH1 0x0 SWAP1 DUP2 MSTORE PUSH1 0x1 PUSH1 0x20 DUP2 SWAP1 MSTORE PUSH1 0x40 SWAP1 SWAP2 KECCAK256 ADD SLOAD SWAP1 JUMP JUMPDEST PUSH2 0x17B PUSH2 0x206 CALLDATASIZE PUSH1 0x4 PUSH2 0xBF3 JUMP JUMPDEST PUSH2 0x591 JUMP JUMPDEST PUSH2 0x17B PUSH1 0x2 SLOAD DUP2 JUMP JUMPDEST PUSH2 0x12E PUSH2 0x222 CALLDATASIZE PUSH1 0x4 PUSH2 0xBC7 JUMP JUMPDEST PUSH2 0x61B JUMP JUMPDEST PUSH2 0x25B PUSH2 0x235 CALLDATASIZE PUSH1 0x4 PUSH2 0xBF3 JUMP JUMPDEST PUSH1 0x1 PUSH1 0x20 DUP2 SWAP1 MSTORE PUSH1 0x0 SWAP2 DUP3 MSTORE PUSH1 0x40 SWAP1 SWAP2 KECCAK256 DUP1 SLOAD SWAP2 DUP2 ADD SLOAD PUSH1 0x2 SWAP1 SWAP2 ADD SLOAD PUSH1 0xFF SWAP1 SWAP3 AND SWAP2 DUP4 JUMP JUMPDEST PUSH1 0x40 DUP1 MLOAD PUSH1 0xFF SWAP1 SWAP5 AND DUP5 MSTORE PUSH1 0x20 DUP5 ADD SWAP3 SWAP1 SWAP3 MSTORE SWAP1 DUP3 ADD MSTORE PUSH1 0x60 ADD PUSH2 0x13A JUMP JUMPDEST PUSH2 0x17B PUSH1 0x0 DUP2 JUMP JUMPDEST PUSH2 0x156 PUSH2 0x290 CALLDATASIZE PUSH1 0x4 PUSH2 0xB69 JUMP JUMPDEST PUSH2 0x644 JUMP JUMPDEST PUSH2 0x156 PUSH2 0x2A3 CALLDATASIZE PUSH1 0x4 PUSH2 0xBAE JUMP JUMPDEST PUSH2 0x7BA JUMP JUMPDEST PUSH2 0x156 PUSH2 0x2B6 CALLDATASIZE PUSH1 0x4 PUSH2 0xBC7 JUMP JUMPDEST PUSH2 0x7FA JUMP JUMPDEST PUSH2 0x2E7 PUSH2 0x2C9 CALLDATASIZE PUSH1 0x4 PUSH2 0xBF3 JUMP JUMPDEST PUSH1 0x1 PUSH1 0x1 PUSH1 0xA0 SHL SUB AND PUSH1 0x0 SWAP1 DUP2 MSTORE PUSH1 0x1 PUSH1 0x20 MSTORE PUSH1 0x40 SWAP1 KECCAK256 SLOAD PUSH1 0xFF AND SWAP1 JUMP JUMPDEST PUSH1 0x40 MLOAD PUSH1 0xFF SWAP1 SWAP2 AND DUP2 MSTORE PUSH1 0x20 ADD PUSH2 0x13A JUMP JUMPDEST PUSH2 0x17B PUSH32 0xFC5E340A927DFB90E4EA870F83D58633458B79A78FD1A48271B299AC1D6DB447 DUP2 JUMP JUMPDEST PUSH1 0x0 PUSH1 0x1 PUSH1 0x1 PUSH1 0xE0 SHL SUB NOT DUP3 AND PUSH4 0x7965DB0B PUSH1 0xE0 SHL EQ DUP1 PUSH2 0x351 JUMPI POP PUSH4 0x1FFC9A7 PUSH1 0xE0 SHL PUSH1 0x1 PUSH1 0x1 PUSH1 0xE0 SHL SUB NOT DUP4 AND EQ JUMPDEST SWAP3 SWAP2 POP POP JUMP JUMPDEST PUSH32 0xFC5E340A927DFB90E4EA870F83D58633458B79A78FD1A48271B299AC1D6DB447 PUSH2 0x381 DUP2 PUSH2 0x81F JUMP JUMPDEST PUSH1 0x0 DUP4 PUSH1 0xFF AND GT DUP1 ISZERO PUSH2 0x398 JUMPI POP PUSH1 0x64 DUP4 PUSH1 0xFF AND GT ISZERO JUMPDEST PUSH2 0x3D9 JUMPI PUSH1 0x40 MLOAD PUSH3 0x461BCD PUSH1 0xE5 SHL DUP2 MSTORE PUSH1 0x20 PUSH1 0x4 DUP3 ADD MSTORE PUSH1 0xD PUSH1 0x24 DUP3 ADD MSTORE PUSH13 0x696E76616C69642073636F7265 PUSH1 0x98 SHL PUSH1 0x44 DUP3 ADD MSTORE PUSH1 0x64 ADD JUMPDEST PUSH1 0x40 MLOAD DUP1 SWAP2 SUB SWAP1 REVERT JUMPDEST PUSH1 0x1 PUSH1 0x1 PUSH1 0xA0 SHL SUB DUP5 AND PUSH1 0x0 SWAP1 DUP2 MSTORE PUSH1 0x1 PUSH1 0x20 MSTORE PUSH1 0x40 DUP2 KECCAK256 DUP1 SLOAD SWAP1 SWAP2 PUSH1 0xFF SWAP1 SWAP2 AND SWAP1 SUB PUSH2 0x43A JUMPI PUSH1 0x40 MLOAD PUSH3 0x461BCD PUSH1 0xE5 SHL DUP2 MSTORE PUSH1 0x20 PUSH1 0x4 DUP3 ADD MSTORE PUSH1 0xF PUSH1 0x24 DUP3 ADD MSTORE PUSH15 0x1B9BDD081A5B9A5D1A585B1A5E9959 PUSH1 0x8A SHL PUSH1 0x44 DUP3 ADD MSTORE PUSH1 0x64 ADD PUSH2 0x3D0 JUMP JUMPDEST DUP1 SLOAD PUSH1 0xFF NOT AND PUSH1 0xFF DUP6 AND SWAP1 DUP2 OR DUP3 SSTORE PUSH1 0x1 DUP3 ADD DUP5 SWAP1 SSTORE TIMESTAMP PUSH1 0x2 DUP4 ADD SSTORE PUSH1 0x40 DUP1 MLOAD SWAP2 DUP3 MSTORE PUSH1 0x20 DUP3 ADD DUP6 SWAP1 MSTORE PUSH1 0x1 PUSH1 0x1 PUSH1 0xA0 SHL SUB DUP8 AND SWAP2 PUSH32 0x18D4204980AB91F36D15CB52A910A72E3E50FB5F6DEB9CAB275B43D5AFB9AAB9 SWAP2 ADD PUSH1 0x40 MLOAD DUP1 SWAP2 SUB SWAP1 LOG2 POP POP POP POP POP JUMP JUMPDEST PUSH1 0x0 DUP3 DUP2 MSTORE PUSH1 0x20 DUP2 SWAP1 MSTORE PUSH1 0x40 SWAP1 KECCAK256 PUSH1 0x1 ADD SLOAD PUSH2 0x4BC DUP2 PUSH2 0x81F JUMP JUMPDEST PUSH2 0x4C6 DUP4 DUP4 PUSH2 0x82C JUMP JUMPDEST POP POP POP JUMP JUMPDEST PUSH1 0x1 PUSH1 0x1 PUSH1 0xA0 SHL SUB DUP2 AND CALLER EQ PUSH2 0x53B JUMPI PUSH1 0x40 MLOAD PUSH3 0x461BCD PUSH1 0xE5 SHL DUP2 MSTORE PUSH1 0x20 PUSH1 0x4 DUP3 ADD MSTORE PUSH1 0x2F PUSH1 0x24 DUP3 ADD MSTORE PUSH32 0x416363657373436F6E74726F6C3A2063616E206F6E6C792072656E6F756E6365 PUSH1 0x44 DUP3 ADD MSTORE PUSH15 0x103937B632B9903337B91039B2B633 PUSH1 0x89 SHL PUSH1 0x64 DUP3 ADD MSTORE PUSH1 0x84 ADD PUSH2 0x3D0 JUMP JUMPDEST PUSH2 0x545 DUP3 DUP3 PUSH2 0x8B0 JUMP JUMPDEST POP POP JUMP JUMPDEST PUSH1 0x0 PUSH2 0x554 DUP2 PUSH2 0x81F JUMP JUMPDEST PUSH1 0x3 DUP3 SWAP1 SSTORE PUSH1 0x40 MLOAD DUP3 DUP2 MSTORE PUSH32 0xF2FFAA40BDF5BC0B2D26FEFA4F8C6CEA03EAC0AA7E0BC0800424DBDBD3D21028 SWAP1 PUSH1 0x20 ADD JUMPDEST PUSH1 0x40 MLOAD DUP1 SWAP2 SUB SWAP1 LOG1 POP POP JUMP JUMPDEST PUSH1 0x1 PUSH1 0x1 PUSH1 0xA0 SHL SUB DUP2 AND PUSH1 0x0 SWAP1 DUP2 MSTORE PUSH1 0x1 PUSH1 0x20 DUP2 DUP2 MSTORE PUSH1 0x40 DUP1 DUP5 KECCAK256 DUP2 MLOAD PUSH1 0x60 DUP2 ADD DUP4 MSTORE DUP2 SLOAD PUSH1 0xFF AND DUP1 DUP3 MSTORE SWAP5 DUP3 ADD SLOAD SWAP4 DUP2 ADD SWAP4 SWAP1 SWAP4 MSTORE PUSH1 0x2 ADD SLOAD SWAP1 DUP3 ADD MSTORE SWAP1 DUP3 SUB PUSH2 0x5E0 JUMPI POP POP PUSH1 0x2 SLOAD SWAP2 SWAP1 POP JUMP JUMPDEST PUSH1 0x0 PUSH1 0x64 DUP3 PUSH1 0x0 ADD MLOAD PUSH1 0xFF AND PUSH1 0x3 SLOAD PUSH2 0x5F9 SWAP2 SWAP1 PUSH2 0xC24 JUMP JUMPDEST PUSH2 0x603 SWAP2 SWAP1 PUSH2 0xC3B JUMP JUMPDEST SWAP1 POP DUP1 PUSH1 0x2 SLOAD PUSH2 0x613 SWAP2 SWAP1 PUSH2 0xC5D JUMP JUMPDEST SWAP5 SWAP4 POP POP POP POP JUMP JUMPDEST PUSH1 0x0 SWAP2 DUP3 MSTORE PUSH1 0x20 DUP3 DUP2 MSTORE PUSH1 0x40 DUP1 DUP5 KECCAK256 PUSH1 0x1 PUSH1 0x1 PUSH1 0xA0 SHL SUB SWAP4 SWAP1 SWAP4 AND DUP5 MSTORE SWAP2 SWAP1 MSTORE SWAP1 KECCAK256 SLOAD PUSH1 0xFF AND SWAP1 JUMP JUMPDEST PUSH32 0xFC5E340A927DFB90E4EA870F83D58633458B79A78FD1A48271B299AC1D6DB447 PUSH2 0x66E DUP2 PUSH2 0x81F JUMP JUMPDEST PUSH1 0x0 DUP4 PUSH1 0xFF AND GT DUP1 ISZERO PUSH2 0x685 JUMPI POP PUSH1 0x64 DUP4 PUSH1 0xFF AND GT ISZERO JUMPDEST PUSH2 0x6C1 JUMPI PUSH1 0x40 MLOAD PUSH3 0x461BCD PUSH1 0xE5 SHL DUP2 MSTORE PUSH1 0x20 PUSH1 0x4 DUP3 ADD MSTORE PUSH1 0xD PUSH1 0x24 DUP3 ADD MSTORE PUSH13 0x696E76616C69642073636F7265 PUSH1 0x98 SHL PUSH1 0x44 DUP3 ADD MSTORE PUSH1 0x64 ADD PUSH2 0x3D0 JUMP JUMPDEST PUSH1 0x1 PUSH1 0x1 PUSH1 0xA0 SHL SUB DUP5 AND PUSH1 0x0 SWAP1 DUP2 MSTORE PUSH1 0x1 PUSH1 0x20 MSTORE PUSH1 0x40 SWAP1 KECCAK256 SLOAD PUSH1 0xFF AND ISZERO PUSH2 0x720 JUMPI PUSH1 0x40 MLOAD PUSH3 0x461BCD PUSH1 0xE5 SHL DUP2 MSTORE PUSH1 0x20 PUSH1 0x4 DUP3 ADD MSTORE PUSH1 0x13 PUSH1 0x24 DUP3 ADD MSTORE PUSH19 0x185B1C9958591E481A5B9A5D1A585B1A5E9959 PUSH1 0x6A SHL PUSH1 0x44 DUP3 ADD MSTORE PUSH1 0x64 ADD PUSH2 0x3D0 JUMP JUMPDEST PUSH1 0x40 DUP1 MLOAD PUSH1 0x60 DUP2 ADD DUP3 MSTORE PUSH1 0xFF DUP6 DUP2 AND DUP1 DUP4 MSTORE PUSH1 0x20 DUP1 DUP5 ADD DUP8 DUP2 MSTORE TIMESTAMP DUP6 DUP8 ADD SWAP1 DUP2 MSTORE PUSH1 0x1 PUSH1 0x1 PUSH1 0xA0 SHL SUB DUP12 AND PUSH1 0x0 DUP2 DUP2 MSTORE PUSH1 0x1 DUP1 DUP7 MSTORE SWAP1 DUP10 SWAP1 KECCAK256 SWAP8 MLOAD DUP9 SLOAD PUSH1 0xFF NOT AND SWAP8 AND SWAP7 SWAP1 SWAP7 OR DUP8 SSTORE SWAP2 MLOAD SWAP5 DUP7 ADD SWAP5 SWAP1 SWAP5 SSTORE SWAP3 MLOAD PUSH1 0x2 SWAP1 SWAP5 ADD SWAP4 SWAP1 SWAP4 SSTORE DUP4 MLOAD SWAP1 DUP2 MSTORE SWAP2 DUP3 ADD DUP6 SWAP1 MSTORE SWAP2 PUSH32 0xD42E04CB40B38A318FB690E23B3D4C17BC6CA8D0E866948391FBECAE41746261 SWAP2 ADD PUSH1 0x40 MLOAD DUP1 SWAP2 SUB SWAP1 LOG2 POP POP POP POP JUMP JUMPDEST PUSH1 0x0 PUSH2 0x7C5 DUP2 PUSH2 0x81F JUMP JUMPDEST PUSH1 0x2 DUP3 SWAP1 SSTORE PUSH1 0x40 MLOAD DUP3 DUP2 MSTORE PUSH32 0x6D03C7415B161A70A92558F9A9BFA64827F4F79BD7550DFFFA9F0A24E5A61DDC SWAP1 PUSH1 0x20 ADD PUSH2 0x585 JUMP JUMPDEST PUSH1 0x0 DUP3 DUP2 MSTORE PUSH1 0x20 DUP2 SWAP1 MSTORE PUSH1 0x40 SWAP1 KECCAK256 PUSH1 0x1 ADD SLOAD PUSH2 0x815 DUP2 PUSH2 0x81F JUMP JUMPDEST PUSH2 0x4C6 DUP4 DUP4 PUSH2 0x8B0 JUMP JUMPDEST PUSH2 0x829 DUP2 CALLER PUSH2 0x915 JUMP JUMPDEST POP JUMP JUMPDEST PUSH2 0x836 DUP3 DUP3 PUSH2 0x61B JUMP JUMPDEST PUSH2 0x545 JUMPI PUSH1 0x0 DUP3 DUP2 MSTORE PUSH1 0x20 DUP2 DUP2 MSTORE PUSH1 0x40 DUP1 DUP4 KECCAK256 PUSH1 0x1 PUSH1 0x1 PUSH1 0xA0 SHL SUB DUP6 AND DUP5 MSTORE SWAP1 SWAP2 MSTORE SWAP1 KECCAK256 DUP1 SLOAD PUSH1 0xFF NOT AND PUSH1 0x1 OR SWAP1 SSTORE PUSH2 0x86C CALLER SWAP1 JUMP JUMPDEST PUSH1 0x1 PUSH1 0x1 PUSH1 0xA0 SHL SUB AND DUP2 PUSH1 0x1 PUSH1 0x1 PUSH1 0xA0 SHL SUB AND DUP4 PUSH32 0x2F8788117E7EFF1D82E926EC794901D17C78024A50270940304540A733656F0D PUSH1 0x40 MLOAD PUSH1 0x40 MLOAD DUP1 SWAP2 SUB SWAP1 LOG4 POP POP JUMP JUMPDEST PUSH2 0x8BA DUP3 DUP3 PUSH2 0x61B JUMP JUMPDEST ISZERO PUSH2 0x545 JUMPI PUSH1 0x0 DUP3 DUP2 MSTORE PUSH1 0x20 DUP2 DUP2 MSTORE PUSH1 0x40 DUP1 DUP4 KECCAK256 PUSH1 0x1 PUSH1 0x1 PUSH1 0xA0 SHL SUB DUP6 AND DUP1 DUP6 MSTORE SWAP3 MSTORE DUP1 DUP4 KECCAK256 DUP1 SLOAD PUSH1 0xFF NOT AND SWAP1 SSTORE MLOAD CALLER SWAP3 DUP6 SWAP2 PUSH32 0xF6391F5C32D9C69D2A47EA670B442974B53935D1EDC7FD64EB21E047A839171B SWAP2 SWAP1 LOG4 POP POP JUMP JUMPDEST PUSH2 0x91F DUP3 DUP3 PUSH2 0x61B JUMP JUMPDEST PUSH2 0x545 JUMPI PUSH2 0x92C DUP2 PUSH2 0x96E JUMP JUMPDEST PUSH2 0x937 DUP4 PUSH1 0x20 PUSH2 0x980 JUMP JUMPDEST PUSH1 0x40 MLOAD PUSH1 0x20 ADD PUSH2 0x948 SWAP3 SWAP2 SWAP1 PUSH2 0xC94 JUMP JUMPDEST PUSH1 0x40 DUP1 MLOAD PUSH1 0x1F NOT DUP2 DUP5 SUB ADD DUP2 MSTORE SWAP1 DUP3 SWAP1 MSTORE PUSH3 0x461BCD PUSH1 0xE5 SHL DUP3 MSTORE PUSH2 0x3D0 SWAP2 PUSH1 0x4 ADD PUSH2 0xD09 JUMP JUMPDEST PUSH1 0x60 PUSH2 0x351 PUSH1 0x1 PUSH1 0x1 PUSH1 0xA0 SHL SUB DUP4 AND PUSH1 0x14 JUMPDEST PUSH1 0x60 PUSH1 0x0 PUSH2 0x98F DUP4 PUSH1 0x2 PUSH2 0xC24 JUMP JUMPDEST PUSH2 0x99A SWAP1 PUSH1 0x2 PUSH2 0xC5D JUMP JUMPDEST PUSH8 0xFFFFFFFFFFFFFFFF DUP2 GT ISZERO PUSH2 0x9B2 JUMPI PUSH2 0x9B2 PUSH2 0xD3C JUMP JUMPDEST PUSH1 0x40 MLOAD SWAP1 DUP1 DUP3 MSTORE DUP1 PUSH1 0x1F ADD PUSH1 0x1F NOT AND PUSH1 0x20 ADD DUP3 ADD PUSH1 0x40 MSTORE DUP1 ISZERO PUSH2 0x9DC JUMPI PUSH1 0x20 DUP3 ADD DUP2 DUP1 CALLDATASIZE DUP4 CALLDATACOPY ADD SWAP1 POP JUMPDEST POP SWAP1 POP PUSH1 0x3 PUSH1 0xFC SHL DUP2 PUSH1 0x0 DUP2 MLOAD DUP2 LT PUSH2 0x9F7 JUMPI PUSH2 0x9F7 PUSH2 0xD52 JUMP JUMPDEST PUSH1 0x20 ADD ADD SWAP1 PUSH1 0x1 PUSH1 0x1 PUSH1 0xF8 SHL SUB NOT AND SWAP1 DUP2 PUSH1 0x0 BYTE SWAP1 MSTORE8 POP PUSH1 0xF PUSH1 0xFB SHL DUP2 PUSH1 0x1 DUP2 MLOAD DUP2 LT PUSH2 0xA26 JUMPI PUSH2 0xA26 PUSH2 0xD52 JUMP JUMPDEST PUSH1 0x20 ADD ADD SWAP1 PUSH1 0x1 PUSH1 0x1 PUSH1 0xF8 SHL SUB NOT AND SWAP1 DUP2 PUSH1 0x0 BYTE SWAP1 MSTORE8 POP PUSH1 0x0 PUSH2 0xA4A DUP5 PUSH1 0x2 PUSH2 0xC24 JUMP JUMPDEST PUSH2 0xA55 SWAP1 PUSH1 0x1 PUSH2 0xC5D JUMP JUMPDEST SWAP1 POP JUMPDEST PUSH1 0x1 DUP2 GT ISZERO PUSH2 0xACD JUMPI PUSH16 0x181899199A1A9B1B9C1CB0B131B232B3 PUSH1 0x81 SHL DUP6 PUSH1 0xF AND PUSH1 0x10 DUP2 LT PUSH2 0xA89 JUMPI PUSH2 0xA89 PUSH2 0xD52 JUMP JUMPDEST BYTE PUSH1 0xF8 SHL DUP3 DUP3 DUP2 MLOAD DUP2 LT PUSH2 0xA9F JUMPI PUSH2 0xA9F PUSH2 0xD52 JUMP JUMPDEST PUSH1 0x20 ADD ADD SWAP1 PUSH1 0x1 PUSH1 0x1 PUSH1 0xF8 SHL SUB NOT AND SWAP1 DUP2 PUSH1 0x0 BYTE SWAP1 MSTORE8 POP PUSH1 0x4 SWAP5 SWAP1 SWAP5 SHR SWAP4 PUSH2 0xAC6 DUP2 PUSH2 0xD68 JUMP JUMPDEST SWAP1 POP PUSH2 0xA58 JUMP JUMPDEST POP DUP4 ISZERO PUSH2 0xB1C JUMPI PUSH1 0x40 MLOAD PUSH3 0x461BCD PUSH1 0xE5 SHL DUP2 MSTORE PUSH1 0x20 PUSH1 0x4 DUP3 ADD DUP2 SWAP1 MSTORE PUSH1 0x24 DUP3 ADD MSTORE PUSH32 0x537472696E67733A20686578206C656E67746820696E73756666696369656E74 PUSH1 0x44 DUP3 ADD MSTORE PUSH1 0x64 ADD PUSH2 0x3D0 JUMP JUMPDEST SWAP4 SWAP3 POP POP POP JUMP JUMPDEST PUSH1 0x0 PUSH1 0x20 DUP3 DUP5 SUB SLT ISZERO PUSH2 0xB35 JUMPI PUSH1 0x0 DUP1 REVERT JUMPDEST DUP2 CALLDATALOAD PUSH1 0x1 PUSH1 0x1 PUSH1 0xE0 SHL SUB NOT DUP2 AND DUP2 EQ PUSH2 0xB1C JUMPI PUSH1 0x0 DUP1 REVERT JUMPDEST DUP1 CALLDATALOAD PUSH1 0x1 PUSH1 0x1 PUSH1 0xA0 SHL SUB DUP2 AND DUP2 EQ PUSH2 0xB64 JUMPI PUSH1 0x0 DUP1 REVERT JUMPDEST SWAP2 SWAP1 POP JUMP JUMPDEST PUSH1 0x0 DUP1 PUSH1 0x0 PUSH1 0x60 DUP5 DUP7 SUB SLT ISZERO PUSH2 0xB7E JUMPI PUSH1 0x0 DUP1 REVERT JUMPDEST PUSH2 0xB87 DUP5 PUSH2 0xB4D JUMP JUMPDEST SWAP3 POP PUSH1 0x20 DUP5 ADD CALLDATALOAD PUSH1 0xFF DUP2 AND DUP2 EQ PUSH2 0xB9D JUMPI PUSH1 0x0 DUP1 REVERT JUMPDEST SWAP3 SWAP6 SWAP3 SWAP5 POP POP POP PUSH1 0x40 SWAP2 SWAP1 SWAP2 ADD CALLDATALOAD SWAP1 JUMP JUMPDEST PUSH1 0x0 PUSH1 0x20 DUP3 DUP5 SUB SLT ISZERO PUSH2 0xBC0 JUMPI PUSH1 0x0 DUP1 REVERT JUMPDEST POP CALLDATALOAD SWAP2 SWAP1 POP JUMP JUMPDEST PUSH1 0x0 DUP1 PUSH1 0x40 DUP4 DUP6 SUB SLT ISZERO PUSH2 0xBDA JUMPI PUSH1 0x0 DUP1 REVERT JUMPDEST DUP3 CALLDATALOAD SWAP2 POP PUSH2 0xBEA PUSH1 0x20 DUP5 ADD PUSH2 0xB4D JUMP JUMPDEST SWAP1 POP SWAP3 POP SWAP3 SWAP1 POP JUMP JUMPDEST PUSH1 0x0 PUSH1 0x20 DUP3 DUP5 SUB SLT ISZERO PUSH2 0xC05 JUMPI PUSH1 0x0 DUP1 REVERT JUMPDEST PUSH2 0xB1C DUP3 PUSH2 0xB4D JUMP JUMPDEST PUSH4 0x4E487B71 PUSH1 0xE0 SHL PUSH1 0x0 MSTORE PUSH1 0x11 PUSH1 0x4 MSTORE PUSH1 0x24 PUSH1 0x0 REVERT JUMPDEST DUP1 DUP3 MUL DUP2 ISZERO DUP3 DUP3 DIV DUP5 EQ OR PUSH2 0x351 JUMPI PUSH2 0x351 PUSH2 0xC0E JUMP JUMPDEST PUSH1 0x0 DUP3 PUSH2 0xC58 JUMPI PUSH4 0x4E487B71 PUSH1 0xE0 SHL PUSH1 0x0 MSTORE PUSH1 0x12 PUSH1 0x4 MSTORE PUSH1 0x24 PUSH1 0x0 REVERT JUMPDEST POP DIV SWAP1 JUMP JUMPDEST DUP1 DUP3 ADD DUP1 DUP3 GT ISZERO PUSH2 0x351 JUMPI PUSH2 0x351 PUSH2 0xC0E JUMP JUMPDEST PUSH1 0x0 JUMPDEST DUP4 DUP2 LT ISZERO PUSH2 0xC8B JUMPI DUP2 DUP2 ADD MLOAD DUP4 DUP3 ADD MSTORE PUSH1 0x20 ADD PUSH2 0xC73 JUMP JUMPDEST POP POP PUSH1 0x0 SWAP2 ADD MSTORE JUMP JUMPDEST PUSH32 0x416363657373436F6E74726F6C3A206163636F756E7420000000000000000000 DUP2 MSTORE PUSH1 0x0 DUP4 MLOAD PUSH2 0xCCC DUP2 PUSH1 0x17 DUP6 ADD PUSH1 0x20 DUP9 ADD PUSH2 0xC70 JUMP JUMPDEST PUSH17 0x1034B99036B4B9B9B4B733903937B6329 PUSH1 0x7D SHL PUSH1 0x17 SWAP2 DUP5 ADD SWAP2 DUP3 ADD MSTORE DUP4 MLOAD PUSH2 0xCFD DUP2 PUSH1 0x28 DUP5 ADD PUSH1 0x20 DUP9 ADD PUSH2 0xC70 JUMP JUMPDEST ADD PUSH1 0x28 ADD SWAP5 SWAP4 POP POP POP POP JUMP JUMPDEST PUSH1 0x20 DUP2 MSTORE PUSH1 0x0 DUP3 MLOAD DUP1 PUSH1 0x20 DUP5 ADD MSTORE PUSH2 0xD28 DUP2 PUSH1 0x40 DUP6 ADD PUSH1 0x20 DUP8 ADD PUSH2 0xC70 JUMP JUMPDEST PUSH1 0x1F ADD PUSH1 0x1F NOT AND SWAP2 SWAP1 SWAP2 ADD PUSH1 0x40 ADD SWAP3 SWAP2 POP POP JUMP JUMPDEST PUSH4 0x4E487B71 PUSH1 0xE0 SHL PUSH1 0x0 MSTORE PUSH1 0x41 PUSH1 0x4 MSTORE PUSH1 0x24 PUSH1 0x0 REVERT JUMPDEST PUSH4 0x4E487B71 PUSH1 0xE0 SHL PUSH1 0x0 MSTORE PUSH1 0x32 PUSH1 0x4 MSTORE PUSH1 0x24 PUSH1 0x0 REVERT JUMPDEST PUSH1 0x0 DUP2 PUSH2 0xD77 JUMPI PUSH2 0xD77 PUSH2 0xC0E JUMP JUMPDEST POP PUSH1 0x0 NOT ADD SWAP1 JUMP INVALID LOG2 PUSH5 0x6970667358 0x22 SLT KECCAK256 0xC3 DUP5 0xB1 MSIZE 0xAF PREVRANDAO 0xB7 BYTE LOG1 0xDA MLOAD 0xEF ADDMOD NOT PUSH23 0x4F21A1C7AA83EFD9D0756557C446DA06C864736F6C6343 STOP ADDMOD EQ STOP CALLER "},"methodIdentifiers":{"DEFAULT_ADMIN_ROLE()":"a217fddf","RISK_OFFICER_ROLE()":"fc193645","baseInterestBps()":"8ecc987e","getDailyLimit(address)":"58f2ef17","getInterestRateBps(address)":"8904b29b","getRiskScore(address)":"dc08706d","getRoleAdmin(bytes32)":"248a9ca3","grantRole(bytes32,address)":"2f2ff15d","hasRole(bytes32,address)":"91d14854","initRisk(address,uint8,uint256)":"a9bb7c1f","renounceRole(bytes32,address)":"36568abe","revokeRole(bytes32,address)":"d547741f","riskProfiles(address)":"9948b18d","riskSlopeBps()":"3355a6a1","setBaseInterestBps(uint256)":"ac8555ef","setRiskSlopeBps(uint256)":"38a17370","supportsInterface(bytes4)":"01ffc9a7","updateRisk(address,uint8,uint256)":"024cc726"}}}}}