{
  "_format": "hh-sol-artifact-1",
  "contractName": "IdentityRegistry",
  "sourceName": "contracts/IdentityRegistry.sol",
  "abi": [
    {
      "inputs": [],
      "stateMutability": "nonpayable",
      "type": "constructor"
    },
    {
      "anonymous": false,
      "inputs": [
        {
          "indexed": true,
          "internalType": "address",
          "name": "owner",
          "type": "address"
        },
        {
          "indexed": true,
          "internalType": "address",
          "name": "approved",
          "type": "address"
        },
        {
          "indexed": true,
          "internalType": "uint256",
          "name": "tokenId",
          "type": "uint256"
        }
      ],
      "name": "Approval",
      "type": "event"
    },
    {
      "anonymous": false,
      "inputs": [
        {
          "indexed": true,
          "internalType": "address",
          "name": "owner",
          "type": "address"
        },
        {
          "indexed": true,
          "internalType": "address",
          "name": "operator",
          "type": "address"
        },
        {
          "indexed": false,
          "internalType": "bool",
          "name": "approved",
          "type": "bool"
        }
      ],
      "name": "ApprovalForAll",
      "type": "event"
    },
    {
      "anonymous": false,
      "inputs": [
        {
          "indexed": true,
          "internalType": "address",
          "name": "user",
          "type": "address"
        },
        {
          "indexed": false,
          "internalType": "uint8",
          "name": "riskProfile",
          "type": "uint8"
        },
        {
          "indexed": false,
          "internalType": "string",
          "name": "countryCode",
          "type": "string"
        }
      ],
      "name": "KYCRegistered",
      "type": "event"
    },
    {
      "anonymous": false,
      "inputs": [
        {
          "indexed": true,
          "internalType": "address",
          "name": "user",
          "type": "address"
        },
        {
          "indexed": false,
          "internalType": "uint8",
          "name": "riskProfile",
          "type": "uint8"
        },
        {
          "indexed": false,
          "internalType": "string",
          "name": "countryCode",
          "type": "string"
        }
      ],
      "name": "KYCUpdated",
      "type": "event"
    },
    {
      "anonymous": false,
      "inputs": [
        {
          "indexed": true,
          "internalType": "bytes32",
          "name": "role",
          "type": "bytes32"
        },
        {
          "indexed": true,
          "internalType": "bytes32",
          "name": "previousAdminRole",
          "type": "bytes32"
        },
        {
          "indexed": true,
          "internalType": "bytes32",
          "name": "newAdminRole",
          "type": "bytes32"
        }
      ],
      "name": "RoleAdminChanged",
      "type": "event"
    },
    {
      "anonymous": false,
      "inputs": [
        {
          "indexed": true,
          "internalType": "bytes32",
          "name": "role",
          "type": "bytes32"
        },
        {
          "indexed": true,
          "internalType": "address",
          "name": "account",
          "type": "address"
        },
        {
          "indexed": true,
          "internalType": "address",
          "name": "sender",
          "type": "address"
        }
      ],
      "name": "RoleGranted",
      "type": "event"
    },
    {
      "anonymous": false,
      "inputs": [
        {
          "indexed": true,
          "internalType": "bytes32",
          "name": "role",
          "type": "bytes32"
        },
        {
          "indexed": true,
          "internalType": "address",
          "name": "account",
          "type": "address"
        },
        {
          "indexed": true,
          "internalType": "address",
          "name": "sender",
          "type": "address"
        }
      ],
      "name": "RoleRevoked",
      "type": "event"
    },
    {
      "anonymous": false,
      "inputs": [
        {
          "indexed": true,
          "internalType": "address",
          "name": "user",
          "type": "address"
        },
        {
          "indexed": false,
          "internalType": "uint256",
          "name": "tokenId",
          "type": "uint256"
        }
      ],
      "name": "SBTIssued",
      "type": "event"
    },
    {
      "anonymous": false,
      "inputs": [
        {
          "indexed": true,
          "internalType": "address",
          "name": "from",
          "type": "address"
        },
        {
          "indexed": true,
          "internalType": "address",
          "name": "to",
          "type": "address"
        },
        {
          "indexed": true,
          "internalType": "uint256",
          "name": "tokenId",
          "type": "uint256"
        }
      ],
      "name": "Transfer",
      "type": "event"
    },
    {
      "inputs": [],
      "name": "DEFAULT_ADMIN_ROLE",
      "outputs": [
        {
          "internalType": "bytes32",
          "name": "",
          "type": "bytes32"
        }
      ],
      "stateMutability": "view",
      "type": "function"
    },
    {
      "inputs": [],
      "name": "KYC_OFFICER_ROLE",
      "outputs": [
        {
          "internalType": "bytes32",
          "name": "",
          "type": "bytes32"
        }
      ],
      "stateMutability": "view",
      "type": "function"
    },
    {
      "inputs": [
        {
          "internalType": "address",
          "name": "to",
          "type": "address"
        },
        {
          "internalType": "uint256",
          "name": "tokenId",
          "type": "uint256"
        }
      ],
      "name": "approve",
      "outputs": [],
      "stateMutability": "nonpayable",
      "type": "function"
    },
    {
      "inputs": [
        {
          "internalType": "address",
          "name": "owner",
          "type": "address"
        }
      ],
      "name": "balanceOf",
      "outputs": [
        {
          "internalType": "uint256",
          "name": "",
          "type": "uint256"
        }
      ],
      "stateMutability": "view",
      "type": "function"
    },
    {
      "inputs": [
        {
          "internalType": "uint256",
          "name": "tokenId",
          "type": "uint256"
        }
      ],
      "name": "getApproved",
      "outputs": [
        {
          "internalType": "address",
          "name": "",
          "type": "address"
        }
      ],
      "stateMutability": "view",
      "type": "function"
    },
    {
      "inputs": [
        {
          "internalType": "bytes32",
          "name": "role",
          "type": "bytes32"
        }
      ],
      "name": "getRoleAdmin",
      "outputs": [
        {
          "internalType": "bytes32",
          "name": "",
          "type": "bytes32"
        }
      ],
      "stateMutability": "view",
      "type": "function"
    },
    {
      "inputs": [
        {
          "internalType": "bytes32",
          "name": "role",
          "type": "bytes32"
        },
        {
          "internalType": "address",
          "name": "account",
          "type": "address"
        }
      ],
      "name": "grantRole",
      "outputs": [],
      "stateMutability": "nonpayable",
      "type": "function"
    },
    {
      "inputs": [
        {
          "internalType": "bytes32",
          "name": "role",
          "type": "bytes32"
        },
        {
          "internalType": "address",
          "name": "account",
          "type": "address"
        }
      ],
      "name": "hasRole",
      "outputs": [
        {
          "internalType": "bool",
          "name": "",
          "type": "bool"
        }
      ],
      "stateMutability": "view",
      "type": "function"
    },
    {
      "inputs": [
        {
          "internalType": "address",
          "name": "user",
          "type": "address"
        }
      ],
      "name": "hasValidSBT",
      "outputs": [
        {
          "internalType": "bool",
          "name": "",
          "type": "bool"
        }
      ],
      "stateMutability": "view",
      "type": "function"
    },
    {
      "inputs": [
        {
          "internalType": "address",
          "name": "owner",
          "type": "address"
        },
        {
          "internalType": "address",
          "name": "operator",
          "type": "address"
        }
      ],
      "name": "isApprovedForAll",
      "outputs": [
        {
          "internalType": "bool",
          "name": "",
          "type": "bool"
        }
      ],
      "stateMutability": "view",
      "type": "function"
    },
    {
      "inputs": [
        {
          "internalType": "address",
          "name": "",
          "type": "address"
        }
      ],
      "name": "kycRecords",
      "outputs": [
        {
          "internalType": "bool",
          "name": "isKYCCompleted",
          "type": "bool"
        },
        {
          "internalType": "uint8",
          "name": "riskProfile",
          "type": "uint8"
        },
        {
          "internalType": "string",
          "name": "countryCode",
          "type": "string"
        },
        {
          "internalType": "uint256",
          "name": "createdAt",
          "type": "uint256"
        },
        {
          "internalType": "uint256",
          "name": "updatedAt",
          "type": "uint256"
        }
      ],
      "stateMutability": "view",
      "type": "function"
    },
    {
      "inputs": [],
      "name": "name",
      "outputs": [
        {
          "internalType": "string",
          "name": "",
          "type": "string"
        }
      ],
      "stateMutability": "view",
      "type": "function"
    },
    {
      "inputs": [],
      "name": "nextTokenId",
      "outputs": [
        {
          "internalType": "uint256",
          "name": "",
          "type": "uint256"
        }
      ],
      "stateMutability": "view",
      "type": "function"
    },
    {
      "inputs": [
        {
          "internalType": "uint256",
          "name": "tokenId",
          "type": "uint256"
        }
      ],
      "name": "ownerOf",
      "outputs": [
        {
          "internalType": "address",
          "name": "",
          "type": "address"
        }
      ],
      "stateMutability": "view",
      "type": "function"
    },
    {
      "inputs": [
        {
          "internalType": "address",
          "name": "user",
          "type": "address"
        },
        {
          "internalType": "uint8",
          "name": "riskProfile",
          "type": "uint8"
        },
        {
          "internalType": "string",
          "name": "countryCode",
          "type": "string"
        }
      ],
      "name": "registerKYC",
      "outputs": [],
      "stateMutability": "nonpayable",
      "type": "function"
    },
    {
      "inputs": [
        {
          "internalType": "bytes32",
          "name": "role",
          "type": "bytes32"
        },
        {
          "internalType": "address",
          "name": "account",
          "type": "address"
        }
      ],
      "name": "renounceRole",
      "outputs": [],
      "stateMutability": "nonpayable",
      "type": "function"
    },
    {
      "inputs": [
        {
          "internalType": "bytes32",
          "name": "role",
          "type": "bytes32"
        },
        {
          "internalType": "address",
          "name": "account",
          "type": "address"
        }
      ],
      "name": "revokeRole",
      "outputs": [],
      "stateMutability": "nonpayable",
      "type": "function"
    },
    {
      "inputs": [
        {
          "internalType": "address",
          "name": "from",
          "type": "address"
        },
        {
          "internalType": "address",
          "name": "to",
          "type": "address"
        },
        {
          "internalType": "uint256",
          "name": "tokenId",
          "type": "uint256"
        }
      ],
      "name": "safeTransferFrom",
      "outputs": [],
      "stateMutability": "nonpayable",
      "type": "function"
    },
    {
      "inputs": [
        {
          "internalType": "address",
          "name": "from",
          "type": "address"
        },
        {
          "internalType": "address",
          "name": "to",
          "type": "address"
        },
        {
          "internalType": "uint256",
          "name": "tokenId",
          "type": "uint256"
        },
        {
          "internalType": "bytes",
          "name": "data",
          "type": "bytes"
        }
      ],
      "name": "safeTransferFrom",
      "outputs": [],
      "stateMutability": "nonpayable",
      "type": "function"
    },
    {
      "inputs": [
        {
          "internalType": "address",
          "name": "",
          "type": "address"
        }
      ],
      "name": "sbtIdOf",
      "outputs": [
        {
          "internalType": "uint256",
          "name": "",
          "type": "uint256"
        }
      ],
      "stateMutability": "view",
      "type": "function"
    },
    {
      "inputs": [
        {
          "internalType": "address",
          "name": "operator",
          "type": "address"
        },
        {
          "internalType": "bool",
          "name": "approved",
          "type": "bool"
        }
      ],
      "name": "setApprovalForAll",
      "outputs": [],
      "stateMutability": "nonpayable",
      "type": "function"
    },
    {
      "inputs": [
        {
          "internalType": "bytes4",
          "name": "interfaceId",
          "type": "bytes4"
        }
      ],
      "name": "supportsInterface",
      "outputs": [
        {
          "internalType": "bool",
          "name": "",
          "type": "bool"
        }
      ],
      "stateMutability": "view",
      "type": "function"
    },
    {
      "inputs": [],
      "name": "symbol",
      "outputs": [
        {
          "internalType": "string",
          "name": "",
          "type": "string"
        }
      ],
      "stateMutability": "view",
      "type": "function"
    },
    {
      "inputs": [
        {
          "internalType": "uint256",
          "name": "tokenId",
          "type": "uint256"
        }
      ],
      "name": "tokenURI",
      "outputs": [
        {
          "internalType": "string",
          "name": "",
          "type": "string"
        }
      ],
      "stateMutability": "view",
      "type": "function"
    },
    {
      "inputs": [
        {
          "internalType": "address",
          "name": "from",
          "type": "address"
        },
        {
          "internalType": "address",
          "name": "to",
          "type": "address"
        },
        {
          "internalType": "uint256",
          "name": "tokenId",
          "type": "uint256"
        }
      ],
      "name": "transferFrom",
      "outputs": [],
      "stateMutability": "nonpayable",
      "type": "function"
    },
    {
      "inputs": [
        {
          "internalType": "address",
          "name": "user",
          "type": "address"
        },
        {
          "internalType": "uint8",
          "name": "riskProfile",
          "type": "uint8"
        },
        {
          "internalType": "string",
          "name": "countryCode",
          "type": "string"
        }
      ],
      "name": "updateKYC",
      "outputs": [],
      "stateMutability": "nonpayable",
      "type": "function"
    }
  ],
  "bytecode": "0x608060405260016009553480156200001657600080fd5b506040518060400160405280600d81526020016c53616665486172626f724b594360981b81525060405180604001604052806008815260200167534849422d4b594360c01b81525081600090816200006f9190620001e0565b5060016200007e8282620001e0565b50620000909150600090503362000096565b620002ac565b60008281526006602090815260408083206001600160a01b038516845290915290205460ff16620001375760008281526006602090815260408083206001600160a01b03851684529091529020805460ff19166001179055620000f63390565b6001600160a01b0316816001600160a01b0316837f2f8788117e7eff1d82e926ec794901d17c78024a50270940304540a733656f0d60405160405180910390a45b5050565b634e487b7160e01b600052604160045260246000fd5b600181811c908216806200016657607f821691505b6020821081036200018757634e487b7160e01b600052602260045260246000fd5b50919050565b601f821115620001db57600081815260208120601f850160051c81016020861015620001b65750805b601f850160051c820191505b81811015620001d757828155600101620001c2565b5050505b505050565b81516001600160401b03811115620001fc57620001fc6200013b565b62000214816200020d845462000151565b846200018d565b602080601f8311600181146200024c5760008415620002335750858301515b600019600386901b1c1916600185901b178555620001d7565b600085815260208120601f198616915b828110156200027d578886015182559484019460019091019084016200025c565b50858210156200029c5787850151600019600388901b60f8161c191681555b5050505050600190811b01905550565b6121e780620002bc6000396000f3fe608060405234801561001057600080fd5b506004361061018e5760003560e01c806370a08231116100de578063a22cb46511610097578063d547741f11610071578063d547741f14610382578063e454ab3e14610395578063e61fc7ce146103a8578063e985e9c5146103cf57600080fd5b8063a22cb46514610349578063b88d4fde1461035c578063c87b56dd1461036f57600080fd5b806370a08231146102e657806375794a3c146102f95780637eb606e81461030257806391d148541461032657806395d89b4114610339578063a217fddf1461034157600080fd5b80632f2ff15d1161014b57806342842e0e1161012557806342842e0e1461029a57806345858ef9146102ad578063607a23f3146102c05780636352211e146102d357600080fd5b80632f2ff15d14610254578063357f43a91461026757806336568abe1461028757600080fd5b806301ffc9a71461019357806306fdde03146101bb578063081812fc146101d0578063095ea7b3146101fb57806323b872dd14610210578063248a9ca314610223575b600080fd5b6101a66101a136600461197f565b61040b565b60405190151581526020015b60405180910390f35b6101c361041c565b6040516101b291906119ec565b6101e36101de3660046119ff565b6104ae565b6040516001600160a01b0390911681526020016101b2565b61020e610209366004611a34565b6104d5565b005b61020e61021e366004611a5e565b6105ef565b6102466102313660046119ff565b60009081526006602052604090206001015490565b6040519081526020016101b2565b61020e610262366004611a9a565b610620565b610246610275366004611ac6565b60086020526000908152604090205481565b61020e610295366004611a9a565b610645565b61020e6102a8366004611a5e565b6106c3565b61020e6102bb366004611ae1565b6106de565b6101a66102ce366004611ac6565b6107f7565b6101e36102e13660046119ff565b61083f565b6102466102f4366004611ac6565b61089f565b61024660095481565b610315610310366004611ac6565b610925565b6040516101b2959493929190611b77565b6101a6610334366004611a9a565b6109e3565b6101c3610a0e565b610246600081565b61020e610357366004611baf565b610a1d565b61020e61036a366004611c01565b610a28565b6101c361037d3660046119ff565b610a60565b61020e610390366004611a9a565b610ad4565b61020e6103a3366004611ae1565b610af9565b6102467f7f7f429094c37ff5c03b15f8faecf765516b1b4447846a09d1108959da23663b81565b6101a66103dd366004611cdd565b6001600160a01b03918216600090815260056020908152604080832093909416825291909152205460ff1690565b600061041682610d53565b92915050565b60606000805461042b90611d07565b80601f016020809104026020016040519081016040528092919081815260200182805461045790611d07565b80156104a45780601f10610479576101008083540402835291602001916104a4565b820191906000526020600020905b81548152906001019060200180831161048757829003601f168201915b5050505050905090565b60006104b982610d78565b506000908152600460205260409020546001600160a01b031690565b60006104e08261083f565b9050806001600160a01b0316836001600160a01b0316036105525760405162461bcd60e51b815260206004820152602160248201527f4552433732313a20617070726f76616c20746f2063757272656e74206f776e656044820152603960f91b60648201526084015b60405180910390fd5b336001600160a01b038216148061056e575061056e81336103dd565b6105e05760405162461bcd60e51b815260206004820152603d60248201527f4552433732313a20617070726f76652063616c6c6572206973206e6f7420746f60448201527f6b656e206f776e6572206f7220617070726f76656420666f7220616c6c0000006064820152608401610549565b6105ea8383610dda565b505050565b6105f93382610e48565b6106155760405162461bcd60e51b815260040161054990611d41565b6105ea838383610ec7565b60008281526006602052604090206001015461063b81611038565b6105ea8383611042565b6001600160a01b03811633146106b55760405162461bcd60e51b815260206004820152602f60248201527f416363657373436f6e74726f6c3a2063616e206f6e6c792072656e6f756e636560448201526e103937b632b9903337b91039b2b63360891b6064820152608401610549565b6106bf82826110c8565b5050565b6105ea83838360405180602001604052806000815250610a28565b7f7f7f429094c37ff5c03b15f8faecf765516b1b4447846a09d1108959da23663b61070881611038565b6001600160a01b03851660009081526007602052604090205460ff1661075c5760405162461bcd60e51b81526020600482015260096024820152681b9bdd0812d650d95960ba1b6044820152606401610549565b6001600160a01b0385166000908152600760205260409020805461ff00191661010060ff871602178155600101610794838583611ddc565b506001600160a01b0385166000818152600760205260409081902042600390910155517fb722a54a306c460010aa67dbae8e708c60c89053310886b2f6e6f8b23c1d4a87906107e890879087908790611e9d565b60405180910390a25050505050565b6001600160a01b03811660009081526007602052604081205460ff1661081f57506000919050565b6108288261089f565b60000361083757506000919050565b506001919050565b6000818152600260205260408120546001600160a01b0316806104165760405162461bcd60e51b8152602060048201526018602482015277115490cdcc8c4e881a5b9d985b1a59081d1bdad95b88125160421b6044820152606401610549565b60006001600160a01b0382166109095760405162461bcd60e51b815260206004820152602960248201527f4552433732313a2061646472657373207a65726f206973206e6f7420612076616044820152683634b21037bbb732b960b91b6064820152608401610549565b506001600160a01b031660009081526003602052604090205490565b6007602052600090815260409020805460018201805460ff808416946101009094041692919061095490611d07565b80601f016020809104026020016040519081016040528092919081815260200182805461098090611d07565b80156109cd5780601f106109a2576101008083540402835291602001916109cd565b820191906000526020600020905b8154815290600101906020018083116109b057829003601f168201915b5050505050908060020154908060030154905085565b60009182526006602090815260408084206001600160a01b0393909316845291905290205460ff1690565b60606001805461042b90611d07565b6106bf33838361112f565b610a323383610e48565b610a4e5760405162461bcd60e51b815260040161054990611d41565b610a5a848484846111fd565b50505050565b6060610a6b82610d78565b6000610a8260408051602081019091526000815290565b90506000815111610aa25760405180602001604052806000815250610acd565b80610aac84611230565b604051602001610abd929190611ed6565b6040516020818303038152906040525b9392505050565b600082815260066020526040902060010154610aef81611038565b6105ea83836110c8565b7f7f7f429094c37ff5c03b15f8faecf765516b1b4447846a09d1108959da23663b610b2381611038565b6001600160a01b038516610b685760405162461bcd60e51b815260206004820152600c60248201526b34b73b30b634b2103ab9b2b960a11b6044820152606401610549565b6001600160a01b03851660009081526007602052604090205460ff1615610bc15760405162461bcd60e51b815260206004820152600d60248201526c185b1c9958591e4812d650d959609a1b6044820152606401610549565b6040518060a001604052806001151581526020018560ff16815260200184848080601f016020809104026020016040519081016040528093929190818152602001838380828437600092018290525093855250504260208085018290526040948501919091526001600160a01b038a1683526007815291839020845181549386015161ffff1990941690151561ff0019161761010060ff9094169390930292909217825550908201516001820190610c799082611f05565b50606082015160028201556080909101516003909101556009805460009182610ca183611fdb565b919050559050610cb186826112c3565b6001600160a01b03861660008181526008602052604090819020839055517f301eee4eb38f51dc599207e0a1ed6754616da4acc3497c9686831b622c06c1f490610d0090889088908890611e9d565b60405180910390a2856001600160a01b03167f92945a7e7c8c77a6044bd491509e86f4a71250bcd6dd340b13623929a30bb6ee82604051610d4391815260200190565b60405180910390a2505050505050565b60006001600160e01b03198216637965db0b60e01b14806104165750610416826112dd565b6000818152600260205260409020546001600160a01b0316610dd75760405162461bcd60e51b8152602060048201526018602482015277115490cdcc8c4e881a5b9d985b1a59081d1bdad95b88125160421b6044820152606401610549565b50565b600081815260046020526040902080546001600160a01b0319166001600160a01b0384169081179091558190610e0f8261083f565b6001600160a01b03167f8c5be1e5ebec7d5bd14f71427d1e84f3dd0314c0f7b2291e5b200ac8c7c3b92560405160405180910390a45050565b600080610e548361083f565b9050806001600160a01b0316846001600160a01b03161480610e9b57506001600160a01b0380821660009081526005602090815260408083209388168352929052205460ff165b80610ebf5750836001600160a01b0316610eb4846104ae565b6001600160a01b0316145b949350505050565b826001600160a01b0316610eda8261083f565b6001600160a01b031614610f005760405162461bcd60e51b815260040161054990611ff4565b6001600160a01b038216610f625760405162461bcd60e51b8152602060048201526024808201527f4552433732313a207472616e7366657220746f20746865207a65726f206164646044820152637265737360e01b6064820152608401610549565b610f6f838383600161132d565b826001600160a01b0316610f828261083f565b6001600160a01b031614610fa85760405162461bcd60e51b815260040161054990611ff4565b600081815260046020908152604080832080546001600160a01b03199081169091556001600160a01b0387811680865260038552838620805460001901905590871680865283862080546001019055868652600290945282852080549092168417909155905184937fddf252ad1be2c89b69c2b068fc378daa952ba7f163c4a11628f55a4df523b3ef91a4505050565b610dd781336113bd565b61104c82826109e3565b6106bf5760008281526006602090815260408083206001600160a01b03851684529091529020805460ff191660011790556110843390565b6001600160a01b0316816001600160a01b0316837f2f8788117e7eff1d82e926ec794901d17c78024a50270940304540a733656f0d60405160405180910390a45050565b6110d282826109e3565b156106bf5760008281526006602090815260408083206001600160a01b0385168085529252808320805460ff1916905551339285917ff6391f5c32d9c69d2a47ea670b442974b53935d1edc7fd64eb21e047a839171b9190a45050565b816001600160a01b0316836001600160a01b0316036111905760405162461bcd60e51b815260206004820152601960248201527f4552433732313a20617070726f766520746f2063616c6c6572000000000000006044820152606401610549565b6001600160a01b03838116600081815260056020908152604080832094871680845294825291829020805460ff191686151590811790915591519182527f17307eab39ab6107e8899845ad3d59bd9653f200f220920489ca2b5937696c31910160405180910390a3505050565b611208848484610ec7565b61121484848484611416565b610a5a5760405162461bcd60e51b815260040161054990612039565b6060600061123d83611517565b600101905060008167ffffffffffffffff81111561125d5761125d611beb565b6040519080825280601f01601f191660200182016040528015611287576020820181803683370190505b5090508181016020015b600019016f181899199a1a9b1b9c1cb0b131b232b360811b600a86061a8153600a850494508461129157509392505050565b6106bf8282604051806020016040528060008152506115ef565b60006001600160e01b031982166380ac58cd60e01b148061130e57506001600160e01b03198216635b5e139f60e01b145b8061041657506301ffc9a760e01b6001600160e01b0319831614610416565b6001600160a01b0384161580159061134d57506001600160a01b03831615155b801561136b5750826001600160a01b0316846001600160a01b031614155b156113b85760405162461bcd60e51b815260206004820152601760248201527f534254206973206e6f6e2d7472616e7366657261626c650000000000000000006044820152606401610549565b610a5a565b6113c782826109e3565b6106bf576113d481611622565b6113df836020611634565b6040516020016113f092919061208b565b60408051601f198184030181529082905262461bcd60e51b8252610549916004016119ec565b60006001600160a01b0384163b1561150c57604051630a85bd0160e11b81526001600160a01b0385169063150b7a029061145a903390899088908890600401612100565b6020604051808303816000875af1925050508015611495575060408051601f3d908101601f191682019092526114929181019061213d565b60015b6114f2573d8080156114c3576040519150601f19603f3d011682016040523d82523d6000602084013e6114c8565b606091505b5080516000036114ea5760405162461bcd60e51b815260040161054990612039565b805181602001fd5b6001600160e01b031916630a85bd0160e11b149050610ebf565b506001949350505050565b60008072184f03e93ff9f4daa797ed6e38ed64bf6a1f0160401b83106115565772184f03e93ff9f4daa797ed6e38ed64bf6a1f0160401b830492506040015b6d04ee2d6d415b85acef81000000008310611582576d04ee2d6d415b85acef8100000000830492506020015b662386f26fc1000083106115a057662386f26fc10000830492506010015b6305f5e10083106115b8576305f5e100830492506008015b61271083106115cc57612710830492506004015b606483106115de576064830492506002015b600a83106104165760010192915050565b6115f983836117d0565b6116066000848484611416565b6105ea5760405162461bcd60e51b815260040161054990612039565b60606104166001600160a01b03831660145b6060600061164383600261215a565b61164e906002612171565b67ffffffffffffffff81111561166657611666611beb565b6040519080825280601f01601f191660200182016040528015611690576020820181803683370190505b509050600360fc1b816000815181106116ab576116ab612184565b60200101906001600160f81b031916908160001a905350600f60fb1b816001815181106116da576116da612184565b60200101906001600160f81b031916908160001a90535060006116fe84600261215a565b611709906001612171565b90505b6001811115611781576f181899199a1a9b1b9c1cb0b131b232b360811b85600f166010811061173d5761173d612184565b1a60f81b82828151811061175357611753612184565b60200101906001600160f81b031916908160001a90535060049490941c9361177a8161219a565b905061170c565b508315610acd5760405162461bcd60e51b815260206004820181905260248201527f537472696e67733a20686578206c656e67746820696e73756666696369656e746044820152606401610549565b6001600160a01b0382166118265760405162461bcd60e51b815260206004820181905260248201527f4552433732313a206d696e7420746f20746865207a65726f20616464726573736044820152606401610549565b6000818152600260205260409020546001600160a01b03161561188b5760405162461bcd60e51b815260206004820152601c60248201527f4552433732313a20746f6b656e20616c7265616479206d696e746564000000006044820152606401610549565b61189960008383600161132d565b6000818152600260205260409020546001600160a01b0316156118fe5760405162461bcd60e51b815260206004820152601c60248201527f4552433732313a20746f6b656e20616c7265616479206d696e746564000000006044820152606401610549565b6001600160a01b038216600081815260036020908152604080832080546001019055848352600290915280822080546001600160a01b0319168417905551839291907fddf252ad1be2c89b69c2b068fc378daa952ba7f163c4a11628f55a4df523b3ef908290a45050565b6001600160e01b031981168114610dd757600080fd5b60006020828403121561199157600080fd5b8135610acd81611969565b60005b838110156119b757818101518382015260200161199f565b50506000910152565b600081518084526119d881602086016020860161199c565b601f01601f19169290920160200192915050565b602081526000610acd60208301846119c0565b600060208284031215611a1157600080fd5b5035919050565b80356001600160a01b0381168114611a2f57600080fd5b919050565b60008060408385031215611a4757600080fd5b611a5083611a18565b946020939093013593505050565b600080600060608486031215611a7357600080fd5b611a7c84611a18565b9250611a8a60208501611a18565b9150604084013590509250925092565b60008060408385031215611aad57600080fd5b82359150611abd60208401611a18565b90509250929050565b600060208284031215611ad857600080fd5b610acd82611a18565b60008060008060608587031215611af757600080fd5b611b0085611a18565b9350602085013560ff81168114611b1657600080fd5b9250604085013567ffffffffffffffff80821115611b3357600080fd5b818701915087601f830112611b4757600080fd5b813581811115611b5657600080fd5b886020828501011115611b6857600080fd5b95989497505060200194505050565b851515815260ff8516602082015260a060408201526000611b9b60a08301866119c0565b606083019490945250608001529392505050565b60008060408385031215611bc257600080fd5b611bcb83611a18565b915060208301358015158114611be057600080fd5b809150509250929050565b634e487b7160e01b600052604160045260246000fd5b60008060008060808587031215611c1757600080fd5b611c2085611a18565b9350611c2e60208601611a18565b925060408501359150606085013567ffffffffffffffff80821115611c5257600080fd5b818701915087601f830112611c6657600080fd5b813581811115611c7857611c78611beb565b604051601f8201601f19908116603f01168101908382118183101715611ca057611ca0611beb565b816040528281528a6020848701011115611cb957600080fd5b82602086016020830137600060208483010152809550505050505092959194509250565b60008060408385031215611cf057600080fd5b611cf983611a18565b9150611abd60208401611a18565b600181811c90821680611d1b57607f821691505b602082108103611d3b57634e487b7160e01b600052602260045260246000fd5b50919050565b6020808252602d908201527f4552433732313a2063616c6c6572206973206e6f7420746f6b656e206f776e6560408201526c1c881bdc88185c1c1c9bdd9959609a1b606082015260800190565b601f8211156105ea57600081815260208120601f850160051c81016020861015611db55750805b601f850160051c820191505b81811015611dd457828155600101611dc1565b505050505050565b67ffffffffffffffff831115611df457611df4611beb565b611e0883611e028354611d07565b83611d8e565b6000601f841160018114611e3c5760008515611e245750838201355b600019600387901b1c1916600186901b178355611e96565b600083815260209020601f19861690835b82811015611e6d5786850135825560209485019460019092019101611e4d565b5086821015611e8a5760001960f88860031b161c19848701351681555b505060018560011b0183555b5050505050565b60ff8416815260406020820152816040820152818360608301376000818301606090810191909152601f909201601f1916010192915050565b60008351611ee881846020880161199c565b835190830190611efc81836020880161199c565b01949350505050565b815167ffffffffffffffff811115611f1f57611f1f611beb565b611f3381611f2d8454611d07565b84611d8e565b602080601f831160018114611f685760008415611f505750858301515b600019600386901b1c1916600185901b178555611dd4565b600085815260208120601f198616915b82811015611f9757888601518255948401946001909101908401611f78565b5085821015611fb55787850151600019600388901b60f8161c191681555b5050505050600190811b01905550565b634e487b7160e01b600052601160045260246000fd5b600060018201611fed57611fed611fc5565b5060010190565b60208082526025908201527f4552433732313a207472616e736665722066726f6d20696e636f72726563742060408201526437bbb732b960d91b606082015260800190565b60208082526032908201527f4552433732313a207472616e7366657220746f206e6f6e20455243373231526560408201527131b2b4bb32b91034b6b83632b6b2b73a32b960711b606082015260800190565b7f416363657373436f6e74726f6c3a206163636f756e74200000000000000000008152600083516120c381601785016020880161199c565b7001034b99036b4b9b9b4b733903937b6329607d1b60179184019182015283516120f481602884016020880161199c565b01602801949350505050565b6001600160a01b0385811682528416602082015260408101839052608060608201819052600090612133908301846119c0565b9695505050505050565b60006020828403121561214f57600080fd5b8151610acd81611969565b808202811582820484141761041657610416611fc5565b8082018082111561041657610416611fc5565b634e487b7160e01b600052603260045260246000fd5b6000816121a9576121a9611fc5565b50600019019056fea26469706673582212206b894de174c5036e48fc4a01f06da1548f2de250774ce99d6b6ba36fef9ef36464736f6c63430008140033",
  "linkReferences": {},
  "deployedLinkReferences": {}
}