{
  "_format": "hh-sol-artifact-1",
  "contractName": "ComplianceLog",
  "sourceName": "contracts/ComplianceLog.sol",
  "abi": [
    {
      "anonymous": false,
      "inputs": [
        {
          "indexed": true,
          "internalType": "address",
          "name": "user",
          "type": "address"
        },
        {
          "indexed": false,
          "internalType": "string",
          "name": "alertType",
          "type": "string"
        },
        {
          "indexed": false,
          "internalType": "string",
          "name": "details",
          "type": "string"
        }
      ],
      "name": "AMLAlert",
      "type": "event"
    },
    {
      "anonymous": false,
      "inputs": [
        {
          "indexed": true,
          "internalType": "address",
          "name": "user",
          "type": "address"
        },
        {
          "indexed": false,
          "internalType": "uint256",
          "name": "until",
          "type": "uint256"
        },
        {
          "indexed": false,
          "internalType": "string",
          "name": "reason",
          "type": "string"
        }
      ],
      "name": "AccountLocked",
      "type": "event"
    },
    {
      "anonymous": false,
      "inputs": [
        {
          "indexed": true,
          "internalType": "address",
          "name": "user",
          "type": "address"
        }
      ],
      "name": "AccountUnlocked",
      "type": "event"
    },
    {
      "anonymous": false,
      "inputs": [
        {
          "indexed": true,
          "internalType": "address",
          "name": "auditor",
          "type": "address"
        }
      ],
      "name": "AuditorAdded",
      "type": "event"
    },
    {
      "anonymous": false,
      "inputs": [
        {
          "indexed": true,
          "internalType": "address",
          "name": "auditor",
          "type": "address"
        }
      ],
      "name": "AuditorRemoved",
      "type": "event"
    },
    {
      "anonymous": false,
      "inputs": [
        {
          "indexed": true,
          "internalType": "address",
          "name": "who",
          "type": "address"
        },
        {
          "indexed": false,
          "internalType": "bool",
          "name": "isBlacklisted",
          "type": "bool"
        }
      ],
      "name": "BlacklistUpdated",
      "type": "event"
    },
    {
      "anonymous": false,
      "inputs": [
        {
          "indexed": true,
          "internalType": "address",
          "name": "user",
          "type": "address"
        },
        {
          "indexed": false,
          "internalType": "uint256",
          "name": "caseId",
          "type": "uint256"
        },
        {
          "indexed": false,
          "internalType": "string",
          "name": "reason",
          "type": "string"
        }
      ],
      "name": "EDDRequested",
      "type": "event"
    },
    {
      "anonymous": false,
      "inputs": [
        {
          "indexed": false,
          "internalType": "string",
          "name": "paramName",
          "type": "string"
        },
        {
          "indexed": false,
          "internalType": "bytes32",
          "name": "oldValue",
          "type": "bytes32"
        },
        {
          "indexed": false,
          "internalType": "bytes32",
          "name": "newValue",
          "type": "bytes32"
        }
      ],
      "name": "GlobalParamUpdated",
      "type": "event"
    },
    {
      "anonymous": false,
      "inputs": [
        {
          "indexed": true,
          "internalType": "uint256",
          "name": "caseId",
          "type": "uint256"
        },
        {
          "indexed": true,
          "internalType": "address",
          "name": "auditor",
          "type": "address"
        }
      ],
      "name": "TransferApproved",
      "type": "event"
    },
    {
      "anonymous": false,
      "inputs": [
        {
          "indexed": true,
          "internalType": "uint256",
          "name": "caseId",
          "type": "uint256"
        },
        {
          "indexed": true,
          "internalType": "address",
          "name": "from",
          "type": "address"
        },
        {
          "indexed": true,
          "internalType": "address",
          "name": "to",
          "type": "address"
        },
        {
          "indexed": false,
          "internalType": "uint256",
          "name": "amount",
          "type": "uint256"
        },
        {
          "indexed": false,
          "internalType": "string",
          "name": "reason",
          "type": "string"
        }
      ],
      "name": "TransferEscrowed",
      "type": "event"
    },
    {
      "anonymous": false,
      "inputs": [
        {
          "indexed": true,
          "internalType": "uint256",
          "name": "caseId",
          "type": "uint256"
        },
        {
          "indexed": true,
          "internalType": "address",
          "name": "auditor",
          "type": "address"
        },
        {
          "indexed": false,
          "internalType": "string",
          "name": "reason",
          "type": "string"
        }
      ],
      "name": "TransferRejected",
      "type": "event"
    },
    {
      "anonymous": false,
      "inputs": [
        {
          "indexed": true,
          "internalType": "uint256",
          "name": "caseId",
          "type": "uint256"
        },
        {
          "indexed": true,
          "internalType": "address",
          "name": "from",
          "type": "address"
        },
        {
          "indexed": true,
          "internalType": "address",
          "name": "to",
          "type": "address"
        },
        {
          "indexed": false,
          "internalType": "uint256",
          "name": "amount",
          "type": "uint256"
        }
      ],
      "name": "TransferRequested",
      "type": "event"
    },
    {
      "inputs": [
        {
          "internalType": "address",
          "name": "user",
          "type": "address"
        },
        {
          "internalType": "string",
          "name": "alertType",
          "type": "string"
        },
        {
          "internalType": "string",
          "name": "details",
          "type": "string"
        }
      ],
      "name": "emitAMLAlert",
      "outputs": [],
      "stateMutability": "nonpayable",
      "type": "function"
    },
    {
      "inputs": [
        {
          "internalType": "address",
          "name": "user",
          "type": "address"
        },
        {
          "internalType": "uint256",
          "name": "until",
          "type": "uint256"
        },
        {
          "internalType": "string",
          "name": "reason",
          "type": "string"
        }
      ],
      "name": "emitAccountLocked",
      "outputs": [],
      "stateMutability": "nonpayable",
      "type": "function"
    },
    {
      "inputs": [
        {
          "internalType": "address",
          "name": "user",
          "type": "address"
        }
      ],
      "name": "emitAccountUnlocked",
      "outputs": [],
      "stateMutability": "nonpayable",
      "type": "function"
    },
    {
      "inputs": [
        {
          "internalType": "address",
          "name": "auditor",
          "type": "address"
        }
      ],
      "name": "emitAuditorAdded",
      "outputs": [],
      "stateMutability": "nonpayable",
      "type": "function"
    },
    {
      "inputs": [
        {
          "internalType": "address",
          "name": "auditor",
          "type": "address"
        }
      ],
      "name": "emitAuditorRemoved",
      "outputs": [],
      "stateMutability": "nonpayable",
      "type": "function"
    },
    {
      "inputs": [
        {
          "internalType": "address",
          "name": "who",
          "type": "address"
        },
        {
          "internalType": "bool",
          "name": "isBlacklisted",
          "type": "bool"
        }
      ],
      "name": "emitBlacklistUpdated",
      "outputs": [],
      "stateMutability": "nonpayable",
      "type": "function"
    },
    {
      "inputs": [
        {
          "internalType": "address",
          "name": "user",
          "type": "address"
        },
        {
          "internalType": "uint256",
          "name": "caseId",
          "type": "uint256"
        },
        {
          "internalType": "string",
          "name": "reason",
          "type": "string"
        }
      ],
      "name": "emitEDDRequested",
      "outputs": [],
      "stateMutability": "nonpayable",
      "type": "function"
    },
    {
      "inputs": [
        {
          "internalType": "string",
          "name": "paramName",
          "type": "string"
        },
        {
          "internalType": "bytes32",
          "name": "oldValue",
          "type": "bytes32"
        },
        {
          "internalType": "bytes32",
          "name": "newValue",
          "type": "bytes32"
        }
      ],
      "name": "emitGlobalParamUpdated",
      "outputs": [],
      "stateMutability": "nonpayable",
      "type": "function"
    },
    {
      "inputs": [
        {
          "internalType": "uint256",
          "name": "caseId",
          "type": "uint256"
        },
        {
          "internalType": "address",
          "name": "auditor",
          "type": "address"
        }
      ],
      "name": "emitTransferApproved",
      "outputs": [],
      "stateMutability": "nonpayable",
      "type": "function"
    },
    {
      "inputs": [
        {
          "internalType": "uint256",
          "name": "caseId",
          "type": "uint256"
        },
        {
          "internalType": "address",
          "name": "from",
          "type": "address"
        },
        {
          "internalType": "address",
          "name": "to",
          "type": "address"
        },
        {
          "internalType": "uint256",
          "name": "amount",
          "type": "uint256"
        },
        {
          "internalType": "string",
          "name": "reason",
          "type": "string"
        }
      ],
      "name": "emitTransferEscrowed",
      "outputs": [],
      "stateMutability": "nonpayable",
      "type": "function"
    },
    {
      "inputs": [
        {
          "internalType": "uint256",
          "name": "caseId",
          "type": "uint256"
        },
        {
          "internalType": "address",
          "name": "auditor",
          "type": "address"
        },
        {
          "internalType": "string",
          "name": "reason",
          "type": "string"
        }
      ],
      "name": "emitTransferRejected",
      "outputs": [],
      "stateMutability": "nonpayable",
      "type": "function"
    },
    {
      "inputs": [
        {
          "internalType": "uint256",
          "name": "caseId",
          "type": "uint256"
        },
        {
          "internalType": "address",
          "name": "from",
          "type": "address"
        },
        {
          "internalType": "address",
          "name": "to",
          "type": "address"
        },
        {
          "internalType": "uint256",
          "name": "amount",
          "type": "uint256"
        }
      ],
      "name": "emitTransferRequested",
      "outputs": [],
      "stateMutability": "nonpayable",
      "type": "function"
    }
  ],
  "bytecode": "0x608060405234801561001057600080fd5b506108e6806100206000396000f3fe608060405234801561001057600080fd5b50600436106100b45760003560e01c8063a2ea2ddc11610071578063a2ea2ddc1461012d578063ac14c14f14610140578063af19422714610153578063ec22bd6114610166578063efce5ef614610179578063f5155b611461018c57600080fd5b80632e0f0ed8146100b957806342ab08bc146100ce57806353cd9142146100e157806357c0ef76146100f4578063770b8729146101075780638b252c881461011a575b600080fd5b6100cc6100c73660046104f2565b61019f565b005b6100cc6100dc36600461055d565b6101d6565b6100cc6100ef3660046105de565b610224565b6100cc61010236600461062f565b610267565b6100cc61011536600461066b565b6102b0565b6100cc6101283660046106e3565b610308565b6100cc61013b366004610727565b61035c565b6100cc61014e3660046104f2565b6103a7565b6100cc610161366004610781565b6103de565b6100cc6101743660046107ad565b610418565b6100cc6101873660046104f2565b610462565b6100cc61019a366004610727565b610499565b6040516001600160a01b038216907fb7df7ef889418eecc895118f0d863c3074abf7769bfe39ba852192114c725dfc90600090a250565b846001600160a01b03167f238846d206fd61b6a3a971c4fecae3e9092ed1a8e99b317628dc1b9d66a0e701858585856040516102159493929190610818565b60405180910390a25050505050565b7f1251353c2ac9028fa28ac161bcd01fd4026f22e84ef84ba74685c210efad7c0984848484604051610259949392919061084a565b60405180910390a150505050565b816001600160a01b03167f6a12b3df6cba4203bd7fd06b816789f87de8c594299aed5717ae070fac781bac826040516102a4911515815260200190565b60405180910390a25050565b836001600160a01b0316856001600160a01b0316877fd466fe263c7e7f7baca04fefe8ca6d0e0bcbda3590644f5ea928bbe84249ef738686866040516102f893929190610871565b60405180910390a4505050505050565b816001600160a01b0316836001600160a01b0316857f962e9098ec9c999cf9e171626d6bed38f75fd5911f12a6fda5c2e76e895de6f58460405161034e91815260200190565b60405180910390a450505050565b836001600160a01b03167fdaf1a0e6241c0c4b04020b6f09059807f04741f697998ca4a7d77a0278f8e47c84848460405161039993929190610871565b60405180910390a250505050565b6040516001600160a01b038216907fd3e803f2dfdacd206b7d19aa46d847206386d84e3dc6b8de0926e54affa6fddc90600090a250565b6040516001600160a01b0382169083907fa4269914b1afdc8f7e4c3aa6794f0de6e37f00884fb97ea9288a1d68ba7de67b90600090a35050565b826001600160a01b0316847f983dee05b0574d0bc3f63b6c60086c1e297360e910af8b34bcc1845147a278e88484604051610454929190610894565b60405180910390a350505050565b6040516001600160a01b038216907f2c31044378cc14466459f09320dd4057d7ad6e99b194c0800c78227383a2529690600090a250565b836001600160a01b03167f978c495d1650b72837251b0fc7e3f9b210e20d26d0fa93fd509e23a8b45edf9584848460405161039993929190610871565b80356001600160a01b03811681146104ed57600080fd5b919050565b60006020828403121561050457600080fd5b61050d826104d6565b9392505050565b60008083601f84011261052657600080fd5b50813567ffffffffffffffff81111561053e57600080fd5b60208301915083602082850101111561055657600080fd5b9250929050565b60008060008060006060868803121561057557600080fd5b61057e866104d6565b9450602086013567ffffffffffffffff8082111561059b57600080fd5b6105a789838a01610514565b909650945060408801359150808211156105c057600080fd5b506105cd88828901610514565b969995985093965092949392505050565b600080600080606085870312156105f457600080fd5b843567ffffffffffffffff81111561060b57600080fd5b61061787828801610514565b90989097506020870135966040013595509350505050565b6000806040838503121561064257600080fd5b61064b836104d6565b91506020830135801515811461066057600080fd5b809150509250929050565b60008060008060008060a0878903121561068457600080fd5b86359550610694602088016104d6565b94506106a2604088016104d6565b935060608701359250608087013567ffffffffffffffff8111156106c557600080fd5b6106d189828a01610514565b979a9699509497509295939492505050565b600080600080608085870312156106f957600080fd5b84359350610709602086016104d6565b9250610717604086016104d6565b9396929550929360600135925050565b6000806000806060858703121561073d57600080fd5b610746856104d6565b935060208501359250604085013567ffffffffffffffff81111561076957600080fd5b61077587828801610514565b95989497509550505050565b6000806040838503121561079457600080fd5b823591506107a4602084016104d6565b90509250929050565b600080600080606085870312156107c357600080fd5b843593506107d3602086016104d6565b9250604085013567ffffffffffffffff81111561076957600080fd5b81835281816020850137506000828201602090810191909152601f909101601f19169091010190565b60408152600061082c6040830186886107ef565b828103602084015261083f8185876107ef565b979650505050505050565b60608152600061085e6060830186886107ef565b6020830194909452506040015292915050565b83815260406020820152600061088b6040830184866107ef565b95945050505050565b6020815260006108a86020830184866107ef565b94935050505056fea2646970667358221220ad5afb5927828d1ff5e95070d53bb9ffdec5da8508b4907228167b486c6b63be64736f6c63430008140033",
  "linkReferences": {},
  "deployedLinkReferences": {}
}