{
  "_format": "hh-sol-artifact-1",
  "contractName": "BankVault",
  "sourceName": "contracts/BankVault.sol",
  "abi": [
    {
      "inputs": [
        {
          "internalType": "contract IERC20",
          "name": "_token",
          "type": "address"
        },
        {
          "internalType": "contract IdentityRegistry",
          "name": "_identity",
          "type": "address"
        },
        {
          "internalType": "contract RiskEngine",
          "name": "_risk",
          "type": "address"
        },
        {
          "internalType": "contract ComplianceLog",
          "name": "_log",
          "type": "address"
        }
      ],
      "stateMutability": "nonpayable",
      "type": "constructor"
    },
    {
      "anonymous": false,
      "inputs": [
        {
          "indexed": true,
          "internalType": "address",
          "name": "user",
          "type": "address"
        },
        {
          "indexed": false,
          "internalType": "uint256",
          "name": "amount",
          "type": "uint256"
        }
      ],
      "name": "Deposited",
      "type": "event"
    },
    {
      "anonymous": false,
      "inputs": [
        {
          "indexed": true,
          "internalType": "uint256",
          "name": "caseId",
          "type": "uint256"
        },
        {
          "indexed": true,
          "internalType": "address",
          "name": "from",
          "type": "address"
        },
        {
          "indexed": true,
          "internalType": "address",
          "name": "to",
          "type": "address"
        },
        {
          "indexed": false,
          "internalType": "uint256",
          "name": "amount",
          "type": "uint256"
        }
      ],
      "name": "EscrowApproved",
      "type": "event"
    },
    {
      "anonymous": false,
      "inputs": [
        {
          "indexed": true,
          "internalType": "uint256",
          "name": "caseId",
          "type": "uint256"
        },
        {
          "indexed": true,
          "internalType": "address",
          "name": "from",
          "type": "address"
        },
        {
          "indexed": true,
          "internalType": "address",
          "name": "to",
          "type": "address"
        },
        {
          "indexed": false,
          "internalType": "uint256",
          "name": "amount",
          "type": "uint256"
        }
      ],
      "name": "EscrowCreated",
      "type": "event"
    },
    {
      "anonymous": false,
      "inputs": [
        {
          "indexed": true,
          "internalType": "uint256",
          "name": "caseId",
          "type": "uint256"
        },
        {
          "indexed": true,
          "internalType": "address",
          "name": "from",
          "type": "address"
        },
        {
          "indexed": true,
          "internalType": "address",
          "name": "to",
          "type": "address"
        },
        {
          "indexed": false,
          "internalType": "uint256",
          "name": "amount",
          "type": "uint256"
        },
        {
          "indexed": false,
          "internalType": "string",
          "name": "reason",
          "type": "string"
        }
      ],
      "name": "EscrowRejected",
      "type": "event"
    },
    {
      "anonymous": false,
      "inputs": [
        {
          "indexed": true,
          "internalType": "address",
          "name": "from",
          "type": "address"
        },
        {
          "indexed": true,
          "internalType": "address",
          "name": "to",
          "type": "address"
        },
        {
          "indexed": false,
          "internalType": "uint256",
          "name": "amount",
          "type": "uint256"
        }
      ],
      "name": "ImmediateTransfer",
      "type": "event"
    },
    {
      "anonymous": false,
      "inputs": [
        {
          "indexed": true,
          "internalType": "uint256",
          "name": "loanId",
          "type": "uint256"
        },
        {
          "indexed": true,
          "internalType": "address",
          "name": "borrower",
          "type": "address"
        },
        {
          "indexed": false,
          "internalType": "uint256",
          "name": "principal",
          "type": "uint256"
        }
      ],
      "name": "LoanApproved",
      "type": "event"
    },
    {
      "anonymous": false,
      "inputs": [
        {
          "indexed": true,
          "internalType": "uint256",
          "name": "loanId",
          "type": "uint256"
        },
        {
          "indexed": true,
          "internalType": "address",
          "name": "borrower",
          "type": "address"
        },
        {
          "indexed": false,
          "internalType": "uint256",
          "name": "principal",
          "type": "uint256"
        },
        {
          "indexed": false,
          "internalType": "string",
          "name": "reason",
          "type": "string"
        }
      ],
      "name": "LoanRejected",
      "type": "event"
    },
    {
      "anonymous": false,
      "inputs": [
        {
          "indexed": true,
          "internalType": "address",
          "name": "borrower",
          "type": "address"
        },
        {
          "indexed": false,
          "internalType": "uint256",
          "name": "amount",
          "type": "uint256"
        }
      ],
      "name": "LoanRepaid",
      "type": "event"
    },
    {
      "anonymous": false,
      "inputs": [
        {
          "indexed": true,
          "internalType": "uint256",
          "name": "loanId",
          "type": "uint256"
        },
        {
          "indexed": true,
          "internalType": "address",
          "name": "borrower",
          "type": "address"
        },
        {
          "indexed": false,
          "internalType": "uint256",
          "name": "principal",
          "type": "uint256"
        },
        {
          "indexed": false,
          "internalType": "uint256",
          "name": "rateBps",
          "type": "uint256"
        }
      ],
      "name": "LoanRequested",
      "type": "event"
    },
    {
      "anonymous": false,
      "inputs": [
        {
          "indexed": true,
          "internalType": "uint256",
          "name": "redeemId",
          "type": "uint256"
        },
        {
          "indexed": true,
          "internalType": "address",
          "name": "user",
          "type": "address"
        },
        {
          "indexed": false,
          "internalType": "uint256",
          "name": "susdAmount",
          "type": "uint256"
        },
        {
          "indexed": false,
          "internalType": "uint256",
          "name": "ethAmount",
          "type": "uint256"
        }
      ],
      "name": "RedeemApproved",
      "type": "event"
    },
    {
      "anonymous": false,
      "inputs": [
        {
          "indexed": true,
          "internalType": "uint256",
          "name": "redeemId",
          "type": "uint256"
        },
        {
          "indexed": true,
          "internalType": "address",
          "name": "user",
          "type": "address"
        },
        {
          "indexed": false,
          "internalType": "uint256",
          "name": "susdAmount",
          "type": "uint256"
        },
        {
          "indexed": false,
          "internalType": "string",
          "name": "reason",
          "type": "string"
        }
      ],
      "name": "RedeemRejected",
      "type": "event"
    },
    {
      "anonymous": false,
      "inputs": [
        {
          "indexed": true,
          "internalType": "uint256",
          "name": "redeemId",
          "type": "uint256"
        },
        {
          "indexed": true,
          "internalType": "address",
          "name": "user",
          "type": "address"
        },
        {
          "indexed": false,
          "internalType": "string",
          "name": "assetSymbol",
          "type": "string"
        },
        {
          "indexed": false,
          "internalType": "uint256",
          "name": "susdAmount",
          "type": "uint256"
        }
      ],
      "name": "RedeemRequested",
      "type": "event"
    },
    {
      "anonymous": false,
      "inputs": [
        {
          "indexed": true,
          "internalType": "bytes32",
          "name": "role",
          "type": "bytes32"
        },
        {
          "indexed": true,
          "internalType": "bytes32",
          "name": "previousAdminRole",
          "type": "bytes32"
        },
        {
          "indexed": true,
          "internalType": "bytes32",
          "name": "newAdminRole",
          "type": "bytes32"
        }
      ],
      "name": "RoleAdminChanged",
      "type": "event"
    },
    {
      "anonymous": false,
      "inputs": [
        {
          "indexed": true,
          "internalType": "bytes32",
          "name": "role",
          "type": "bytes32"
        },
        {
          "indexed": true,
          "internalType": "address",
          "name": "account",
          "type": "address"
        },
        {
          "indexed": true,
          "internalType": "address",
          "name": "sender",
          "type": "address"
        }
      ],
      "name": "RoleGranted",
      "type": "event"
    },
    {
      "anonymous": false,
      "inputs": [
        {
          "indexed": true,
          "internalType": "bytes32",
          "name": "role",
          "type": "bytes32"
        },
        {
          "indexed": true,
          "internalType": "address",
          "name": "account",
          "type": "address"
        },
        {
          "indexed": true,
          "internalType": "address",
          "name": "sender",
          "type": "address"
        }
      ],
      "name": "RoleRevoked",
      "type": "event"
    },
    {
      "anonymous": false,
      "inputs": [
        {
          "indexed": true,
          "internalType": "address",
          "name": "user",
          "type": "address"
        },
        {
          "indexed": false,
          "internalType": "uint256",
          "name": "amount",
          "type": "uint256"
        }
      ],
      "name": "Withdrawn",
      "type": "event"
    },
    {
      "inputs": [],
      "name": "ADMIN_ROLE",
      "outputs": [
        {
          "internalType": "bytes32",
          "name": "",
          "type": "bytes32"
        }
      ],
      "stateMutability": "view",
      "type": "function"
    },
    {
      "inputs": [],
      "name": "AUDITOR_ROLE",
      "outputs": [
        {
          "internalType": "bytes32",
          "name": "",
          "type": "bytes32"
        }
      ],
      "stateMutability": "view",
      "type": "function"
    },
    {
      "inputs": [],
      "name": "DEFAULT_ADMIN_ROLE",
      "outputs": [
        {
          "internalType": "bytes32",
          "name": "",
          "type": "bytes32"
        }
      ],
      "stateMutability": "view",
      "type": "function"
    },
    {
      "inputs": [],
      "name": "TEN_K",
      "outputs": [
        {
          "internalType": "uint256",
          "name": "",
          "type": "uint256"
        }
      ],
      "stateMutability": "view",
      "type": "function"
    },
    {
      "inputs": [
        {
          "internalType": "address",
          "name": "auditor",
          "type": "address"
        }
      ],
      "name": "addAuditor",
      "outputs": [],
      "stateMutability": "nonpayable",
      "type": "function"
    },
    {
      "inputs": [
        {
          "internalType": "uint256",
          "name": "caseId",
          "type": "uint256"
        }
      ],
      "name": "approveEscrow",
      "outputs": [],
      "stateMutability": "nonpayable",
      "type": "function"
    },
    {
      "inputs": [
        {
          "internalType": "uint256",
          "name": "loanId",
          "type": "uint256"
        },
        {
          "internalType": "uint256",
          "name": "ethAmount",
          "type": "uint256"
        }
      ],
      "name": "approveLoan",
      "outputs": [],
      "stateMutability": "nonpayable",
      "type": "function"
    },
    {
      "inputs": [
        {
          "internalType": "uint256",
          "name": "redeemId",
          "type": "uint256"
        }
      ],
      "name": "approveRedeem",
      "outputs": [],
      "stateMutability": "nonpayable",
      "type": "function"
    },
    {
      "inputs": [
        {
          "internalType": "address",
          "name": "",
          "type": "address"
        }
      ],
      "name": "balances",
      "outputs": [
        {
          "internalType": "uint256",
          "name": "",
          "type": "uint256"
        }
      ],
      "stateMutability": "view",
      "type": "function"
    },
    {
      "inputs": [
        {
          "internalType": "address",
          "name": "",
          "type": "address"
        }
      ],
      "name": "blacklisted",
      "outputs": [
        {
          "internalType": "bool",
          "name": "",
          "type": "bool"
        }
      ],
      "stateMutability": "view",
      "type": "function"
    },
    {
      "inputs": [
        {
          "internalType": "address",
          "name": "",
          "type": "address"
        }
      ],
      "name": "dailyStats",
      "outputs": [
        {
          "internalType": "uint256",
          "name": "day",
          "type": "uint256"
        },
        {
          "internalType": "uint256",
          "name": "spent",
          "type": "uint256"
        }
      ],
      "stateMutability": "view",
      "type": "function"
    },
    {
      "inputs": [
        {
          "internalType": "uint256",
          "name": "amount",
          "type": "uint256"
        }
      ],
      "name": "deposit",
      "outputs": [],
      "stateMutability": "nonpayable",
      "type": "function"
    },
    {
      "inputs": [],
      "name": "depositApyBps",
      "outputs": [
        {
          "internalType": "uint256",
          "name": "",
          "type": "uint256"
        }
      ],
      "stateMutability": "view",
      "type": "function"
    },
    {
      "inputs": [
        {
          "internalType": "uint256",
          "name": "susdAmount",
          "type": "uint256"
        }
      ],
      "name": "depositFromExternal",
      "outputs": [],
      "stateMutability": "payable",
      "type": "function"
    },
    {
      "inputs": [],
      "name": "ethPerSUSDE18",
      "outputs": [
        {
          "internalType": "uint256",
          "name": "",
          "type": "uint256"
        }
      ],
      "stateMutability": "view",
      "type": "function"
    },
    {
      "inputs": [
        {
          "internalType": "address",
          "name": "user",
          "type": "address"
        },
        {
          "internalType": "uint256",
          "name": "until",
          "type": "uint256"
        },
        {
          "internalType": "string",
          "name": "reason",
          "type": "string"
        }
      ],
      "name": "forceLockAccount",
      "outputs": [],
      "stateMutability": "nonpayable",
      "type": "function"
    },
    {
      "inputs": [
        {
          "internalType": "address",
          "name": "",
          "type": "address"
        }
      ],
      "name": "freqStats",
      "outputs": [
        {
          "internalType": "uint256",
          "name": "windowStart",
          "type": "uint256"
        },
        {
          "internalType": "uint256",
          "name": "count",
          "type": "uint256"
        }
      ],
      "stateMutability": "view",
      "type": "function"
    },
    {
      "inputs": [],
      "name": "frequencyWindow",
      "outputs": [
        {
          "internalType": "uint256",
          "name": "",
          "type": "uint256"
        }
      ],
      "stateMutability": "view",
      "type": "function"
    },
    {
      "inputs": [
        {
          "internalType": "uint256",
          "name": "caseId",
          "type": "uint256"
        }
      ],
      "name": "getEscrow",
      "outputs": [
        {
          "internalType": "address",
          "name": "from_",
          "type": "address"
        },
        {
          "internalType": "address",
          "name": "to_",
          "type": "address"
        },
        {
          "internalType": "uint256",
          "name": "amount_",
          "type": "uint256"
        },
        {
          "internalType": "enum BankVault.EscrowStatus",
          "name": "status_",
          "type": "uint8"
        },
        {
          "internalType": "uint256",
          "name": "createdAt_",
          "type": "uint256"
        },
        {
          "internalType": "uint256",
          "name": "approvals_",
          "type": "uint256"
        }
      ],
      "stateMutability": "view",
      "type": "function"
    },
    {
      "inputs": [
        {
          "internalType": "uint256",
          "name": "loanId",
          "type": "uint256"
        }
      ],
      "name": "getLoanCase",
      "outputs": [
        {
          "internalType": "address",
          "name": "borrower_",
          "type": "address"
        },
        {
          "internalType": "uint256",
          "name": "principal_",
          "type": "uint256"
        },
        {
          "internalType": "uint256",
          "name": "rateBps_",
          "type": "uint256"
        },
        {
          "internalType": "enum BankVault.LoanStatus",
          "name": "status_",
          "type": "uint8"
        },
        {
          "internalType": "uint256",
          "name": "createdAt_",
          "type": "uint256"
        },
        {
          "internalType": "uint256",
          "name": "approvals_",
          "type": "uint256"
        }
      ],
      "stateMutability": "view",
      "type": "function"
    },
    {
      "inputs": [
        {
          "internalType": "uint256",
          "name": "redeemId",
          "type": "uint256"
        }
      ],
      "name": "getRedeemCase",
      "outputs": [
        {
          "internalType": "address",
          "name": "user_",
          "type": "address"
        },
        {
          "internalType": "string",
          "name": "assetSymbol_",
          "type": "string"
        },
        {
          "internalType": "uint256",
          "name": "susdAmount_",
          "type": "uint256"
        },
        {
          "internalType": "uint256",
          "name": "ethAmount_",
          "type": "uint256"
        },
        {
          "internalType": "enum BankVault.RedeemStatus",
          "name": "status_",
          "type": "uint8"
        },
        {
          "internalType": "uint256",
          "name": "createdAt_",
          "type": "uint256"
        },
        {
          "internalType": "uint256",
          "name": "approvals_",
          "type": "uint256"
        }
      ],
      "stateMutability": "view",
      "type": "function"
    },
    {
      "inputs": [
        {
          "internalType": "bytes32",
          "name": "role",
          "type": "bytes32"
        }
      ],
      "name": "getRoleAdmin",
      "outputs": [
        {
          "internalType": "bytes32",
          "name": "",
          "type": "bytes32"
        }
      ],
      "stateMutability": "view",
      "type": "function"
    },
    {
      "inputs": [
        {
          "internalType": "bytes32",
          "name": "role",
          "type": "bytes32"
        },
        {
          "internalType": "address",
          "name": "account",
          "type": "address"
        }
      ],
      "name": "grantRole",
      "outputs": [],
      "stateMutability": "nonpayable",
      "type": "function"
    },
    {
      "inputs": [
        {
          "internalType": "bytes32",
          "name": "role",
          "type": "bytes32"
        },
        {
          "internalType": "address",
          "name": "account",
          "type": "address"
        }
      ],
      "name": "hasRole",
      "outputs": [
        {
          "internalType": "bool",
          "name": "",
          "type": "bool"
        }
      ],
      "stateMutability": "view",
      "type": "function"
    },
    {
      "inputs": [],
      "name": "identity",
      "outputs": [
        {
          "internalType": "contract IdentityRegistry",
          "name": "",
          "type": "address"
        }
      ],
      "stateMutability": "view",
      "type": "function"
    },
    {
      "inputs": [],
      "name": "lockDuration",
      "outputs": [
        {
          "internalType": "uint256",
          "name": "",
          "type": "uint256"
        }
      ],
      "stateMutability": "view",
      "type": "function"
    },
    {
      "inputs": [
        {
          "internalType": "address",
          "name": "",
          "type": "address"
        }
      ],
      "name": "lockedUntil",
      "outputs": [
        {
          "internalType": "uint256",
          "name": "",
          "type": "uint256"
        }
      ],
      "stateMutability": "view",
      "type": "function"
    },
    {
      "inputs": [],
      "name": "logContract",
      "outputs": [
        {
          "internalType": "contract ComplianceLog",
          "name": "",
          "type": "address"
        }
      ],
      "stateMutability": "view",
      "type": "function"
    },
    {
      "inputs": [],
      "name": "maxTxPerWindow",
      "outputs": [
        {
          "internalType": "uint256",
          "name": "",
          "type": "uint256"
        }
      ],
      "stateMutability": "view",
      "type": "function"
    },
    {
      "inputs": [],
      "name": "nextCaseId",
      "outputs": [
        {
          "internalType": "uint256",
          "name": "",
          "type": "uint256"
        }
      ],
      "stateMutability": "view",
      "type": "function"
    },
    {
      "inputs": [],
      "name": "nextLoanId",
      "outputs": [
        {
          "internalType": "uint256",
          "name": "",
          "type": "uint256"
        }
      ],
      "stateMutability": "view",
      "type": "function"
    },
    {
      "inputs": [],
      "name": "nextRedeemId",
      "outputs": [
        {
          "internalType": "uint256",
          "name": "",
          "type": "uint256"
        }
      ],
      "stateMutability": "view",
      "type": "function"
    },
    {
      "inputs": [],
      "name": "pause",
      "outputs": [],
      "stateMutability": "nonpayable",
      "type": "function"
    },
    {
      "inputs": [],
      "name": "paused",
      "outputs": [
        {
          "internalType": "bool",
          "name": "",
          "type": "bool"
        }
      ],
      "stateMutability": "view",
      "type": "function"
    },
    {
      "inputs": [
        {
          "internalType": "string",
          "name": "assetSymbol",
          "type": "string"
        },
        {
          "internalType": "uint256",
          "name": "susdAmount",
          "type": "uint256"
        },
        {
          "internalType": "uint256",
          "name": "ethAmount",
          "type": "uint256"
        }
      ],
      "name": "redeemToAsset",
      "outputs": [],
      "stateMutability": "nonpayable",
      "type": "function"
    },
    {
      "inputs": [
        {
          "internalType": "uint256",
          "name": "caseId",
          "type": "uint256"
        },
        {
          "internalType": "string",
          "name": "reason",
          "type": "string"
        }
      ],
      "name": "rejectEscrow",
      "outputs": [],
      "stateMutability": "nonpayable",
      "type": "function"
    },
    {
      "inputs": [
        {
          "internalType": "uint256",
          "name": "loanId",
          "type": "uint256"
        },
        {
          "internalType": "string",
          "name": "reason",
          "type": "string"
        }
      ],
      "name": "rejectLoan",
      "outputs": [],
      "stateMutability": "nonpayable",
      "type": "function"
    },
    {
      "inputs": [
        {
          "internalType": "uint256",
          "name": "redeemId",
          "type": "uint256"
        },
        {
          "internalType": "string",
          "name": "reason",
          "type": "string"
        }
      ],
      "name": "rejectRedeem",
      "outputs": [],
      "stateMutability": "nonpayable",
      "type": "function"
    },
    {
      "inputs": [
        {
          "internalType": "address",
          "name": "auditor",
          "type": "address"
        }
      ],
      "name": "removeAuditor",
      "outputs": [],
      "stateMutability": "nonpayable",
      "type": "function"
    },
    {
      "inputs": [
        {
          "internalType": "bytes32",
          "name": "role",
          "type": "bytes32"
        },
        {
          "internalType": "address",
          "name": "account",
          "type": "address"
        }
      ],
      "name": "renounceRole",
      "outputs": [],
      "stateMutability": "nonpayable",
      "type": "function"
    },
    {
      "inputs": [
        {
          "internalType": "uint256",
          "name": "amount",
          "type": "uint256"
        }
      ],
      "name": "repayLoan",
      "outputs": [],
      "stateMutability": "nonpayable",
      "type": "function"
    },
    {
      "inputs": [
        {
          "internalType": "uint256",
          "name": "principal",
          "type": "uint256"
        }
      ],
      "name": "requestLoan",
      "outputs": [],
      "stateMutability": "nonpayable",
      "type": "function"
    },
    {
      "inputs": [
        {
          "internalType": "bytes32",
          "name": "role",
          "type": "bytes32"
        },
        {
          "internalType": "address",
          "name": "account",
          "type": "address"
        }
      ],
      "name": "revokeRole",
      "outputs": [],
      "stateMutability": "nonpayable",
      "type": "function"
    },
    {
      "inputs": [],
      "name": "riskEngine",
      "outputs": [
        {
          "internalType": "contract RiskEngine",
          "name": "",
          "type": "address"
        }
      ],
      "stateMutability": "view",
      "type": "function"
    },
    {
      "inputs": [
        {
          "internalType": "address",
          "name": "user",
          "type": "address"
        },
        {
          "internalType": "bool",
          "name": "isBlacklisted_",
          "type": "bool"
        }
      ],
      "name": "setBlacklist",
      "outputs": [],
      "stateMutability": "nonpayable",
      "type": "function"
    },
    {
      "inputs": [
        {
          "internalType": "uint256",
          "name": "bps",
          "type": "uint256"
        }
      ],
      "name": "setDepositApyBps",
      "outputs": [],
      "stateMutability": "nonpayable",
      "type": "function"
    },
    {
      "inputs": [
        {
          "internalType": "uint256",
          "name": "windowSec",
          "type": "uint256"
        },
        {
          "internalType": "uint256",
          "name": "maxCount",
          "type": "uint256"
        },
        {
          "internalType": "uint256",
          "name": "lockSec",
          "type": "uint256"
        }
      ],
      "name": "setFrequencyParams",
      "outputs": [],
      "stateMutability": "nonpayable",
      "type": "function"
    },
    {
      "inputs": [
        {
          "internalType": "bytes4",
          "name": "interfaceId",
          "type": "bytes4"
        }
      ],
      "name": "supportsInterface",
      "outputs": [
        {
          "internalType": "bool",
          "name": "",
          "type": "bool"
        }
      ],
      "stateMutability": "view",
      "type": "function"
    },
    {
      "inputs": [],
      "name": "token",
      "outputs": [
        {
          "internalType": "contract IERC20",
          "name": "",
          "type": "address"
        }
      ],
      "stateMutability": "view",
      "type": "function"
    },
    {
      "inputs": [
        {
          "internalType": "address",
          "name": "to",
          "type": "address"
        },
        {
          "internalType": "uint256",
          "name": "amount",
          "type": "uint256"
        }
      ],
      "name": "transfer",
      "outputs": [],
      "stateMutability": "nonpayable",
      "type": "function"
    },
    {
      "inputs": [
        {
          "internalType": "address",
          "name": "user",
          "type": "address"
        }
      ],
      "name": "unlockAccount",
      "outputs": [],
      "stateMutability": "nonpayable",
      "type": "function"
    },
    {
      "inputs": [],
      "name": "unpause",
      "outputs": [],
      "stateMutability": "nonpayable",
      "type": "function"
    },
    {
      "inputs": [
        {
          "internalType": "uint256",
          "name": "amount",
          "type": "uint256"
        }
      ],
      "name": "withdraw",
      "outputs": [],
      "stateMutability": "nonpayable",
      "type": "function"
    },
    {
      "stateMutability": "payable",
      "type": "receive"
    }
  ],
  "bytecode": "0x610100604052603c6001556003600255610e1060035560016009556001600b556001600d5560c86011553480156200003657600080fd5b50604051620048fb380380620048fb833981016040819052620000599162000175565b6001600160a01b0380851660805283811660a05282811660c052811660e05262000085600033620000bb565b620000b17fa49807205ce4d355092ef5a8a18f56e8913cf4a201fbe287825b095693c2177533620000bb565b50505050620001dd565b6000828152602081815260408083206001600160a01b038516845290915290205460ff1662000158576000828152602081815260408083206001600160a01b03851684529091529020805460ff19166001179055620001173390565b6001600160a01b0316816001600160a01b0316837f2f8788117e7eff1d82e926ec794901d17c78024a50270940304540a733656f0d60405160405180910390a45b5050565b6001600160a01b03811681146200017257600080fd5b50565b600080600080608085870312156200018c57600080fd5b845162000199816200015c565b6020860151909450620001ac816200015c565b6040860151909350620001bf816200015c565b6060860151909250620001d2816200015c565b939692955090935050565b60805160a05160c05160e051614627620002d4600039600081816108e101528181610bca01528181610d51015281816120540152818161215b0152818161289301528181612d3401528181612e4901528181612ed7015281816130fa0152818161336d01528181613428015281816135b70152818161384501526138c901526000818161075c01528181611e2a01528181611efd01526134b701526000818161048001528181610f5601528181611a6601528181611ce60152818161221e0152818161241c0152818161266d0152612938015260008181610a61015281816110d30152818161254c0152612a8c01526146276000f3fe60806040526004361061031e5760003560e01c80638456cb59116101ab578063b6b55f25116100f7578063e283bc4a11610095578063e6116cfd1161006f578063e6116cfd146109ef578063f4baae4114610a0f578063f6fcaf1214610a2f578063fc0c546a14610a4f57600080fd5b8063e283bc4a14610987578063e429cef11461099d578063e4f598c0146109bd57600080fd5b8063cfe279b2116100d1578063cfe279b2146108cf578063d211d8e514610903578063d547741f14610937578063dbac26e91461095757600080fd5b8063b6b55f2514610833578063c5a5263514610853578063cc3a1aba1461088657600080fd5b806392b888ae11610164578063a9059cbb1161013e578063a9059cbb146107c0578063ab7b1c89146107e0578063b547986b14610800578063b58fb4571461081357600080fd5b806392b888ae1461074a5780639bc289f11461077e578063a217fddf146107ab57600080fd5b80638456cb591461069f57806387c51459146106b45780638c970e77146106ca5780638d5d3429146106ea578063905295e31461070a57806391d148541461072a57600080fd5b80633eb09ece1161026a5780636350eae81161022357806375b238fc116101fd57806375b238fc1461060d5780637a6464921461062f5780637d19e5961461064f578063837cbe041461068157600080fd5b80636350eae8146105b55780636e1d616e146105cb578063731314e6146105ed57600080fd5b80633eb09ece1461051a5780633f4ba83a1461053a57806342569ca71461054f578063475cfb551461056557806352ee8f811461057b5780635c975abb1461059b57600080fd5b8063268fb01e116102d75780632c159a1a116102b15780632c159a1a1461046e5780632e1a7d4d146104ba5780632f2ff15d146104da57806336568abe146104fa57600080fd5b8063268fb01e1461040b57806327e235e31461042b578063281189091461045857600080fd5b806301ffc9a71461032a57806303fce7ef1461035f5780630455444314610381578063153b0d1e146103a5578063248a9ca3146103c557806325d71240146103f557600080fd5b3661032557005b600080fd5b34801561033657600080fd5b5061034a610345366004613bda565b610a83565b60405190151581526020015b60405180910390f35b34801561036b57600080fd5b5061037f61037a366004613c04565b610aba565b005b34801561038d57600080fd5b5061039760035481565b604051908152602001610356565b3480156103b157600080fd5b5061037f6103c0366004613c47565b610cd8565b3480156103d157600080fd5b506103976103e0366004613c04565b60009081526020819052604090206001015490565b34801561040157600080fd5b5061039760015481565b34801561041757600080fd5b5061037f610426366004613cc7565b610db3565b34801561043757600080fd5b50610397610446366004613d13565b60046020526000908152604090205481565b34801561046457600080fd5b5061039760025481565b34801561047a57600080fd5b506104a27f000000000000000000000000000000000000000000000000000000000000000081565b6040516001600160a01b039091168152602001610356565b3480156104c657600080fd5b5061037f6104d5366004613c04565b610f1e565b3480156104e657600080fd5b5061037f6104f5366004613d2e565b6111bf565b34801561050657600080fd5b5061037f610515366004613d2e565b6111e4565b34801561052657600080fd5b5061037f610535366004613c04565b611262565b34801561054657600080fd5b5061037f6114fd565b34801561055b57600080fd5b5061039760115481565b34801561057157600080fd5b50610397600c5481565b34801561058757600080fd5b5061037f610596366004613cc7565b61153d565b3480156105a757600080fd5b5060105461034a9060ff1681565b3480156105c157600080fd5b5061039760095481565b3480156105d757600080fd5b506103976000805160206145b283398151915281565b3480156105f957600080fd5b5061037f610608366004613c04565b61165d565b34801561061957600080fd5b506103976000805160206145d283398151915281565b34801561063b57600080fd5b5061037f61064a366004613d5a565b611696565b34801561065b57600080fd5b5061066f61066a366004613c04565b611967565b60405161035696959493929190613db0565b34801561068d57600080fd5b5061039769021e19e0c9bab240000081565b3480156106ab57600080fd5b5061037f6119eb565b3480156106c057600080fd5b50610397600d5481565b3480156106d657600080fd5b5061037f6106e5366004613df5565b611a2e565b3480156106f657600080fd5b5061037f610705366004613c04565b611cae565b34801561071657600080fd5b5061037f610725366004613d13565b6120f4565b34801561073657600080fd5b5061034a610745366004613d2e565b6121bd565b34801561075657600080fd5b506104a27f000000000000000000000000000000000000000000000000000000000000000081565b34801561078a57600080fd5b50610397610799366004613d13565b60076020526000908152604090205481565b3480156107b757600080fd5b50610397600081565b3480156107cc57600080fd5b5061037f6107db366004613e46565b6121e6565b3480156107ec57600080fd5b5061037f6107fb366004613c04565b6123e4565b61037f61080e366004613c04565b612635565b34801561081f57600080fd5b5061037f61082e366004613e70565b61280a565b34801561083f57600080fd5b5061037f61084e366004613c04565b612900565b34801561085f57600080fd5b5061087361086e366004613c04565b612b75565b6040516103569796959493929190613eec565b34801561089257600080fd5b506108ba6108a1366004613d13565b6006602052600090815260409020805460019091015482565b60408051928352602083019190915201610356565b3480156108db57600080fd5b506104a27f000000000000000000000000000000000000000000000000000000000000000081565b34801561090f57600080fd5b506108ba61091e366004613d13565b6005602052600090815260409020805460019091015482565b34801561094357600080fd5b5061037f610952366004613d2e565b612ca4565b34801561096357600080fd5b5061034a610972366004613d13565b60086020526000908152604090205460ff1681565b34801561099357600080fd5b50610397600b5481565b3480156109a957600080fd5b5061037f6109b8366004613d13565b612cc9565b3480156109c957600080fd5b506109dd6109d8366004613c04565b612d63565b60405161035696959493929190613f45565b3480156109fb57600080fd5b5061037f610a0a366004613d13565b612dde565b348015610a1b57600080fd5b5061037f610a2a366004613f6c565b612e78565b348015610a3b57600080fd5b5061037f610a4a366004613cc7565b612f4c565b348015610a5b57600080fd5b506104a27f000000000000000000000000000000000000000000000000000000000000000081565b60006001600160e01b03198216637965db0b60e01b1480610ab457506301ffc9a760e01b6001600160e01b03198316145b92915050565b60105460ff1615610ae65760405162461bcd60e51b8152600401610add90613fc6565b60405180910390fd5b6000805160206145b2833981519152610afe81613170565b6000828152600a6020526040812090600382015460ff166002811115610b2657610b26613d7c565b14610b435760405162461bcd60e51b8152600401610add90613fe6565b33600090815260068201602052604090205460ff1615610b755760405162461bcd60e51b8152600401610add9061400b565b3360009081526006820160205260408120805460ff1916600190811790915560058301805491929091610ba990849061404b565b909155505060405163af19422760e01b8152600481018490523360248201527f00000000000000000000000000000000000000000000000000000000000000006001600160a01b03169063af19422790604401600060405180830381600087803b158015610c1657600080fd5b505af1158015610c2a573d6000803e3d6000fd5b505050506002816005015410610cd35760038101805460ff191660019081179091556002820154908201546001600160a01b031660009081526004602052604081208054909190610c7c90849061404b565b90915550506001810154815460028301546040519081526001600160a01b03928316929091169085907f6791f4aaba9ebc05664a6379f9daf9fd658b4337b4295132285fb6ed1ca8400c9060200160405180910390a45b505050565b610cf06000805160206145d2833981519152336121bd565b610d0c5760405162461bcd60e51b8152600401610add9061405e565b6001600160a01b0382811660008181526008602052604090819020805460ff19168515159081179091559051632be077bb60e11b8152600481019290925260248201527f0000000000000000000000000000000000000000000000000000000000000000909116906357c0ef7690604401600060405180830381600087803b158015610d9757600080fd5b505af1158015610dab573d6000803e3d6000fd5b505050505050565b60105460ff1615610dd65760405162461bcd60e51b8152600401610add90613fc6565b6000805160206145b2833981519152610dee81613170565b6000848152600f6020526040902080546001600160a01b0316610e465760405162461bcd60e51b815260206004820152601060248201526f1c995919595b481b9bdd08199bdd5b9960821b6044820152606401610add565b6000600482015460ff166002811115610e6157610e61613d7c565b14610e7e5760405162461bcd60e51b8152600401610add90613fe6565b6004810180546002919060ff19166001830217905550600281015481546001600160a01b031660009081526004602052604081208054909190610ec290849061404b565b9091555050805460028201546040516001600160a01b039092169187917fb88ec921e26f1bcb2cb4dfef7a22411678948d5fcc92cf89c1b5b0cf512d8e9091610f0f9190899089906140aa565b60405180910390a35050505050565b60105460ff1615610f415760405162461bcd60e51b8152600401610add90613fc6565b60405163607a23f360e01b81523360048201527f00000000000000000000000000000000000000000000000000000000000000006001600160a01b03169063607a23f390602401602060405180830381865afa158015610fa5573d6000803e3d6000fd5b505050506040513d601f19601f82011682018060405250810190610fc991906140cd565b610fe55760405162461bcd60e51b8152600401610add906140ea565b3360009081526008602052604090205460ff16156110155760405162461bcd60e51b8152600401610add90614114565b336000908152600760205260409020544210156110445760405162461bcd60e51b8152600401610add90614139565b600081116110645760405162461bcd60e51b8152600401610add90614161565b336000908152600460205260409020548111156110935760405162461bcd60e51b8152600401610add90614183565b33600090815260046020526040812080548392906110b29084906141a9565b909155505060405163a9059cbb60e01b8152336004820152602481018290527f00000000000000000000000000000000000000000000000000000000000000006001600160a01b03169063a9059cbb906044016020604051808303816000875af1158015611124573d6000803e3d6000fd5b505050506040513d601f19601f8201168201806040525081019061114891906140cd565b6111865760405162461bcd60e51b815260206004820152600f60248201526e1d1c985b9cd9995c8819985a5b1959608a1b6044820152606401610add565b60405181815233907f7084f5476618d8e60b11ef0d7d3f06914655adb8793e28ff7f018d4c76d505d5906020015b60405180910390a250565b6000828152602081905260409020600101546111da81613170565b610cd3838361317d565b6001600160a01b03811633146112545760405162461bcd60e51b815260206004820152602f60248201527f416363657373436f6e74726f6c3a2063616e206f6e6c792072656e6f756e636560448201526e103937b632b9903337b91039b2b63360891b6064820152608401610add565b61125e8282613201565b5050565b60105460ff16156112855760405162461bcd60e51b8152600401610add90613fc6565b6000805160206145b283398151915261129d81613170565b6000828152600f6020526040902080546001600160a01b03166112f55760405162461bcd60e51b815260206004820152601060248201526f1c995919595b481b9bdd08199bdd5b9960821b6044820152606401610add565b6000600482015460ff16600281111561131057611310613d7c565b1461132d5760405162461bcd60e51b8152600401610add90613fe6565b33600090815260078201602052604090205460ff161561135f5760405162461bcd60e51b8152600401610add9061400b565b3360009081526007820160205260408120805460ff191660019081179091556006830180549192909161139390849061404b565b90915550506006810154600211610cd35760048101805460ff1916600117905560038101544710156114025760405162461bcd60e51b8152602060048201526018602482015277696e73756666696369656e7420455448207265736572766560401b6044820152606401610add565b805460038201546040516000926001600160a01b031691908381818185875af1925050503d8060008114611452576040519150601f19603f3d011682016040523d82523d6000602084013e611457565b606091505b505090508061149e5760405162461bcd60e51b8152602060048201526013602482015272115512081d1c985b9cd9995c8819985a5b1959606a1b6044820152606401610add565b8154600283015460038401546040516001600160a01b039093169287927f7983cb2e608321c3e20a437d27bb5daeede1ddc38f87c0245fafbc7ee8d12d31926114ef92918252602082015260400190565b60405180910390a350505050565b6115156000805160206145d2833981519152336121bd565b6115315760405162461bcd60e51b8152600401610add9061405e565b6010805460ff19169055565b60105460ff16156115605760405162461bcd60e51b8152600401610add90613fc6565b6000805160206145b283398151915261157881613170565b6000848152600e6020526040902080546001600160a01b03166115ce5760405162461bcd60e51b815260206004820152600e60248201526d1b1bd85b881b9bdd08199bdd5b9960921b6044820152606401610add565b6000600382015460ff1660028111156115e9576115e9613d7c565b146116065760405162461bcd60e51b8152600401610add90613fe6565b60038101805460ff19166002179055805460018201546040516001600160a01b039092169187917f38f1f980114d056d6ab178991091de16301d414b5cc758a1072d3447948686a191610f0f9190899089906140aa565b6116756000805160206145d2833981519152336121bd565b6116915760405162461bcd60e51b8152600401610add9061405e565b601155565b60105460ff16156116b95760405162461bcd60e51b8152600401610add90613fc6565b6000805160206145b28339815191526116d181613170565b6000838152600e6020526040902080546001600160a01b03166117275760405162461bcd60e51b815260206004820152600e60248201526d1b1bd85b881b9bdd08199bdd5b9960921b6044820152606401610add565b6000600382015460ff16600281111561174257611742613d7c565b1461175f5760405162461bcd60e51b8152600401610add90613fe6565b33600090815260068201602052604090205460ff16156117915760405162461bcd60e51b8152600401610add9061400b565b600083116117b15760405162461bcd60e51b8152600401610add906141bc565b3360009081526006820160205260408120805460ff19166001908117909155600583018054919290916117e590849061404b565b909155505060058101546002116119615760038101805460ff1916600190811790915581015481546001600160a01b03166000908152600460205260408120805490919061183490849061404b565b9091555050478311156118845760405162461bcd60e51b8152602060048201526018602482015277696e73756666696369656e7420455448207265736572766560401b6044820152606401610add565b80546040516000916001600160a01b03169085908381818185875af1925050503d80600081146118d0576040519150601f19603f3d011682016040523d82523d6000602084013e6118d5565b606091505b505090508061191c5760405162461bcd60e51b8152602060048201526013602482015272115512081d1c985b9cd9995c8819985a5b1959606a1b6044820152606401610add565b815460018301546040519081526001600160a01b039091169086907f2b993938baa27c88e77a207903d275c96fa30ae5949a3ea5cd56e466e4f5c89190602001610f0f565b50505050565b6000808080808086158061197d57506009548710155b1561199a57506000945084935083925060029150829050806119e2565b5050506000848152600a60205260409020805460018201546002830154600384015460048501546005909501546001600160a01b039485169850939092169550935060ff1691905b91939550919395565b611a036000805160206145d2833981519152336121bd565b611a1f5760405162461bcd60e51b8152600401610add9061405e565b6010805460ff19166001179055565b60105460ff1615611a515760405162461bcd60e51b8152600401610add90613fc6565b60405163607a23f360e01b81523360048201527f00000000000000000000000000000000000000000000000000000000000000006001600160a01b03169063607a23f390602401602060405180830381865afa158015611ab5573d6000803e3d6000fd5b505050506040513d601f19601f82011682018060405250810190611ad991906140cd565b611af55760405162461bcd60e51b8152600401610add906140ea565b3360009081526008602052604090205460ff1615611b255760405162461bcd60e51b8152600401610add90614114565b33600090815260076020526040902054421015611b545760405162461bcd60e51b8152600401610add90614139565b60008211611b8d5760405162461bcd60e51b81526020600482015260066024820152650737573643d360d41b6044820152606401610add565b60008111611bad5760405162461bcd60e51b8152600401610add906141bc565b33600090815260046020526040902054821115611bdc5760405162461bcd60e51b8152600401610add90614183565b3360009081526004602052604081208054849290611bfb9084906141a9565b9091555050600b805460009182611c11836141db565b909155506000818152600f6020526040902080546001600160a01b0319163317815590915060018101611c4586888361428a565b50600281018490556003810183905560048101805460ff19169055426005820155604051339083907f17fe45d7cd13f1c47d41f0f332c8ef0f050b98f1b75e28395d3a52253b78615190611c9e908a908a908a9061434a565b60405180910390a3505050505050565b60105460ff1615611cd15760405162461bcd60e51b8152600401610add90613fc6565b60405163607a23f360e01b81523360048201527f00000000000000000000000000000000000000000000000000000000000000006001600160a01b03169063607a23f390602401602060405180830381865afa158015611d35573d6000803e3d6000fd5b505050506040513d601f19601f82011682018060405250810190611d5991906140cd565b611d755760405162461bcd60e51b8152600401610add906140ea565b3360009081526008602052604090205460ff1615611da55760405162461bcd60e51b8152600401610add90614114565b33600090815260076020526040902054421015611dd45760405162461bcd60e51b8152600401610add90614139565b60008111611e125760405162461bcd60e51b815260206004820152600b60248201526a07072696e636970616c3d360ac1b6044820152606401610add565b6040516358f2ef1760e01b81523360048201526000907f00000000000000000000000000000000000000000000000000000000000000006001600160a01b0316906358f2ef1790602401602060405180830381865afa158015611e79573d6000803e3d6000fd5b505050506040513d601f19601f82011682018060405250810190611e9d919061436e565b905080821115611ee55760405162461bcd60e51b81526020600482015260136024820152721b1bd85b881b1a5b5a5d08195e18d959591959606a1b6044820152606401610add565b604051638904b29b60e01b81523360048201526000907f00000000000000000000000000000000000000000000000000000000000000006001600160a01b031690638904b29b90602401602060405180830381865afa158015611f4c573d6000803e3d6000fd5b505050506040513d601f19601f82011682018060405250810190611f70919061436e565b600d80549192506000919082611f85836141db565b909155506000818152600e6020526040902080546001600160a01b03191633178155600181018690556002810184905560038101805460ff1916905542600482015590915069021e19e0c9bab240000085106120ba576040516310aac22f60e21b81523360048201526060602480830191909152600a6064830152692620a923a2afa627a0a760b11b608483015260a0604483015260a48201527f4c61726765206c6f616e207265717565737420666f72206d616e75616c20726560c4820152637669657760e01b60e48201527f00000000000000000000000000000000000000000000000000000000000000006001600160a01b0316906342ab08bc9061010401600060405180830381600087803b1580156120a157600080fd5b505af11580156120b5573d6000803e3d6000fd5b505050505b6040805186815260208101859052339184917f68595dbe887ae7f496f2c88735019a8918919a1decfdee6bdb460480ab87decb9101610f0f565b61210c6000805160206145d2833981519152336121bd565b6121285760405162461bcd60e51b8152600401610add9061405e565b6001600160a01b0381811660008181526007602052604080822091909155516305c1e1db60e31b815260048101919091527f000000000000000000000000000000000000000000000000000000000000000090911690632e0f0ed8906024015b600060405180830381600087803b1580156121a257600080fd5b505af11580156121b6573d6000803e3d6000fd5b5050505050565b6000918252602082815260408084206001600160a01b0393909316845291905290205460ff1690565b60105460ff16156122095760405162461bcd60e51b8152600401610add90613fc6565b60405163607a23f360e01b81523360048201527f00000000000000000000000000000000000000000000000000000000000000006001600160a01b03169063607a23f390602401602060405180830381865afa15801561226d573d6000803e3d6000fd5b505050506040513d601f19601f8201168201806040525081019061229191906140cd565b6122ad5760405162461bcd60e51b8152600401610add906140ea565b3360009081526008602052604090205460ff16156122dd5760405162461bcd60e51b8152600401610add90614114565b3360009081526007602052604090205442101561230c5760405162461bcd60e51b8152600401610add90614139565b6001600160a01b03821661234f5760405162461bcd60e51b815260206004820152600a602482015269696e76616c696420746f60b01b6044820152606401610add565b6000811161236f5760405162461bcd60e51b8152600401610add90614161565b6001600160a01b03821660009081526008602052604090205460ff16156123d05760405162461bcd60e51b81526020600482015260156024820152741c9958da5c1a595b9d08189b1858dadb1a5cdd1959605a1b6044820152606401610add565b6123d933613266565b61125e338383613459565b60105460ff16156124075760405162461bcd60e51b8152600401610add90613fc6565b60405163607a23f360e01b81523360048201527f00000000000000000000000000000000000000000000000000000000000000006001600160a01b03169063607a23f390602401602060405180830381865afa15801561246b573d6000803e3d6000fd5b505050506040513d601f19601f8201168201806040525081019061248f91906140cd565b6124ab5760405162461bcd60e51b8152600401610add906140ea565b3360009081526008602052604090205460ff16156124db5760405162461bcd60e51b8152600401610add90614114565b3360009081526007602052604090205442101561250a5760405162461bcd60e51b8152600401610add90614139565b6000811161252a5760405162461bcd60e51b8152600401610add90614161565b6040516323b872dd60e01b8152336004820152306024820152604481018290527f00000000000000000000000000000000000000000000000000000000000000006001600160a01b0316906323b872dd906064016020604051808303816000875af115801561259d573d6000803e3d6000fd5b505050506040513d601f19601f820116820180604052508101906125c191906140cd565b6126035760405162461bcd60e51b81526020600482015260136024820152721d1c985b9cd9995c919c9bdb4819985a5b1959606a1b6044820152606401610add565b60405181815233907fc200a1f31dd659e356e0f112c82558e25f49f7b0f84438691cd96f5cb3558823906020016111b4565b60105460ff16156126585760405162461bcd60e51b8152600401610add90613fc6565b60405163607a23f360e01b81523360048201527f00000000000000000000000000000000000000000000000000000000000000006001600160a01b03169063607a23f390602401602060405180830381865afa1580156126bc573d6000803e3d6000fd5b505050506040513d601f19601f820116820180604052508101906126e091906140cd565b6126fc5760405162461bcd60e51b8152600401610add906140ea565b3360009081526008602052604090205460ff161561272c5760405162461bcd60e51b8152600401610add90614114565b3360009081526007602052604090205442101561275b5760405162461bcd60e51b8152600401610add90614139565b6000341161277b5760405162461bcd60e51b8152600401610add906141bc565b600081116127b45760405162461bcd60e51b81526020600482015260066024820152650737573643d360d41b6044820152606401610add565b33600090815260046020526040812080548392906127d390849061404b565b909155505060405181815233907f2da466a7b24304f47e87fa2e1e5a81b9831ce54fec19055ce277ca2f39ba42c4906020016111b4565b6128226000805160206145d2833981519152336121bd565b61283e5760405162461bcd60e51b8152600401610add9061405e565b600183905560028290556003819055604080516020808201869052818301859052606080830185905283518084039091018152608083019384905280519101206329e6c8a160e11b9092526001600160a01b037f000000000000000000000000000000000000000000000000000000000000000016916353cd9142916128c991600091608401614387565b600060405180830381600087803b1580156128e357600080fd5b505af11580156128f7573d6000803e3d6000fd5b50505050505050565b60105460ff16156129235760405162461bcd60e51b8152600401610add90613fc6565b60405163607a23f360e01b81523360048201527f00000000000000000000000000000000000000000000000000000000000000006001600160a01b03169063607a23f390602401602060405180830381865afa158015612987573d6000803e3d6000fd5b505050506040513d601f19601f820116820180604052508101906129ab91906140cd565b6129c75760405162461bcd60e51b8152600401610add906140ea565b3360009081526008602052604090205460ff16156129f75760405162461bcd60e51b8152600401610add90614114565b33600090815260076020526040902054421015612a265760405162461bcd60e51b8152600401610add90614139565b60008111612a465760405162461bcd60e51b8152600401610add90614161565b3360009081526004602052604081208054839290612a6590849061404b565b90915550506040516323b872dd60e01b8152336004820152306024820152604481018290527f00000000000000000000000000000000000000000000000000000000000000006001600160a01b0316906323b872dd906064016020604051808303816000875af1158015612add573d6000803e3d6000fd5b505050506040513d601f19601f82011682018060405250810190612b0191906140cd565b612b435760405162461bcd60e51b81526020600482015260136024820152721d1c985b9cd9995c919c9bdb4819985a5b1959606a1b6044820152606401610add565b60405181815233907f2da466a7b24304f47e87fa2e1e5a81b9831ce54fec19055ce277ca2f39ba42c4906020016111b4565b600060608180808080871580612b8d5750600b548810155b15612bb95750506040805160208101909152600080825295509350849250829150600290508180612c99565b6000888152600f602052604090208054600282015460038301546004840154600585015460068601546001870180546001600160a01b03909716969095949360ff169291908690612c099061420a565b80601f0160208091040260200160405190810160405280929190818152602001828054612c359061420a565b8015612c825780601f10612c5757610100808354040283529160200191612c82565b820191906000526020600020905b815481529060010190602001808311612c6557829003601f168201915b505050505095509750975097509750975097509750505b919395979092949650565b600082815260208190526040902060010154612cbf81613170565b610cd38383613201565b612ce16000805160206145d2833981519152336121bd565b612cfd5760405162461bcd60e51b8152600401610add9061405e565b612d156000805160206145b28339815191528261317d565b6040516377e72f7b60e11b81526001600160a01b0382811660048301527f0000000000000000000000000000000000000000000000000000000000000000169063efce5ef690602401612188565b60008080808080861580612d795750600d548710155b15612d9657506000945084935083925060029150829050806119e2565b50505060009384525050600e6020525060409020805460018201546002830154600384015460048501546005909501546001600160a01b03909416959294919360ff90911692565b612df66000805160206145d2833981519152336121bd565b612e125760405162461bcd60e51b8152600401610add9061405e565b612e2a6000805160206145b283398151915282613201565b60405163ac14c14f60e01b81526001600160a01b0382811660048301527f0000000000000000000000000000000000000000000000000000000000000000169063ac14c14f90602401612188565b612e906000805160206145d2833981519152336121bd565b612eac5760405162461bcd60e51b8152600401610add9061405e565b6001600160a01b0380851660009081526007602052604090819020859055516328ba8b7760e21b81527f00000000000000000000000000000000000000000000000000000000000000009091169063a2ea2ddc90612f149087908790879087906004016143c0565b600060405180830381600087803b158015612f2e57600080fd5b505af1158015612f42573d6000803e3d6000fd5b5050505050505050565b60105460ff1615612f6f5760405162461bcd60e51b8152600401610add90613fc6565b6000805160206145b2833981519152612f8781613170565b6000848152600a6020526040812090600382015460ff166002811115612faf57612faf613d7c565b14612fcc5760405162461bcd60e51b8152600401610add90613fe6565b60038101805460ff1916600290811790915581015481546001600160a01b03166000908152600460205260408120805490919061300a90849061404b565b909155505080546001600160a01b031660009081526005602052604081209061303662015180426143f2565b82549091508114613050578082556000600183015561308a565b826002015482600101541061308257826002015482600101600082825461307791906141a9565b9091555061308a9050565b600060018301555b6001830154835460028501546040516001600160a01b0393841693909216918a917f4f54d2de4848c2fe39afabbd588b1b4136b1b7be330a5aa04524c2305abbd4cc916130db91908c908c906140aa565b60405180910390a460405163ec22bd6160e01b81526001600160a01b037f0000000000000000000000000000000000000000000000000000000000000000169063ec22bd6190613135908a9033908b908b90600401614414565b600060405180830381600087803b15801561314f57600080fd5b505af1158015613163573d6000803e3d6000fd5b5050505050505050505050565b61317a813361363e565b50565b61318782826121bd565b61125e576000828152602081815260408083206001600160a01b03851684529091529020805460ff191660011790556131bd3390565b6001600160a01b0316816001600160a01b0316837f2f8788117e7eff1d82e926ec794901d17c78024a50270940304540a733656f0d60405160405180910390a45050565b61320b82826121bd565b1561125e576000828152602081815260408083206001600160a01b0385168085529252808320805460ff1916905551339285917ff6391f5c32d9c69d2a47ea670b442974b53935d1edc7fd64eb21e047a839171b9190a45050565b6001600160a01b03811660009081526006602052604090206001548154429161328e9161404b565b8111156132a3578082556001808301556132be565b60018260010160008282546132b8919061404b565b90915550505b60025482600101541115610cd3576003546132d9908261404b565b6001600160a01b03848116600081815260076020526040908190209390935591516310aac22f60e21b815260048101929092526060602483015260096064830152684652455155454e435960b81b608483015260a06044830152602260a48301527f546f6f206d616e79207472616e736665727320696e2073686f72742077696e6460c4830152616f7760f01b60e48301527f000000000000000000000000000000000000000000000000000000000000000016906342ab08bc9061010401600060405180830381600087803b1580156133b257600080fd5b505af11580156133c6573d6000803e3d6000fd5b505050506001600160a01b03838116600081815260076020526040908190205490516328ba8b7760e21b81526004810192909252602482015260606044820152601060648201526f08ce4cae2eacadcc6f240c4e4cac2c6d60831b60848201527f00000000000000000000000000000000000000000000000000000000000000009091169063a2ea2ddc9060a4016128c9565b6001600160a01b03831660009081526005602052604081209061347f62015180426143f2565b8254909150811461349557808255600060018301555b6040516358f2ef1760e01b81526001600160a01b0386811660048301526000917f0000000000000000000000000000000000000000000000000000000000000000909116906358f2ef1790602401602060405180830381865afa158015613500573d6000803e3d6000fd5b505050506040513d601f19601f82011682018060405250810190613524919061436e565b9050600081858560010154613539919061404b565b11905069021e19e0c9bab240000085101581806135535750805b156136195760006135678989898686613697565b90508686600101600082825461357d919061404b565b9091555050604051631164a59160e31b8152600481018290526001600160a01b038a811660248301528981166044830152606482018990527f00000000000000000000000000000000000000000000000000000000000000001690638b252c8890608401600060405180830381600087803b1580156135fb57600080fd5b505af115801561360f573d6000803e3d6000fd5b5050505050612f42565b8585600101600082825461362d919061404b565b90915550612f42905088888861393f565b61364882826121bd565b61125e5761365581613a25565b613660836020613a37565b60405160200161367192919061443f565b60408051601f198184030181529082905262461bcd60e51b8252610add916004016144b4565b6001600160a01b0385166000908152600460205260408120548411156136cf5760405162461bcd60e51b8152600401610add90614183565b6001600160a01b038616600090815260046020526040812080548692906136f79084906141a9565b90915550506009805490600061370c836141db565b909155506000818152600a6020526040812080546001600160a01b038a81166001600160a01b0319928316178355600183018054918b16919092161790556002810187905560038101805460ff19169055426004820155919250846137b95783613793576040518060400160405280600581526020016427aa2422a960d91b8152506137de565b6040518060400160405280600881526020016709882a48e8abea8b60c31b8152506137de565b6040518060400160405280600b81526020016a111052531657d31253525560aa1b8152505b9050866001600160a01b0316886001600160a01b0316847f9405ad0a6208539879349284d71265479b1623846f70303da1f9890d6e8c10a78960405161382691815260200190565b60405180910390a460405163770b872960e01b81526001600160a01b037f0000000000000000000000000000000000000000000000000000000000000000169063770b8729906138829086908c908c908c9088906004016144c7565b600060405180830381600087803b15801561389c57600080fd5b505af11580156138b0573d6000803e3d6000fd5b50506040516310aac22f60e21b81526001600160a01b037f00000000000000000000000000000000000000000000000000000000000000001692506342ab08bc9150613902908b90859060040161450b565b600060405180830381600087803b15801561391c57600080fd5b505af1158015613930573d6000803e3d6000fd5b50505050505095945050505050565b6001600160a01b0383166000908152600460205260409020548111156139775760405162461bcd60e51b8152600401610add90614183565b6001600160a01b0383166000908152600460205260408120805483929061399f9084906141a9565b90915550506001600160a01b038216600090815260046020526040812080548392906139cc90849061404b565b92505081905550816001600160a01b0316836001600160a01b03167f961f7160d742cfc3dc4123da66debbf9a494518bfbcfca5df7dd4f3dd2b0565f83604051613a1891815260200190565b60405180910390a3505050565b6060610ab46001600160a01b03831660145b60606000613a4683600261456d565b613a5190600261404b565b67ffffffffffffffff811115613a6957613a696141f4565b6040519080825280601f01601f191660200182016040528015613a93576020820181803683370190505b509050600360fc1b81600081518110613aae57613aae614584565b60200101906001600160f81b031916908160001a905350600f60fb1b81600181518110613add57613add614584565b60200101906001600160f81b031916908160001a9053506000613b0184600261456d565b613b0c90600161404b565b90505b6001811115613b84576f181899199a1a9b1b9c1cb0b131b232b360811b85600f1660108110613b4057613b40614584565b1a60f81b828281518110613b5657613b56614584565b60200101906001600160f81b031916908160001a90535060049490941c93613b7d8161459a565b9050613b0f565b508315613bd35760405162461bcd60e51b815260206004820181905260248201527f537472696e67733a20686578206c656e67746820696e73756666696369656e746044820152606401610add565b9392505050565b600060208284031215613bec57600080fd5b81356001600160e01b031981168114613bd357600080fd5b600060208284031215613c1657600080fd5b5035919050565b80356001600160a01b0381168114613c3457600080fd5b919050565b801515811461317a57600080fd5b60008060408385031215613c5a57600080fd5b613c6383613c1d565b91506020830135613c7381613c39565b809150509250929050565b60008083601f840112613c9057600080fd5b50813567ffffffffffffffff811115613ca857600080fd5b602083019150836020828501011115613cc057600080fd5b9250929050565b600080600060408486031215613cdc57600080fd5b83359250602084013567ffffffffffffffff811115613cfa57600080fd5b613d0686828701613c7e565b9497909650939450505050565b600060208284031215613d2557600080fd5b613bd382613c1d565b60008060408385031215613d4157600080fd5b82359150613d5160208401613c1d565b90509250929050565b60008060408385031215613d6d57600080fd5b50508035926020909101359150565b634e487b7160e01b600052602160045260246000fd5b6003811061317a57634e487b7160e01b600052602160045260246000fd5b6001600160a01b038781168252861660208201526040810185905260c08101613dd885613d92565b8460608301528360808301528260a0830152979650505050505050565b60008060008060608587031215613e0b57600080fd5b843567ffffffffffffffff811115613e2257600080fd5b613e2e87828801613c7e565b90989097506020870135966040013595509350505050565b60008060408385031215613e5957600080fd5b613e6283613c1d565b946020939093013593505050565b600080600060608486031215613e8557600080fd5b505081359360208301359350604090920135919050565b60005b83811015613eb7578181015183820152602001613e9f565b50506000910152565b60008151808452613ed8816020860160208601613e9c565b601f01601f19169290920160200192915050565b6001600160a01b038816815260e060208201819052600090613f1090830189613ec0565b9050866040830152856060830152613f2785613d92565b8460808301528360a08301528260c083015298975050505050505050565b6001600160a01b0387168152602081018690526040810185905260c08101613dd885613d92565b60008060008060608587031215613f8257600080fd5b613f8b85613c1d565b935060208501359250604085013567ffffffffffffffff811115613fae57600080fd5b613fba87828801613c7e565b95989497509550505050565b6020808252600690820152651c185d5cd95960d21b604082015260600190565b6020808252600b908201526a6e6f742070656e64696e6760a81b604082015260600190565b60208082526010908201526f185b1c9958591e48185c1c1c9bdd995960821b604082015260600190565b634e487b7160e01b600052601160045260246000fd5b80820180821115610ab457610ab4614035565b6020808252600990820152683737ba1030b236b4b760b91b604082015260600190565b81835281816020850137506000828201602090810191909152601f909101601f19169091010190565b8381526040602082015260006140c4604083018486614081565b95945050505050565b6000602082840312156140df57600080fd5b8151613bd381613c39565b60208082526010908201526f12d650cbd4d095081c995c5d5a5c995960821b604082015260600190565b6020808252600b908201526a189b1858dadb1a5cdd195960aa1b604082015260600190565b6020808252600e908201526d1858d8dbdd5b9d081b1bd8dad95960921b604082015260600190565b6020808252600890820152670616d6f756e743d360c41b604082015260600190565b6020808252600c908201526b1a5b9cdd59999a58da595b9d60a21b604082015260600190565b81810381811115610ab457610ab4614035565b60208082526005908201526406574683d360dc1b604082015260600190565b6000600182016141ed576141ed614035565b5060010190565b634e487b7160e01b600052604160045260246000fd5b600181811c9082168061421e57607f821691505b60208210810361423e57634e487b7160e01b600052602260045260246000fd5b50919050565b601f821115610cd357600081815260208120601f850160051c8101602086101561426b5750805b601f850160051c820191505b81811015610dab57828155600101614277565b67ffffffffffffffff8311156142a2576142a26141f4565b6142b6836142b0835461420a565b83614244565b6000601f8411600181146142ea57600085156142d25750838201355b600019600387901b1c1916600186901b1783556121b6565b600083815260209020601f19861690835b8281101561431b57868501358255602094850194600190920191016142fb565b50868210156143385760001960f88860031b161c19848701351681555b505060018560011b0183555050505050565b60408152600061435e604083018587614081565b9050826020830152949350505050565b60006020828403121561438057600080fd5b5051919050565b6060815260006143b06060830160098152684652455155454e435960b81b602082015260400190565b6020830194909452506040015290565b60018060a01b03851681528360208201526060604082015260006143e8606083018486614081565b9695505050505050565b60008261440f57634e487b7160e01b600052601260045260246000fd5b500490565b8481526001600160a01b03841660208201526060604082018190526000906143e89083018486614081565b7f416363657373436f6e74726f6c3a206163636f756e7420000000000000000000815260008351614477816017850160208801613e9c565b7001034b99036b4b9b9b4b733903937b6329607d1b60179184019182015283516144a8816028840160208801613e9c565b01602801949350505050565b602081526000613bd36020830184613ec0565b8581526001600160a01b038581166020830152841660408201526060810183905260a06080820181905260009061450090830184613ec0565b979650505050505050565b6001600160a01b038316815260606020820181905260009061452f90830184613ec0565b828103604093840152601a81527f457363726f77656420666f72206d616e75616c207265766965770000000000006020820152919091019392505050565b8082028115828204841417610ab457610ab4614035565b634e487b7160e01b600052603260045260246000fd5b6000816145a9576145a9614035565b50600019019056fe59a1c48e5837ad7a7f3dcedcbe129bf3249ec4fbf651fd4f5e2600ead39fe2f5a49807205ce4d355092ef5a8a18f56e8913cf4a201fbe287825b095693c21775a2646970667358221220d64d7d56b625c8ad090bf5769cacc2853627476a7aa58e091e62e65f8252d78864736f6c63430008140033",
  "linkReferences": {},
  "deployedLinkReferences": {}
}