{
  "_format": "hh-sol-artifact-1",
  "contractName": "BankVault",
  "sourceName": "contracts/BankVault.sol",
  "abi": [
    {
      "inputs": [
        {
          "internalType": "contract IERC20",
          "name": "_token",
          "type": "address"
        },
        {
          "internalType": "contract IdentityRegistry",
          "name": "_identity",
          "type": "address"
        },
        {
          "internalType": "contract RiskEngine",
          "name": "_risk",
          "type": "address"
        },
        {
          "internalType": "contract ComplianceLog",
          "name": "_log",
          "type": "address"
        }
      ],
      "stateMutability": "nonpayable",
      "type": "constructor"
    },
    {
      "anonymous": false,
      "inputs": [
        {
          "indexed": true,
          "internalType": "address",
          "name": "user",
          "type": "address"
        },
        {
          "indexed": false,
          "internalType": "uint256",
          "name": "amount",
          "type": "uint256"
        }
      ],
      "name": "Deposited",
      "type": "event"
    },
    {
      "anonymous": false,
      "inputs": [
        {
          "indexed": true,
          "internalType": "uint256",
          "name": "caseId",
          "type": "uint256"
        },
        {
          "indexed": true,
          "internalType": "address",
          "name": "from",
          "type": "address"
        },
        {
          "indexed": true,
          "internalType": "address",
          "name": "to",
          "type": "address"
        },
        {
          "indexed": false,
          "internalType": "uint256",
          "name": "amount",
          "type": "uint256"
        }
      ],
      "name": "EscrowCreated",
      "type": "event"
    },
    {
      "anonymous": false,
      "inputs": [
        {
          "indexed": true,
          "internalType": "address",
          "name": "from",
          "type": "address"
        },
        {
          "indexed": true,
          "internalType": "address",
          "name": "to",
          "type": "address"
        },
        {
          "indexed": false,
          "internalType": "uint256",
          "name": "amount",
          "type": "uint256"
        }
      ],
      "name": "ImmediateTransfer",
      "type": "event"
    },
    {
      "anonymous": false,
      "inputs": [
        {
          "indexed": true,
          "internalType": "address",
          "name": "borrower",
          "type": "address"
        },
        {
          "indexed": false,
          "internalType": "uint256",
          "name": "amount",
          "type": "uint256"
        }
      ],
      "name": "LoanRepaid",
      "type": "event"
    },
    {
      "anonymous": false,
      "inputs": [
        {
          "indexed": true,
          "internalType": "address",
          "name": "borrower",
          "type": "address"
        },
        {
          "indexed": false,
          "internalType": "uint256",
          "name": "principal",
          "type": "uint256"
        },
        {
          "indexed": false,
          "internalType": "uint256",
          "name": "rateBps",
          "type": "uint256"
        }
      ],
      "name": "LoanRequested",
      "type": "event"
    },
    {
      "anonymous": false,
      "inputs": [
        {
          "indexed": true,
          "internalType": "bytes32",
          "name": "role",
          "type": "bytes32"
        },
        {
          "indexed": true,
          "internalType": "bytes32",
          "name": "previousAdminRole",
          "type": "bytes32"
        },
        {
          "indexed": true,
          "internalType": "bytes32",
          "name": "newAdminRole",
          "type": "bytes32"
        }
      ],
      "name": "RoleAdminChanged",
      "type": "event"
    },
    {
      "anonymous": false,
      "inputs": [
        {
          "indexed": true,
          "internalType": "bytes32",
          "name": "role",
          "type": "bytes32"
        },
        {
          "indexed": true,
          "internalType": "address",
          "name": "account",
          "type": "address"
        },
        {
          "indexed": true,
          "internalType": "address",
          "name": "sender",
          "type": "address"
        }
      ],
      "name": "RoleGranted",
      "type": "event"
    },
    {
      "anonymous": false,
      "inputs": [
        {
          "indexed": true,
          "internalType": "bytes32",
          "name": "role",
          "type": "bytes32"
        },
        {
          "indexed": true,
          "internalType": "address",
          "name": "account",
          "type": "address"
        },
        {
          "indexed": true,
          "internalType": "address",
          "name": "sender",
          "type": "address"
        }
      ],
      "name": "RoleRevoked",
      "type": "event"
    },
    {
      "anonymous": false,
      "inputs": [
        {
          "indexed": true,
          "internalType": "address",
          "name": "user",
          "type": "address"
        },
        {
          "indexed": false,
          "internalType": "uint256",
          "name": "amount",
          "type": "uint256"
        }
      ],
      "name": "Withdrawn",
      "type": "event"
    },
    {
      "inputs": [],
      "name": "ADMIN_ROLE",
      "outputs": [
        {
          "internalType": "bytes32",
          "name": "",
          "type": "bytes32"
        }
      ],
      "stateMutability": "view",
      "type": "function"
    },
    {
      "inputs": [],
      "name": "AUDITOR_ROLE",
      "outputs": [
        {
          "internalType": "bytes32",
          "name": "",
          "type": "bytes32"
        }
      ],
      "stateMutability": "view",
      "type": "function"
    },
    {
      "inputs": [],
      "name": "DEFAULT_ADMIN_ROLE",
      "outputs": [
        {
          "internalType": "bytes32",
          "name": "",
          "type": "bytes32"
        }
      ],
      "stateMutability": "view",
      "type": "function"
    },
    {
      "inputs": [],
      "name": "TEN_K",
      "outputs": [
        {
          "internalType": "uint256",
          "name": "",
          "type": "uint256"
        }
      ],
      "stateMutability": "view",
      "type": "function"
    },
    {
      "inputs": [
        {
          "internalType": "address",
          "name": "auditor",
          "type": "address"
        }
      ],
      "name": "addAuditor",
      "outputs": [],
      "stateMutability": "nonpayable",
      "type": "function"
    },
    {
      "inputs": [
        {
          "internalType": "uint256",
          "name": "caseId",
          "type": "uint256"
        }
      ],
      "name": "approveEscrow",
      "outputs": [],
      "stateMutability": "nonpayable",
      "type": "function"
    },
    {
      "inputs": [
        {
          "internalType": "address",
          "name": "",
          "type": "address"
        }
      ],
      "name": "balances",
      "outputs": [
        {
          "internalType": "uint256",
          "name": "",
          "type": "uint256"
        }
      ],
      "stateMutability": "view",
      "type": "function"
    },
    {
      "inputs": [
        {
          "internalType": "address",
          "name": "",
          "type": "address"
        }
      ],
      "name": "blacklisted",
      "outputs": [
        {
          "internalType": "bool",
          "name": "",
          "type": "bool"
        }
      ],
      "stateMutability": "view",
      "type": "function"
    },
    {
      "inputs": [
        {
          "internalType": "address",
          "name": "",
          "type": "address"
        }
      ],
      "name": "dailyStats",
      "outputs": [
        {
          "internalType": "uint256",
          "name": "day",
          "type": "uint256"
        },
        {
          "internalType": "uint256",
          "name": "spent",
          "type": "uint256"
        }
      ],
      "stateMutability": "view",
      "type": "function"
    },
    {
      "inputs": [
        {
          "internalType": "uint256",
          "name": "amount",
          "type": "uint256"
        }
      ],
      "name": "deposit",
      "outputs": [],
      "stateMutability": "nonpayable",
      "type": "function"
    },
    {
      "inputs": [],
      "name": "depositApyBps",
      "outputs": [
        {
          "internalType": "uint256",
          "name": "",
          "type": "uint256"
        }
      ],
      "stateMutability": "view",
      "type": "function"
    },
    {
      "inputs": [
        {
          "internalType": "address",
          "name": "user",
          "type": "address"
        },
        {
          "internalType": "uint256",
          "name": "until",
          "type": "uint256"
        },
        {
          "internalType": "string",
          "name": "reason",
          "type": "string"
        }
      ],
      "name": "forceLockAccount",
      "outputs": [],
      "stateMutability": "nonpayable",
      "type": "function"
    },
    {
      "inputs": [
        {
          "internalType": "address",
          "name": "",
          "type": "address"
        }
      ],
      "name": "freqStats",
      "outputs": [
        {
          "internalType": "uint256",
          "name": "windowStart",
          "type": "uint256"
        },
        {
          "internalType": "uint256",
          "name": "count",
          "type": "uint256"
        }
      ],
      "stateMutability": "view",
      "type": "function"
    },
    {
      "inputs": [],
      "name": "frequencyWindow",
      "outputs": [
        {
          "internalType": "uint256",
          "name": "",
          "type": "uint256"
        }
      ],
      "stateMutability": "view",
      "type": "function"
    },
    {
      "inputs": [
        {
          "internalType": "uint256",
          "name": "caseId",
          "type": "uint256"
        }
      ],
      "name": "getEscrow",
      "outputs": [
        {
          "internalType": "address",
          "name": "from_",
          "type": "address"
        },
        {
          "internalType": "address",
          "name": "to_",
          "type": "address"
        },
        {
          "internalType": "uint256",
          "name": "amount_",
          "type": "uint256"
        },
        {
          "internalType": "enum BankVault.EscrowStatus",
          "name": "status_",
          "type": "uint8"
        },
        {
          "internalType": "uint256",
          "name": "createdAt_",
          "type": "uint256"
        },
        {
          "internalType": "uint256",
          "name": "approvals_",
          "type": "uint256"
        }
      ],
      "stateMutability": "view",
      "type": "function"
    },
    {
      "inputs": [
        {
          "internalType": "bytes32",
          "name": "role",
          "type": "bytes32"
        }
      ],
      "name": "getRoleAdmin",
      "outputs": [
        {
          "internalType": "bytes32",
          "name": "",
          "type": "bytes32"
        }
      ],
      "stateMutability": "view",
      "type": "function"
    },
    {
      "inputs": [
        {
          "internalType": "bytes32",
          "name": "role",
          "type": "bytes32"
        },
        {
          "internalType": "address",
          "name": "account",
          "type": "address"
        }
      ],
      "name": "grantRole",
      "outputs": [],
      "stateMutability": "nonpayable",
      "type": "function"
    },
    {
      "inputs": [
        {
          "internalType": "bytes32",
          "name": "role",
          "type": "bytes32"
        },
        {
          "internalType": "address",
          "name": "account",
          "type": "address"
        }
      ],
      "name": "hasRole",
      "outputs": [
        {
          "internalType": "bool",
          "name": "",
          "type": "bool"
        }
      ],
      "stateMutability": "view",
      "type": "function"
    },
    {
      "inputs": [],
      "name": "identity",
      "outputs": [
        {
          "internalType": "contract IdentityRegistry",
          "name": "",
          "type": "address"
        }
      ],
      "stateMutability": "view",
      "type": "function"
    },
    {
      "inputs": [],
      "name": "lockDuration",
      "outputs": [
        {
          "internalType": "uint256",
          "name": "",
          "type": "uint256"
        }
      ],
      "stateMutability": "view",
      "type": "function"
    },
    {
      "inputs": [
        {
          "internalType": "address",
          "name": "",
          "type": "address"
        }
      ],
      "name": "lockedUntil",
      "outputs": [
        {
          "internalType": "uint256",
          "name": "",
          "type": "uint256"
        }
      ],
      "stateMutability": "view",
      "type": "function"
    },
    {
      "inputs": [],
      "name": "logContract",
      "outputs": [
        {
          "internalType": "contract ComplianceLog",
          "name": "",
          "type": "address"
        }
      ],
      "stateMutability": "view",
      "type": "function"
    },
    {
      "inputs": [],
      "name": "maxTxPerWindow",
      "outputs": [
        {
          "internalType": "uint256",
          "name": "",
          "type": "uint256"
        }
      ],
      "stateMutability": "view",
      "type": "function"
    },
    {
      "inputs": [],
      "name": "nextCaseId",
      "outputs": [
        {
          "internalType": "uint256",
          "name": "",
          "type": "uint256"
        }
      ],
      "stateMutability": "view",
      "type": "function"
    },
    {
      "inputs": [],
      "name": "pause",
      "outputs": [],
      "stateMutability": "nonpayable",
      "type": "function"
    },
    {
      "inputs": [],
      "name": "paused",
      "outputs": [
        {
          "internalType": "bool",
          "name": "",
          "type": "bool"
        }
      ],
      "stateMutability": "view",
      "type": "function"
    },
    {
      "inputs": [
        {
          "internalType": "uint256",
          "name": "caseId",
          "type": "uint256"
        },
        {
          "internalType": "string",
          "name": "reason",
          "type": "string"
        }
      ],
      "name": "rejectEscrow",
      "outputs": [],
      "stateMutability": "nonpayable",
      "type": "function"
    },
    {
      "inputs": [
        {
          "internalType": "address",
          "name": "auditor",
          "type": "address"
        }
      ],
      "name": "removeAuditor",
      "outputs": [],
      "stateMutability": "nonpayable",
      "type": "function"
    },
    {
      "inputs": [
        {
          "internalType": "bytes32",
          "name": "role",
          "type": "bytes32"
        },
        {
          "internalType": "address",
          "name": "account",
          "type": "address"
        }
      ],
      "name": "renounceRole",
      "outputs": [],
      "stateMutability": "nonpayable",
      "type": "function"
    },
    {
      "inputs": [
        {
          "internalType": "uint256",
          "name": "amount",
          "type": "uint256"
        }
      ],
      "name": "repayLoan",
      "outputs": [],
      "stateMutability": "nonpayable",
      "type": "function"
    },
    {
      "inputs": [
        {
          "internalType": "uint256",
          "name": "principal",
          "type": "uint256"
        }
      ],
      "name": "requestLoan",
      "outputs": [],
      "stateMutability": "nonpayable",
      "type": "function"
    },
    {
      "inputs": [
        {
          "internalType": "bytes32",
          "name": "role",
          "type": "bytes32"
        },
        {
          "internalType": "address",
          "name": "account",
          "type": "address"
        }
      ],
      "name": "revokeRole",
      "outputs": [],
      "stateMutability": "nonpayable",
      "type": "function"
    },
    {
      "inputs": [],
      "name": "riskEngine",
      "outputs": [
        {
          "internalType": "contract RiskEngine",
          "name": "",
          "type": "address"
        }
      ],
      "stateMutability": "view",
      "type": "function"
    },
    {
      "inputs": [
        {
          "internalType": "address",
          "name": "user",
          "type": "address"
        },
        {
          "internalType": "bool",
          "name": "isBlacklisted_",
          "type": "bool"
        }
      ],
      "name": "setBlacklist",
      "outputs": [],
      "stateMutability": "nonpayable",
      "type": "function"
    },
    {
      "inputs": [
        {
          "internalType": "uint256",
          "name": "bps",
          "type": "uint256"
        }
      ],
      "name": "setDepositApyBps",
      "outputs": [],
      "stateMutability": "nonpayable",
      "type": "function"
    },
    {
      "inputs": [
        {
          "internalType": "uint256",
          "name": "windowSec",
          "type": "uint256"
        },
        {
          "internalType": "uint256",
          "name": "maxCount",
          "type": "uint256"
        },
        {
          "internalType": "uint256",
          "name": "lockSec",
          "type": "uint256"
        }
      ],
      "name": "setFrequencyParams",
      "outputs": [],
      "stateMutability": "nonpayable",
      "type": "function"
    },
    {
      "inputs": [
        {
          "internalType": "bytes4",
          "name": "interfaceId",
          "type": "bytes4"
        }
      ],
      "name": "supportsInterface",
      "outputs": [
        {
          "internalType": "bool",
          "name": "",
          "type": "bool"
        }
      ],
      "stateMutability": "view",
      "type": "function"
    },
    {
      "inputs": [],
      "name": "token",
      "outputs": [
        {
          "internalType": "contract IERC20",
          "name": "",
          "type": "address"
        }
      ],
      "stateMutability": "view",
      "type": "function"
    },
    {
      "inputs": [
        {
          "internalType": "address",
          "name": "to",
          "type": "address"
        },
        {
          "internalType": "uint256",
          "name": "amount",
          "type": "uint256"
        }
      ],
      "name": "transfer",
      "outputs": [],
      "stateMutability": "nonpayable",
      "type": "function"
    },
    {
      "inputs": [
        {
          "internalType": "address",
          "name": "user",
          "type": "address"
        }
      ],
      "name": "unlockAccount",
      "outputs": [],
      "stateMutability": "nonpayable",
      "type": "function"
    },
    {
      "inputs": [],
      "name": "unpause",
      "outputs": [],
      "stateMutability": "nonpayable",
      "type": "function"
    },
    {
      "inputs": [
        {
          "internalType": "uint256",
          "name": "amount",
          "type": "uint256"
        }
      ],
      "name": "withdraw",
      "outputs": [],
      "stateMutability": "nonpayable",
      "type": "function"
    }
  ],
  "bytecode": "0x610100604052603c6001556003600255610e10600355600160095560c8600c553480156200002c57600080fd5b50604051620030ce380380620030ce8339810160408190526200004f916200016b565b6001600160a01b0380851660805283811660a05282811660c052811660e0526200007b600033620000b1565b620000a77fa49807205ce4d355092ef5a8a18f56e8913cf4a201fbe287825b095693c2177533620000b1565b50505050620001d3565b6000828152602081815260408083206001600160a01b038516845290915290205460ff166200014e576000828152602081815260408083206001600160a01b03851684529091529020805460ff191660011790556200010d3390565b6001600160a01b0316816001600160a01b0316837f2f8788117e7eff1d82e926ec794901d17c78024a50270940304540a733656f0d60405160405180910390a45b5050565b6001600160a01b03811681146200016857600080fd5b50565b600080600080608085870312156200018257600080fd5b84516200018f8162000152565b6020860151909450620001a28162000152565b6040860151909350620001b58162000152565b6060860151909250620001c88162000152565b939692955090935050565b60805160a05160c05160e051612e20620002ae6000396000818161054e015281816107c8015281816108fe0152818161107c015281816115df01528181611951015281816119eb01528181611a7901528181611be601528181611e5701528181611f12015281816120a10152818161232f01526123b301526000818161047701528181610f600152611fa10152600081816103240152818161099801528181610e1c0152818161113f0152818161133d015261168401526000818161061e01528181610b150152818161146d01526117d80152612e206000f3fe608060405234801561001057600080fd5b506004361061025e5760003560e01c80638456cb5911610146578063b6b55f25116100c3578063dbac26e911610087578063dbac26e9146105aa578063e429cef1146105cd578063e6116cfd146105e0578063f4baae41146105f3578063f6fcaf1214610606578063fc0c546a1461061957600080fd5b8063b6b55f25146104fa578063cc3a1aba1461050d578063cfe279b214610549578063d211d8e514610570578063d547741f1461059757600080fd5b80639bc289f11161010a5780639bc289f114610499578063a217fddf146104b9578063a9059cbb146104c1578063ab7b1c89146104d4578063b58fb457146104e757600080fd5b80638456cb59146104315780638d5d342914610439578063905295e31461044c57806391d148541461045f57806392b888ae1461047257600080fd5b80632f2ff15d116101df5780636350eae8116101a35780636350eae8146103b55780636e1d616e146103be578063731314e6146103d357806375b238fc146103e65780637d19e596146103fb578063837cbe041461042057600080fd5b80632f2ff15d1461037157806336568abe146103845780633f4ba83a1461039757806342569ca71461039f5780635c975abb146103a857600080fd5b806325d712401161022657806325d71240146102ed57806327e235e3146102f657806328118909146103165780632c159a1a1461031f5780632e1a7d4d1461035e57600080fd5b806301ffc9a71461026357806303fce7ef1461028b57806304554443146102a0578063153b0d1e146102b7578063248a9ca3146102ca575b600080fd5b6102766102713660046126c4565b610640565b60405190151581526020015b60405180910390f35b61029e6102993660046126ee565b610677565b005b6102a960035481565b604051908152602001610282565b61029e6102c5366004612731565b610885565b6102a96102d83660046126ee565b60009081526020819052604090206001015490565b6102a960015481565b6102a9610304366004612768565b60046020526000908152604090205481565b6102a960025481565b6103467f000000000000000000000000000000000000000000000000000000000000000081565b6040516001600160a01b039091168152602001610282565b61029e61036c3660046126ee565b610960565b61029e61037f366004612783565b610c01565b61029e610392366004612783565b610c26565b61029e610ca4565b6102a9600c5481565b600b546102769060ff1681565b6102a960095481565b6102a9600080516020612dab83398151915281565b61029e6103e13660046126ee565b610ce4565b6102a9600080516020612dcb83398151915281565b61040e6104093660046126ee565b610d1d565b604051610282969594939291906127c5565b6102a969021e19e0c9bab240000081565b61029e610da1565b61029e6104473660046126ee565b610de4565b61029e61045a366004612768565b611015565b61027661046d366004612783565b6110de565b6103467f000000000000000000000000000000000000000000000000000000000000000081565b6102a96104a7366004612768565b60076020526000908152604090205481565b6102a9600081565b61029e6104cf36600461281f565b611107565b61029e6104e23660046126ee565b611305565b61029e6104f5366004612849565b611556565b61029e6105083660046126ee565b61164c565b61053461051b366004612768565b6006602052600090815260409020805460019091015482565b60408051928352602083019190915201610282565b6103467f000000000000000000000000000000000000000000000000000000000000000081565b61053461057e366004612768565b6005602052600090815260409020805460019091015482565b61029e6105a5366004612783565b6118c1565b6102766105b8366004612768565b60086020526000908152604090205460ff1681565b61029e6105db366004612768565b6118e6565b61029e6105ee366004612768565b611980565b61029e6106013660046128be565b611a1a565b61029e610614366004612918565b611aee565b6103467f000000000000000000000000000000000000000000000000000000000000000081565b60006001600160e01b03198216637965db0b60e01b148061067157506301ffc9a760e01b6001600160e01b03198316145b92915050565b600b5460ff16156106a35760405162461bcd60e51b815260040161069a90612964565b60405180910390fd5b600080516020612dab8339815191526106bb81611c5a565b6000828152600a6020526040812090600382015460ff1660028111156106e3576106e36127af565b1461071e5760405162461bcd60e51b815260206004820152600b60248201526a6e6f742070656e64696e6760a81b604482015260640161069a565b33600090815260068201602052604090205460ff16156107735760405162461bcd60e51b815260206004820152601060248201526f185b1c9958591e48185c1c1c9bdd995960821b604482015260640161069a565b3360009081526006820160205260408120805460ff19166001908117909155600583018054919290916107a790849061299a565b909155505060405163af19422760e01b8152600481018490523360248201527f00000000000000000000000000000000000000000000000000000000000000006001600160a01b03169063af19422790604401600060405180830381600087803b15801561081457600080fd5b505af1158015610828573d6000803e3d6000fd5b5050505060028160050154106108805760038101805460ff191660019081179091556002820154908201546001600160a01b03166000908152600460205260408120805490919061087a90849061299a565b90915550505b505050565b61089d600080516020612dcb833981519152336110de565b6108b95760405162461bcd60e51b815260040161069a906129ad565b6001600160a01b0382811660008181526008602052604090819020805460ff19168515159081179091559051632be077bb60e11b8152600481019290925260248201527f0000000000000000000000000000000000000000000000000000000000000000909116906357c0ef7690604401600060405180830381600087803b15801561094457600080fd5b505af1158015610958573d6000803e3d6000fd5b505050505050565b600b5460ff16156109835760405162461bcd60e51b815260040161069a90612964565b60405163607a23f360e01b81523360048201527f00000000000000000000000000000000000000000000000000000000000000006001600160a01b03169063607a23f390602401602060405180830381865afa1580156109e7573d6000803e3d6000fd5b505050506040513d601f19601f82011682018060405250810190610a0b91906129d0565b610a275760405162461bcd60e51b815260040161069a906129ed565b3360009081526008602052604090205460ff1615610a575760405162461bcd60e51b815260040161069a90612a17565b33600090815260076020526040902054421015610a865760405162461bcd60e51b815260040161069a90612a3c565b60008111610aa65760405162461bcd60e51b815260040161069a90612a64565b33600090815260046020526040902054811115610ad55760405162461bcd60e51b815260040161069a90612a86565b3360009081526004602052604081208054839290610af4908490612aac565b909155505060405163a9059cbb60e01b8152336004820152602481018290527f00000000000000000000000000000000000000000000000000000000000000006001600160a01b03169063a9059cbb906044016020604051808303816000875af1158015610b66573d6000803e3d6000fd5b505050506040513d601f19601f82011682018060405250810190610b8a91906129d0565b610bc85760405162461bcd60e51b815260206004820152600f60248201526e1d1c985b9cd9995c8819985a5b1959608a1b604482015260640161069a565b60405181815233907f7084f5476618d8e60b11ef0d7d3f06914655adb8793e28ff7f018d4c76d505d5906020015b60405180910390a250565b600082815260208190526040902060010154610c1c81611c5a565b6108808383611c67565b6001600160a01b0381163314610c965760405162461bcd60e51b815260206004820152602f60248201527f416363657373436f6e74726f6c3a2063616e206f6e6c792072656e6f756e636560448201526e103937b632b9903337b91039b2b63360891b606482015260840161069a565b610ca08282611ceb565b5050565b610cbc600080516020612dcb833981519152336110de565b610cd85760405162461bcd60e51b815260040161069a906129ad565b600b805460ff19169055565b610cfc600080516020612dcb833981519152336110de565b610d185760405162461bcd60e51b815260040161069a906129ad565b600c55565b60008080808080861580610d3357506009548710155b15610d505750600094508493508392506002915082905080610d98565b5050506000848152600a60205260409020805460018201546002830154600384015460048501546005909501546001600160a01b039485169850939092169550935060ff1691905b91939550919395565b610db9600080516020612dcb833981519152336110de565b610dd55760405162461bcd60e51b815260040161069a906129ad565b600b805460ff19166001179055565b600b5460ff1615610e075760405162461bcd60e51b815260040161069a90612964565b60405163607a23f360e01b81523360048201527f00000000000000000000000000000000000000000000000000000000000000006001600160a01b03169063607a23f390602401602060405180830381865afa158015610e6b573d6000803e3d6000fd5b505050506040513d601f19601f82011682018060405250810190610e8f91906129d0565b610eab5760405162461bcd60e51b815260040161069a906129ed565b3360009081526008602052604090205460ff1615610edb5760405162461bcd60e51b815260040161069a90612a17565b33600090815260076020526040902054421015610f0a5760405162461bcd60e51b815260040161069a90612a3c565b60008111610f485760405162461bcd60e51b815260206004820152600b60248201526a07072696e636970616c3d360ac1b604482015260640161069a565b604051638904b29b60e01b81523360048201526000907f00000000000000000000000000000000000000000000000000000000000000006001600160a01b031690638904b29b90602401602060405180830381865afa158015610faf573d6000803e3d6000fd5b505050506040513d601f19601f82011682018060405250810190610fd39190612abf565b604080518481526020810183905291925033917f7468760830aff5679376e50470c0493d21c88c599388e89b08c9512b3f3fbc7d910160405180910390a25050565b61102d600080516020612dcb833981519152336110de565b6110495760405162461bcd60e51b815260040161069a906129ad565b6001600160a01b0381811660008181526007602052604080822091909155516305c1e1db60e31b815260048101919091527f000000000000000000000000000000000000000000000000000000000000000090911690632e0f0ed8906024015b600060405180830381600087803b1580156110c357600080fd5b505af11580156110d7573d6000803e3d6000fd5b5050505050565b6000918252602082815260408084206001600160a01b0393909316845291905290205460ff1690565b600b5460ff161561112a5760405162461bcd60e51b815260040161069a90612964565b60405163607a23f360e01b81523360048201527f00000000000000000000000000000000000000000000000000000000000000006001600160a01b03169063607a23f390602401602060405180830381865afa15801561118e573d6000803e3d6000fd5b505050506040513d601f19601f820116820180604052508101906111b291906129d0565b6111ce5760405162461bcd60e51b815260040161069a906129ed565b3360009081526008602052604090205460ff16156111fe5760405162461bcd60e51b815260040161069a90612a17565b3360009081526007602052604090205442101561122d5760405162461bcd60e51b815260040161069a90612a3c565b6001600160a01b0382166112705760405162461bcd60e51b815260206004820152600a602482015269696e76616c696420746f60b01b604482015260640161069a565b600081116112905760405162461bcd60e51b815260040161069a90612a64565b6001600160a01b03821660009081526008602052604090205460ff16156112f15760405162461bcd60e51b81526020600482015260156024820152741c9958da5c1a595b9d08189b1858dadb1a5cdd1959605a1b604482015260640161069a565b6112fa33611d50565b610ca0338383611f43565b600b5460ff16156113285760405162461bcd60e51b815260040161069a90612964565b60405163607a23f360e01b81523360048201527f00000000000000000000000000000000000000000000000000000000000000006001600160a01b03169063607a23f390602401602060405180830381865afa15801561138c573d6000803e3d6000fd5b505050506040513d601f19601f820116820180604052508101906113b091906129d0565b6113cc5760405162461bcd60e51b815260040161069a906129ed565b3360009081526008602052604090205460ff16156113fc5760405162461bcd60e51b815260040161069a90612a17565b3360009081526007602052604090205442101561142b5760405162461bcd60e51b815260040161069a90612a3c565b6000811161144b5760405162461bcd60e51b815260040161069a90612a64565b6040516323b872dd60e01b8152336004820152306024820152604481018290527f00000000000000000000000000000000000000000000000000000000000000006001600160a01b0316906323b872dd906064016020604051808303816000875af11580156114be573d6000803e3d6000fd5b505050506040513d601f19601f820116820180604052508101906114e291906129d0565b6115245760405162461bcd60e51b81526020600482015260136024820152721d1c985b9cd9995c919c9bdb4819985a5b1959606a1b604482015260640161069a565b60405181815233907fc200a1f31dd659e356e0f112c82558e25f49f7b0f84438691cd96f5cb355882390602001610bf6565b61156e600080516020612dcb833981519152336110de565b61158a5760405162461bcd60e51b815260040161069a906129ad565b600183905560028290556003819055604080516020808201869052818301859052606080830185905283518084039091018152608083019384905280519101206329e6c8a160e11b9092526001600160a01b037f000000000000000000000000000000000000000000000000000000000000000016916353cd91429161161591600091608401612ad8565b600060405180830381600087803b15801561162f57600080fd5b505af1158015611643573d6000803e3d6000fd5b50505050505050565b600b5460ff161561166f5760405162461bcd60e51b815260040161069a90612964565b60405163607a23f360e01b81523360048201527f00000000000000000000000000000000000000000000000000000000000000006001600160a01b03169063607a23f390602401602060405180830381865afa1580156116d3573d6000803e3d6000fd5b505050506040513d601f19601f820116820180604052508101906116f791906129d0565b6117135760405162461bcd60e51b815260040161069a906129ed565b3360009081526008602052604090205460ff16156117435760405162461bcd60e51b815260040161069a90612a17565b336000908152600760205260409020544210156117725760405162461bcd60e51b815260040161069a90612a3c565b600081116117925760405162461bcd60e51b815260040161069a90612a64565b33600090815260046020526040812080548392906117b190849061299a565b90915550506040516323b872dd60e01b8152336004820152306024820152604481018290527f00000000000000000000000000000000000000000000000000000000000000006001600160a01b0316906323b872dd906064016020604051808303816000875af1158015611829573d6000803e3d6000fd5b505050506040513d601f19601f8201168201806040525081019061184d91906129d0565b61188f5760405162461bcd60e51b81526020600482015260136024820152721d1c985b9cd9995c919c9bdb4819985a5b1959606a1b604482015260640161069a565b60405181815233907f2da466a7b24304f47e87fa2e1e5a81b9831ce54fec19055ce277ca2f39ba42c490602001610bf6565b6000828152602081905260409020600101546118dc81611c5a565b6108808383611ceb565b6118fe600080516020612dcb833981519152336110de565b61191a5760405162461bcd60e51b815260040161069a906129ad565b611932600080516020612dab83398151915282611c67565b6040516377e72f7b60e11b81526001600160a01b0382811660048301527f0000000000000000000000000000000000000000000000000000000000000000169063efce5ef6906024016110a9565b611998600080516020612dcb833981519152336110de565b6119b45760405162461bcd60e51b815260040161069a906129ad565b6119cc600080516020612dab83398151915282611ceb565b60405163ac14c14f60e01b81526001600160a01b0382811660048301527f0000000000000000000000000000000000000000000000000000000000000000169063ac14c14f906024016110a9565b611a32600080516020612dcb833981519152336110de565b611a4e5760405162461bcd60e51b815260040161069a906129ad565b6001600160a01b0380851660009081526007602052604090819020859055516328ba8b7760e21b81527f00000000000000000000000000000000000000000000000000000000000000009091169063a2ea2ddc90611ab6908790879087908790600401612b3a565b600060405180830381600087803b158015611ad057600080fd5b505af1158015611ae4573d6000803e3d6000fd5b5050505050505050565b600b5460ff1615611b115760405162461bcd60e51b815260040161069a90612964565b600080516020612dab833981519152611b2981611c5a565b6000848152600a6020526040812090600382015460ff166002811115611b5157611b516127af565b14611b8c5760405162461bcd60e51b815260206004820152600b60248201526a6e6f742070656e64696e6760a81b604482015260640161069a565b60038101805460ff1916600290811790915581015481546001600160a01b031660009081526004602052604081208054909190611bca90849061299a565b909155505060405163ec22bd6160e01b81526001600160a01b037f0000000000000000000000000000000000000000000000000000000000000000169063ec22bd6190611c21908890339089908990600401612b6c565b600060405180830381600087803b158015611c3b57600080fd5b505af1158015611c4f573d6000803e3d6000fd5b505050505050505050565b611c648133612128565b50565b611c7182826110de565b610ca0576000828152602081815260408083206001600160a01b03851684529091529020805460ff19166001179055611ca73390565b6001600160a01b0316816001600160a01b0316837f2f8788117e7eff1d82e926ec794901d17c78024a50270940304540a733656f0d60405160405180910390a45050565b611cf582826110de565b15610ca0576000828152602081815260408083206001600160a01b0385168085529252808320805460ff1916905551339285917ff6391f5c32d9c69d2a47ea670b442974b53935d1edc7fd64eb21e047a839171b9190a45050565b6001600160a01b038116600090815260066020526040902060015481544291611d789161299a565b811115611d8d57808255600180830155611da8565b6001826001016000828254611da2919061299a565b90915550505b6002548260010154111561088057600354611dc3908261299a565b6001600160a01b03848116600081815260076020526040908190209390935591516310aac22f60e21b815260048101929092526060602483015260096064830152684652455155454e435960b81b608483015260a06044830152602260a48301527f546f6f206d616e79207472616e736665727320696e2073686f72742077696e6460c4830152616f7760f01b60e48301527f000000000000000000000000000000000000000000000000000000000000000016906342ab08bc9061010401600060405180830381600087803b158015611e9c57600080fd5b505af1158015611eb0573d6000803e3d6000fd5b505050506001600160a01b03838116600081815260076020526040908190205490516328ba8b7760e21b81526004810192909252602482015260606044820152601060648201526f08ce4cae2eacadcc6f240c4e4cac2c6d60831b60848201527f00000000000000000000000000000000000000000000000000000000000000009091169063a2ea2ddc9060a401611615565b6001600160a01b038316600090815260056020526040812090611f696201518042612b97565b82549091508114611f7f57808255600060018301555b6040516358f2ef1760e01b81526001600160a01b0386811660048301526000917f0000000000000000000000000000000000000000000000000000000000000000909116906358f2ef1790602401602060405180830381865afa158015611fea573d6000803e3d6000fd5b505050506040513d601f19601f8201168201806040525081019061200e9190612abf565b9050600081858560010154612023919061299a565b11905069021e19e0c9bab2400000851015818061203d5750805b156121035760006120518989898686612181565b905086866001016000828254612067919061299a565b9091555050604051631164a59160e31b8152600481018290526001600160a01b038a811660248301528981166044830152606482018990527f00000000000000000000000000000000000000000000000000000000000000001690638b252c8890608401600060405180830381600087803b1580156120e557600080fd5b505af11580156120f9573d6000803e3d6000fd5b5050505050611ae4565b85856001016000828254612117919061299a565b90915550611ae49050888888612429565b61213282826110de565b610ca05761213f8161250f565b61214a836020612521565b60405160200161215b929190612bdd565b60408051601f198184030181529082905262461bcd60e51b825261069a91600401612c7e565b6001600160a01b0385166000908152600460205260408120548411156121b95760405162461bcd60e51b815260040161069a90612a86565b6001600160a01b038616600090815260046020526040812080548692906121e1908490612aac565b9091555050600980549060006121f683612c91565b909155506000818152600a6020526040812080546001600160a01b038a81166001600160a01b0319928316178355600183018054918b16919092161790556002810187905560038101805460ff19169055426004820155919250846122a3578361227d576040518060400160405280600581526020016427aa2422a960d91b8152506122c8565b6040518060400160405280600881526020016709882a48e8abea8b60c31b8152506122c8565b6040518060400160405280600b81526020016a111052531657d31253525560aa1b8152505b9050866001600160a01b0316886001600160a01b0316847f9405ad0a6208539879349284d71265479b1623846f70303da1f9890d6e8c10a78960405161231091815260200190565b60405180910390a460405163770b872960e01b81526001600160a01b037f0000000000000000000000000000000000000000000000000000000000000000169063770b87299061236c9086908c908c908c908890600401612caa565b600060405180830381600087803b15801561238657600080fd5b505af115801561239a573d6000803e3d6000fd5b50506040516310aac22f60e21b81526001600160a01b037f00000000000000000000000000000000000000000000000000000000000000001692506342ab08bc91506123ec908b908590600401612cee565b600060405180830381600087803b15801561240657600080fd5b505af115801561241a573d6000803e3d6000fd5b50505050505095945050505050565b6001600160a01b0383166000908152600460205260409020548111156124615760405162461bcd60e51b815260040161069a90612a86565b6001600160a01b03831660009081526004602052604081208054839290612489908490612aac565b90915550506001600160a01b038216600090815260046020526040812080548392906124b690849061299a565b92505081905550816001600160a01b0316836001600160a01b03167f961f7160d742cfc3dc4123da66debbf9a494518bfbcfca5df7dd4f3dd2b0565f8360405161250291815260200190565b60405180910390a3505050565b60606106716001600160a01b03831660145b60606000612530836002612d50565b61253b90600261299a565b67ffffffffffffffff81111561255357612553612d67565b6040519080825280601f01601f19166020018201604052801561257d576020820181803683370190505b509050600360fc1b8160008151811061259857612598612d7d565b60200101906001600160f81b031916908160001a905350600f60fb1b816001815181106125c7576125c7612d7d565b60200101906001600160f81b031916908160001a90535060006125eb846002612d50565b6125f690600161299a565b90505b600181111561266e576f181899199a1a9b1b9c1cb0b131b232b360811b85600f166010811061262a5761262a612d7d565b1a60f81b82828151811061264057612640612d7d565b60200101906001600160f81b031916908160001a90535060049490941c9361266781612d93565b90506125f9565b5083156126bd5760405162461bcd60e51b815260206004820181905260248201527f537472696e67733a20686578206c656e67746820696e73756666696369656e74604482015260640161069a565b9392505050565b6000602082840312156126d657600080fd5b81356001600160e01b0319811681146126bd57600080fd5b60006020828403121561270057600080fd5b5035919050565b80356001600160a01b038116811461271e57600080fd5b919050565b8015158114611c6457600080fd5b6000806040838503121561274457600080fd5b61274d83612707565b9150602083013561275d81612723565b809150509250929050565b60006020828403121561277a57600080fd5b6126bd82612707565b6000806040838503121561279657600080fd5b823591506127a660208401612707565b90509250929050565b634e487b7160e01b600052602160045260246000fd5b6001600160a01b038781168252861660208201526040810185905260c081016003851061280257634e487b7160e01b600052602160045260246000fd5b8460608301528360808301528260a0830152979650505050505050565b6000806040838503121561283257600080fd5b61283b83612707565b946020939093013593505050565b60008060006060848603121561285e57600080fd5b505081359360208301359350604090920135919050565b60008083601f84011261288757600080fd5b50813567ffffffffffffffff81111561289f57600080fd5b6020830191508360208285010111156128b757600080fd5b9250929050565b600080600080606085870312156128d457600080fd5b6128dd85612707565b935060208501359250604085013567ffffffffffffffff81111561290057600080fd5b61290c87828801612875565b95989497509550505050565b60008060006040848603121561292d57600080fd5b83359250602084013567ffffffffffffffff81111561294b57600080fd5b61295786828701612875565b9497909650939450505050565b6020808252600690820152651c185d5cd95960d21b604082015260600190565b634e487b7160e01b600052601160045260246000fd5b8082018082111561067157610671612984565b6020808252600990820152683737ba1030b236b4b760b91b604082015260600190565b6000602082840312156129e257600080fd5b81516126bd81612723565b60208082526010908201526f12d650cbd4d095081c995c5d5a5c995960821b604082015260600190565b6020808252600b908201526a189b1858dadb1a5cdd195960aa1b604082015260600190565b6020808252600e908201526d1858d8dbdd5b9d081b1bd8dad95960921b604082015260600190565b6020808252600890820152670616d6f756e743d360c41b604082015260600190565b6020808252600c908201526b1a5b9cdd59999a58da595b9d60a21b604082015260600190565b8181038181111561067157610671612984565b600060208284031215612ad157600080fd5b5051919050565b606081526000612b016060830160098152684652455155454e435960b81b602082015260400190565b6020830194909452506040015290565b81835281816020850137506000828201602090810191909152601f909101601f19169091010190565b60018060a01b0385168152836020820152606060408201526000612b62606083018486612b11565b9695505050505050565b8481526001600160a01b0384166020820152606060408201819052600090612b629083018486612b11565b600082612bb457634e487b7160e01b600052601260045260246000fd5b500490565b60005b83811015612bd4578181015183820152602001612bbc565b50506000910152565b7f416363657373436f6e74726f6c3a206163636f756e7420000000000000000000815260008351612c15816017850160208801612bb9565b7001034b99036b4b9b9b4b733903937b6329607d1b6017918401918201528351612c46816028840160208801612bb9565b01602801949350505050565b60008151808452612c6a816020860160208601612bb9565b601f01601f19169290920160200192915050565b6020815260006126bd6020830184612c52565b600060018201612ca357612ca3612984565b5060010190565b8581526001600160a01b038581166020830152841660408201526060810183905260a060808201819052600090612ce390830184612c52565b979650505050505050565b6001600160a01b0383168152606060208201819052600090612d1290830184612c52565b828103604093840152601a81527f457363726f77656420666f72206d616e75616c207265766965770000000000006020820152919091019392505050565b808202811582820484141761067157610671612984565b634e487b7160e01b600052604160045260246000fd5b634e487b7160e01b600052603260045260246000fd5b600081612da257612da2612984565b50600019019056fe59a1c48e5837ad7a7f3dcedcbe129bf3249ec4fbf651fd4f5e2600ead39fe2f5a49807205ce4d355092ef5a8a18f56e8913cf4a201fbe287825b095693c21775a264697066735822122074cde56d306f18aad0574464f076fa1625027b91bc45cbfa617e91953fd004ca64736f6c63430008140033",
  "linkReferences": {},
  "deployedLinkReferences": {}
}