{
  "_format": "hh-sol-artifact-1",
  "contractName": "BankVault",
  "sourceName": "contracts/BankVault.sol",
  "abi": [
    {
      "inputs": [
        {
          "internalType": "contract IERC20",
          "name": "_token",
          "type": "address"
        },
        {
          "internalType": "contract IdentityRegistry",
          "name": "_identity",
          "type": "address"
        },
        {
          "internalType": "contract RiskEngine",
          "name": "_risk",
          "type": "address"
        },
        {
          "internalType": "contract ComplianceLog",
          "name": "_log",
          "type": "address"
        }
      ],
      "stateMutability": "nonpayable",
      "type": "constructor"
    },
    {
      "anonymous": false,
      "inputs": [
        {
          "indexed": true,
          "internalType": "address",
          "name": "user",
          "type": "address"
        },
        {
          "indexed": false,
          "internalType": "uint256",
          "name": "amount",
          "type": "uint256"
        }
      ],
      "name": "Deposited",
      "type": "event"
    },
    {
      "anonymous": false,
      "inputs": [
        {
          "indexed": true,
          "internalType": "uint256",
          "name": "caseId",
          "type": "uint256"
        },
        {
          "indexed": true,
          "internalType": "address",
          "name": "from",
          "type": "address"
        },
        {
          "indexed": true,
          "internalType": "address",
          "name": "to",
          "type": "address"
        },
        {
          "indexed": false,
          "internalType": "uint256",
          "name": "amount",
          "type": "uint256"
        }
      ],
      "name": "EscrowApproved",
      "type": "event"
    },
    {
      "anonymous": false,
      "inputs": [
        {
          "indexed": true,
          "internalType": "uint256",
          "name": "caseId",
          "type": "uint256"
        },
        {
          "indexed": true,
          "internalType": "address",
          "name": "from",
          "type": "address"
        },
        {
          "indexed": true,
          "internalType": "address",
          "name": "to",
          "type": "address"
        },
        {
          "indexed": false,
          "internalType": "uint256",
          "name": "amount",
          "type": "uint256"
        }
      ],
      "name": "EscrowCreated",
      "type": "event"
    },
    {
      "anonymous": false,
      "inputs": [
        {
          "indexed": true,
          "internalType": "uint256",
          "name": "caseId",
          "type": "uint256"
        },
        {
          "indexed": true,
          "internalType": "address",
          "name": "from",
          "type": "address"
        },
        {
          "indexed": true,
          "internalType": "address",
          "name": "to",
          "type": "address"
        },
        {
          "indexed": false,
          "internalType": "uint256",
          "name": "amount",
          "type": "uint256"
        },
        {
          "indexed": false,
          "internalType": "string",
          "name": "reason",
          "type": "string"
        }
      ],
      "name": "EscrowRejected",
      "type": "event"
    },
    {
      "anonymous": false,
      "inputs": [
        {
          "indexed": true,
          "internalType": "address",
          "name": "from",
          "type": "address"
        },
        {
          "indexed": true,
          "internalType": "address",
          "name": "to",
          "type": "address"
        },
        {
          "indexed": false,
          "internalType": "uint256",
          "name": "amount",
          "type": "uint256"
        }
      ],
      "name": "ImmediateTransfer",
      "type": "event"
    },
    {
      "anonymous": false,
      "inputs": [
        {
          "indexed": true,
          "internalType": "uint256",
          "name": "loanId",
          "type": "uint256"
        },
        {
          "indexed": true,
          "internalType": "address",
          "name": "borrower",
          "type": "address"
        },
        {
          "indexed": false,
          "internalType": "uint256",
          "name": "principal",
          "type": "uint256"
        }
      ],
      "name": "LoanApproved",
      "type": "event"
    },
    {
      "anonymous": false,
      "inputs": [
        {
          "indexed": true,
          "internalType": "uint256",
          "name": "loanId",
          "type": "uint256"
        },
        {
          "indexed": true,
          "internalType": "address",
          "name": "borrower",
          "type": "address"
        },
        {
          "indexed": false,
          "internalType": "uint256",
          "name": "principal",
          "type": "uint256"
        },
        {
          "indexed": false,
          "internalType": "string",
          "name": "reason",
          "type": "string"
        }
      ],
      "name": "LoanRejected",
      "type": "event"
    },
    {
      "anonymous": false,
      "inputs": [
        {
          "indexed": true,
          "internalType": "address",
          "name": "borrower",
          "type": "address"
        },
        {
          "indexed": false,
          "internalType": "uint256",
          "name": "amount",
          "type": "uint256"
        }
      ],
      "name": "LoanRepaid",
      "type": "event"
    },
    {
      "anonymous": false,
      "inputs": [
        {
          "indexed": true,
          "internalType": "uint256",
          "name": "loanId",
          "type": "uint256"
        },
        {
          "indexed": true,
          "internalType": "address",
          "name": "borrower",
          "type": "address"
        },
        {
          "indexed": false,
          "internalType": "uint256",
          "name": "principal",
          "type": "uint256"
        },
        {
          "indexed": false,
          "internalType": "uint256",
          "name": "rateBps",
          "type": "uint256"
        }
      ],
      "name": "LoanRequested",
      "type": "event"
    },
    {
      "anonymous": false,
      "inputs": [
        {
          "indexed": true,
          "internalType": "uint256",
          "name": "redeemId",
          "type": "uint256"
        },
        {
          "indexed": true,
          "internalType": "address",
          "name": "user",
          "type": "address"
        },
        {
          "indexed": false,
          "internalType": "uint256",
          "name": "susdAmount",
          "type": "uint256"
        },
        {
          "indexed": false,
          "internalType": "uint256",
          "name": "ethAmount",
          "type": "uint256"
        }
      ],
      "name": "RedeemApproved",
      "type": "event"
    },
    {
      "anonymous": false,
      "inputs": [
        {
          "indexed": true,
          "internalType": "uint256",
          "name": "redeemId",
          "type": "uint256"
        },
        {
          "indexed": true,
          "internalType": "address",
          "name": "user",
          "type": "address"
        },
        {
          "indexed": false,
          "internalType": "uint256",
          "name": "susdAmount",
          "type": "uint256"
        },
        {
          "indexed": false,
          "internalType": "string",
          "name": "reason",
          "type": "string"
        }
      ],
      "name": "RedeemRejected",
      "type": "event"
    },
    {
      "anonymous": false,
      "inputs": [
        {
          "indexed": true,
          "internalType": "uint256",
          "name": "redeemId",
          "type": "uint256"
        },
        {
          "indexed": true,
          "internalType": "address",
          "name": "user",
          "type": "address"
        },
        {
          "indexed": false,
          "internalType": "string",
          "name": "assetSymbol",
          "type": "string"
        },
        {
          "indexed": false,
          "internalType": "uint256",
          "name": "susdAmount",
          "type": "uint256"
        }
      ],
      "name": "RedeemRequested",
      "type": "event"
    },
    {
      "anonymous": false,
      "inputs": [
        {
          "indexed": true,
          "internalType": "bytes32",
          "name": "role",
          "type": "bytes32"
        },
        {
          "indexed": true,
          "internalType": "bytes32",
          "name": "previousAdminRole",
          "type": "bytes32"
        },
        {
          "indexed": true,
          "internalType": "bytes32",
          "name": "newAdminRole",
          "type": "bytes32"
        }
      ],
      "name": "RoleAdminChanged",
      "type": "event"
    },
    {
      "anonymous": false,
      "inputs": [
        {
          "indexed": true,
          "internalType": "bytes32",
          "name": "role",
          "type": "bytes32"
        },
        {
          "indexed": true,
          "internalType": "address",
          "name": "account",
          "type": "address"
        },
        {
          "indexed": true,
          "internalType": "address",
          "name": "sender",
          "type": "address"
        }
      ],
      "name": "RoleGranted",
      "type": "event"
    },
    {
      "anonymous": false,
      "inputs": [
        {
          "indexed": true,
          "internalType": "bytes32",
          "name": "role",
          "type": "bytes32"
        },
        {
          "indexed": true,
          "internalType": "address",
          "name": "account",
          "type": "address"
        },
        {
          "indexed": true,
          "internalType": "address",
          "name": "sender",
          "type": "address"
        }
      ],
      "name": "RoleRevoked",
      "type": "event"
    },
    {
      "anonymous": false,
      "inputs": [
        {
          "indexed": true,
          "internalType": "address",
          "name": "user",
          "type": "address"
        },
        {
          "indexed": false,
          "internalType": "uint256",
          "name": "amount",
          "type": "uint256"
        }
      ],
      "name": "Withdrawn",
      "type": "event"
    },
    {
      "inputs": [],
      "name": "ADMIN_ROLE",
      "outputs": [
        {
          "internalType": "bytes32",
          "name": "",
          "type": "bytes32"
        }
      ],
      "stateMutability": "view",
      "type": "function"
    },
    {
      "inputs": [],
      "name": "AUDITOR_ROLE",
      "outputs": [
        {
          "internalType": "bytes32",
          "name": "",
          "type": "bytes32"
        }
      ],
      "stateMutability": "view",
      "type": "function"
    },
    {
      "inputs": [],
      "name": "DEFAULT_ADMIN_ROLE",
      "outputs": [
        {
          "internalType": "bytes32",
          "name": "",
          "type": "bytes32"
        }
      ],
      "stateMutability": "view",
      "type": "function"
    },
    {
      "inputs": [],
      "name": "TEN_K",
      "outputs": [
        {
          "internalType": "uint256",
          "name": "",
          "type": "uint256"
        }
      ],
      "stateMutability": "view",
      "type": "function"
    },
    {
      "inputs": [
        {
          "internalType": "address",
          "name": "auditor",
          "type": "address"
        }
      ],
      "name": "addAuditor",
      "outputs": [],
      "stateMutability": "nonpayable",
      "type": "function"
    },
    {
      "inputs": [
        {
          "internalType": "uint256",
          "name": "caseId",
          "type": "uint256"
        }
      ],
      "name": "approveEscrow",
      "outputs": [],
      "stateMutability": "nonpayable",
      "type": "function"
    },
    {
      "inputs": [
        {
          "internalType": "uint256",
          "name": "loanId",
          "type": "uint256"
        },
        {
          "internalType": "uint256",
          "name": "ethAmount",
          "type": "uint256"
        }
      ],
      "name": "approveLoan",
      "outputs": [],
      "stateMutability": "nonpayable",
      "type": "function"
    },
    {
      "inputs": [
        {
          "internalType": "uint256",
          "name": "redeemId",
          "type": "uint256"
        }
      ],
      "name": "approveRedeem",
      "outputs": [],
      "stateMutability": "nonpayable",
      "type": "function"
    },
    {
      "inputs": [
        {
          "internalType": "address",
          "name": "",
          "type": "address"
        }
      ],
      "name": "balances",
      "outputs": [
        {
          "internalType": "uint256",
          "name": "",
          "type": "uint256"
        }
      ],
      "stateMutability": "view",
      "type": "function"
    },
    {
      "inputs": [
        {
          "internalType": "address",
          "name": "",
          "type": "address"
        }
      ],
      "name": "blacklisted",
      "outputs": [
        {
          "internalType": "bool",
          "name": "",
          "type": "bool"
        }
      ],
      "stateMutability": "view",
      "type": "function"
    },
    {
      "inputs": [
        {
          "internalType": "address",
          "name": "",
          "type": "address"
        }
      ],
      "name": "dailyStats",
      "outputs": [
        {
          "internalType": "uint256",
          "name": "day",
          "type": "uint256"
        },
        {
          "internalType": "uint256",
          "name": "spent",
          "type": "uint256"
        }
      ],
      "stateMutability": "view",
      "type": "function"
    },
    {
      "inputs": [
        {
          "internalType": "uint256",
          "name": "amount",
          "type": "uint256"
        }
      ],
      "name": "deposit",
      "outputs": [],
      "stateMutability": "nonpayable",
      "type": "function"
    },
    {
      "inputs": [],
      "name": "depositApyBps",
      "outputs": [
        {
          "internalType": "uint256",
          "name": "",
          "type": "uint256"
        }
      ],
      "stateMutability": "view",
      "type": "function"
    },
    {
      "inputs": [
        {
          "internalType": "uint256",
          "name": "susdAmount",
          "type": "uint256"
        }
      ],
      "name": "depositFromExternal",
      "outputs": [],
      "stateMutability": "payable",
      "type": "function"
    },
    {
      "inputs": [],
      "name": "ethPerSUSDE18",
      "outputs": [
        {
          "internalType": "uint256",
          "name": "",
          "type": "uint256"
        }
      ],
      "stateMutability": "view",
      "type": "function"
    },
    {
      "inputs": [
        {
          "internalType": "address",
          "name": "user",
          "type": "address"
        },
        {
          "internalType": "uint256",
          "name": "until",
          "type": "uint256"
        },
        {
          "internalType": "string",
          "name": "reason",
          "type": "string"
        }
      ],
      "name": "forceLockAccount",
      "outputs": [],
      "stateMutability": "nonpayable",
      "type": "function"
    },
    {
      "inputs": [
        {
          "internalType": "address",
          "name": "",
          "type": "address"
        }
      ],
      "name": "freqStats",
      "outputs": [
        {
          "internalType": "uint256",
          "name": "windowStart",
          "type": "uint256"
        },
        {
          "internalType": "uint256",
          "name": "count",
          "type": "uint256"
        }
      ],
      "stateMutability": "view",
      "type": "function"
    },
    {
      "inputs": [],
      "name": "frequencyWindow",
      "outputs": [
        {
          "internalType": "uint256",
          "name": "",
          "type": "uint256"
        }
      ],
      "stateMutability": "view",
      "type": "function"
    },
    {
      "inputs": [
        {
          "internalType": "uint256",
          "name": "caseId",
          "type": "uint256"
        }
      ],
      "name": "getEscrow",
      "outputs": [
        {
          "internalType": "address",
          "name": "from_",
          "type": "address"
        },
        {
          "internalType": "address",
          "name": "to_",
          "type": "address"
        },
        {
          "internalType": "uint256",
          "name": "amount_",
          "type": "uint256"
        },
        {
          "internalType": "enum BankVault.EscrowStatus",
          "name": "status_",
          "type": "uint8"
        },
        {
          "internalType": "uint256",
          "name": "createdAt_",
          "type": "uint256"
        },
        {
          "internalType": "uint256",
          "name": "approvals_",
          "type": "uint256"
        }
      ],
      "stateMutability": "view",
      "type": "function"
    },
    {
      "inputs": [
        {
          "internalType": "uint256",
          "name": "loanId",
          "type": "uint256"
        }
      ],
      "name": "getLoanCase",
      "outputs": [
        {
          "internalType": "address",
          "name": "borrower_",
          "type": "address"
        },
        {
          "internalType": "uint256",
          "name": "principal_",
          "type": "uint256"
        },
        {
          "internalType": "uint256",
          "name": "rateBps_",
          "type": "uint256"
        },
        {
          "internalType": "enum BankVault.LoanStatus",
          "name": "status_",
          "type": "uint8"
        },
        {
          "internalType": "uint256",
          "name": "createdAt_",
          "type": "uint256"
        },
        {
          "internalType": "uint256",
          "name": "approvals_",
          "type": "uint256"
        }
      ],
      "stateMutability": "view",
      "type": "function"
    },
    {
      "inputs": [
        {
          "internalType": "uint256",
          "name": "redeemId",
          "type": "uint256"
        }
      ],
      "name": "getRedeemCase",
      "outputs": [
        {
          "internalType": "address",
          "name": "user_",
          "type": "address"
        },
        {
          "internalType": "string",
          "name": "assetSymbol_",
          "type": "string"
        },
        {
          "internalType": "uint256",
          "name": "susdAmount_",
          "type": "uint256"
        },
        {
          "internalType": "uint256",
          "name": "ethAmount_",
          "type": "uint256"
        },
        {
          "internalType": "enum BankVault.RedeemStatus",
          "name": "status_",
          "type": "uint8"
        },
        {
          "internalType": "uint256",
          "name": "createdAt_",
          "type": "uint256"
        },
        {
          "internalType": "uint256",
          "name": "approvals_",
          "type": "uint256"
        }
      ],
      "stateMutability": "view",
      "type": "function"
    },
    {
      "inputs": [
        {
          "internalType": "bytes32",
          "name": "role",
          "type": "bytes32"
        }
      ],
      "name": "getRoleAdmin",
      "outputs": [
        {
          "internalType": "bytes32",
          "name": "",
          "type": "bytes32"
        }
      ],
      "stateMutability": "view",
      "type": "function"
    },
    {
      "inputs": [
        {
          "internalType": "bytes32",
          "name": "role",
          "type": "bytes32"
        },
        {
          "internalType": "address",
          "name": "account",
          "type": "address"
        }
      ],
      "name": "grantRole",
      "outputs": [],
      "stateMutability": "nonpayable",
      "type": "function"
    },
    {
      "inputs": [
        {
          "internalType": "bytes32",
          "name": "role",
          "type": "bytes32"
        },
        {
          "internalType": "address",
          "name": "account",
          "type": "address"
        }
      ],
      "name": "hasRole",
      "outputs": [
        {
          "internalType": "bool",
          "name": "",
          "type": "bool"
        }
      ],
      "stateMutability": "view",
      "type": "function"
    },
    {
      "inputs": [],
      "name": "identity",
      "outputs": [
        {
          "internalType": "contract IdentityRegistry",
          "name": "",
          "type": "address"
        }
      ],
      "stateMutability": "view",
      "type": "function"
    },
    {
      "inputs": [],
      "name": "lockDuration",
      "outputs": [
        {
          "internalType": "uint256",
          "name": "",
          "type": "uint256"
        }
      ],
      "stateMutability": "view",
      "type": "function"
    },
    {
      "inputs": [
        {
          "internalType": "address",
          "name": "",
          "type": "address"
        }
      ],
      "name": "lockedUntil",
      "outputs": [
        {
          "internalType": "uint256",
          "name": "",
          "type": "uint256"
        }
      ],
      "stateMutability": "view",
      "type": "function"
    },
    {
      "inputs": [],
      "name": "logContract",
      "outputs": [
        {
          "internalType": "contract ComplianceLog",
          "name": "",
          "type": "address"
        }
      ],
      "stateMutability": "view",
      "type": "function"
    },
    {
      "inputs": [],
      "name": "maxTxPerWindow",
      "outputs": [
        {
          "internalType": "uint256",
          "name": "",
          "type": "uint256"
        }
      ],
      "stateMutability": "view",
      "type": "function"
    },
    {
      "inputs": [],
      "name": "nextCaseId",
      "outputs": [
        {
          "internalType": "uint256",
          "name": "",
          "type": "uint256"
        }
      ],
      "stateMutability": "view",
      "type": "function"
    },
    {
      "inputs": [],
      "name": "nextLoanId",
      "outputs": [
        {
          "internalType": "uint256",
          "name": "",
          "type": "uint256"
        }
      ],
      "stateMutability": "view",
      "type": "function"
    },
    {
      "inputs": [],
      "name": "nextRedeemId",
      "outputs": [
        {
          "internalType": "uint256",
          "name": "",
          "type": "uint256"
        }
      ],
      "stateMutability": "view",
      "type": "function"
    },
    {
      "inputs": [],
      "name": "pause",
      "outputs": [],
      "stateMutability": "nonpayable",
      "type": "function"
    },
    {
      "inputs": [],
      "name": "paused",
      "outputs": [
        {
          "internalType": "bool",
          "name": "",
          "type": "bool"
        }
      ],
      "stateMutability": "view",
      "type": "function"
    },
    {
      "inputs": [
        {
          "internalType": "string",
          "name": "assetSymbol",
          "type": "string"
        },
        {
          "internalType": "uint256",
          "name": "susdAmount",
          "type": "uint256"
        },
        {
          "internalType": "uint256",
          "name": "ethAmount",
          "type": "uint256"
        }
      ],
      "name": "redeemToAsset",
      "outputs": [],
      "stateMutability": "nonpayable",
      "type": "function"
    },
    {
      "inputs": [
        {
          "internalType": "uint256",
          "name": "caseId",
          "type": "uint256"
        },
        {
          "internalType": "string",
          "name": "reason",
          "type": "string"
        }
      ],
      "name": "rejectEscrow",
      "outputs": [],
      "stateMutability": "nonpayable",
      "type": "function"
    },
    {
      "inputs": [
        {
          "internalType": "uint256",
          "name": "loanId",
          "type": "uint256"
        },
        {
          "internalType": "string",
          "name": "reason",
          "type": "string"
        }
      ],
      "name": "rejectLoan",
      "outputs": [],
      "stateMutability": "nonpayable",
      "type": "function"
    },
    {
      "inputs": [
        {
          "internalType": "uint256",
          "name": "redeemId",
          "type": "uint256"
        },
        {
          "internalType": "string",
          "name": "reason",
          "type": "string"
        }
      ],
      "name": "rejectRedeem",
      "outputs": [],
      "stateMutability": "nonpayable",
      "type": "function"
    },
    {
      "inputs": [
        {
          "internalType": "address",
          "name": "auditor",
          "type": "address"
        }
      ],
      "name": "removeAuditor",
      "outputs": [],
      "stateMutability": "nonpayable",
      "type": "function"
    },
    {
      "inputs": [
        {
          "internalType": "bytes32",
          "name": "role",
          "type": "bytes32"
        },
        {
          "internalType": "address",
          "name": "account",
          "type": "address"
        }
      ],
      "name": "renounceRole",
      "outputs": [],
      "stateMutability": "nonpayable",
      "type": "function"
    },
    {
      "inputs": [
        {
          "internalType": "uint256",
          "name": "amount",
          "type": "uint256"
        }
      ],
      "name": "repayLoan",
      "outputs": [],
      "stateMutability": "nonpayable",
      "type": "function"
    },
    {
      "inputs": [
        {
          "internalType": "uint256",
          "name": "principal",
          "type": "uint256"
        }
      ],
      "name": "requestLoan",
      "outputs": [],
      "stateMutability": "nonpayable",
      "type": "function"
    },
    {
      "inputs": [
        {
          "internalType": "bytes32",
          "name": "role",
          "type": "bytes32"
        },
        {
          "internalType": "address",
          "name": "account",
          "type": "address"
        }
      ],
      "name": "revokeRole",
      "outputs": [],
      "stateMutability": "nonpayable",
      "type": "function"
    },
    {
      "inputs": [],
      "name": "riskEngine",
      "outputs": [
        {
          "internalType": "contract RiskEngine",
          "name": "",
          "type": "address"
        }
      ],
      "stateMutability": "view",
      "type": "function"
    },
    {
      "inputs": [
        {
          "internalType": "address",
          "name": "user",
          "type": "address"
        },
        {
          "internalType": "bool",
          "name": "isBlacklisted_",
          "type": "bool"
        }
      ],
      "name": "setBlacklist",
      "outputs": [],
      "stateMutability": "nonpayable",
      "type": "function"
    },
    {
      "inputs": [
        {
          "internalType": "uint256",
          "name": "bps",
          "type": "uint256"
        }
      ],
      "name": "setDepositApyBps",
      "outputs": [],
      "stateMutability": "nonpayable",
      "type": "function"
    },
    {
      "inputs": [
        {
          "internalType": "uint256",
          "name": "windowSec",
          "type": "uint256"
        },
        {
          "internalType": "uint256",
          "name": "maxCount",
          "type": "uint256"
        },
        {
          "internalType": "uint256",
          "name": "lockSec",
          "type": "uint256"
        }
      ],
      "name": "setFrequencyParams",
      "outputs": [],
      "stateMutability": "nonpayable",
      "type": "function"
    },
    {
      "inputs": [
        {
          "internalType": "bytes4",
          "name": "interfaceId",
          "type": "bytes4"
        }
      ],
      "name": "supportsInterface",
      "outputs": [
        {
          "internalType": "bool",
          "name": "",
          "type": "bool"
        }
      ],
      "stateMutability": "view",
      "type": "function"
    },
    {
      "inputs": [],
      "name": "token",
      "outputs": [
        {
          "internalType": "contract IERC20",
          "name": "",
          "type": "address"
        }
      ],
      "stateMutability": "view",
      "type": "function"
    },
    {
      "inputs": [],
      "name": "totalBorrowedSusd",
      "outputs": [
        {
          "internalType": "uint256",
          "name": "",
          "type": "uint256"
        }
      ],
      "stateMutability": "view",
      "type": "function"
    },
    {
      "inputs": [],
      "name": "totalDepositsSusd",
      "outputs": [
        {
          "internalType": "uint256",
          "name": "",
          "type": "uint256"
        }
      ],
      "stateMutability": "view",
      "type": "function"
    },
    {
      "inputs": [
        {
          "internalType": "address",
          "name": "to",
          "type": "address"
        },
        {
          "internalType": "uint256",
          "name": "amount",
          "type": "uint256"
        }
      ],
      "name": "transfer",
      "outputs": [],
      "stateMutability": "nonpayable",
      "type": "function"
    },
    {
      "inputs": [
        {
          "internalType": "address",
          "name": "user",
          "type": "address"
        }
      ],
      "name": "unlockAccount",
      "outputs": [],
      "stateMutability": "nonpayable",
      "type": "function"
    },
    {
      "inputs": [],
      "name": "unpause",
      "outputs": [],
      "stateMutability": "nonpayable",
      "type": "function"
    },
    {
      "inputs": [
        {
          "internalType": "uint256",
          "name": "amount",
          "type": "uint256"
        }
      ],
      "name": "withdraw",
      "outputs": [],
      "stateMutability": "nonpayable",
      "type": "function"
    },
    {
      "stateMutability": "payable",
      "type": "receive"
    }
  ],
  "bytecode": "0x610100604052603c6001556003600255610e1060035560016009556001600b556001600d5560c86013553480156200003657600080fd5b5060405162004b1338038062004b13833981016040819052620000599162000175565b6001600160a01b0380851660805283811660a05282811660c052811660e05262000085600033620000bb565b620000b17fa49807205ce4d355092ef5a8a18f56e8913cf4a201fbe287825b095693c2177533620000bb565b50505050620001dd565b6000828152602081815260408083206001600160a01b038516845290915290205460ff1662000158576000828152602081815260408083206001600160a01b03851684529091529020805460ff19166001179055620001173390565b6001600160a01b0316816001600160a01b0316837f2f8788117e7eff1d82e926ec794901d17c78024a50270940304540a733656f0d60405160405180910390a45b5050565b6001600160a01b03811681146200017257600080fd5b50565b600080600080608085870312156200018c57600080fd5b845162000199816200015c565b6020860151909450620001ac816200015c565b6040860151909350620001bf816200015c565b6060860151909250620001d2816200015c565b939692955090935050565b60805160a05160c05160e05161483f620002d46000396000818161094301528181610c2c01528181610db3015281816122360152818161234301528181612aab01528181612f4c01528181613061015281816130ef015281816133120152818161358501528181613640015281816137cf01528181613a5d0152613ae10152600081816107be01528181611ffd0152818161212201526136cf0152600081816104b601528181610fb801528181611b1b01528181611d9b01528181612406015281816126040152818161286c0152612b50015260008181610ac301528181611135015281816127340152612ca4015261483f6000f3fe6080604052600436106103545760003560e01c8063837cbe04116101c6578063b6b55f25116100f7578063e283bc4a11610095578063e6116cfd1161006f578063e6116cfd14610a51578063f4baae4114610a71578063f6fcaf1214610a91578063fc0c546a14610ab157600080fd5b8063e283bc4a146109e9578063e429cef1146109ff578063e4f598c014610a1f57600080fd5b8063cfe279b2116100d1578063cfe279b214610931578063d211d8e514610965578063d547741f14610999578063dbac26e9146109b957600080fd5b8063b6b55f2514610895578063c5a52635146108b5578063cc3a1aba146108e857600080fd5b806392b888ae11610164578063a9059cbb1161013e578063a9059cbb14610822578063ab7b1c8914610842578063b547986b14610862578063b58fb4571461087557600080fd5b806392b888ae146107ac5780639bc289f1146107e0578063a217fddf1461080d57600080fd5b80638c970e77116101a05780638c970e771461072c5780638d5d34291461074c578063905295e31461076c57806391d148541461078c57600080fd5b8063837cbe04146106e35780638456cb591461070157806387c514591461071657600080fd5b80633eb09ece116102a05780636350eae81161023e578063731314e611610218578063731314e61461064f57806375b238fc1461066f5780637a646492146106915780637d19e596146106b157600080fd5b80636350eae8146106015780636c828a52146106175780636e1d616e1461062d57600080fd5b8063475cfb551161027a578063475cfb551461059b57806352ee8f81146105b1578063582b7506146105d15780635c975abb146105e757600080fd5b80633eb09ece146105505780633f4ba83a1461057057806342569ca71461058557600080fd5b8063268fb01e1161030d5780632c159a1a116102e75780632c159a1a146104a45780632e1a7d4d146104f05780632f2ff15d1461051057806336568abe1461053057600080fd5b8063268fb01e1461044157806327e235e314610461578063281189091461048e57600080fd5b806301ffc9a71461036057806303fce7ef1461039557806304554443146103b7578063153b0d1e146103db578063248a9ca3146103fb57806325d712401461042b57600080fd5b3661035b57005b600080fd5b34801561036c57600080fd5b5061038061037b366004613df2565b610ae5565b60405190151581526020015b60405180910390f35b3480156103a157600080fd5b506103b56103b0366004613e1c565b610b1c565b005b3480156103c357600080fd5b506103cd60035481565b60405190815260200161038c565b3480156103e757600080fd5b506103b56103f6366004613e5f565b610d3a565b34801561040757600080fd5b506103cd610416366004613e1c565b60009081526020819052604090206001015490565b34801561043757600080fd5b506103cd60015481565b34801561044d57600080fd5b506103b561045c366004613edf565b610e15565b34801561046d57600080fd5b506103cd61047c366004613f2b565b60046020526000908152604090205481565b34801561049a57600080fd5b506103cd60025481565b3480156104b057600080fd5b506104d87f000000000000000000000000000000000000000000000000000000000000000081565b6040516001600160a01b03909116815260200161038c565b3480156104fc57600080fd5b506103b561050b366004613e1c565b610f80565b34801561051c57600080fd5b506103b561052b366004613f46565b611221565b34801561053c57600080fd5b506103b561054b366004613f46565b611246565b34801561055c57600080fd5b506103b561056b366004613e1c565b6112c4565b34801561057c57600080fd5b506103b561157a565b34801561059157600080fd5b506103cd60135481565b3480156105a757600080fd5b506103cd600c5481565b3480156105bd57600080fd5b506103b56105cc366004613edf565b6115ba565b3480156105dd57600080fd5b506103cd600f5481565b3480156105f357600080fd5b506012546103809060ff1681565b34801561060d57600080fd5b506103cd60095481565b34801561062357600080fd5b506103cd60105481565b34801561063957600080fd5b506103cd6000805160206147ca83398151915281565b34801561065b57600080fd5b506103b561066a366004613e1c565b6116da565b34801561067b57600080fd5b506103cd6000805160206147ea83398151915281565b34801561069d57600080fd5b506103b56106ac366004613f72565b611713565b3480156106bd57600080fd5b506106d16106cc366004613e1c565b611a1c565b60405161038c96959493929190613fc8565b3480156106ef57600080fd5b506103cd69021e19e0c9bab240000081565b34801561070d57600080fd5b506103b5611aa0565b34801561072257600080fd5b506103cd600d5481565b34801561073857600080fd5b506103b561074736600461400d565b611ae3565b34801561075857600080fd5b506103b5610767366004613e1c565b611d63565b34801561077857600080fd5b506103b5610787366004613f2b565b6122dc565b34801561079857600080fd5b506103806107a7366004613f46565b6123a5565b3480156107b857600080fd5b506104d87f000000000000000000000000000000000000000000000000000000000000000081565b3480156107ec57600080fd5b506103cd6107fb366004613f2b565b60076020526000908152604090205481565b34801561081957600080fd5b506103cd600081565b34801561082e57600080fd5b506103b561083d36600461405e565b6123ce565b34801561084e57600080fd5b506103b561085d366004613e1c565b6125cc565b6103b5610870366004613e1c565b612834565b34801561088157600080fd5b506103b5610890366004614088565b612a22565b3480156108a157600080fd5b506103b56108b0366004613e1c565b612b18565b3480156108c157600080fd5b506108d56108d0366004613e1c565b612d8d565b60405161038c9796959493929190614104565b3480156108f457600080fd5b5061091c610903366004613f2b565b6006602052600090815260409020805460019091015482565b6040805192835260208301919091520161038c565b34801561093d57600080fd5b506104d87f000000000000000000000000000000000000000000000000000000000000000081565b34801561097157600080fd5b5061091c610980366004613f2b565b6005602052600090815260409020805460019091015482565b3480156109a557600080fd5b506103b56109b4366004613f46565b612ebc565b3480156109c557600080fd5b506103806109d4366004613f2b565b60086020526000908152604090205460ff1681565b3480156109f557600080fd5b506103cd600b5481565b348015610a0b57600080fd5b506103b5610a1a366004613f2b565b612ee1565b348015610a2b57600080fd5b50610a3f610a3a366004613e1c565b612f7b565b60405161038c9695949392919061415d565b348015610a5d57600080fd5b506103b5610a6c366004613f2b565b612ff6565b348015610a7d57600080fd5b506103b5610a8c366004614184565b613090565b348015610a9d57600080fd5b506103b5610aac366004613edf565b613164565b348015610abd57600080fd5b506104d87f000000000000000000000000000000000000000000000000000000000000000081565b60006001600160e01b03198216637965db0b60e01b1480610b1657506301ffc9a760e01b6001600160e01b03198316145b92915050565b60125460ff1615610b485760405162461bcd60e51b8152600401610b3f906141de565b60405180910390fd5b6000805160206147ca833981519152610b6081613388565b6000828152600a6020526040812090600382015460ff166002811115610b8857610b88613f94565b14610ba55760405162461bcd60e51b8152600401610b3f906141fe565b33600090815260068201602052604090205460ff1615610bd75760405162461bcd60e51b8152600401610b3f90614223565b3360009081526006820160205260408120805460ff1916600190811790915560058301805491929091610c0b908490614263565b909155505060405163af19422760e01b8152600481018490523360248201527f00000000000000000000000000000000000000000000000000000000000000006001600160a01b03169063af19422790604401600060405180830381600087803b158015610c7857600080fd5b505af1158015610c8c573d6000803e3d6000fd5b505050506002816005015410610d355760038101805460ff191660019081179091556002820154908201546001600160a01b031660009081526004602052604081208054909190610cde908490614263565b90915550506001810154815460028301546040519081526001600160a01b03928316929091169085907f6791f4aaba9ebc05664a6379f9daf9fd658b4337b4295132285fb6ed1ca8400c9060200160405180910390a45b505050565b610d526000805160206147ea833981519152336123a5565b610d6e5760405162461bcd60e51b8152600401610b3f90614276565b6001600160a01b0382811660008181526008602052604090819020805460ff19168515159081179091559051632be077bb60e11b8152600481019290925260248201527f0000000000000000000000000000000000000000000000000000000000000000909116906357c0ef7690604401600060405180830381600087803b158015610df957600080fd5b505af1158015610e0d573d6000803e3d6000fd5b505050505050565b60125460ff1615610e385760405162461bcd60e51b8152600401610b3f906141de565b6000805160206147ca833981519152610e5081613388565b600084815260116020526040902080546001600160a01b0316610ea85760405162461bcd60e51b815260206004820152601060248201526f1c995919595b481b9bdd08199bdd5b9960821b6044820152606401610b3f565b6000600482015460ff166002811115610ec357610ec3613f94565b14610ee05760405162461bcd60e51b8152600401610b3f906141fe565b6004810180546002919060ff19166001830217905550600281015481546001600160a01b031660009081526004602052604081208054909190610f24908490614263565b9091555050805460028201546040516001600160a01b039092169187917fb88ec921e26f1bcb2cb4dfef7a22411678948d5fcc92cf89c1b5b0cf512d8e9091610f719190899089906142c2565b60405180910390a35050505050565b60125460ff1615610fa35760405162461bcd60e51b8152600401610b3f906141de565b60405163607a23f360e01b81523360048201527f00000000000000000000000000000000000000000000000000000000000000006001600160a01b03169063607a23f390602401602060405180830381865afa158015611007573d6000803e3d6000fd5b505050506040513d601f19601f8201168201806040525081019061102b91906142e5565b6110475760405162461bcd60e51b8152600401610b3f90614302565b3360009081526008602052604090205460ff16156110775760405162461bcd60e51b8152600401610b3f9061432c565b336000908152600760205260409020544210156110a65760405162461bcd60e51b8152600401610b3f90614351565b600081116110c65760405162461bcd60e51b8152600401610b3f90614379565b336000908152600460205260409020548111156110f55760405162461bcd60e51b8152600401610b3f9061439b565b33600090815260046020526040812080548392906111149084906143c1565b909155505060405163a9059cbb60e01b8152336004820152602481018290527f00000000000000000000000000000000000000000000000000000000000000006001600160a01b03169063a9059cbb906044016020604051808303816000875af1158015611186573d6000803e3d6000fd5b505050506040513d601f19601f820116820180604052508101906111aa91906142e5565b6111e85760405162461bcd60e51b815260206004820152600f60248201526e1d1c985b9cd9995c8819985a5b1959608a1b6044820152606401610b3f565b60405181815233907f7084f5476618d8e60b11ef0d7d3f06914655adb8793e28ff7f018d4c76d505d5906020015b60405180910390a250565b60008281526020819052604090206001015461123c81613388565b610d358383613395565b6001600160a01b03811633146112b65760405162461bcd60e51b815260206004820152602f60248201527f416363657373436f6e74726f6c3a2063616e206f6e6c792072656e6f756e636560448201526e103937b632b9903337b91039b2b63360891b6064820152608401610b3f565b6112c08282613419565b5050565b60125460ff16156112e75760405162461bcd60e51b8152600401610b3f906141de565b6000805160206147ca8339815191526112ff81613388565b600082815260116020526040902080546001600160a01b03166113575760405162461bcd60e51b815260206004820152601060248201526f1c995919595b481b9bdd08199bdd5b9960821b6044820152606401610b3f565b6000600482015460ff16600281111561137257611372613f94565b1461138f5760405162461bcd60e51b8152600401610b3f906141fe565b33600090815260078201602052604090205460ff16156113c15760405162461bcd60e51b8152600401610b3f90614223565b3360009081526007820160205260408120805460ff19166001908117909155600683018054919290916113f5908490614263565b90915550506006810154600211610d355760048101805460ff1916600117905560038101544710156114645760405162461bcd60e51b8152602060048201526018602482015277696e73756666696369656e7420455448207265736572766560401b6044820152606401610b3f565b805460038201546040516000926001600160a01b031691908381818185875af1925050503d80600081146114b4576040519150601f19603f3d011682016040523d82523d6000602084013e6114b9565b606091505b50509050806115005760405162461bcd60e51b8152602060048201526013602482015272115512081d1c985b9cd9995c8819985a5b1959606a1b6044820152606401610b3f565b8160020154600f600082825461151691906143c1565b90915550508154600283015460038401546040516001600160a01b039093169287927f7983cb2e608321c3e20a437d27bb5daeede1ddc38f87c0245fafbc7ee8d12d319261156c92918252602082015260400190565b60405180910390a350505050565b6115926000805160206147ea833981519152336123a5565b6115ae5760405162461bcd60e51b8152600401610b3f90614276565b6012805460ff19169055565b60125460ff16156115dd5760405162461bcd60e51b8152600401610b3f906141de565b6000805160206147ca8339815191526115f581613388565b6000848152600e6020526040902080546001600160a01b031661164b5760405162461bcd60e51b815260206004820152600e60248201526d1b1bd85b881b9bdd08199bdd5b9960921b6044820152606401610b3f565b6000600382015460ff16600281111561166657611666613f94565b146116835760405162461bcd60e51b8152600401610b3f906141fe565b60038101805460ff19166002179055805460018201546040516001600160a01b039092169187917f38f1f980114d056d6ab178991091de16301d414b5cc758a1072d3447948686a191610f719190899089906142c2565b6116f26000805160206147ea833981519152336123a5565b61170e5760405162461bcd60e51b8152600401610b3f90614276565b601355565b60125460ff16156117365760405162461bcd60e51b8152600401610b3f906141de565b6000805160206147ca83398151915261174e81613388565b6000838152600e6020526040902080546001600160a01b03166117a45760405162461bcd60e51b815260206004820152600e60248201526d1b1bd85b881b9bdd08199bdd5b9960921b6044820152606401610b3f565b6000600382015460ff1660028111156117bf576117bf613f94565b146117dc5760405162461bcd60e51b8152600401610b3f906141fe565b33600090815260068201602052604090205460ff161561180e5760405162461bcd60e51b8152600401610b3f90614223565b6000831161182e5760405162461bcd60e51b8152600401610b3f906143d4565b3360009081526006820160205260408120805460ff1916600190811790915560058301805491929091611862908490614263565b90915550506005810154600211611a165760038101805460ff1916600190811790915581015481546001600160a01b0316600090815260046020526040812080549091906118b1908490614263565b90915550506001810154600f80546000906118cd908490614263565b90915550506001810154601080546000906118e9908490614263565b9091555050478311156119395760405162461bcd60e51b8152602060048201526018602482015277696e73756666696369656e7420455448207265736572766560401b6044820152606401610b3f565b80546040516000916001600160a01b03169085908381818185875af1925050503d8060008114611985576040519150601f19603f3d011682016040523d82523d6000602084013e61198a565b606091505b50509050806119d15760405162461bcd60e51b8152602060048201526013602482015272115512081d1c985b9cd9995c8819985a5b1959606a1b6044820152606401610b3f565b815460018301546040519081526001600160a01b039091169086907f2b993938baa27c88e77a207903d275c96fa30ae5949a3ea5cd56e466e4f5c89190602001610f71565b50505050565b60008080808080861580611a3257506009548710155b15611a4f5750600094508493508392506002915082905080611a97565b5050506000848152600a60205260409020805460018201546002830154600384015460048501546005909501546001600160a01b039485169850939092169550935060ff1691905b91939550919395565b611ab86000805160206147ea833981519152336123a5565b611ad45760405162461bcd60e51b8152600401610b3f90614276565b6012805460ff19166001179055565b60125460ff1615611b065760405162461bcd60e51b8152600401610b3f906141de565b60405163607a23f360e01b81523360048201527f00000000000000000000000000000000000000000000000000000000000000006001600160a01b03169063607a23f390602401602060405180830381865afa158015611b6a573d6000803e3d6000fd5b505050506040513d601f19601f82011682018060405250810190611b8e91906142e5565b611baa5760405162461bcd60e51b8152600401610b3f90614302565b3360009081526008602052604090205460ff1615611bda5760405162461bcd60e51b8152600401610b3f9061432c565b33600090815260076020526040902054421015611c095760405162461bcd60e51b8152600401610b3f90614351565b60008211611c425760405162461bcd60e51b81526020600482015260066024820152650737573643d360d41b6044820152606401610b3f565b60008111611c625760405162461bcd60e51b8152600401610b3f906143d4565b33600090815260046020526040902054821115611c915760405162461bcd60e51b8152600401610b3f9061439b565b3360009081526004602052604081208054849290611cb09084906143c1565b9091555050600b805460009182611cc6836143f3565b90915550600081815260116020526040902080546001600160a01b0319163317815590915060018101611cfa8688836144a2565b50600281018490556003810183905560048101805460ff19169055426005820155604051339083907f17fe45d7cd13f1c47d41f0f332c8ef0f050b98f1b75e28395d3a52253b78615190611d53908a908a908a90614562565b60405180910390a3505050505050565b60125460ff1615611d865760405162461bcd60e51b8152600401610b3f906141de565b60405163607a23f360e01b81523360048201527f00000000000000000000000000000000000000000000000000000000000000006001600160a01b03169063607a23f390602401602060405180830381865afa158015611dea573d6000803e3d6000fd5b505050506040513d601f19601f82011682018060405250810190611e0e91906142e5565b611e2a5760405162461bcd60e51b8152600401610b3f90614302565b3360009081526008602052604090205460ff1615611e5a5760405162461bcd60e51b8152600401610b3f9061432c565b33600090815260076020526040902054421015611e895760405162461bcd60e51b8152600401610b3f90614351565b60008111611ec75760405162461bcd60e51b815260206004820152600b60248201526a07072696e636970616c3d360ac1b6044820152606401610b3f565b600f541580611f0a5750670c7d713b49da0000600f5482601054611eeb9190614263565b611efd90670de0b6b3a7640000614586565b611f07919061459d565b11155b611f6a5760405162461bcd60e51b815260206004820152602b60248201527f5269736b3a2053797374656d206c6971756964697479207574696c697a61746960448201526a0dedc40e8dede40d0d2ced60ab1b6064820152608401610b3f565b611f7560028261459d565b336000908152600460205260409020541015611fe55760405162461bcd60e51b815260206004820152602960248201527f5269736b3a20496e73756666696369656e742062616c616e636520666f7220636044820152681bdb1b185d195c985b60ba1b6064820152608401610b3f565b6040516358f2ef1760e01b81523360048201526000907f00000000000000000000000000000000000000000000000000000000000000006001600160a01b0316906358f2ef1790602401602060405180830381865afa15801561204c573d6000803e3d6000fd5b505050506040513d601f19601f8201168201806040525081019061207091906145bf565b9050808211156120b85760405162461bcd60e51b81526020600482015260136024820152721b1bd85b881b1a5b5a5d08195e18d959591959606a1b6044820152606401610b3f565b600d8054600091826120c9836143f3565b909155506000818152600e60205260409081902080546001600160a01b03191633908117825560018201879055601054600f549351631a407ce560e31b81526004810192909252602482015260448101929092529192507f00000000000000000000000000000000000000000000000000000000000000006001600160a01b03169063d203e72890606401602060405180830381865afa158015612171573d6000803e3d6000fd5b505050506040513d601f19601f8201168201806040525081019061219591906145bf565b600282015560038101805460ff1916905542600482015569021e19e0c9bab2400000841061229c576040516310aac22f60e21b81523360048201526060602480830191909152600a6064830152692620a923a2afa627a0a760b11b608483015260a0604483015260a48201527f4c61726765206c6f616e207265717565737420666f72206d616e75616c20726560c4820152637669657760e01b60e48201527f00000000000000000000000000000000000000000000000000000000000000006001600160a01b0316906342ab08bc9061010401600060405180830381600087803b15801561228357600080fd5b505af1158015612297573d6000803e3d6000fd5b505050505b6002810154604080518681526020810192909252339184917f68595dbe887ae7f496f2c88735019a8918919a1decfdee6bdb460480ab87decb910161156c565b6122f46000805160206147ea833981519152336123a5565b6123105760405162461bcd60e51b8152600401610b3f90614276565b6001600160a01b0381811660008181526007602052604080822091909155516305c1e1db60e31b815260048101919091527f000000000000000000000000000000000000000000000000000000000000000090911690632e0f0ed8906024015b600060405180830381600087803b15801561238a57600080fd5b505af115801561239e573d6000803e3d6000fd5b5050505050565b6000918252602082815260408084206001600160a01b0393909316845291905290205460ff1690565b60125460ff16156123f15760405162461bcd60e51b8152600401610b3f906141de565b60405163607a23f360e01b81523360048201527f00000000000000000000000000000000000000000000000000000000000000006001600160a01b03169063607a23f390602401602060405180830381865afa158015612455573d6000803e3d6000fd5b505050506040513d601f19601f8201168201806040525081019061247991906142e5565b6124955760405162461bcd60e51b8152600401610b3f90614302565b3360009081526008602052604090205460ff16156124c55760405162461bcd60e51b8152600401610b3f9061432c565b336000908152600760205260409020544210156124f45760405162461bcd60e51b8152600401610b3f90614351565b6001600160a01b0382166125375760405162461bcd60e51b815260206004820152600a602482015269696e76616c696420746f60b01b6044820152606401610b3f565b600081116125575760405162461bcd60e51b8152600401610b3f90614379565b6001600160a01b03821660009081526008602052604090205460ff16156125b85760405162461bcd60e51b81526020600482015260156024820152741c9958da5c1a595b9d08189b1858dadb1a5cdd1959605a1b6044820152606401610b3f565b6125c13361347e565b6112c0338383613671565b60125460ff16156125ef5760405162461bcd60e51b8152600401610b3f906141de565b60405163607a23f360e01b81523360048201527f00000000000000000000000000000000000000000000000000000000000000006001600160a01b03169063607a23f390602401602060405180830381865afa158015612653573d6000803e3d6000fd5b505050506040513d601f19601f8201168201806040525081019061267791906142e5565b6126935760405162461bcd60e51b8152600401610b3f90614302565b3360009081526008602052604090205460ff16156126c35760405162461bcd60e51b8152600401610b3f9061432c565b336000908152600760205260409020544210156126f25760405162461bcd60e51b8152600401610b3f90614351565b600081116127125760405162461bcd60e51b8152600401610b3f90614379565b6040516323b872dd60e01b8152336004820152306024820152604481018290527f00000000000000000000000000000000000000000000000000000000000000006001600160a01b0316906323b872dd906064016020604051808303816000875af1158015612785573d6000803e3d6000fd5b505050506040513d601f19601f820116820180604052508101906127a991906142e5565b6127eb5760405162461bcd60e51b81526020600482015260136024820152721d1c985b9cd9995c919c9bdb4819985a5b1959606a1b6044820152606401610b3f565b80601060008282546127fd91906143c1565b909155505060405181815233907fc200a1f31dd659e356e0f112c82558e25f49f7b0f84438691cd96f5cb355882390602001611216565b60125460ff16156128575760405162461bcd60e51b8152600401610b3f906141de565b60405163607a23f360e01b81523360048201527f00000000000000000000000000000000000000000000000000000000000000006001600160a01b03169063607a23f390602401602060405180830381865afa1580156128bb573d6000803e3d6000fd5b505050506040513d601f19601f820116820180604052508101906128df91906142e5565b6128fb5760405162461bcd60e51b8152600401610b3f90614302565b3360009081526008602052604090205460ff161561292b5760405162461bcd60e51b8152600401610b3f9061432c565b3360009081526007602052604090205442101561295a5760405162461bcd60e51b8152600401610b3f90614351565b6000341161297a5760405162461bcd60e51b8152600401610b3f906143d4565b600081116129b35760405162461bcd60e51b81526020600482015260066024820152650737573643d360d41b6044820152606401610b3f565b33600090815260046020526040812080548392906129d2908490614263565b9250508190555080600f60008282546129eb9190614263565b909155505060405181815233907f2da466a7b24304f47e87fa2e1e5a81b9831ce54fec19055ce277ca2f39ba42c490602001611216565b612a3a6000805160206147ea833981519152336123a5565b612a565760405162461bcd60e51b8152600401610b3f90614276565b600183905560028290556003819055604080516020808201869052818301859052606080830185905283518084039091018152608083019384905280519101206329e6c8a160e11b9092526001600160a01b037f000000000000000000000000000000000000000000000000000000000000000016916353cd914291612ae1916000916084016145d8565b600060405180830381600087803b158015612afb57600080fd5b505af1158015612b0f573d6000803e3d6000fd5b50505050505050565b60125460ff1615612b3b5760405162461bcd60e51b8152600401610b3f906141de565b60405163607a23f360e01b81523360048201527f00000000000000000000000000000000000000000000000000000000000000006001600160a01b03169063607a23f390602401602060405180830381865afa158015612b9f573d6000803e3d6000fd5b505050506040513d601f19601f82011682018060405250810190612bc391906142e5565b612bdf5760405162461bcd60e51b8152600401610b3f90614302565b3360009081526008602052604090205460ff1615612c0f5760405162461bcd60e51b8152600401610b3f9061432c565b33600090815260076020526040902054421015612c3e5760405162461bcd60e51b8152600401610b3f90614351565b60008111612c5e5760405162461bcd60e51b8152600401610b3f90614379565b3360009081526004602052604081208054839290612c7d908490614263565b90915550506040516323b872dd60e01b8152336004820152306024820152604481018290527f00000000000000000000000000000000000000000000000000000000000000006001600160a01b0316906323b872dd906064016020604051808303816000875af1158015612cf5573d6000803e3d6000fd5b505050506040513d601f19601f82011682018060405250810190612d1991906142e5565b612d5b5760405162461bcd60e51b81526020600482015260136024820152721d1c985b9cd9995c919c9bdb4819985a5b1959606a1b6044820152606401610b3f565b60405181815233907f2da466a7b24304f47e87fa2e1e5a81b9831ce54fec19055ce277ca2f39ba42c490602001611216565b600060608180808080871580612da55750600b548810155b15612dd15750506040805160208101909152600080825295509350849250829150600290508180612eb1565b60008881526011602052604090208054600282015460038301546004840154600585015460068601546001870180546001600160a01b03909716969095949360ff169291908690612e2190614422565b80601f0160208091040260200160405190810160405280929190818152602001828054612e4d90614422565b8015612e9a5780601f10612e6f57610100808354040283529160200191612e9a565b820191906000526020600020905b815481529060010190602001808311612e7d57829003601f168201915b505050505095509750975097509750975097509750505b919395979092949650565b600082815260208190526040902060010154612ed781613388565b610d358383613419565b612ef96000805160206147ea833981519152336123a5565b612f155760405162461bcd60e51b8152600401610b3f90614276565b612f2d6000805160206147ca83398151915282613395565b6040516377e72f7b60e11b81526001600160a01b0382811660048301527f0000000000000000000000000000000000000000000000000000000000000000169063efce5ef690602401612370565b60008080808080861580612f915750600d548710155b15612fae5750600094508493508392506002915082905080611a97565b50505060009384525050600e6020525060409020805460018201546002830154600384015460048501546005909501546001600160a01b03909416959294919360ff90911692565b61300e6000805160206147ea833981519152336123a5565b61302a5760405162461bcd60e51b8152600401610b3f90614276565b6130426000805160206147ca83398151915282613419565b60405163ac14c14f60e01b81526001600160a01b0382811660048301527f0000000000000000000000000000000000000000000000000000000000000000169063ac14c14f90602401612370565b6130a86000805160206147ea833981519152336123a5565b6130c45760405162461bcd60e51b8152600401610b3f90614276565b6001600160a01b0380851660009081526007602052604090819020859055516328ba8b7760e21b81527f00000000000000000000000000000000000000000000000000000000000000009091169063a2ea2ddc9061312c908790879087908790600401614611565b600060405180830381600087803b15801561314657600080fd5b505af115801561315a573d6000803e3d6000fd5b5050505050505050565b60125460ff16156131875760405162461bcd60e51b8152600401610b3f906141de565b6000805160206147ca83398151915261319f81613388565b6000848152600a6020526040812090600382015460ff1660028111156131c7576131c7613f94565b146131e45760405162461bcd60e51b8152600401610b3f906141fe565b60038101805460ff1916600290811790915581015481546001600160a01b031660009081526004602052604081208054909190613222908490614263565b909155505080546001600160a01b031660009081526005602052604081209061324e620151804261459d565b8254909150811461326857808255600060018301556132a2565b826002015482600101541061329a57826002015482600101600082825461328f91906143c1565b909155506132a29050565b600060018301555b6001830154835460028501546040516001600160a01b0393841693909216918a917f4f54d2de4848c2fe39afabbd588b1b4136b1b7be330a5aa04524c2305abbd4cc916132f391908c908c906142c2565b60405180910390a460405163ec22bd6160e01b81526001600160a01b037f0000000000000000000000000000000000000000000000000000000000000000169063ec22bd619061334d908a9033908b908b90600401614643565b600060405180830381600087803b15801561336757600080fd5b505af115801561337b573d6000803e3d6000fd5b5050505050505050505050565b6133928133613856565b50565b61339f82826123a5565b6112c0576000828152602081815260408083206001600160a01b03851684529091529020805460ff191660011790556133d53390565b6001600160a01b0316816001600160a01b0316837f2f8788117e7eff1d82e926ec794901d17c78024a50270940304540a733656f0d60405160405180910390a45050565b61342382826123a5565b156112c0576000828152602081815260408083206001600160a01b0385168085529252808320805460ff1916905551339285917ff6391f5c32d9c69d2a47ea670b442974b53935d1edc7fd64eb21e047a839171b9190a45050565b6001600160a01b0381166000908152600660205260409020600154815442916134a691614263565b8111156134bb578082556001808301556134d6565b60018260010160008282546134d09190614263565b90915550505b60025482600101541115610d35576003546134f19082614263565b6001600160a01b03848116600081815260076020526040908190209390935591516310aac22f60e21b815260048101929092526060602483015260096064830152684652455155454e435960b81b608483015260a06044830152602260a48301527f546f6f206d616e79207472616e736665727320696e2073686f72742077696e6460c4830152616f7760f01b60e48301527f000000000000000000000000000000000000000000000000000000000000000016906342ab08bc9061010401600060405180830381600087803b1580156135ca57600080fd5b505af11580156135de573d6000803e3d6000fd5b505050506001600160a01b03838116600081815260076020526040908190205490516328ba8b7760e21b81526004810192909252602482015260606044820152601060648201526f08ce4cae2eacadcc6f240c4e4cac2c6d60831b60848201527f00000000000000000000000000000000000000000000000000000000000000009091169063a2ea2ddc9060a401612ae1565b6001600160a01b038316600090815260056020526040812090613697620151804261459d565b825490915081146136ad57808255600060018301555b6040516358f2ef1760e01b81526001600160a01b0386811660048301526000917f0000000000000000000000000000000000000000000000000000000000000000909116906358f2ef1790602401602060405180830381865afa158015613718573d6000803e3d6000fd5b505050506040513d601f19601f8201168201806040525081019061373c91906145bf565b90506000818585600101546137519190614263565b11905069021e19e0c9bab2400000851015818061376b5750805b1561383157600061377f89898986866138af565b9050868660010160008282546137959190614263565b9091555050604051631164a59160e31b8152600481018290526001600160a01b038a811660248301528981166044830152606482018990527f00000000000000000000000000000000000000000000000000000000000000001690638b252c8890608401600060405180830381600087803b15801561381357600080fd5b505af1158015613827573d6000803e3d6000fd5b505050505061315a565b858560010160008282546138459190614263565b9091555061315a9050888888613b57565b61386082826123a5565b6112c05761386d81613c3d565b613878836020613c4f565b60405160200161388992919061466e565b60408051601f198184030181529082905262461bcd60e51b8252610b3f916004016146e3565b6001600160a01b0385166000908152600460205260408120548411156138e75760405162461bcd60e51b8152600401610b3f9061439b565b6001600160a01b0386166000908152600460205260408120805486929061390f9084906143c1565b909155505060098054906000613924836143f3565b909155506000818152600a6020526040812080546001600160a01b038a81166001600160a01b0319928316178355600183018054918b16919092161790556002810187905560038101805460ff19169055426004820155919250846139d157836139ab576040518060400160405280600581526020016427aa2422a960d91b8152506139f6565b6040518060400160405280600881526020016709882a48e8abea8b60c31b8152506139f6565b6040518060400160405280600b81526020016a111052531657d31253525560aa1b8152505b9050866001600160a01b0316886001600160a01b0316847f9405ad0a6208539879349284d71265479b1623846f70303da1f9890d6e8c10a789604051613a3e91815260200190565b60405180910390a460405163770b872960e01b81526001600160a01b037f0000000000000000000000000000000000000000000000000000000000000000169063770b872990613a9a9086908c908c908c9088906004016146f6565b600060405180830381600087803b158015613ab457600080fd5b505af1158015613ac8573d6000803e3d6000fd5b50506040516310aac22f60e21b81526001600160a01b037f00000000000000000000000000000000000000000000000000000000000000001692506342ab08bc9150613b1a908b90859060040161473a565b600060405180830381600087803b158015613b3457600080fd5b505af1158015613b48573d6000803e3d6000fd5b50505050505095945050505050565b6001600160a01b038316600090815260046020526040902054811115613b8f5760405162461bcd60e51b8152600401610b3f9061439b565b6001600160a01b03831660009081526004602052604081208054839290613bb79084906143c1565b90915550506001600160a01b03821660009081526004602052604081208054839290613be4908490614263565b92505081905550816001600160a01b0316836001600160a01b03167f961f7160d742cfc3dc4123da66debbf9a494518bfbcfca5df7dd4f3dd2b0565f83604051613c3091815260200190565b60405180910390a3505050565b6060610b166001600160a01b03831660145b60606000613c5e836002614586565b613c69906002614263565b67ffffffffffffffff811115613c8157613c8161440c565b6040519080825280601f01601f191660200182016040528015613cab576020820181803683370190505b509050600360fc1b81600081518110613cc657613cc661479c565b60200101906001600160f81b031916908160001a905350600f60fb1b81600181518110613cf557613cf561479c565b60200101906001600160f81b031916908160001a9053506000613d19846002614586565b613d24906001614263565b90505b6001811115613d9c576f181899199a1a9b1b9c1cb0b131b232b360811b85600f1660108110613d5857613d5861479c565b1a60f81b828281518110613d6e57613d6e61479c565b60200101906001600160f81b031916908160001a90535060049490941c93613d95816147b2565b9050613d27565b508315613deb5760405162461bcd60e51b815260206004820181905260248201527f537472696e67733a20686578206c656e67746820696e73756666696369656e746044820152606401610b3f565b9392505050565b600060208284031215613e0457600080fd5b81356001600160e01b031981168114613deb57600080fd5b600060208284031215613e2e57600080fd5b5035919050565b80356001600160a01b0381168114613e4c57600080fd5b919050565b801515811461339257600080fd5b60008060408385031215613e7257600080fd5b613e7b83613e35565b91506020830135613e8b81613e51565b809150509250929050565b60008083601f840112613ea857600080fd5b50813567ffffffffffffffff811115613ec057600080fd5b602083019150836020828501011115613ed857600080fd5b9250929050565b600080600060408486031215613ef457600080fd5b83359250602084013567ffffffffffffffff811115613f1257600080fd5b613f1e86828701613e96565b9497909650939450505050565b600060208284031215613f3d57600080fd5b613deb82613e35565b60008060408385031215613f5957600080fd5b82359150613f6960208401613e35565b90509250929050565b60008060408385031215613f8557600080fd5b50508035926020909101359150565b634e487b7160e01b600052602160045260246000fd5b6003811061339257634e487b7160e01b600052602160045260246000fd5b6001600160a01b038781168252861660208201526040810185905260c08101613ff085613faa565b8460608301528360808301528260a0830152979650505050505050565b6000806000806060858703121561402357600080fd5b843567ffffffffffffffff81111561403a57600080fd5b61404687828801613e96565b90989097506020870135966040013595509350505050565b6000806040838503121561407157600080fd5b61407a83613e35565b946020939093013593505050565b60008060006060848603121561409d57600080fd5b505081359360208301359350604090920135919050565b60005b838110156140cf5781810151838201526020016140b7565b50506000910152565b600081518084526140f08160208601602086016140b4565b601f01601f19169290920160200192915050565b6001600160a01b038816815260e060208201819052600090614128908301896140d8565b905086604083015285606083015261413f85613faa565b8460808301528360a08301528260c083015298975050505050505050565b6001600160a01b0387168152602081018690526040810185905260c08101613ff085613faa565b6000806000806060858703121561419a57600080fd5b6141a385613e35565b935060208501359250604085013567ffffffffffffffff8111156141c657600080fd5b6141d287828801613e96565b95989497509550505050565b6020808252600690820152651c185d5cd95960d21b604082015260600190565b6020808252600b908201526a6e6f742070656e64696e6760a81b604082015260600190565b60208082526010908201526f185b1c9958591e48185c1c1c9bdd995960821b604082015260600190565b634e487b7160e01b600052601160045260246000fd5b80820180821115610b1657610b1661424d565b6020808252600990820152683737ba1030b236b4b760b91b604082015260600190565b81835281816020850137506000828201602090810191909152601f909101601f19169091010190565b8381526040602082015260006142dc604083018486614299565b95945050505050565b6000602082840312156142f757600080fd5b8151613deb81613e51565b60208082526010908201526f12d650cbd4d095081c995c5d5a5c995960821b604082015260600190565b6020808252600b908201526a189b1858dadb1a5cdd195960aa1b604082015260600190565b6020808252600e908201526d1858d8dbdd5b9d081b1bd8dad95960921b604082015260600190565b6020808252600890820152670616d6f756e743d360c41b604082015260600190565b6020808252600c908201526b1a5b9cdd59999a58da595b9d60a21b604082015260600190565b81810381811115610b1657610b1661424d565b60208082526005908201526406574683d360dc1b604082015260600190565b6000600182016144055761440561424d565b5060010190565b634e487b7160e01b600052604160045260246000fd5b600181811c9082168061443657607f821691505b60208210810361445657634e487b7160e01b600052602260045260246000fd5b50919050565b601f821115610d3557600081815260208120601f850160051c810160208610156144835750805b601f850160051c820191505b81811015610e0d5782815560010161448f565b67ffffffffffffffff8311156144ba576144ba61440c565b6144ce836144c88354614422565b8361445c565b6000601f84116001811461450257600085156144ea5750838201355b600019600387901b1c1916600186901b17835561239e565b600083815260209020601f19861690835b828110156145335786850135825560209485019460019092019101614513565b50868210156145505760001960f88860031b161c19848701351681555b505060018560011b0183555050505050565b604081526000614576604083018587614299565b9050826020830152949350505050565b8082028115828204841417610b1657610b1661424d565b6000826145ba57634e487b7160e01b600052601260045260246000fd5b500490565b6000602082840312156145d157600080fd5b5051919050565b6060815260006146016060830160098152684652455155454e435960b81b602082015260400190565b6020830194909452506040015290565b60018060a01b0385168152836020820152606060408201526000614639606083018486614299565b9695505050505050565b8481526001600160a01b03841660208201526060604082018190526000906146399083018486614299565b7f416363657373436f6e74726f6c3a206163636f756e74200000000000000000008152600083516146a68160178501602088016140b4565b7001034b99036b4b9b9b4b733903937b6329607d1b60179184019182015283516146d78160288401602088016140b4565b01602801949350505050565b602081526000613deb60208301846140d8565b8581526001600160a01b038581166020830152841660408201526060810183905260a06080820181905260009061472f908301846140d8565b979650505050505050565b6001600160a01b038316815260606020820181905260009061475e908301846140d8565b828103604093840152601a81527f457363726f77656420666f72206d616e75616c207265766965770000000000006020820152919091019392505050565b634e487b7160e01b600052603260045260246000fd5b6000816147c1576147c161424d565b50600019019056fe59a1c48e5837ad7a7f3dcedcbe129bf3249ec4fbf651fd4f5e2600ead39fe2f5a49807205ce4d355092ef5a8a18f56e8913cf4a201fbe287825b095693c21775a2646970667358221220c732d4dd747e650ea69490c5bcf393d4998a426b2141049971a4b9464bbacaf964736f6c63430008140033",
  "linkReferences": {},
  "deployedLinkReferences": {}
}