{
  "_format": "hh-sol-artifact-1",
  "contractName": "RiskEngine",
  "sourceName": "contracts/RiskEngine.sol",
  "abi": [
    {
      "inputs": [],
      "stateMutability": "nonpayable",
      "type": "constructor"
    },
    {
      "anonymous": false,
      "inputs": [
        {
          "indexed": false,
          "internalType": "uint256",
          "name": "newBaseBps",
          "type": "uint256"
        }
      ],
      "name": "BaseInterestUpdated",
      "type": "event"
    },
    {
      "anonymous": false,
      "inputs": [
        {
          "indexed": true,
          "internalType": "address",
          "name": "user",
          "type": "address"
        },
        {
          "indexed": false,
          "internalType": "uint8",
          "name": "score",
          "type": "uint8"
        },
        {
          "indexed": false,
          "internalType": "uint256",
          "name": "dailyLimit",
          "type": "uint256"
        }
      ],
      "name": "RiskInitialized",
      "type": "event"
    },
    {
      "anonymous": false,
      "inputs": [
        {
          "indexed": false,
          "internalType": "uint256",
          "name": "newSlopeBps",
          "type": "uint256"
        }
      ],
      "name": "RiskSlopeUpdated",
      "type": "event"
    },
    {
      "anonymous": false,
      "inputs": [
        {
          "indexed": true,
          "internalType": "address",
          "name": "user",
          "type": "address"
        },
        {
          "indexed": false,
          "internalType": "uint8",
          "name": "score",
          "type": "uint8"
        },
        {
          "indexed": false,
          "internalType": "uint256",
          "name": "dailyLimit",
          "type": "uint256"
        }
      ],
      "name": "RiskUpdated",
      "type": "event"
    },
    {
      "anonymous": false,
      "inputs": [
        {
          "indexed": true,
          "internalType": "bytes32",
          "name": "role",
          "type": "bytes32"
        },
        {
          "indexed": true,
          "internalType": "bytes32",
          "name": "previousAdminRole",
          "type": "bytes32"
        },
        {
          "indexed": true,
          "internalType": "bytes32",
          "name": "newAdminRole",
          "type": "bytes32"
        }
      ],
      "name": "RoleAdminChanged",
      "type": "event"
    },
    {
      "anonymous": false,
      "inputs": [
        {
          "indexed": true,
          "internalType": "bytes32",
          "name": "role",
          "type": "bytes32"
        },
        {
          "indexed": true,
          "internalType": "address",
          "name": "account",
          "type": "address"
        },
        {
          "indexed": true,
          "internalType": "address",
          "name": "sender",
          "type": "address"
        }
      ],
      "name": "RoleGranted",
      "type": "event"
    },
    {
      "anonymous": false,
      "inputs": [
        {
          "indexed": true,
          "internalType": "bytes32",
          "name": "role",
          "type": "bytes32"
        },
        {
          "indexed": true,
          "internalType": "address",
          "name": "account",
          "type": "address"
        },
        {
          "indexed": true,
          "internalType": "address",
          "name": "sender",
          "type": "address"
        }
      ],
      "name": "RoleRevoked",
      "type": "event"
    },
    {
      "inputs": [],
      "name": "DEFAULT_ADMIN_ROLE",
      "outputs": [
        {
          "internalType": "bytes32",
          "name": "",
          "type": "bytes32"
        }
      ],
      "stateMutability": "view",
      "type": "function"
    },
    {
      "inputs": [],
      "name": "RISK_OFFICER_ROLE",
      "outputs": [
        {
          "internalType": "bytes32",
          "name": "",
          "type": "bytes32"
        }
      ],
      "stateMutability": "view",
      "type": "function"
    },
    {
      "inputs": [],
      "name": "baseInterestBps",
      "outputs": [
        {
          "internalType": "uint256",
          "name": "",
          "type": "uint256"
        }
      ],
      "stateMutability": "view",
      "type": "function"
    },
    {
      "inputs": [
        {
          "internalType": "uint256",
          "name": "totalBorrowed",
          "type": "uint256"
        },
        {
          "internalType": "uint256",
          "name": "totalLiquidity",
          "type": "uint256"
        }
      ],
      "name": "calculateUtilizationRateBps",
      "outputs": [
        {
          "internalType": "uint256",
          "name": "",
          "type": "uint256"
        }
      ],
      "stateMutability": "view",
      "type": "function"
    },
    {
      "inputs": [
        {
          "internalType": "address",
          "name": "user",
          "type": "address"
        }
      ],
      "name": "getDailyLimit",
      "outputs": [
        {
          "internalType": "uint256",
          "name": "",
          "type": "uint256"
        }
      ],
      "stateMutability": "view",
      "type": "function"
    },
    {
      "inputs": [
        {
          "internalType": "uint256",
          "name": "totalBorrowed",
          "type": "uint256"
        },
        {
          "internalType": "uint256",
          "name": "totalDeposits",
          "type": "uint256"
        }
      ],
      "name": "getDepositRateBps",
      "outputs": [
        {
          "internalType": "uint256",
          "name": "",
          "type": "uint256"
        }
      ],
      "stateMutability": "view",
      "type": "function"
    },
    {
      "inputs": [
        {
          "internalType": "address",
          "name": "user",
          "type": "address"
        },
        {
          "internalType": "uint256",
          "name": "totalBorrowed",
          "type": "uint256"
        },
        {
          "internalType": "uint256",
          "name": "totalLiquidity",
          "type": "uint256"
        }
      ],
      "name": "getInterestRateBps",
      "outputs": [
        {
          "internalType": "uint256",
          "name": "",
          "type": "uint256"
        }
      ],
      "stateMutability": "view",
      "type": "function"
    },
    {
      "inputs": [
        {
          "internalType": "address",
          "name": "user",
          "type": "address"
        }
      ],
      "name": "getRiskScore",
      "outputs": [
        {
          "internalType": "uint8",
          "name": "",
          "type": "uint8"
        }
      ],
      "stateMutability": "view",
      "type": "function"
    },
    {
      "inputs": [
        {
          "internalType": "bytes32",
          "name": "role",
          "type": "bytes32"
        }
      ],
      "name": "getRoleAdmin",
      "outputs": [
        {
          "internalType": "bytes32",
          "name": "",
          "type": "bytes32"
        }
      ],
      "stateMutability": "view",
      "type": "function"
    },
    {
      "inputs": [
        {
          "internalType": "bytes32",
          "name": "role",
          "type": "bytes32"
        },
        {
          "internalType": "address",
          "name": "account",
          "type": "address"
        }
      ],
      "name": "grantRole",
      "outputs": [],
      "stateMutability": "nonpayable",
      "type": "function"
    },
    {
      "inputs": [
        {
          "internalType": "bytes32",
          "name": "role",
          "type": "bytes32"
        },
        {
          "internalType": "address",
          "name": "account",
          "type": "address"
        }
      ],
      "name": "hasRole",
      "outputs": [
        {
          "internalType": "bool",
          "name": "",
          "type": "bool"
        }
      ],
      "stateMutability": "view",
      "type": "function"
    },
    {
      "inputs": [
        {
          "internalType": "address",
          "name": "user",
          "type": "address"
        },
        {
          "internalType": "uint8",
          "name": "score",
          "type": "uint8"
        },
        {
          "internalType": "uint256",
          "name": "dailyLimit",
          "type": "uint256"
        }
      ],
      "name": "initRisk",
      "outputs": [],
      "stateMutability": "nonpayable",
      "type": "function"
    },
    {
      "inputs": [],
      "name": "optimalUtilization",
      "outputs": [
        {
          "internalType": "uint256",
          "name": "",
          "type": "uint256"
        }
      ],
      "stateMutability": "view",
      "type": "function"
    },
    {
      "inputs": [
        {
          "internalType": "bytes32",
          "name": "role",
          "type": "bytes32"
        },
        {
          "internalType": "address",
          "name": "account",
          "type": "address"
        }
      ],
      "name": "renounceRole",
      "outputs": [],
      "stateMutability": "nonpayable",
      "type": "function"
    },
    {
      "inputs": [],
      "name": "reserveFactorBps",
      "outputs": [
        {
          "internalType": "uint256",
          "name": "",
          "type": "uint256"
        }
      ],
      "stateMutability": "view",
      "type": "function"
    },
    {
      "inputs": [
        {
          "internalType": "bytes32",
          "name": "role",
          "type": "bytes32"
        },
        {
          "internalType": "address",
          "name": "account",
          "type": "address"
        }
      ],
      "name": "revokeRole",
      "outputs": [],
      "stateMutability": "nonpayable",
      "type": "function"
    },
    {
      "inputs": [
        {
          "internalType": "address",
          "name": "",
          "type": "address"
        }
      ],
      "name": "riskProfiles",
      "outputs": [
        {
          "internalType": "uint8",
          "name": "riskScore",
          "type": "uint8"
        },
        {
          "internalType": "uint256",
          "name": "dailyTransferLimit",
          "type": "uint256"
        },
        {
          "internalType": "uint256",
          "name": "lastUpdatedAt",
          "type": "uint256"
        }
      ],
      "stateMutability": "view",
      "type": "function"
    },
    {
      "inputs": [],
      "name": "riskSlopeBps",
      "outputs": [
        {
          "internalType": "uint256",
          "name": "",
          "type": "uint256"
        }
      ],
      "stateMutability": "view",
      "type": "function"
    },
    {
      "inputs": [
        {
          "internalType": "uint256",
          "name": "newBaseBps",
          "type": "uint256"
        }
      ],
      "name": "setBaseInterestBps",
      "outputs": [],
      "stateMutability": "nonpayable",
      "type": "function"
    },
    {
      "inputs": [
        {
          "internalType": "uint256",
          "name": "newSlopeBps",
          "type": "uint256"
        }
      ],
      "name": "setRiskSlopeBps",
      "outputs": [],
      "stateMutability": "nonpayable",
      "type": "function"
    },
    {
      "inputs": [],
      "name": "slope1Bps",
      "outputs": [
        {
          "internalType": "uint256",
          "name": "",
          "type": "uint256"
        }
      ],
      "stateMutability": "view",
      "type": "function"
    },
    {
      "inputs": [],
      "name": "slope2Bps",
      "outputs": [
        {
          "internalType": "uint256",
          "name": "",
          "type": "uint256"
        }
      ],
      "stateMutability": "view",
      "type": "function"
    },
    {
      "inputs": [
        {
          "internalType": "bytes4",
          "name": "interfaceId",
          "type": "bytes4"
        }
      ],
      "name": "supportsInterface",
      "outputs": [
        {
          "internalType": "bool",
          "name": "",
          "type": "bool"
        }
      ],
      "stateMutability": "view",
      "type": "function"
    },
    {
      "inputs": [
        {
          "internalType": "address",
          "name": "user",
          "type": "address"
        },
        {
          "internalType": "uint8",
          "name": "newScore",
          "type": "uint8"
        },
        {
          "internalType": "uint256",
          "name": "newDailyLimit",
          "type": "uint256"
        }
      ],
      "name": "updateRisk",
      "outputs": [],
      "stateMutability": "nonpayable",
      "type": "function"
    }
  ],
  "bytecode": "0x608060405261012c6002556014600355670b1a2bc2ec500000600455610190600555610bb86006556107d060075534801561003957600080fd5b5061004560003361004a565b6100e9565b6000828152602081815260408083206001600160a01b038516845290915290205460ff166100e5576000828152602081815260408083206001600160a01b03851684529091529020805460ff191660011790556100a43390565b6001600160a01b0316816001600160a01b0316837f2f8788117e7eff1d82e926ec794901d17c78024a50270940304540a733656f0d60405160405180910390a45b5050565b6110c9806100f86000396000f3fe608060405234801561001057600080fd5b50600436106101585760003560e01c80639948b18d116100c3578063c899e39f1161007c578063c899e39f14610305578063d203e72814610318578063d547741f1461032b578063dc08706d1461033e578063de0e63cd1461037c578063fc1936451461038557600080fd5b80639948b18d14610272578063a14195a8146102c5578063a217fddf146102ce578063a9bb7c1f146102d6578063ac8555ef146102e9578063c87bed70146102fc57600080fd5b806338a173701161011557806338a17370146101fa57806358f2ef171461020d5780636290cd1c1461023a5780638ecc987e1461024357806391d148541461024c57806397b4a29e1461025f57600080fd5b806301ffc9a71461015d578063024cc72614610185578063248a9ca31461019a5780632f2ff15d146101cb5780633355a6a1146101de57806336568abe146101e7575b600080fd5b61017061016b366004610dcf565b6103ac565b60405190151581526020015b60405180910390f35b610198610193366004610e15565b6103e3565b005b6101bd6101a8366004610e5a565b60009081526020819052604090206001015490565b60405190815260200161017c565b6101986101d9366004610e73565b61052d565b6101bd60035481565b6101986101f5366004610e73565b610557565b610198610208366004610e5a565b6105d5565b6101bd61021b366004610e9f565b6001600160a01b03166000908152600160208190526040909120015490565b6101bd60045481565b6101bd60025481565b61017061025a366004610e73565b61061d565b6101bd61026d366004610eba565b610646565b6102a6610280366004610e9f565b600160208190526000918252604090912080549181015460029091015460ff9092169183565b6040805160ff909416845260208401929092529082015260600161017c565b6101bd60065481565b6101bd600081565b6101986102e4366004610e15565b610781565b6101986102f7366004610e5a565b6108f7565b6101bd60075481565b6101bd610313366004610eba565b610937565b6101bd610326366004610edc565b6109f2565b610198610339366004610e73565b610aad565b61036a61034c366004610e9f565b6001600160a01b031660009081526001602052604090205460ff1690565b60405160ff909116815260200161017c565b6101bd60055481565b6101bd7ffc5e340a927dfb90e4ea870f83d58633458b79a78fd1a48271b299ac1d6db44781565b60006001600160e01b03198216637965db0b60e01b14806103dd57506301ffc9a760e01b6001600160e01b03198316145b92915050565b7ffc5e340a927dfb90e4ea870f83d58633458b79a78fd1a48271b299ac1d6db44761040d81610ad2565b60008360ff16118015610424575060648360ff1611155b6104655760405162461bcd60e51b815260206004820152600d60248201526c696e76616c69642073636f726560981b60448201526064015b60405180910390fd5b6001600160a01b03841660009081526001602052604081208054909160ff90911690036104c65760405162461bcd60e51b815260206004820152600f60248201526e1b9bdd081a5b9a5d1a585b1a5e9959608a1b604482015260640161045c565b805460ff191660ff851690811782556001820184905542600283015560408051918252602082018590526001600160a01b038716917f18d4204980ab91f36d15cb52a910a72e3e50fb5f6deb9cab275b43d5afb9aab9910160405180910390a25050505050565b60008281526020819052604090206001015461054881610ad2565b6105528383610adf565b505050565b6001600160a01b03811633146105c75760405162461bcd60e51b815260206004820152602f60248201527f416363657373436f6e74726f6c3a2063616e206f6e6c792072656e6f756e636560448201526e103937b632b9903337b91039b2b63360891b606482015260840161045c565b6105d18282610b63565b5050565b60006105e081610ad2565b60038290556040518281527ff2ffaa40bdf5bc0b2d26fefa4f8c6cea03eac0aa7e0bc0800424dbdbd3d21028906020015b60405180910390a15050565b6000918252602082815260408084206001600160a01b0393909316845291905290205460ff1690565b6000811580610653575082155b15610660575060006103dd565b60008261066f85612710610f25565b6106799190610f3c565b905061271081111561068a57506127105b600254600454600090670de0b6b3a7640000906106a990612710610f25565b6106b39190610f3c565b90508083116106e65780836005546106cb9190610f25565b6106d59190610f3c565b6106df9083610f5e565b915061073b565b6005546106f39083610f5e565b915060006107018285610f71565b9050600061071183612710610f71565b905080826006546107229190610f25565b61072c9190610f3c565b6107369085610f5e565b935050505b600060075461271061074d9190610f71565b905060006305f5e100826107618787610f25565b61076b9190610f25565b6107759190610f3c565b98975050505050505050565b7ffc5e340a927dfb90e4ea870f83d58633458b79a78fd1a48271b299ac1d6db4476107ab81610ad2565b60008360ff161180156107c2575060648360ff1611155b6107fe5760405162461bcd60e51b815260206004820152600d60248201526c696e76616c69642073636f726560981b604482015260640161045c565b6001600160a01b03841660009081526001602052604090205460ff161561085d5760405162461bcd60e51b8152602060048201526013602482015272185b1c9958591e481a5b9a5d1a585b1a5e9959606a1b604482015260640161045c565b6040805160608101825260ff8581168083526020808401878152428587019081526001600160a01b038b1660008181526001808652908990209751885460ff1916971696909617875591519486019490945592516002909401939093558351908152918201859052917fd42e04cb40b38a318fb690e23b3d4c17bc6ca8d0e866948391fbecae41746261910160405180910390a250505050565b600061090281610ad2565b60028290556040518281527f6d03c7415b161a70a92558f9a9bfa64827f4f79bd7550dfffa9f0a24e5a61ddc90602001610611565b600081600003610949575060006103dd565b60008261095e85670de0b6b3a7640000610f25565b6109689190610f3c565b9050600454811161099657600454816005546109849190610f25565b61098e9190610f3c565b9150506103dd565b6000600454826109a69190610f71565b90506000600454670de0b6b3a76400006109c09190610f71565b905080826006546109d19190610f25565b6109db9190610f3c565b6005546109e89190610f5e565b93505050506103dd565b6001600160a01b03831660009081526001602081815260408084208151606081018352815460ff16815293810154928401929092526002909101549082015281610a3c8585610937565b825190915060ff16600003610a625780600254610a599190610f5e565b92505050610aa6565b60006064836000015160ff16600354610a7b9190610f25565b610a859190610f3c565b90508082600254610a969190610f5e565b610aa09190610f5e565b93505050505b9392505050565b600082815260208190526040902060010154610ac881610ad2565b6105528383610b63565b610adc8133610bc8565b50565b610ae9828261061d565b6105d1576000828152602081815260408083206001600160a01b03851684529091529020805460ff19166001179055610b1f3390565b6001600160a01b0316816001600160a01b0316837f2f8788117e7eff1d82e926ec794901d17c78024a50270940304540a733656f0d60405160405180910390a45050565b610b6d828261061d565b156105d1576000828152602081815260408083206001600160a01b0385168085529252808320805460ff1916905551339285917ff6391f5c32d9c69d2a47ea670b442974b53935d1edc7fd64eb21e047a839171b9190a45050565b610bd2828261061d565b6105d157610bdf81610c21565b610bea836020610c33565b604051602001610bfb929190610fa8565b60408051601f198184030181529082905262461bcd60e51b825261045c9160040161101d565b60606103dd6001600160a01b03831660145b60606000610c42836002610f25565b610c4d906002610f5e565b67ffffffffffffffff811115610c6557610c65611050565b6040519080825280601f01601f191660200182016040528015610c8f576020820181803683370190505b509050600360fc1b81600081518110610caa57610caa611066565b60200101906001600160f81b031916908160001a905350600f60fb1b81600181518110610cd957610cd9611066565b60200101906001600160f81b031916908160001a9053506000610cfd846002610f25565b610d08906001610f5e565b90505b6001811115610d80576f181899199a1a9b1b9c1cb0b131b232b360811b85600f1660108110610d3c57610d3c611066565b1a60f81b828281518110610d5257610d52611066565b60200101906001600160f81b031916908160001a90535060049490941c93610d798161107c565b9050610d0b565b508315610aa65760405162461bcd60e51b815260206004820181905260248201527f537472696e67733a20686578206c656e67746820696e73756666696369656e74604482015260640161045c565b600060208284031215610de157600080fd5b81356001600160e01b031981168114610aa657600080fd5b80356001600160a01b0381168114610e1057600080fd5b919050565b600080600060608486031215610e2a57600080fd5b610e3384610df9565b9250602084013560ff81168114610e4957600080fd5b929592945050506040919091013590565b600060208284031215610e6c57600080fd5b5035919050565b60008060408385031215610e8657600080fd5b82359150610e9660208401610df9565b90509250929050565b600060208284031215610eb157600080fd5b610aa682610df9565b60008060408385031215610ecd57600080fd5b50508035926020909101359150565b600080600060608486031215610ef157600080fd5b610efa84610df9565b95602085013595506040909401359392505050565b634e487b7160e01b600052601160045260246000fd5b80820281158282048414176103dd576103dd610f0f565b600082610f5957634e487b7160e01b600052601260045260246000fd5b500490565b808201808211156103dd576103dd610f0f565b818103818111156103dd576103dd610f0f565b60005b83811015610f9f578181015183820152602001610f87565b50506000910152565b7f416363657373436f6e74726f6c3a206163636f756e7420000000000000000000815260008351610fe0816017850160208801610f84565b7001034b99036b4b9b9b4b733903937b6329607d1b6017918401918201528351611011816028840160208801610f84565b01602801949350505050565b602081526000825180602084015261103c816040850160208701610f84565b601f01601f19169190910160400192915050565b634e487b7160e01b600052604160045260246000fd5b634e487b7160e01b600052603260045260246000fd5b60008161108b5761108b610f0f565b50600019019056fea2646970667358221220b1eb3ee6444fc3be77b9a207810f9e0855cd9e0067646d4c2d2261c1df399b7564736f6c63430008140033",
  "linkReferences": {},
  "deployedLinkReferences": {}
}