{
  "_format": "hh-sol-artifact-1",
  "contractName": "RiskEngine",
  "sourceName": "contracts/RiskEngine.sol",
  "abi": [
    {
      "inputs": [],
      "stateMutability": "nonpayable",
      "type": "constructor"
    },
    {
      "anonymous": false,
      "inputs": [
        {
          "indexed": false,
          "internalType": "uint256",
          "name": "newBaseBps",
          "type": "uint256"
        }
      ],
      "name": "BaseInterestUpdated",
      "type": "event"
    },
    {
      "anonymous": false,
      "inputs": [
        {
          "indexed": true,
          "internalType": "address",
          "name": "user",
          "type": "address"
        },
        {
          "indexed": false,
          "internalType": "uint8",
          "name": "score",
          "type": "uint8"
        },
        {
          "indexed": false,
          "internalType": "uint256",
          "name": "dailyLimit",
          "type": "uint256"
        }
      ],
      "name": "RiskInitialized",
      "type": "event"
    },
    {
      "anonymous": false,
      "inputs": [
        {
          "indexed": false,
          "internalType": "uint256",
          "name": "newSlopeBps",
          "type": "uint256"
        }
      ],
      "name": "RiskSlopeUpdated",
      "type": "event"
    },
    {
      "anonymous": false,
      "inputs": [
        {
          "indexed": true,
          "internalType": "address",
          "name": "user",
          "type": "address"
        },
        {
          "indexed": false,
          "internalType": "uint8",
          "name": "score",
          "type": "uint8"
        },
        {
          "indexed": false,
          "internalType": "uint256",
          "name": "dailyLimit",
          "type": "uint256"
        }
      ],
      "name": "RiskUpdated",
      "type": "event"
    },
    {
      "anonymous": false,
      "inputs": [
        {
          "indexed": true,
          "internalType": "bytes32",
          "name": "role",
          "type": "bytes32"
        },
        {
          "indexed": true,
          "internalType": "bytes32",
          "name": "previousAdminRole",
          "type": "bytes32"
        },
        {
          "indexed": true,
          "internalType": "bytes32",
          "name": "newAdminRole",
          "type": "bytes32"
        }
      ],
      "name": "RoleAdminChanged",
      "type": "event"
    },
    {
      "anonymous": false,
      "inputs": [
        {
          "indexed": true,
          "internalType": "bytes32",
          "name": "role",
          "type": "bytes32"
        },
        {
          "indexed": true,
          "internalType": "address",
          "name": "account",
          "type": "address"
        },
        {
          "indexed": true,
          "internalType": "address",
          "name": "sender",
          "type": "address"
        }
      ],
      "name": "RoleGranted",
      "type": "event"
    },
    {
      "anonymous": false,
      "inputs": [
        {
          "indexed": true,
          "internalType": "bytes32",
          "name": "role",
          "type": "bytes32"
        },
        {
          "indexed": true,
          "internalType": "address",
          "name": "account",
          "type": "address"
        },
        {
          "indexed": true,
          "internalType": "address",
          "name": "sender",
          "type": "address"
        }
      ],
      "name": "RoleRevoked",
      "type": "event"
    },
    {
      "inputs": [],
      "name": "DEFAULT_ADMIN_ROLE",
      "outputs": [
        {
          "internalType": "bytes32",
          "name": "",
          "type": "bytes32"
        }
      ],
      "stateMutability": "view",
      "type": "function"
    },
    {
      "inputs": [],
      "name": "RISK_OFFICER_ROLE",
      "outputs": [
        {
          "internalType": "bytes32",
          "name": "",
          "type": "bytes32"
        }
      ],
      "stateMutability": "view",
      "type": "function"
    },
    {
      "inputs": [],
      "name": "baseInterestBps",
      "outputs": [
        {
          "internalType": "uint256",
          "name": "",
          "type": "uint256"
        }
      ],
      "stateMutability": "view",
      "type": "function"
    },
    {
      "inputs": [
        {
          "internalType": "address",
          "name": "user",
          "type": "address"
        }
      ],
      "name": "getDailyLimit",
      "outputs": [
        {
          "internalType": "uint256",
          "name": "",
          "type": "uint256"
        }
      ],
      "stateMutability": "view",
      "type": "function"
    },
    {
      "inputs": [
        {
          "internalType": "address",
          "name": "user",
          "type": "address"
        }
      ],
      "name": "getInterestRateBps",
      "outputs": [
        {
          "internalType": "uint256",
          "name": "",
          "type": "uint256"
        }
      ],
      "stateMutability": "view",
      "type": "function"
    },
    {
      "inputs": [
        {
          "internalType": "address",
          "name": "user",
          "type": "address"
        }
      ],
      "name": "getRiskScore",
      "outputs": [
        {
          "internalType": "uint8",
          "name": "",
          "type": "uint8"
        }
      ],
      "stateMutability": "view",
      "type": "function"
    },
    {
      "inputs": [
        {
          "internalType": "bytes32",
          "name": "role",
          "type": "bytes32"
        }
      ],
      "name": "getRoleAdmin",
      "outputs": [
        {
          "internalType": "bytes32",
          "name": "",
          "type": "bytes32"
        }
      ],
      "stateMutability": "view",
      "type": "function"
    },
    {
      "inputs": [
        {
          "internalType": "bytes32",
          "name": "role",
          "type": "bytes32"
        },
        {
          "internalType": "address",
          "name": "account",
          "type": "address"
        }
      ],
      "name": "grantRole",
      "outputs": [],
      "stateMutability": "nonpayable",
      "type": "function"
    },
    {
      "inputs": [
        {
          "internalType": "bytes32",
          "name": "role",
          "type": "bytes32"
        },
        {
          "internalType": "address",
          "name": "account",
          "type": "address"
        }
      ],
      "name": "hasRole",
      "outputs": [
        {
          "internalType": "bool",
          "name": "",
          "type": "bool"
        }
      ],
      "stateMutability": "view",
      "type": "function"
    },
    {
      "inputs": [
        {
          "internalType": "address",
          "name": "user",
          "type": "address"
        },
        {
          "internalType": "uint8",
          "name": "score",
          "type": "uint8"
        },
        {
          "internalType": "uint256",
          "name": "dailyLimit",
          "type": "uint256"
        }
      ],
      "name": "initRisk",
      "outputs": [],
      "stateMutability": "nonpayable",
      "type": "function"
    },
    {
      "inputs": [
        {
          "internalType": "bytes32",
          "name": "role",
          "type": "bytes32"
        },
        {
          "internalType": "address",
          "name": "account",
          "type": "address"
        }
      ],
      "name": "renounceRole",
      "outputs": [],
      "stateMutability": "nonpayable",
      "type": "function"
    },
    {
      "inputs": [
        {
          "internalType": "bytes32",
          "name": "role",
          "type": "bytes32"
        },
        {
          "internalType": "address",
          "name": "account",
          "type": "address"
        }
      ],
      "name": "revokeRole",
      "outputs": [],
      "stateMutability": "nonpayable",
      "type": "function"
    },
    {
      "inputs": [
        {
          "internalType": "address",
          "name": "",
          "type": "address"
        }
      ],
      "name": "riskProfiles",
      "outputs": [
        {
          "internalType": "uint8",
          "name": "riskScore",
          "type": "uint8"
        },
        {
          "internalType": "uint256",
          "name": "dailyTransferLimit",
          "type": "uint256"
        },
        {
          "internalType": "uint256",
          "name": "lastUpdatedAt",
          "type": "uint256"
        }
      ],
      "stateMutability": "view",
      "type": "function"
    },
    {
      "inputs": [],
      "name": "riskSlopeBps",
      "outputs": [
        {
          "internalType": "uint256",
          "name": "",
          "type": "uint256"
        }
      ],
      "stateMutability": "view",
      "type": "function"
    },
    {
      "inputs": [
        {
          "internalType": "uint256",
          "name": "newBaseBps",
          "type": "uint256"
        }
      ],
      "name": "setBaseInterestBps",
      "outputs": [],
      "stateMutability": "nonpayable",
      "type": "function"
    },
    {
      "inputs": [
        {
          "internalType": "uint256",
          "name": "newSlopeBps",
          "type": "uint256"
        }
      ],
      "name": "setRiskSlopeBps",
      "outputs": [],
      "stateMutability": "nonpayable",
      "type": "function"
    },
    {
      "inputs": [
        {
          "internalType": "bytes4",
          "name": "interfaceId",
          "type": "bytes4"
        }
      ],
      "name": "supportsInterface",
      "outputs": [
        {
          "internalType": "bool",
          "name": "",
          "type": "bool"
        }
      ],
      "stateMutability": "view",
      "type": "function"
    },
    {
      "inputs": [
        {
          "internalType": "address",
          "name": "user",
          "type": "address"
        },
        {
          "internalType": "uint8",
          "name": "newScore",
          "type": "uint8"
        },
        {
          "internalType": "uint256",
          "name": "newDailyLimit",
          "type": "uint256"
        }
      ],
      "name": "updateRisk",
      "outputs": [],
      "stateMutability": "nonpayable",
      "type": "function"
    }
  ],
  "bytecode": "0x608060405261012c600255601460035534801561001b57600080fd5b5061002760003361002c565b6100cb565b6000828152602081815260408083206001600160a01b038516845290915290205460ff166100c7576000828152602081815260408083206001600160a01b03851684529091529020805460ff191660011790556100863390565b6001600160a01b0316816001600160a01b0316837f2f8788117e7eff1d82e926ec794901d17c78024a50270940304540a733656f0d60405160405180910390a45b5050565b610db5806100da6000396000f3fe608060405234801561001057600080fd5b50600436106101165760003560e01c80638ecc987e116100a2578063a9bb7c1f11610071578063a9bb7c1f14610282578063ac8555ef14610295578063d547741f146102a8578063dc08706d146102bb578063fc193645146102f957600080fd5b80638ecc987e1461020b57806391d14854146102145780639948b18d14610227578063a217fddf1461027a57600080fd5b80633355a6a1116100e95780633355a6a11461019c57806336568abe146101a557806338a17370146101b857806358f2ef17146101cb5780638904b29b146101f857600080fd5b806301ffc9a71461011b578063024cc72614610143578063248a9ca3146101585780632f2ff15d14610189575b600080fd5b61012e610129366004610b23565b610320565b60405190151581526020015b60405180910390f35b610156610151366004610b69565b610357565b005b61017b610166366004610bae565b60009081526020819052604090206001015490565b60405190815260200161013a565b610156610197366004610bc7565b6104a1565b61017b60035481565b6101566101b3366004610bc7565b6104cb565b6101566101c6366004610bae565b610549565b61017b6101d9366004610bf3565b6001600160a01b03166000908152600160208190526040909120015490565b61017b610206366004610bf3565b610591565b61017b60025481565b61012e610222366004610bc7565b61061b565b61025b610235366004610bf3565b600160208190526000918252604090912080549181015460029091015460ff9092169183565b6040805160ff909416845260208401929092529082015260600161013a565b61017b600081565b610156610290366004610b69565b610644565b6101566102a3366004610bae565b6107ba565b6101566102b6366004610bc7565b6107fa565b6102e76102c9366004610bf3565b6001600160a01b031660009081526001602052604090205460ff1690565b60405160ff909116815260200161013a565b61017b7ffc5e340a927dfb90e4ea870f83d58633458b79a78fd1a48271b299ac1d6db44781565b60006001600160e01b03198216637965db0b60e01b148061035157506301ffc9a760e01b6001600160e01b03198316145b92915050565b7ffc5e340a927dfb90e4ea870f83d58633458b79a78fd1a48271b299ac1d6db4476103818161081f565b60008360ff16118015610398575060648360ff1611155b6103d95760405162461bcd60e51b815260206004820152600d60248201526c696e76616c69642073636f726560981b60448201526064015b60405180910390fd5b6001600160a01b03841660009081526001602052604081208054909160ff909116900361043a5760405162461bcd60e51b815260206004820152600f60248201526e1b9bdd081a5b9a5d1a585b1a5e9959608a1b60448201526064016103d0565b805460ff191660ff851690811782556001820184905542600283015560408051918252602082018590526001600160a01b038716917f18d4204980ab91f36d15cb52a910a72e3e50fb5f6deb9cab275b43d5afb9aab9910160405180910390a25050505050565b6000828152602081905260409020600101546104bc8161081f565b6104c6838361082c565b505050565b6001600160a01b038116331461053b5760405162461bcd60e51b815260206004820152602f60248201527f416363657373436f6e74726f6c3a2063616e206f6e6c792072656e6f756e636560448201526e103937b632b9903337b91039b2b63360891b60648201526084016103d0565b61054582826108b0565b5050565b60006105548161081f565b60038290556040518281527ff2ffaa40bdf5bc0b2d26fefa4f8c6cea03eac0aa7e0bc0800424dbdbd3d21028906020015b60405180910390a15050565b6001600160a01b03811660009081526001602081815260408084208151606081018352815460ff16808252948201549381019390935260020154908201529082036105e0575050600254919050565b60006064826000015160ff166003546105f99190610c24565b6106039190610c3b565b9050806002546106139190610c5d565b949350505050565b6000918252602082815260408084206001600160a01b0393909316845291905290205460ff1690565b7ffc5e340a927dfb90e4ea870f83d58633458b79a78fd1a48271b299ac1d6db44761066e8161081f565b60008360ff16118015610685575060648360ff1611155b6106c15760405162461bcd60e51b815260206004820152600d60248201526c696e76616c69642073636f726560981b60448201526064016103d0565b6001600160a01b03841660009081526001602052604090205460ff16156107205760405162461bcd60e51b8152602060048201526013602482015272185b1c9958591e481a5b9a5d1a585b1a5e9959606a1b60448201526064016103d0565b6040805160608101825260ff8581168083526020808401878152428587019081526001600160a01b038b1660008181526001808652908990209751885460ff1916971696909617875591519486019490945592516002909401939093558351908152918201859052917fd42e04cb40b38a318fb690e23b3d4c17bc6ca8d0e866948391fbecae41746261910160405180910390a250505050565b60006107c58161081f565b60028290556040518281527f6d03c7415b161a70a92558f9a9bfa64827f4f79bd7550dfffa9f0a24e5a61ddc90602001610585565b6000828152602081905260409020600101546108158161081f565b6104c683836108b0565b6108298133610915565b50565b610836828261061b565b610545576000828152602081815260408083206001600160a01b03851684529091529020805460ff1916600117905561086c3390565b6001600160a01b0316816001600160a01b0316837f2f8788117e7eff1d82e926ec794901d17c78024a50270940304540a733656f0d60405160405180910390a45050565b6108ba828261061b565b15610545576000828152602081815260408083206001600160a01b0385168085529252808320805460ff1916905551339285917ff6391f5c32d9c69d2a47ea670b442974b53935d1edc7fd64eb21e047a839171b9190a45050565b61091f828261061b565b6105455761092c8161096e565b610937836020610980565b604051602001610948929190610c94565b60408051601f198184030181529082905262461bcd60e51b82526103d091600401610d09565b60606103516001600160a01b03831660145b6060600061098f836002610c24565b61099a906002610c5d565b67ffffffffffffffff8111156109b2576109b2610d3c565b6040519080825280601f01601f1916602001820160405280156109dc576020820181803683370190505b509050600360fc1b816000815181106109f7576109f7610d52565b60200101906001600160f81b031916908160001a905350600f60fb1b81600181518110610a2657610a26610d52565b60200101906001600160f81b031916908160001a9053506000610a4a846002610c24565b610a55906001610c5d565b90505b6001811115610acd576f181899199a1a9b1b9c1cb0b131b232b360811b85600f1660108110610a8957610a89610d52565b1a60f81b828281518110610a9f57610a9f610d52565b60200101906001600160f81b031916908160001a90535060049490941c93610ac681610d68565b9050610a58565b508315610b1c5760405162461bcd60e51b815260206004820181905260248201527f537472696e67733a20686578206c656e67746820696e73756666696369656e7460448201526064016103d0565b9392505050565b600060208284031215610b3557600080fd5b81356001600160e01b031981168114610b1c57600080fd5b80356001600160a01b0381168114610b6457600080fd5b919050565b600080600060608486031215610b7e57600080fd5b610b8784610b4d565b9250602084013560ff81168114610b9d57600080fd5b929592945050506040919091013590565b600060208284031215610bc057600080fd5b5035919050565b60008060408385031215610bda57600080fd5b82359150610bea60208401610b4d565b90509250929050565b600060208284031215610c0557600080fd5b610b1c82610b4d565b634e487b7160e01b600052601160045260246000fd5b808202811582820484141761035157610351610c0e565b600082610c5857634e487b7160e01b600052601260045260246000fd5b500490565b8082018082111561035157610351610c0e565b60005b83811015610c8b578181015183820152602001610c73565b50506000910152565b7f416363657373436f6e74726f6c3a206163636f756e7420000000000000000000815260008351610ccc816017850160208801610c70565b7001034b99036b4b9b9b4b733903937b6329607d1b6017918401918201528351610cfd816028840160208801610c70565b01602801949350505050565b6020815260008251806020840152610d28816040850160208701610c70565b601f01601f19169190910160400192915050565b634e487b7160e01b600052604160045260246000fd5b634e487b7160e01b600052603260045260246000fd5b600081610d7757610d77610c0e565b50600019019056fea2646970667358221220c384b159af44b71aa1da51ef0819764f21a1c7aa83efd9d0756557c446da06c864736f6c63430008140033",
  "linkReferences": {},
  "deployedLinkReferences": {}
}